{
  "contracts/DCAVault.sol": {
    "DCAVault": {
      "abi": [
        {
          "inputs": [
            {
              "internalType": "address",
              "name": "_owner",
              "type": "address"
            }
          ],
          "stateMutability": "nonpayable",
          "type": "constructor"
        },
        {
          "inputs": [],
          "name": "ReentrancyGuardReentrantCall",
          "type": "error"
        },
        {
          "inputs": [
            {
              "internalType": "address",
              "name": "token",
              "type": "address"
            }
          ],
          "name": "SafeERC20FailedOperation",
          "type": "error"
        },
        {
          "anonymous": false,
          "inputs": [
            {
              "indexed": false,
              "internalType": "uint256",
              "name": "amountSpent",
              "type": "uint256"
            },
            {
              "indexed": false,
              "internalType": "uint256",
              "name": "timestamp",
              "type": "uint256"
            }
          ],
          "name": "DCAExecuted",
          "type": "event"
        },
        {
          "anonymous": false,
          "inputs": [],
          "name": "VaultPaused",
          "type": "event"
        },
        {
          "anonymous": false,
          "inputs": [],
          "name": "VaultResumed",
          "type": "event"
        },
        {
          "anonymous": false,
          "inputs": [
            {
              "indexed": true,
              "internalType": "address",
              "name": "token",
              "type": "address"
            },
            {
              "indexed": false,
              "internalType": "uint256",
              "name": "amount",
              "type": "uint256"
            }
          ],
          "name": "Withdrawn",
          "type": "event"
        },
        {
          "inputs": [],
          "name": "active",
          "outputs": [
            {
              "internalType": "bool",
              "name": "",
              "type": "bool"
            }
          ],
          "stateMutability": "view",
          "type": "function"
        },
        {
          "inputs": [],
          "name": "buyAmount",
          "outputs": [
            {
              "internalType": "uint256",
              "name": "",
              "type": "uint256"
            }
          ],
          "stateMutability": "view",
          "type": "function"
        },
        {
          "inputs": [],
          "name": "canExecute",
          "outputs": [
            {
              "internalType": "bool",
              "name": "",
              "type": "bool"
            }
          ],
          "stateMutability": "view",
          "type": "function"
        },
        {
          "inputs": [],
          "name": "executeDCA",
          "outputs": [
            {
              "internalType": "bool",
              "name": "",
              "type": "bool"
            }
          ],
          "stateMutability": "nonpayable",
          "type": "function"
        },
        {
          "inputs": [],
          "name": "executionCount",
          "outputs": [
            {
              "internalType": "uint256",
              "name": "",
              "type": "uint256"
            }
          ],
          "stateMutability": "view",
          "type": "function"
        },
        {
          "inputs": [],
          "name": "factory",
          "outputs": [
            {
              "internalType": "address",
              "name": "",
              "type": "address"
            }
          ],
          "stateMutability": "view",
          "type": "function"
        },
        {
          "inputs": [],
          "name": "frequency",
          "outputs": [
            {
              "internalType": "uint256",
              "name": "",
              "type": "uint256"
            }
          ],
          "stateMutability": "view",
          "type": "function"
        },
        {
          "inputs": [],
          "name": "getStatus",
          "outputs": [
            {
              "internalType": "uint256",
              "name": "_buyAmount",
              "type": "uint256"
            },
            {
              "internalType": "uint256",
              "name": "_frequency",
              "type": "uint256"
            },
            {
              "internalType": "uint256",
              "name": "_lastExecution",
              "type": "uint256"
            },
            {
              "internalType": "uint256",
              "name": "_nextExecution",
              "type": "uint256"
            },
            {
              "internalType": "uint256",
              "name": "_totalInvested",
              "type": "uint256"
            },
            {
              "internalType": "uint256",
              "name": "_executionCount",
              "type": "uint256"
            },
            {
              "internalType": "bool",
              "name": "_active",
              "type": "bool"
            },
            {
              "internalType": "bool",
              "name": "_canExecute",
              "type": "bool"
            }
          ],
          "stateMutability": "view",
          "type": "function"
        },
        {
          "inputs": [
            {
              "internalType": "uint256",
              "name": "_buyAmount",
              "type": "uint256"
            },
            {
              "internalType": "uint256",
              "name": "_frequency",
              "type": "uint256"
            }
          ],
          "name": "initialize",
          "outputs": [],
          "stateMutability": "nonpayable",
          "type": "function"
        },
        {
          "inputs": [],
          "name": "lastExecution",
          "outputs": [
            {
              "internalType": "uint256",
              "name": "",
              "type": "uint256"
            }
          ],
          "stateMutability": "view",
          "type": "function"
        },
        {
          "inputs": [],
          "name": "owner",
          "outputs": [
            {
              "internalType": "address",
              "name": "",
              "type": "address"
            }
          ],
          "stateMutability": "view",
          "type": "function"
        },
        {
          "inputs": [],
          "name": "pause",
          "outputs": [],
          "stateMutability": "nonpayable",
          "type": "function"
        },
        {
          "inputs": [],
          "name": "resume",
          "outputs": [],
          "stateMutability": "nonpayable",
          "type": "function"
        },
        {
          "inputs": [],
          "name": "totalInvested",
          "outputs": [
            {
              "internalType": "uint256",
              "name": "",
              "type": "uint256"
            }
          ],
          "stateMutability": "view",
          "type": "function"
        },
        {
          "inputs": [
            {
              "internalType": "uint256",
              "name": "_buyAmount",
              "type": "uint256"
            },
            {
              "internalType": "uint256",
              "name": "_frequency",
              "type": "uint256"
            }
          ],
          "name": "updateSettings",
          "outputs": [],
          "stateMutability": "nonpayable",
          "type": "function"
        },
        {
          "inputs": [
            {
              "internalType": "address",
              "name": "token",
              "type": "address"
            },
            {
              "internalType": "uint256",
              "name": "amount",
              "type": "uint256"
            }
          ],
          "name": "withdraw",
          "outputs": [],
          "stateMutability": "nonpayable",
          "type": "function"
        },
        {
          "inputs": [
            {
              "internalType": "uint256",
              "name": "amount",
              "type": "uint256"
            }
          ],
          "name": "withdrawAVAX",
          "outputs": [],
          "stateMutability": "nonpayable",
          "type": "function"
        },
        {
          "stateMutability": "payable",
          "type": "receive"
        }
      ],
      "evm": {
        "bytecode": {
          "linkReferences": {},
          "object": "60806040523461002a576100196100146100c2565b6101a8565b60405161111c61027b823961111c90f35b600080fd5b634e487b7160e01b600052604160045260246000fd5b90601f01601f191681019081106001600160401b0382111761006657604052565b61002f565b9061007f61007860405190565b9283610045565b565b6001600160a01b031690565b90565b6001600160a01b0381160361002a57565b9050519061007f82610090565b9060208282031261002a5761008d916100a1565b61008d611397803803806100d58161006b565b9283398101906100ae565b61008161008d61008d9290565b61008d906100e0565b156100fd57565b60405162461bcd60e51b815260206004820152600d60248201526c24b73b30b634b21037bbb732b960991b6044820152606490fd5b906001600160a01b03905b9181191691161790565b61008d90610081906001600160a01b031682565b61008d90610147565b61008d9061015b565b9061017d61008d61018492610164565b8254610132565b9055565b9060ff9061013d565b906101a161008d61018492151590565b8254610188565b6101dc906101b461022b565b6101d56101c461008160006100ed565b6001600160a01b03831614156100f6565b600061016d565b6101e733600161016d565b61007f60016007610191565b61008d61008d61008d9290565b61008d60016101f3565b906000199061013d565b9061022461008d610184926101f3565b825461020a565b61007f610236610200565b600061024361008d610272565b01610214565b61008d7f9b779b17422d0df92223018b32b4d1fa46e071723d6817e2486d003becc55f006101f3565b61008d61024956fe6080604052600436101561001b575b361561001957600080fd5b005b60003560e01c8063015af8ee1461012b57806302fb0c5e14610126578063046f7da2146101215780631fa705311461011c5780634e69d560146101175780635216aeec1461011257806378b903371461010d5780638456cb59146101085780638da5cb5b14610103578063950da287146100fe578063a17ecef3146100f9578063aeb5cd5e146100f4578063b7fc3e51146100ef578063c45a0155146100ea578063e4a30116146100e5578063ead50da3146100e05763f3fef3a30361000e576104ca565b61047d565b610458565b61043d565b610416565b6103f2565b6103c3565b61039c565b610375565b610319565b6102fe565b6102e3565b6102a0565b610232565b6101f8565b6101cb565b610173565b805b0361013957565b600080fd5b9050359061014b82610130565b565b919060408382031261013957610170906020610169828661013e565b940161013e565b90565b346101395761018c61018636600461014d565b90610654565b60405180805b0390f35b600091031261013957565b610170916008021c5b60ff1690565b9061017091546101a1565b610170600060076101b0565b9052565b34610139576101db366004610196565b6101926101e66101bb565b60405191829182901515815260200190565b3461013957610208366004610196565b61018c61073b565b610170916008021c81565b906101709154610210565b6101706000600261021b565b3461013957610242366004610196565b61019261024d610226565b6040515b9182918290815260200190565b908152610100810198979690959094909390929091602087015260408601526060850152608084015260a0830152151560c082015260e00161014b9115159052565b34610139576102b0366004610196565b6101926102bb61077c565b946102ce98969894919493929360405190565b9889988961025e565b6101706000600561021b565b34610139576102f3366004610196565b61019261024d6102d7565b346101395761030e366004610196565b6101926101e6610812565b3461013957610329366004610196565b61018c6108d8565b610170916008021c5b6001600160a01b031690565b906101709154610331565b610170600080610346565b6101c79061033a565b60208101929161014b919061035c565b3461013957610385366004610196565b610192610390610351565b60405191829182610365565b34610139576103ac366004610196565b6101926101e6610aae565b6101706000600661021b565b34610139576103d3366004610196565b61019261024d6103b7565b90602082820312610139576101709161013e565b346101395761018c6104053660046103de565b610d38565b6101706000600461021b565b3461013957610426366004610196565b61019261024d61040a565b61017060006001610346565b346101395761044d366004610196565b610192610390610431565b346101395761018c61046b36600461014d565b90610dea565b6101706000600361021b565b346101395761048d366004610196565b61019261024d610471565b6101328161033a565b9050359061014b82610498565b91906040838203126101395761017090602061016982866104a1565b346101395761018c6104dd3660046104ae565b90610f74565b6101709061033a565b61017090546104e3565b156104fd57565b60405162461bcd60e51b815260206004820152600a60248201526927b7363c9037bbb732b960b11b6044820152606490fd5b9061014b9161055861054961054460006104ec565b61033a565b6105523361033a565b146104f6565b610616565b6101706101706101709290565b1561057157565b60405162461bcd60e51b8152602060048201526012602482015271125b9d985b1a5908189d5e48185b5bdd5b9d60721b6044820152606490fd5b156105b257565b60405162461bcd60e51b8152602060048201526011602482015270496e76616c6964206672657175656e637960781b6044820152606490fd5b90600019905b9181191691161790565b9061060b6101706106129261055d565b82546105eb565b9055565b9061064d61014b9261063261062b600061055d565b821161056a565b61064661063f600061055d565b84116105ab565b60026105fb565b60036105fb565b9061014b9161052f565b61066e61054961054460006104ec565b61014b6106e6565b610170906101aa565b6101709054610676565b1561069057565b60405162461bcd60e51b815260206004820152600e60248201526d416c72656164792061637469766560901b6044820152606490fd5b9060ff906105f1565b906106df61017061061292151590565b82546106c6565b6106ff6106fa6106f6600761067f565b1590565b610689565b61070b600160076106cf565b7f24bbfa46317916d25bbe66f8089a3529e508cac063113c9162ea96f3bc4642ce61073560405190565b600090a1565b61014b61065e565b6101709081565b6101709054610743565b634e487b7160e01b600052601160045260246000fd5b9190820180921161077757565b610754565b610786600261074a565b90610791600361074a565b9161079c600461074a565b916107ba6107aa600461074a565b6107b4600361074a565b9061076a565b916107c5600561074a565b916107d0600661074a565b916107db600761067f565b916107e6600761067f565b91826107f7575b9796959493929190565b91506108096101706107aa600461074a565b421015916107ed565b61081c600761067f565b806108245790565b506108356101706107aa600461074a565b42101590565b61084b61054961054460006104ec565b61014b610890565b1561085a57565b60405162461bcd60e51b815260206004820152600e60248201526d105b1c9958591e481c185d5cd95960921b6044820152606490fd5b6108a261089d600761067f565b610853565b6108ae600060076106cf565b7fda9f8b34d443b240f8cc4c9cc013a7723b45924b823bd142ae3b3d79c371eb7c61073560405190565b61014b61083b565b156108e757565b60405162461bcd60e51b815260206004820152600c60248201526b4f6e6c7920666163746f727960a01b6044820152606490fd5b6101709061093e61092f61054460016104ec565b6109383361033a565b146108e0565b61094f9061094a610f88565b6109ef565b9061014b610fb8565b1561095f57565b60405162461bcd60e51b815260206004820152600f60248201526e15985d5b1d081a5cc81c185d5cd959608a1b6044820152606490fd5b1561099d57565b60405162461bcd60e51b81526020600482015260086024820152672a37b79039b7b7b760c11b6044820152606490fd5b60001981146107775760010190565b90815260408101929161014b9160200152565b50610a026109fd600761067f565b610958565b610a1d610a156101706107aa600461074a565b421015610996565b610a39610a32610a2d600661074a565b6109cd565b60066105fb565b610a444260046105fb565b610a6a610a63610a54600261074a565b610a5e600561074a565b61076a565b60056105fb565b7f2d34647a20ca77c2e73db80e924f221793f95460c4a41be3e7a73fa3db2268b7610aa6610a98600261074a565b6040519182914290836109dc565b0390a1600190565b610170600061091b565b61014b90610acc61054961054460006104ec565b610add90610ad8610f88565b610c94565b61014b610fb8565b15610aec57565b60405162461bcd60e51b815260206004820152601760248201527f416d6f756e74206d75737420626520706f7369746976650000000000000000006044820152606490fd5b6101709061033a906001600160a01b031682565b61017090610b31565b61017090610b45565b15610b5e57565b60405162461bcd60e51b8152602060048201526011602482015270092dce6eaccccd2c6d2cadce84082ac82b607b1b6044820152606490fd5b634e487b7160e01b600052604160045260246000fd5b90601f01601f1916810190811067ffffffffffffffff821117610bcf57604052565b610b97565b9061014b610be160405190565b9283610bad565b67ffffffffffffffff8111610bcf57602090601f01601f19160190565b90610c17610c1283610be8565b610bd4565b918252565b3d15610c3657610c2b3d610c05565b903d6000602084013e565b606090565b15610c4257565b60405162461bcd60e51b815260206004820152601460248201527310559056081d1c985b9cd9995c8819985a5b195960621b6044820152606490fd5b61033a6101706101709290565b61017090610c7e565b7f7084f5476618d8e60b11ef0d7d3f06914655adb8793e28ff7f018d4c76d505d5610d33610d29610d076000610cd4610ccc8261055d565b875b11610ae5565b610cf3610ce030610b4e565b879031610cec565b9190565b1015610b57565b610d248180610d0c610d07610d07836104ec565b610b4e565b6040516000918b905af1610d1e610c1c565b50610c3b565b610c8b565b9261025160405190565b0390a2565b61014b90610ab8565b9061014b91610d5661092f61054460016104ec565b610d9d565b15610d6257565b60405162461bcd60e51b8152602060048201526013602482015272105b1c9958591e481a5b9a5d1a585b1a5e9959606a1b6044820152606490fd5b9061064d610ddf92610db261062b600061055d565b610dbf61063f600061055d565b610646610dcc600261074a565b610dd9610ce8600061055d565b14610d5b565b61014b4260046105fb565b9061014b91610d41565b9061014b91610e0961054961054460006104ec565b90610add91610e16610f88565b610e8b565b9050519061014b82610130565b906020828203126101395761017091610e1b565b6040513d6000823e3d90fd5b15610e4f57565b60405162461bcd60e51b8152602060048201526014602482015273496e73756666696369656e742062616c616e636560601b6044820152606490fd5b610ee390610ea2610e9c600061055d565b84610cce565b610eab81610b4e565b6020610eb682610b4e565b610ebf30610b4e565b90610ec960405190565b958692839182916370a0823160e01b835260048301610365565b03915afa918215610f6f57610d0785610d2993610f30610d33967f7084f5476618d8e60b11ef0d7d3f06914655adb8793e28ff7f018d4c76d505d598600091610f40575b50831115610e48565b610f3a60006104ec565b90610fc3565b610f62915060203d602011610f68575b610f5a8183610bad565b810190610e28565b38610f27565b503d610f50565b610e3c565b9061014b91610df4565b610170600261055d565b610f90611001565b61014b610f9b610f7e565b6000610fa861017061104a565b016105fb565b610170600161055d565b61014b610f9b610fae565b9160016106f691610fd49385611052565b610fdb5750565b610ffc610fe9600092610b4e565b635274afe760e01b835260048301610365565b036000fd5b6110096110be565b61100f57565b633ee5aeb560e01b6000908152600490fd5b6101707f9b779b17422d0df92223018b32b4d1fa46e071723d6817e2486d003becc55f0061055d565b610170611021565b60405163a9059cbb60e01b60009081526001600160a01b039093166004526024939093529293929060209060448180855af19360016000511485161561109a575b5050604052565b84929415166110b4576000903b113d151616913880611093565b833d6000823e3d90fd5b6110d460006110ce61017061104a565b0161074a565b6110e2610ce8610170610f7e565b149056fea26469706673582212203685d79e640dfd60281029e36ca8bbf6c8fa30643275bde6f46878c75ebcfd0864736f6c634300081c0033",
          "opcodes": "PUSH1 0x80 PUSH1 0x40 MSTORE CALLVALUE PUSH2 0x2A JUMPI PUSH2 0x19 PUSH2 0x14 PUSH2 0xC2 JUMP JUMPDEST PUSH2 0x1A8 JUMP JUMPDEST PUSH1 0x40 MLOAD PUSH2 0x111C PUSH2 0x27B DUP3 CODECOPY PUSH2 0x111C SWAP1 RETURN JUMPDEST PUSH1 0x0 DUP1 REVERT JUMPDEST PUSH4 0x4E487B71 PUSH1 0xE0 SHL PUSH1 0x0 MSTORE PUSH1 0x41 PUSH1 0x4 MSTORE PUSH1 0x24 PUSH1 0x0 REVERT JUMPDEST SWAP1 PUSH1 0x1F ADD PUSH1 0x1F NOT AND DUP2 ADD SWAP1 DUP2 LT PUSH1 0x1 PUSH1 0x1 PUSH1 0x40 SHL SUB DUP3 GT OR PUSH2 0x66 JUMPI PUSH1 0x40 MSTORE JUMP JUMPDEST PUSH2 0x2F JUMP JUMPDEST SWAP1 PUSH2 0x7F PUSH2 0x78 PUSH1 0x40 MLOAD SWAP1 JUMP JUMPDEST SWAP3 DUP4 PUSH2 0x45 JUMP JUMPDEST JUMP JUMPDEST PUSH1 0x1 PUSH1 0x1 PUSH1 0xA0 SHL SUB AND SWAP1 JUMP JUMPDEST SWAP1 JUMP JUMPDEST PUSH1 0x1 PUSH1 0x1 PUSH1 0xA0 SHL SUB DUP2 AND SUB PUSH2 0x2A JUMPI JUMP JUMPDEST SWAP1 POP MLOAD SWAP1 PUSH2 0x7F DUP3 PUSH2 0x90 JUMP JUMPDEST SWAP1 PUSH1 0x20 DUP3 DUP3 SUB SLT PUSH2 0x2A JUMPI PUSH2 0x8D SWAP2 PUSH2 0xA1 JUMP JUMPDEST PUSH2 0x8D PUSH2 0x1397 DUP1 CODESIZE SUB DUP1 PUSH2 0xD5 DUP2 PUSH2 0x6B JUMP JUMPDEST SWAP3 DUP4 CODECOPY DUP2 ADD SWAP1 PUSH2 0xAE JUMP JUMPDEST PUSH2 0x81 PUSH2 0x8D PUSH2 0x8D SWAP3 SWAP1 JUMP JUMPDEST PUSH2 0x8D SWAP1 PUSH2 0xE0 JUMP JUMPDEST ISZERO PUSH2 0xFD JUMPI JUMP JUMPDEST PUSH1 0x40 MLOAD PUSH3 0x461BCD PUSH1 0xE5 SHL DUP2 MSTORE PUSH1 0x20 PUSH1 0x4 DUP3 ADD MSTORE PUSH1 0xD PUSH1 0x24 DUP3 ADD MSTORE PUSH13 0x24B73B30B634B21037BBB732B9 PUSH1 0x99 SHL PUSH1 0x44 DUP3 ADD MSTORE PUSH1 0x64 SWAP1 REVERT JUMPDEST SWAP1 PUSH1 0x1 PUSH1 0x1 PUSH1 0xA0 SHL SUB SWAP1 JUMPDEST SWAP2 DUP2 NOT AND SWAP2 AND OR SWAP1 JUMP JUMPDEST PUSH2 0x8D SWAP1 PUSH2 0x81 SWAP1 PUSH1 0x1 PUSH1 0x1 PUSH1 0xA0 SHL SUB AND DUP3 JUMP JUMPDEST PUSH2 0x8D SWAP1 PUSH2 0x147 JUMP JUMPDEST PUSH2 0x8D SWAP1 PUSH2 0x15B JUMP JUMPDEST SWAP1 PUSH2 0x17D PUSH2 0x8D PUSH2 0x184 SWAP3 PUSH2 0x164 JUMP JUMPDEST DUP3 SLOAD PUSH2 0x132 JUMP JUMPDEST SWAP1 SSTORE JUMP JUMPDEST SWAP1 PUSH1 0xFF SWAP1 PUSH2 0x13D JUMP JUMPDEST SWAP1 PUSH2 0x1A1 PUSH2 0x8D PUSH2 0x184 SWAP3 ISZERO ISZERO SWAP1 JUMP JUMPDEST DUP3 SLOAD PUSH2 0x188 JUMP JUMPDEST PUSH2 0x1DC SWAP1 PUSH2 0x1B4 PUSH2 0x22B JUMP JUMPDEST PUSH2 0x1D5 PUSH2 0x1C4 PUSH2 0x81 PUSH1 0x0 PUSH2 0xED JUMP JUMPDEST PUSH1 0x1 PUSH1 0x1 PUSH1 0xA0 SHL SUB DUP4 AND EQ ISZERO PUSH2 0xF6 JUMP JUMPDEST PUSH1 0x0 PUSH2 0x16D JUMP JUMPDEST PUSH2 0x1E7 CALLER PUSH1 0x1 PUSH2 0x16D JUMP JUMPDEST PUSH2 0x7F PUSH1 0x1 PUSH1 0x7 PUSH2 0x191 JUMP JUMPDEST PUSH2 0x8D PUSH2 0x8D PUSH2 0x8D SWAP3 SWAP1 JUMP JUMPDEST PUSH2 0x8D PUSH1 0x1 PUSH2 0x1F3 JUMP JUMPDEST SWAP1 PUSH1 0x0 NOT SWAP1 PUSH2 0x13D JUMP JUMPDEST SWAP1 PUSH2 0x224 PUSH2 0x8D PUSH2 0x184 SWAP3 PUSH2 0x1F3 JUMP JUMPDEST DUP3 SLOAD PUSH2 0x20A JUMP JUMPDEST PUSH2 0x7F PUSH2 0x236 PUSH2 0x200 JUMP JUMPDEST PUSH1 0x0 PUSH2 0x243 PUSH2 0x8D PUSH2 0x272 JUMP JUMPDEST ADD PUSH2 0x214 JUMP JUMPDEST PUSH2 0x8D PUSH32 0x9B779B17422D0DF92223018B32B4D1FA46E071723D6817E2486D003BECC55F00 PUSH2 0x1F3 JUMP JUMPDEST PUSH2 0x8D PUSH2 0x249 JUMP INVALID PUSH1 0x80 PUSH1 0x40 MSTORE PUSH1 0x4 CALLDATASIZE LT ISZERO PUSH2 0x1B JUMPI JUMPDEST CALLDATASIZE ISZERO PUSH2 0x19 JUMPI PUSH1 0x0 DUP1 REVERT JUMPDEST STOP JUMPDEST PUSH1 0x0 CALLDATALOAD PUSH1 0xE0 SHR DUP1 PUSH4 0x15AF8EE EQ PUSH2 0x12B JUMPI DUP1 PUSH4 0x2FB0C5E EQ PUSH2 0x126 JUMPI DUP1 PUSH4 0x46F7DA2 EQ PUSH2 0x121 JUMPI DUP1 PUSH4 0x1FA70531 EQ PUSH2 0x11C JUMPI DUP1 PUSH4 0x4E69D560 EQ PUSH2 0x117 JUMPI DUP1 PUSH4 0x5216AEEC EQ PUSH2 0x112 JUMPI DUP1 PUSH4 0x78B90337 EQ PUSH2 0x10D JUMPI DUP1 PUSH4 0x8456CB59 EQ PUSH2 0x108 JUMPI DUP1 PUSH4 0x8DA5CB5B EQ PUSH2 0x103 JUMPI DUP1 PUSH4 0x950DA287 EQ PUSH2 0xFE JUMPI DUP1 PUSH4 0xA17ECEF3 EQ PUSH2 0xF9 JUMPI DUP1 PUSH4 0xAEB5CD5E EQ PUSH2 0xF4 JUMPI DUP1 PUSH4 0xB7FC3E51 EQ PUSH2 0xEF JUMPI DUP1 PUSH4 0xC45A0155 EQ PUSH2 0xEA JUMPI DUP1 PUSH4 0xE4A30116 EQ PUSH2 0xE5 JUMPI DUP1 PUSH4 0xEAD50DA3 EQ PUSH2 0xE0 JUMPI PUSH4 0xF3FEF3A3 SUB PUSH2 0xE JUMPI PUSH2 0x4CA JUMP JUMPDEST PUSH2 0x47D JUMP JUMPDEST PUSH2 0x458 JUMP JUMPDEST PUSH2 0x43D JUMP JUMPDEST PUSH2 0x416 JUMP JUMPDEST PUSH2 0x3F2 JUMP JUMPDEST PUSH2 0x3C3 JUMP JUMPDEST PUSH2 0x39C JUMP JUMPDEST PUSH2 0x375 JUMP JUMPDEST PUSH2 0x319 JUMP JUMPDEST PUSH2 0x2FE JUMP JUMPDEST PUSH2 0x2E3 JUMP JUMPDEST PUSH2 0x2A0 JUMP JUMPDEST PUSH2 0x232 JUMP JUMPDEST PUSH2 0x1F8 JUMP JUMPDEST PUSH2 0x1CB JUMP JUMPDEST PUSH2 0x173 JUMP JUMPDEST DUP1 JUMPDEST SUB PUSH2 0x139 JUMPI JUMP JUMPDEST PUSH1 0x0 DUP1 REVERT JUMPDEST SWAP1 POP CALLDATALOAD SWAP1 PUSH2 0x14B DUP3 PUSH2 0x130 JUMP JUMPDEST JUMP JUMPDEST SWAP2 SWAP1 PUSH1 0x40 DUP4 DUP3 SUB SLT PUSH2 0x139 JUMPI PUSH2 0x170 SWAP1 PUSH1 0x20 PUSH2 0x169 DUP3 DUP7 PUSH2 0x13E JUMP JUMPDEST SWAP5 ADD PUSH2 0x13E JUMP JUMPDEST SWAP1 JUMP JUMPDEST CALLVALUE PUSH2 0x139 JUMPI PUSH2 0x18C PUSH2 0x186 CALLDATASIZE PUSH1 0x4 PUSH2 0x14D JUMP JUMPDEST SWAP1 PUSH2 0x654 JUMP JUMPDEST PUSH1 0x40 MLOAD DUP1 DUP1 JUMPDEST SUB SWAP1 RETURN JUMPDEST PUSH1 0x0 SWAP2 SUB SLT PUSH2 0x139 JUMPI JUMP JUMPDEST PUSH2 0x170 SWAP2 PUSH1 0x8 MUL SHR JUMPDEST PUSH1 0xFF AND SWAP1 JUMP JUMPDEST SWAP1 PUSH2 0x170 SWAP2 SLOAD PUSH2 0x1A1 JUMP JUMPDEST PUSH2 0x170 PUSH1 0x0 PUSH1 0x7 PUSH2 0x1B0 JUMP JUMPDEST SWAP1 MSTORE JUMP JUMPDEST CALLVALUE PUSH2 0x139 JUMPI PUSH2 0x1DB CALLDATASIZE PUSH1 0x4 PUSH2 0x196 JUMP JUMPDEST PUSH2 0x192 PUSH2 0x1E6 PUSH2 0x1BB JUMP JUMPDEST PUSH1 0x40 MLOAD SWAP2 DUP3 SWAP2 DUP3 SWAP1 ISZERO ISZERO DUP2 MSTORE PUSH1 0x20 ADD SWAP1 JUMP JUMPDEST CALLVALUE PUSH2 0x139 JUMPI PUSH2 0x208 CALLDATASIZE PUSH1 0x4 PUSH2 0x196 JUMP JUMPDEST PUSH2 0x18C PUSH2 0x73B JUMP JUMPDEST PUSH2 0x170 SWAP2 PUSH1 0x8 MUL SHR DUP2 JUMP JUMPDEST SWAP1 PUSH2 0x170 SWAP2 SLOAD PUSH2 0x210 JUMP JUMPDEST PUSH2 0x170 PUSH1 0x0 PUSH1 0x2 PUSH2 0x21B JUMP JUMPDEST CALLVALUE PUSH2 0x139 JUMPI PUSH2 0x242 CALLDATASIZE PUSH1 0x4 PUSH2 0x196 JUMP JUMPDEST PUSH2 0x192 PUSH2 0x24D PUSH2 0x226 JUMP JUMPDEST PUSH1 0x40 MLOAD JUMPDEST SWAP2 DUP3 SWAP2 DUP3 SWAP1 DUP2 MSTORE PUSH1 0x20 ADD SWAP1 JUMP JUMPDEST SWAP1 DUP2 MSTORE PUSH2 0x100 DUP2 ADD SWAP9 SWAP8 SWAP7 SWAP1 SWAP6 SWAP1 SWAP5 SWAP1 SWAP4 SWAP1 SWAP3 SWAP1 SWAP2 PUSH1 0x20 DUP8 ADD MSTORE PUSH1 0x40 DUP7 ADD MSTORE PUSH1 0x60 DUP6 ADD MSTORE PUSH1 0x80 DUP5 ADD MSTORE PUSH1 0xA0 DUP4 ADD MSTORE ISZERO ISZERO PUSH1 0xC0 DUP3 ADD MSTORE PUSH1 0xE0 ADD PUSH2 0x14B SWAP2 ISZERO ISZERO SWAP1 MSTORE JUMP JUMPDEST CALLVALUE PUSH2 0x139 JUMPI PUSH2 0x2B0 CALLDATASIZE PUSH1 0x4 PUSH2 0x196 JUMP JUMPDEST PUSH2 0x192 PUSH2 0x2BB PUSH2 0x77C JUMP JUMPDEST SWAP5 PUSH2 0x2CE SWAP9 SWAP7 SWAP9 SWAP5 SWAP2 SWAP5 SWAP4 SWAP3 SWAP4 PUSH1 0x40 MLOAD SWAP1 JUMP JUMPDEST SWAP9 DUP10 SWAP9 DUP10 PUSH2 0x25E JUMP JUMPDEST PUSH2 0x170 PUSH1 0x0 PUSH1 0x5 PUSH2 0x21B JUMP JUMPDEST CALLVALUE PUSH2 0x139 JUMPI PUSH2 0x2F3 CALLDATASIZE PUSH1 0x4 PUSH2 0x196 JUMP JUMPDEST PUSH2 0x192 PUSH2 0x24D PUSH2 0x2D7 JUMP JUMPDEST CALLVALUE PUSH2 0x139 JUMPI PUSH2 0x30E CALLDATASIZE PUSH1 0x4 PUSH2 0x196 JUMP JUMPDEST PUSH2 0x192 PUSH2 0x1E6 PUSH2 0x812 JUMP JUMPDEST CALLVALUE PUSH2 0x139 JUMPI PUSH2 0x329 CALLDATASIZE PUSH1 0x4 PUSH2 0x196 JUMP JUMPDEST PUSH2 0x18C PUSH2 0x8D8 JUMP JUMPDEST PUSH2 0x170 SWAP2 PUSH1 0x8 MUL SHR JUMPDEST PUSH1 0x1 PUSH1 0x1 PUSH1 0xA0 SHL SUB AND SWAP1 JUMP JUMPDEST SWAP1 PUSH2 0x170 SWAP2 SLOAD PUSH2 0x331 JUMP JUMPDEST PUSH2 0x170 PUSH1 0x0 DUP1 PUSH2 0x346 JUMP JUMPDEST PUSH2 0x1C7 SWAP1 PUSH2 0x33A JUMP JUMPDEST PUSH1 0x20 DUP2 ADD SWAP3 SWAP2 PUSH2 0x14B SWAP2 SWAP1 PUSH2 0x35C JUMP JUMPDEST CALLVALUE PUSH2 0x139 JUMPI PUSH2 0x385 CALLDATASIZE PUSH1 0x4 PUSH2 0x196 JUMP JUMPDEST PUSH2 0x192 PUSH2 0x390 PUSH2 0x351 JUMP JUMPDEST PUSH1 0x40 MLOAD SWAP2 DUP3 SWAP2 DUP3 PUSH2 0x365 JUMP JUMPDEST CALLVALUE PUSH2 0x139 JUMPI PUSH2 0x3AC CALLDATASIZE PUSH1 0x4 PUSH2 0x196 JUMP JUMPDEST PUSH2 0x192 PUSH2 0x1E6 PUSH2 0xAAE JUMP JUMPDEST PUSH2 0x170 PUSH1 0x0 PUSH1 0x6 PUSH2 0x21B JUMP JUMPDEST CALLVALUE PUSH2 0x139 JUMPI PUSH2 0x3D3 CALLDATASIZE PUSH1 0x4 PUSH2 0x196 JUMP JUMPDEST PUSH2 0x192 PUSH2 0x24D PUSH2 0x3B7 JUMP JUMPDEST SWAP1 PUSH1 0x20 DUP3 DUP3 SUB SLT PUSH2 0x139 JUMPI PUSH2 0x170 SWAP2 PUSH2 0x13E JUMP JUMPDEST CALLVALUE PUSH2 0x139 JUMPI PUSH2 0x18C PUSH2 0x405 CALLDATASIZE PUSH1 0x4 PUSH2 0x3DE JUMP JUMPDEST PUSH2 0xD38 JUMP JUMPDEST PUSH2 0x170 PUSH1 0x0 PUSH1 0x4 PUSH2 0x21B JUMP JUMPDEST CALLVALUE PUSH2 0x139 JUMPI PUSH2 0x426 CALLDATASIZE PUSH1 0x4 PUSH2 0x196 JUMP JUMPDEST PUSH2 0x192 PUSH2 0x24D PUSH2 0x40A JUMP JUMPDEST PUSH2 0x170 PUSH1 0x0 PUSH1 0x1 PUSH2 0x346 JUMP JUMPDEST CALLVALUE PUSH2 0x139 JUMPI PUSH2 0x44D CALLDATASIZE PUSH1 0x4 PUSH2 0x196 JUMP JUMPDEST PUSH2 0x192 PUSH2 0x390 PUSH2 0x431 JUMP JUMPDEST CALLVALUE PUSH2 0x139 JUMPI PUSH2 0x18C PUSH2 0x46B CALLDATASIZE PUSH1 0x4 PUSH2 0x14D JUMP JUMPDEST SWAP1 PUSH2 0xDEA JUMP JUMPDEST PUSH2 0x170 PUSH1 0x0 PUSH1 0x3 PUSH2 0x21B JUMP JUMPDEST CALLVALUE PUSH2 0x139 JUMPI PUSH2 0x48D CALLDATASIZE PUSH1 0x4 PUSH2 0x196 JUMP JUMPDEST PUSH2 0x192 PUSH2 0x24D PUSH2 0x471 JUMP JUMPDEST PUSH2 0x132 DUP2 PUSH2 0x33A JUMP JUMPDEST SWAP1 POP CALLDATALOAD SWAP1 PUSH2 0x14B DUP3 PUSH2 0x498 JUMP JUMPDEST SWAP2 SWAP1 PUSH1 0x40 DUP4 DUP3 SUB SLT PUSH2 0x139 JUMPI PUSH2 0x170 SWAP1 PUSH1 0x20 PUSH2 0x169 DUP3 DUP7 PUSH2 0x4A1 JUMP JUMPDEST CALLVALUE PUSH2 0x139 JUMPI PUSH2 0x18C PUSH2 0x4DD CALLDATASIZE PUSH1 0x4 PUSH2 0x4AE JUMP JUMPDEST SWAP1 PUSH2 0xF74 JUMP JUMPDEST PUSH2 0x170 SWAP1 PUSH2 0x33A JUMP JUMPDEST PUSH2 0x170 SWAP1 SLOAD PUSH2 0x4E3 JUMP JUMPDEST ISZERO PUSH2 0x4FD JUMPI JUMP JUMPDEST PUSH1 0x40 MLOAD PUSH3 0x461BCD PUSH1 0xE5 SHL DUP2 MSTORE PUSH1 0x20 PUSH1 0x4 DUP3 ADD MSTORE PUSH1 0xA PUSH1 0x24 DUP3 ADD MSTORE PUSH10 0x27B7363C9037BBB732B9 PUSH1 0xB1 SHL PUSH1 0x44 DUP3 ADD MSTORE PUSH1 0x64 SWAP1 REVERT JUMPDEST SWAP1 PUSH2 0x14B SWAP2 PUSH2 0x558 PUSH2 0x549 PUSH2 0x544 PUSH1 0x0 PUSH2 0x4EC JUMP JUMPDEST PUSH2 0x33A JUMP JUMPDEST PUSH2 0x552 CALLER PUSH2 0x33A JUMP JUMPDEST EQ PUSH2 0x4F6 JUMP JUMPDEST PUSH2 0x616 JUMP JUMPDEST PUSH2 0x170 PUSH2 0x170 PUSH2 0x170 SWAP3 SWAP1 JUMP JUMPDEST ISZERO PUSH2 0x571 JUMPI JUMP JUMPDEST PUSH1 0x40 MLOAD PUSH3 0x461BCD PUSH1 0xE5 SHL DUP2 MSTORE PUSH1 0x20 PUSH1 0x4 DUP3 ADD MSTORE PUSH1 0x12 PUSH1 0x24 DUP3 ADD MSTORE PUSH18 0x125B9D985B1A5908189D5E48185B5BDD5B9D PUSH1 0x72 SHL PUSH1 0x44 DUP3 ADD MSTORE PUSH1 0x64 SWAP1 REVERT JUMPDEST ISZERO PUSH2 0x5B2 JUMPI JUMP JUMPDEST PUSH1 0x40 MLOAD PUSH3 0x461BCD PUSH1 0xE5 SHL DUP2 MSTORE PUSH1 0x20 PUSH1 0x4 DUP3 ADD MSTORE PUSH1 0x11 PUSH1 0x24 DUP3 ADD MSTORE PUSH17 0x496E76616C6964206672657175656E6379 PUSH1 0x78 SHL PUSH1 0x44 DUP3 ADD MSTORE PUSH1 0x64 SWAP1 REVERT JUMPDEST SWAP1 PUSH1 0x0 NOT SWAP1 JUMPDEST SWAP2 DUP2 NOT AND SWAP2 AND OR SWAP1 JUMP JUMPDEST SWAP1 PUSH2 0x60B PUSH2 0x170 PUSH2 0x612 SWAP3 PUSH2 0x55D JUMP JUMPDEST DUP3 SLOAD PUSH2 0x5EB JUMP JUMPDEST SWAP1 SSTORE JUMP JUMPDEST SWAP1 PUSH2 0x64D PUSH2 0x14B SWAP3 PUSH2 0x632 PUSH2 0x62B PUSH1 0x0 PUSH2 0x55D JUMP JUMPDEST DUP3 GT PUSH2 0x56A JUMP JUMPDEST PUSH2 0x646 PUSH2 0x63F PUSH1 0x0 PUSH2 0x55D JUMP JUMPDEST DUP5 GT PUSH2 0x5AB JUMP JUMPDEST PUSH1 0x2 PUSH2 0x5FB JUMP JUMPDEST PUSH1 0x3 PUSH2 0x5FB JUMP JUMPDEST SWAP1 PUSH2 0x14B SWAP2 PUSH2 0x52F JUMP JUMPDEST PUSH2 0x66E PUSH2 0x549 PUSH2 0x544 PUSH1 0x0 PUSH2 0x4EC JUMP JUMPDEST PUSH2 0x14B PUSH2 0x6E6 JUMP JUMPDEST PUSH2 0x170 SWAP1 PUSH2 0x1AA JUMP JUMPDEST PUSH2 0x170 SWAP1 SLOAD PUSH2 0x676 JUMP JUMPDEST ISZERO PUSH2 0x690 JUMPI JUMP JUMPDEST PUSH1 0x40 MLOAD PUSH3 0x461BCD PUSH1 0xE5 SHL DUP2 MSTORE PUSH1 0x20 PUSH1 0x4 DUP3 ADD MSTORE PUSH1 0xE PUSH1 0x24 DUP3 ADD MSTORE PUSH14 0x416C726561647920616374697665 PUSH1 0x90 SHL PUSH1 0x44 DUP3 ADD MSTORE PUSH1 0x64 SWAP1 REVERT JUMPDEST SWAP1 PUSH1 0xFF SWAP1 PUSH2 0x5F1 JUMP JUMPDEST SWAP1 PUSH2 0x6DF PUSH2 0x170 PUSH2 0x612 SWAP3 ISZERO ISZERO SWAP1 JUMP JUMPDEST DUP3 SLOAD PUSH2 0x6C6 JUMP JUMPDEST PUSH2 0x6FF PUSH2 0x6FA PUSH2 0x6F6 PUSH1 0x7 PUSH2 0x67F JUMP JUMPDEST ISZERO SWAP1 JUMP JUMPDEST PUSH2 0x689 JUMP JUMPDEST PUSH2 0x70B PUSH1 0x1 PUSH1 0x7 PUSH2 0x6CF JUMP JUMPDEST PUSH32 0x24BBFA46317916D25BBE66F8089A3529E508CAC063113C9162EA96F3BC4642CE PUSH2 0x735 PUSH1 0x40 MLOAD SWAP1 JUMP JUMPDEST PUSH1 0x0 SWAP1 LOG1 JUMP JUMPDEST PUSH2 0x14B PUSH2 0x65E JUMP JUMPDEST PUSH2 0x170 SWAP1 DUP2 JUMP JUMPDEST PUSH2 0x170 SWAP1 SLOAD PUSH2 0x743 JUMP JUMPDEST PUSH4 0x4E487B71 PUSH1 0xE0 SHL PUSH1 0x0 MSTORE PUSH1 0x11 PUSH1 0x4 MSTORE PUSH1 0x24 PUSH1 0x0 REVERT JUMPDEST SWAP2 SWAP1 DUP3 ADD DUP1 SWAP3 GT PUSH2 0x777 JUMPI JUMP JUMPDEST PUSH2 0x754 JUMP JUMPDEST PUSH2 0x786 PUSH1 0x2 PUSH2 0x74A JUMP JUMPDEST SWAP1 PUSH2 0x791 PUSH1 0x3 PUSH2 0x74A JUMP JUMPDEST SWAP2 PUSH2 0x79C PUSH1 0x4 PUSH2 0x74A JUMP JUMPDEST SWAP2 PUSH2 0x7BA PUSH2 0x7AA PUSH1 0x4 PUSH2 0x74A JUMP JUMPDEST PUSH2 0x7B4 PUSH1 0x3 PUSH2 0x74A JUMP JUMPDEST SWAP1 PUSH2 0x76A JUMP JUMPDEST SWAP2 PUSH2 0x7C5 PUSH1 0x5 PUSH2 0x74A JUMP JUMPDEST SWAP2 PUSH2 0x7D0 PUSH1 0x6 PUSH2 0x74A JUMP JUMPDEST SWAP2 PUSH2 0x7DB PUSH1 0x7 PUSH2 0x67F JUMP JUMPDEST SWAP2 PUSH2 0x7E6 PUSH1 0x7 PUSH2 0x67F JUMP JUMPDEST SWAP2 DUP3 PUSH2 0x7F7 JUMPI JUMPDEST SWAP8 SWAP7 SWAP6 SWAP5 SWAP4 SWAP3 SWAP2 SWAP1 JUMP JUMPDEST SWAP2 POP PUSH2 0x809 PUSH2 0x170 PUSH2 0x7AA PUSH1 0x4 PUSH2 0x74A JUMP JUMPDEST TIMESTAMP LT ISZERO SWAP2 PUSH2 0x7ED JUMP JUMPDEST PUSH2 0x81C PUSH1 0x7 PUSH2 0x67F JUMP JUMPDEST DUP1 PUSH2 0x824 JUMPI SWAP1 JUMP JUMPDEST POP PUSH2 0x835 PUSH2 0x170 PUSH2 0x7AA PUSH1 0x4 PUSH2 0x74A JUMP JUMPDEST TIMESTAMP LT ISZERO SWAP1 JUMP JUMPDEST PUSH2 0x84B PUSH2 0x549 PUSH2 0x544 PUSH1 0x0 PUSH2 0x4EC JUMP JUMPDEST PUSH2 0x14B PUSH2 0x890 JUMP JUMPDEST ISZERO PUSH2 0x85A JUMPI JUMP JUMPDEST PUSH1 0x40 MLOAD PUSH3 0x461BCD PUSH1 0xE5 SHL DUP2 MSTORE PUSH1 0x20 PUSH1 0x4 DUP3 ADD MSTORE PUSH1 0xE PUSH1 0x24 DUP3 ADD MSTORE PUSH14 0x105B1C9958591E481C185D5CD959 PUSH1 0x92 SHL PUSH1 0x44 DUP3 ADD MSTORE PUSH1 0x64 SWAP1 REVERT JUMPDEST PUSH2 0x8A2 PUSH2 0x89D PUSH1 0x7 PUSH2 0x67F JUMP JUMPDEST PUSH2 0x853 JUMP JUMPDEST PUSH2 0x8AE PUSH1 0x0 PUSH1 0x7 PUSH2 0x6CF JUMP JUMPDEST PUSH32 0xDA9F8B34D443B240F8CC4C9CC013A7723B45924B823BD142AE3B3D79C371EB7C PUSH2 0x735 PUSH1 0x40 MLOAD SWAP1 JUMP JUMPDEST PUSH2 0x14B PUSH2 0x83B JUMP JUMPDEST ISZERO PUSH2 0x8E7 JUMPI JUMP JUMPDEST PUSH1 0x40 MLOAD PUSH3 0x461BCD PUSH1 0xE5 SHL DUP2 MSTORE PUSH1 0x20 PUSH1 0x4 DUP3 ADD MSTORE PUSH1 0xC PUSH1 0x24 DUP3 ADD MSTORE PUSH12 0x4F6E6C7920666163746F7279 PUSH1 0xA0 SHL PUSH1 0x44 DUP3 ADD MSTORE PUSH1 0x64 SWAP1 REVERT JUMPDEST PUSH2 0x170 SWAP1 PUSH2 0x93E PUSH2 0x92F PUSH2 0x544 PUSH1 0x1 PUSH2 0x4EC JUMP JUMPDEST PUSH2 0x938 CALLER PUSH2 0x33A JUMP JUMPDEST EQ PUSH2 0x8E0 JUMP JUMPDEST PUSH2 0x94F SWAP1 PUSH2 0x94A PUSH2 0xF88 JUMP JUMPDEST PUSH2 0x9EF JUMP JUMPDEST SWAP1 PUSH2 0x14B PUSH2 0xFB8 JUMP JUMPDEST ISZERO PUSH2 0x95F JUMPI JUMP JUMPDEST PUSH1 0x40 MLOAD PUSH3 0x461BCD PUSH1 0xE5 SHL DUP2 MSTORE PUSH1 0x20 PUSH1 0x4 DUP3 ADD MSTORE PUSH1 0xF PUSH1 0x24 DUP3 ADD MSTORE PUSH15 0x15985D5B1D081A5CC81C185D5CD959 PUSH1 0x8A SHL PUSH1 0x44 DUP3 ADD MSTORE PUSH1 0x64 SWAP1 REVERT JUMPDEST ISZERO PUSH2 0x99D JUMPI JUMP JUMPDEST PUSH1 0x40 MLOAD PUSH3 0x461BCD PUSH1 0xE5 SHL DUP2 MSTORE PUSH1 0x20 PUSH1 0x4 DUP3 ADD MSTORE PUSH1 0x8 PUSH1 0x24 DUP3 ADD MSTORE PUSH8 0x2A37B79039B7B7B7 PUSH1 0xC1 SHL PUSH1 0x44 DUP3 ADD MSTORE PUSH1 0x64 SWAP1 REVERT JUMPDEST PUSH1 0x0 NOT DUP2 EQ PUSH2 0x777 JUMPI PUSH1 0x1 ADD SWAP1 JUMP JUMPDEST SWAP1 DUP2 MSTORE PUSH1 0x40 DUP2 ADD SWAP3 SWAP2 PUSH2 0x14B SWAP2 PUSH1 0x20 ADD MSTORE JUMP JUMPDEST POP PUSH2 0xA02 PUSH2 0x9FD PUSH1 0x7 PUSH2 0x67F JUMP JUMPDEST PUSH2 0x958 JUMP JUMPDEST PUSH2 0xA1D PUSH2 0xA15 PUSH2 0x170 PUSH2 0x7AA PUSH1 0x4 PUSH2 0x74A JUMP JUMPDEST TIMESTAMP LT ISZERO PUSH2 0x996 JUMP JUMPDEST PUSH2 0xA39 PUSH2 0xA32 PUSH2 0xA2D PUSH1 0x6 PUSH2 0x74A JUMP JUMPDEST PUSH2 0x9CD JUMP JUMPDEST PUSH1 0x6 PUSH2 0x5FB JUMP JUMPDEST PUSH2 0xA44 TIMESTAMP PUSH1 0x4 PUSH2 0x5FB JUMP JUMPDEST PUSH2 0xA6A PUSH2 0xA63 PUSH2 0xA54 PUSH1 0x2 PUSH2 0x74A JUMP JUMPDEST PUSH2 0xA5E PUSH1 0x5 PUSH2 0x74A JUMP JUMPDEST PUSH2 0x76A JUMP JUMPDEST PUSH1 0x5 PUSH2 0x5FB JUMP JUMPDEST PUSH32 0x2D34647A20CA77C2E73DB80E924F221793F95460C4A41BE3E7A73FA3DB2268B7 PUSH2 0xAA6 PUSH2 0xA98 PUSH1 0x2 PUSH2 0x74A JUMP JUMPDEST PUSH1 0x40 MLOAD SWAP2 DUP3 SWAP2 TIMESTAMP SWAP1 DUP4 PUSH2 0x9DC JUMP JUMPDEST SUB SWAP1 LOG1 PUSH1 0x1 SWAP1 JUMP JUMPDEST PUSH2 0x170 PUSH1 0x0 PUSH2 0x91B JUMP JUMPDEST PUSH2 0x14B SWAP1 PUSH2 0xACC PUSH2 0x549 PUSH2 0x544 PUSH1 0x0 PUSH2 0x4EC JUMP JUMPDEST PUSH2 0xADD SWAP1 PUSH2 0xAD8 PUSH2 0xF88 JUMP JUMPDEST PUSH2 0xC94 JUMP JUMPDEST PUSH2 0x14B PUSH2 0xFB8 JUMP JUMPDEST ISZERO PUSH2 0xAEC JUMPI JUMP JUMPDEST PUSH1 0x40 MLOAD PUSH3 0x461BCD PUSH1 0xE5 SHL DUP2 MSTORE PUSH1 0x20 PUSH1 0x4 DUP3 ADD MSTORE PUSH1 0x17 PUSH1 0x24 DUP3 ADD MSTORE PUSH32 0x416D6F756E74206D75737420626520706F736974697665000000000000000000 PUSH1 0x44 DUP3 ADD MSTORE PUSH1 0x64 SWAP1 REVERT JUMPDEST PUSH2 0x170 SWAP1 PUSH2 0x33A SWAP1 PUSH1 0x1 PUSH1 0x1 PUSH1 0xA0 SHL SUB AND DUP3 JUMP JUMPDEST PUSH2 0x170 SWAP1 PUSH2 0xB31 JUMP JUMPDEST PUSH2 0x170 SWAP1 PUSH2 0xB45 JUMP JUMPDEST ISZERO PUSH2 0xB5E JUMPI JUMP JUMPDEST PUSH1 0x40 MLOAD PUSH3 0x461BCD PUSH1 0xE5 SHL DUP2 MSTORE PUSH1 0x20 PUSH1 0x4 DUP3 ADD MSTORE PUSH1 0x11 PUSH1 0x24 DUP3 ADD MSTORE PUSH17 0x92DCE6EACCCCD2C6D2CADCE84082AC82B PUSH1 0x7B SHL PUSH1 0x44 DUP3 ADD MSTORE PUSH1 0x64 SWAP1 REVERT JUMPDEST PUSH4 0x4E487B71 PUSH1 0xE0 SHL PUSH1 0x0 MSTORE PUSH1 0x41 PUSH1 0x4 MSTORE PUSH1 0x24 PUSH1 0x0 REVERT JUMPDEST SWAP1 PUSH1 0x1F ADD PUSH1 0x1F NOT AND DUP2 ADD SWAP1 DUP2 LT PUSH8 0xFFFFFFFFFFFFFFFF DUP3 GT OR PUSH2 0xBCF JUMPI PUSH1 0x40 MSTORE JUMP JUMPDEST PUSH2 0xB97 JUMP JUMPDEST SWAP1 PUSH2 0x14B PUSH2 0xBE1 PUSH1 0x40 MLOAD SWAP1 JUMP JUMPDEST SWAP3 DUP4 PUSH2 0xBAD JUMP JUMPDEST PUSH8 0xFFFFFFFFFFFFFFFF DUP2 GT PUSH2 0xBCF JUMPI PUSH1 0x20 SWAP1 PUSH1 0x1F ADD PUSH1 0x1F NOT AND ADD SWAP1 JUMP JUMPDEST SWAP1 PUSH2 0xC17 PUSH2 0xC12 DUP4 PUSH2 0xBE8 JUMP JUMPDEST PUSH2 0xBD4 JUMP JUMPDEST SWAP2 DUP3 MSTORE JUMP JUMPDEST RETURNDATASIZE ISZERO PUSH2 0xC36 JUMPI PUSH2 0xC2B RETURNDATASIZE PUSH2 0xC05 JUMP JUMPDEST SWAP1 RETURNDATASIZE PUSH1 0x0 PUSH1 0x20 DUP5 ADD RETURNDATACOPY JUMP JUMPDEST PUSH1 0x60 SWAP1 JUMP JUMPDEST ISZERO PUSH2 0xC42 JUMPI JUMP JUMPDEST PUSH1 0x40 MLOAD PUSH3 0x461BCD PUSH1 0xE5 SHL DUP2 MSTORE PUSH1 0x20 PUSH1 0x4 DUP3 ADD MSTORE PUSH1 0x14 PUSH1 0x24 DUP3 ADD MSTORE PUSH20 0x10559056081D1C985B9CD9995C8819985A5B1959 PUSH1 0x62 SHL PUSH1 0x44 DUP3 ADD MSTORE PUSH1 0x64 SWAP1 REVERT JUMPDEST PUSH2 0x33A PUSH2 0x170 PUSH2 0x170 SWAP3 SWAP1 JUMP JUMPDEST PUSH2 0x170 SWAP1 PUSH2 0xC7E JUMP JUMPDEST PUSH32 0x7084F5476618D8E60B11EF0D7D3F06914655ADB8793E28FF7F018D4C76D505D5 PUSH2 0xD33 PUSH2 0xD29 PUSH2 0xD07 PUSH1 0x0 PUSH2 0xCD4 PUSH2 0xCCC DUP3 PUSH2 0x55D JUMP JUMPDEST DUP8 JUMPDEST GT PUSH2 0xAE5 JUMP JUMPDEST PUSH2 0xCF3 PUSH2 0xCE0 ADDRESS PUSH2 0xB4E JUMP JUMPDEST DUP8 SWAP1 BALANCE PUSH2 0xCEC JUMP JUMPDEST SWAP2 SWAP1 JUMP JUMPDEST LT ISZERO PUSH2 0xB57 JUMP JUMPDEST PUSH2 0xD24 DUP2 DUP1 PUSH2 0xD0C PUSH2 0xD07 PUSH2 0xD07 DUP4 PUSH2 0x4EC JUMP JUMPDEST PUSH2 0xB4E JUMP JUMPDEST PUSH1 0x40 MLOAD PUSH1 0x0 SWAP2 DUP12 SWAP1 GAS CALL PUSH2 0xD1E PUSH2 0xC1C JUMP JUMPDEST POP PUSH2 0xC3B JUMP JUMPDEST PUSH2 0xC8B JUMP JUMPDEST SWAP3 PUSH2 0x251 PUSH1 0x40 MLOAD SWAP1 JUMP JUMPDEST SUB SWAP1 LOG2 JUMP JUMPDEST PUSH2 0x14B SWAP1 PUSH2 0xAB8 JUMP JUMPDEST SWAP1 PUSH2 0x14B SWAP2 PUSH2 0xD56 PUSH2 0x92F PUSH2 0x544 PUSH1 0x1 PUSH2 0x4EC JUMP JUMPDEST PUSH2 0xD9D JUMP JUMPDEST ISZERO PUSH2 0xD62 JUMPI JUMP JUMPDEST PUSH1 0x40 MLOAD PUSH3 0x461BCD PUSH1 0xE5 SHL DUP2 MSTORE PUSH1 0x20 PUSH1 0x4 DUP3 ADD MSTORE PUSH1 0x13 PUSH1 0x24 DUP3 ADD MSTORE PUSH19 0x105B1C9958591E481A5B9A5D1A585B1A5E9959 PUSH1 0x6A SHL PUSH1 0x44 DUP3 ADD MSTORE PUSH1 0x64 SWAP1 REVERT JUMPDEST SWAP1 PUSH2 0x64D PUSH2 0xDDF SWAP3 PUSH2 0xDB2 PUSH2 0x62B PUSH1 0x0 PUSH2 0x55D JUMP JUMPDEST PUSH2 0xDBF PUSH2 0x63F PUSH1 0x0 PUSH2 0x55D JUMP JUMPDEST PUSH2 0x646 PUSH2 0xDCC PUSH1 0x2 PUSH2 0x74A JUMP JUMPDEST PUSH2 0xDD9 PUSH2 0xCE8 PUSH1 0x0 PUSH2 0x55D JUMP JUMPDEST EQ PUSH2 0xD5B JUMP JUMPDEST PUSH2 0x14B TIMESTAMP PUSH1 0x4 PUSH2 0x5FB JUMP JUMPDEST SWAP1 PUSH2 0x14B SWAP2 PUSH2 0xD41 JUMP JUMPDEST SWAP1 PUSH2 0x14B SWAP2 PUSH2 0xE09 PUSH2 0x549 PUSH2 0x544 PUSH1 0x0 PUSH2 0x4EC JUMP JUMPDEST SWAP1 PUSH2 0xADD SWAP2 PUSH2 0xE16 PUSH2 0xF88 JUMP JUMPDEST PUSH2 0xE8B JUMP JUMPDEST SWAP1 POP MLOAD SWAP1 PUSH2 0x14B DUP3 PUSH2 0x130 JUMP JUMPDEST SWAP1 PUSH1 0x20 DUP3 DUP3 SUB SLT PUSH2 0x139 JUMPI PUSH2 0x170 SWAP2 PUSH2 0xE1B JUMP JUMPDEST PUSH1 0x40 MLOAD RETURNDATASIZE PUSH1 0x0 DUP3 RETURNDATACOPY RETURNDATASIZE SWAP1 REVERT JUMPDEST ISZERO PUSH2 0xE4F JUMPI JUMP JUMPDEST PUSH1 0x40 MLOAD PUSH3 0x461BCD PUSH1 0xE5 SHL DUP2 MSTORE PUSH1 0x20 PUSH1 0x4 DUP3 ADD MSTORE PUSH1 0x14 PUSH1 0x24 DUP3 ADD MSTORE PUSH20 0x496E73756666696369656E742062616C616E6365 PUSH1 0x60 SHL PUSH1 0x44 DUP3 ADD MSTORE PUSH1 0x64 SWAP1 REVERT JUMPDEST PUSH2 0xEE3 SWAP1 PUSH2 0xEA2 PUSH2 0xE9C PUSH1 0x0 PUSH2 0x55D JUMP JUMPDEST DUP5 PUSH2 0xCCE JUMP JUMPDEST PUSH2 0xEAB DUP2 PUSH2 0xB4E JUMP JUMPDEST PUSH1 0x20 PUSH2 0xEB6 DUP3 PUSH2 0xB4E JUMP JUMPDEST PUSH2 0xEBF ADDRESS PUSH2 0xB4E JUMP JUMPDEST SWAP1 PUSH2 0xEC9 PUSH1 0x40 MLOAD SWAP1 JUMP JUMPDEST SWAP6 DUP7 SWAP3 DUP4 SWAP2 DUP3 SWAP2 PUSH4 0x70A08231 PUSH1 0xE0 SHL DUP4 MSTORE PUSH1 0x4 DUP4 ADD PUSH2 0x365 JUMP JUMPDEST SUB SWAP2 GAS STATICCALL SWAP2 DUP3 ISZERO PUSH2 0xF6F JUMPI PUSH2 0xD07 DUP6 PUSH2 0xD29 SWAP4 PUSH2 0xF30 PUSH2 0xD33 SWAP7 PUSH32 0x7084F5476618D8E60B11EF0D7D3F06914655ADB8793E28FF7F018D4C76D505D5 SWAP9 PUSH1 0x0 SWAP2 PUSH2 0xF40 JUMPI JUMPDEST POP DUP4 GT ISZERO PUSH2 0xE48 JUMP JUMPDEST PUSH2 0xF3A PUSH1 0x0 PUSH2 0x4EC JUMP JUMPDEST SWAP1 PUSH2 0xFC3 JUMP JUMPDEST PUSH2 0xF62 SWAP2 POP PUSH1 0x20 RETURNDATASIZE PUSH1 0x20 GT PUSH2 0xF68 JUMPI JUMPDEST PUSH2 0xF5A DUP2 DUP4 PUSH2 0xBAD JUMP JUMPDEST DUP2 ADD SWAP1 PUSH2 0xE28 JUMP JUMPDEST CODESIZE PUSH2 0xF27 JUMP JUMPDEST POP RETURNDATASIZE PUSH2 0xF50 JUMP JUMPDEST PUSH2 0xE3C JUMP JUMPDEST SWAP1 PUSH2 0x14B SWAP2 PUSH2 0xDF4 JUMP JUMPDEST PUSH2 0x170 PUSH1 0x2 PUSH2 0x55D JUMP JUMPDEST PUSH2 0xF90 PUSH2 0x1001 JUMP JUMPDEST PUSH2 0x14B PUSH2 0xF9B PUSH2 0xF7E JUMP JUMPDEST PUSH1 0x0 PUSH2 0xFA8 PUSH2 0x170 PUSH2 0x104A JUMP JUMPDEST ADD PUSH2 0x5FB JUMP JUMPDEST PUSH2 0x170 PUSH1 0x1 PUSH2 0x55D JUMP JUMPDEST PUSH2 0x14B PUSH2 0xF9B PUSH2 0xFAE JUMP JUMPDEST SWAP2 PUSH1 0x1 PUSH2 0x6F6 SWAP2 PUSH2 0xFD4 SWAP4 DUP6 PUSH2 0x1052 JUMP JUMPDEST PUSH2 0xFDB JUMPI POP JUMP JUMPDEST PUSH2 0xFFC PUSH2 0xFE9 PUSH1 0x0 SWAP3 PUSH2 0xB4E JUMP JUMPDEST PUSH4 0x5274AFE7 PUSH1 0xE0 SHL DUP4 MSTORE PUSH1 0x4 DUP4 ADD PUSH2 0x365 JUMP JUMPDEST SUB PUSH1 0x0 REVERT JUMPDEST PUSH2 0x1009 PUSH2 0x10BE JUMP JUMPDEST PUSH2 0x100F JUMPI JUMP JUMPDEST PUSH4 0x3EE5AEB5 PUSH1 0xE0 SHL PUSH1 0x0 SWAP1 DUP2 MSTORE PUSH1 0x4 SWAP1 REVERT JUMPDEST PUSH2 0x170 PUSH32 0x9B779B17422D0DF92223018B32B4D1FA46E071723D6817E2486D003BECC55F00 PUSH2 0x55D JUMP JUMPDEST PUSH2 0x170 PUSH2 0x1021 JUMP JUMPDEST PUSH1 0x40 MLOAD PUSH4 0xA9059CBB PUSH1 0xE0 SHL PUSH1 0x0 SWAP1 DUP2 MSTORE PUSH1 0x1 PUSH1 0x1 PUSH1 0xA0 SHL SUB SWAP1 SWAP4 AND PUSH1 0x4 MSTORE PUSH1 0x24 SWAP4 SWAP1 SWAP4 MSTORE SWAP3 SWAP4 SWAP3 SWAP1 PUSH1 0x20 SWAP1 PUSH1 0x44 DUP2 DUP1 DUP6 GAS CALL SWAP4 PUSH1 0x1 PUSH1 0x0 MLOAD EQ DUP6 AND ISZERO PUSH2 0x109A JUMPI JUMPDEST POP POP PUSH1 0x40 MSTORE JUMP JUMPDEST DUP5 SWAP3 SWAP5 ISZERO AND PUSH2 0x10B4 JUMPI PUSH1 0x0 SWAP1 EXTCODESIZE GT RETURNDATASIZE ISZERO AND AND SWAP2 CODESIZE DUP1 PUSH2 0x1093 JUMP JUMPDEST DUP4 RETURNDATASIZE PUSH1 0x0 DUP3 RETURNDATACOPY RETURNDATASIZE SWAP1 REVERT JUMPDEST PUSH2 0x10D4 PUSH1 0x0 PUSH2 0x10CE PUSH2 0x170 PUSH2 0x104A JUMP JUMPDEST ADD PUSH2 0x74A JUMP JUMPDEST PUSH2 0x10E2 PUSH2 0xCE8 PUSH2 0x170 PUSH2 0xF7E JUMP JUMPDEST EQ SWAP1 JUMP INVALID LOG2 PUSH5 0x6970667358 0x22 SLT KECCAK256 CALLDATASIZE DUP6 0xD7 SWAP15 PUSH5 0xDFD602810 0x29 0xE3 PUSH13 0xA8BBF6C8FA30643275BDE6F468 PUSH25 0xC75EBCFD0864736F6C634300081C0033000000000000000000 "
        },
        "methodIdentifiers": {
          "active()": "02fb0c5e",
          "buyAmount()": "1fa70531",
          "canExecute()": "78b90337",
          "executeDCA()": "950da287",
          "executionCount()": "a17ecef3",
          "factory()": "c45a0155",
          "frequency()": "ead50da3",
          "getStatus()": "4e69d560",
          "initialize(uint256,uint256)": "e4a30116",
          "lastExecution()": "b7fc3e51",
          "owner()": "8da5cb5b",
          "pause()": "8456cb59",
          "resume()": "046f7da2",
          "totalInvested()": "5216aeec",
          "updateSettings(uint256,uint256)": "015af8ee",
          "withdraw(address,uint256)": "f3fef3a3",
          "withdrawAVAX(uint256)": "aeb5cd5e"
        }
      }
    }
  }
}