{
  "contracts/ExecutionEngine.sol": {
    "ExecutionEngine": {
      "abi": [
        {
          "inputs": [
            {
              "internalType": "address",
              "name": "_burnTracker",
              "type": "address"
            }
          ],
          "stateMutability": "nonpayable",
          "type": "constructor"
        },
        {
          "inputs": [],
          "name": "ReentrancyGuardReentrantCall",
          "type": "error"
        },
        {
          "inputs": [
            {
              "internalType": "address",
              "name": "token",
              "type": "address"
            }
          ],
          "name": "SafeERC20FailedOperation",
          "type": "error"
        },
        {
          "anonymous": false,
          "inputs": [
            {
              "indexed": true,
              "internalType": "address",
              "name": "vault",
              "type": "address"
            },
            {
              "indexed": true,
              "internalType": "address",
              "name": "user",
              "type": "address"
            },
            {
              "indexed": false,
              "internalType": "uint256",
              "name": "usdcSpent",
              "type": "uint256"
            },
            {
              "indexed": false,
              "internalType": "uint256",
              "name": "avaxReceived",
              "type": "uint256"
            },
            {
              "indexed": false,
              "internalType": "uint256",
              "name": "qiTokens",
              "type": "uint256"
            }
          ],
          "name": "DCAExecuted",
          "type": "event"
        },
        {
          "anonymous": false,
          "inputs": [
            {
              "indexed": true,
              "internalType": "address",
              "name": "vault",
              "type": "address"
            },
            {
              "indexed": false,
              "internalType": "bytes",
              "name": "reason",
              "type": "bytes"
            }
          ],
          "name": "DCAFailed",
          "type": "event"
        },
        {
          "anonymous": false,
          "inputs": [
            {
              "indexed": true,
              "internalType": "address",
              "name": "oldFactory",
              "type": "address"
            },
            {
              "indexed": true,
              "internalType": "address",
              "name": "newFactory",
              "type": "address"
            }
          ],
          "name": "FactoryUpdated",
          "type": "event"
        },
        {
          "inputs": [],
          "name": "BENQI_qiAVAX",
          "outputs": [
            {
              "internalType": "address",
              "name": "",
              "type": "address"
            }
          ],
          "stateMutability": "view",
          "type": "function"
        },
        {
          "inputs": [],
          "name": "LB_ROUTER",
          "outputs": [
            {
              "internalType": "address",
              "name": "",
              "type": "address"
            }
          ],
          "stateMutability": "view",
          "type": "function"
        },
        {
          "inputs": [],
          "name": "PRECISION",
          "outputs": [
            {
              "internalType": "uint256",
              "name": "",
              "type": "uint256"
            }
          ],
          "stateMutability": "view",
          "type": "function"
        },
        {
          "inputs": [],
          "name": "SLIPPAGE",
          "outputs": [
            {
              "internalType": "uint256",
              "name": "",
              "type": "uint256"
            }
          ],
          "stateMutability": "view",
          "type": "function"
        },
        {
          "inputs": [],
          "name": "USDC",
          "outputs": [
            {
              "internalType": "address",
              "name": "",
              "type": "address"
            }
          ],
          "stateMutability": "view",
          "type": "function"
        },
        {
          "inputs": [],
          "name": "WAVAX",
          "outputs": [
            {
              "internalType": "address",
              "name": "",
              "type": "address"
            }
          ],
          "stateMutability": "view",
          "type": "function"
        },
        {
          "inputs": [
            {
              "internalType": "address",
              "name": "vault",
              "type": "address"
            }
          ],
          "name": "_executeInternal",
          "outputs": [],
          "stateMutability": "nonpayable",
          "type": "function"
        },
        {
          "inputs": [],
          "name": "burnTracker",
          "outputs": [
            {
              "internalType": "contract BurnTracker",
              "name": "",
              "type": "address"
            }
          ],
          "stateMutability": "view",
          "type": "function"
        },
        {
          "inputs": [
            {
              "internalType": "address[]",
              "name": "vaults",
              "type": "address[]"
            }
          ],
          "name": "executeBatch",
          "outputs": [],
          "stateMutability": "nonpayable",
          "type": "function"
        },
        {
          "inputs": [
            {
              "internalType": "address",
              "name": "vault",
              "type": "address"
            }
          ],
          "name": "executeDCA",
          "outputs": [
            {
              "internalType": "bool",
              "name": "",
              "type": "bool"
            }
          ],
          "stateMutability": "nonpayable",
          "type": "function"
        },
        {
          "inputs": [],
          "name": "factory",
          "outputs": [
            {
              "internalType": "address",
              "name": "",
              "type": "address"
            }
          ],
          "stateMutability": "view",
          "type": "function"
        },
        {
          "inputs": [],
          "name": "factoryLocked",
          "outputs": [
            {
              "internalType": "bool",
              "name": "",
              "type": "bool"
            }
          ],
          "stateMutability": "view",
          "type": "function"
        },
        {
          "inputs": [],
          "name": "getConfig",
          "outputs": [
            {
              "internalType": "address",
              "name": "_factory",
              "type": "address"
            },
            {
              "internalType": "address",
              "name": "_burnTracker",
              "type": "address"
            },
            {
              "internalType": "bool",
              "name": "_factoryLocked",
              "type": "bool"
            }
          ],
          "stateMutability": "view",
          "type": "function"
        },
        {
          "inputs": [],
          "name": "isReady",
          "outputs": [
            {
              "internalType": "bool",
              "name": "",
              "type": "bool"
            }
          ],
          "stateMutability": "view",
          "type": "function"
        },
        {
          "inputs": [
            {
              "internalType": "address",
              "name": "_factory",
              "type": "address"
            }
          ],
          "name": "setFactory",
          "outputs": [],
          "stateMutability": "nonpayable",
          "type": "function"
        }
      ],
      "evm": {
        "bytecode": {
          "linkReferences": {},
          "object": "60806040523461002a576100196100146100c2565b6101be565b604051611ac86102998239611ac890f35b600080fd5b634e487b7160e01b600052604160045260246000fd5b90601f01601f191681019081106001600160401b0382111761006657604052565b61002f565b9061007f61007860405190565b9283610045565b565b6001600160a01b031690565b90565b6001600160a01b0381160361002a57565b9050519061007f82610090565b9060208282031261002a5761008d916100a1565b61008d611d61803803806100d58161006b565b9283398101906100ae565b61008161008d61008d9290565b61008d906100e0565b156100fd57565b60405162461bcd60e51b815260206004820152601360248201527f496e76616c6964204275726e547261636b6572000000000000000000000000006044820152606490fd5b906001600160a01b03905b9181191691161790565b61008d90610081906001600160a01b031682565b61008d90610157565b61008d9061016b565b9061018d61008d61019492610174565b8254610142565b9055565b9060ff60a01b9060a01b61014d565b906101b761008d61019492151590565b8254610198565b6101fe610205916101cd610249565b6101ee6101dd61008160006100ed565b6001600160a01b03831614156100f6565b6101f933600061017d565b610174565b600161017d565b61007f600060016101a7565b61008d61008d61008d9290565b61008d6001610211565b906000199061014d565b9061024261008d61019492610211565b8254610228565b61007f61025461021e565b600061026161008d610290565b01610232565b61008d7f9b779b17422d0df92223018b32b4d1fa46e071723d6817e2486d003becc55f00610211565b61008d61026756fe6080604052600436101561001257600080fd5b60003560e01c806307f03d441461010257806336b4134a146100fd5780633be37e79146100f85780635bb47808146100f35780635bbf3783146100ee57806373b295c2146100e957806389a30271146100e4578063a094a031146100df578063aaf5eb68146100da578063be424af3146100d5578063c3f909d4146100d0578063c45a0155146100cb578063d306254d146100c6578063ec7d7df5146100c15763f2355bac03610107576104be565b610480565b610459565b6103f3565b61039f565b610350565b610335565b610307565b6102da565b6102ad565b610294565b61021d565b6101f0565b610192565b61012c565b600080fd5b600091031261010757565b90565b6001600160a01b031690565b9052565b565b346101075761013c36600461010c565b61016f739a93a421b74f1c5755b83dd2c211614dc419c44b5b604051918291826001600160a01b03909116815260200190565b0390f35b6101176101176101179290565b6101176064610173565b610117610180565b34610107576101a236600461010c565b61016f6101ad61018a565b6040519182918290815260200190565b6001600160a01b0381165b0361010757565b9050359061012a826101bd565b9060208282031261010757610117916101cf565b346101075761016f61020b6102063660046101dc565b610f61565b60405191829182901515815260200190565b34610107576102356102303660046101dc565b6110ab565b604051005b909182601f830112156101075781359167ffffffffffffffff831161010757602001926020830284011161010757565b9060208282031261010757813567ffffffffffffffff811161010757610290920161023a565b9091565b34610107576102356102a736600461026a565b9061138b565b34610107576102bd36600461010c565b61016f73b31f66aa3c1e785363f0875a1b74e27b85fd66c7610155565b34610107576102ea36600461010c565b61016f73b97ef9ef8734c71904d8002f8b6bc66dd9c48a6e610155565b346101075761031736600461010c565b61016f61020b611395565b610117612710610173565b610117610322565b346101075761034536600461010c565b61016f6101ad61032d565b346101075761036036600461010c565b61016f735c0401e81e6953a22c95311bc54060bde84b1022610155565b6001600160a01b03918216815291166020820152901515604082015260600190565b34610107576103af36600461010c565b61016f6103ba6113d4565b6040519193919384938461037d565b610117916008021c6001600160a01b031690565b9061011791546103c9565b6101176000806103dd565b346101075761040336600461010c565b61016f6101556103e8565b610117600060016103dd565b6101179061011a906001600160a01b031682565b6101179061041a565b6101179061042e565b61012690610437565b60208101929161012a9190610440565b346101075761046936600461010c565b61016f61047461040e565b60405191829182610449565b34610107576102356104933660046101dc565b6117aa565b610117916008021c5b60ff1690565b906101179154610498565b610117601460016104a7565b34610107576104ce36600461010c565b61016f61020b6104b2565b6101179061011a565b61011790546104d9565b0190565b156104f757565b60405162461bcd60e51b815260206004820152600c60248201526b4f6e6c7920666163746f727960a01b604482015280606481015b0390fd5b906101179161054c61054561011a60006104e2565b33146104f0565b9061055e916105596117de565b6109d1565b9061012a61180e565b634e487b7160e01b600052604160045260246000fd5b90601f01601f1916810190811067ffffffffffffffff82111761059f57604052565b610567565b806101c8565b9050519061012a826105a4565b9060208282031261010757610117916105aa565b6040513d6000823e3d90fd5b9050519061012a826101bd565b9060208282031261010757610117916105d7565b156105ff57565b60405162461bcd60e51b815260206004820152601260248201527142757920616d6f756e74206973207a65726f60701b6044820152606490fd5b9061012a61064660405190565b928361057d565b6101176040610639565b61065f61064d565b906060825260606020830152565b610117610657565b67ffffffffffffffff811161059f5760208091020190565b9061069f61069a83610675565b610639565b918252565b369037565b9061012a6106bf6106b98461068d565b93610675565b601f1901602084016106a4565b634e487b7160e01b600052603260045260246000fd5b906106eb825190565b8110156106fc576020809102010190565b6106cc565b634e487b7160e01b600052601160045260246000fd5b9190820391821161072457565b610701565b8181029291811591840414171561072457565b634e487b7160e01b600052601260045260246000fd5b9061075c565b9190565b908115610767570490565b61073c565b9190820180921161072457565b90610799610792610788845190565b8084529260200190565b9260200190565b9060005b8181106107aa5750505090565b9091926107c76107c06001928651815260200190565b9460200190565b92910161079d565b906107de610792610788845190565b9060005b8181106107ef5750505090565b90919261080e6107c060019286516001600160a01b0316815260200190565b9291016107e2565b8051604080845261011793916020916108329190840190610779565b9201519060208184039101526107cf565b9061087b61088d9161012a9698979561086e60809661086760a08801946000890152565b6020870152565b8482036040860152610816565b6001600160a01b039097166060830152565b0152565b1561089857565b60405162461bcd60e51b8152602060048201526012602482015271537761702072657475726e6564207a65726f60701b6044820152606490fd5b156108d957565b60405162461bcd60e51b815260206004820152601160248201527010995b9c5a481b5a5b9d0819985a5b1959607a1b6044820152606490fd5b1561091957565b60405162461bcd60e51b8152602060048201526014602482015273139bc81c5a551bdad95b9cc81c9958d95a5d995960621b6044820152606490fd5b8015156101c8565b9050519061012a82610955565b90602082820312610107576101179161095d565b61012690610173565b6001600160a01b03909116815260608101939261012a9290916040916109af905b6020830152565b019061097e565b90815260608101939261012a92909160409161088d906109a8565b505a906109e86109e36109e383610437565b610437565b604051631fa7053160e01b8152602081600481855afa908115610e3b57600091610f42575b50604051638da5cb5b60e01b815293602085600481865afa918215610e3b57610ac495600093610f12575b50829360209350600090610a56610a4e83610173565b845b116105f8565b73b97ef9ef8734c71904d8002f8b6bc66dd9c48a6e93610a7585610437565b94610a7f30610437565b9686610a8e878a8c819b611819565b610aaf87739a93a421b74f1c5755b83dd2c211614dc419c44b5b8093611864565b610ab761066d565b90610b5160019d8e610173565b94610af8610ad1876106a9565b8a8601908152610af5610ae46014610173565b9151610aef8d610173565b906106e2565b52565b610b30610b0d610b086002610173565b6106a9565b91868601928352610b228351610aef8d610173565b906001600160a01b03169052565b610b2273b31f66aa3c1e785363f0875a1b74e27b85fd66c7968792516106e2565b610b876109e3610b81610b62610322565b610b7c610b76610b70610180565b83610717565b8d610729565b610752565b92610437565b908789610bbe610ba1610b9b61012c610173565b4261076c565b6040519d8e9788968795636b34ff0960e11b875260048701610843565b03925af1958615610e3b578496610eed575b50610be8906109e3610be186610173565b8811610891565b95610c0a86735c0401e81e6953a22c95311bc54060bde84b10225b8099611864565b610c1387610437565b610c1c81610437565b916370a0823192610c2c60405190565b99610c378560e01b90565b8b526001600160a01b03831660048c015260208b602481855afa9a8b15610e3b57889b610eb9575b50906020610c9d610c746109e38b9695610437565b8c610c7e60405190565b968793849283919063140e25ad60e31b83526004830190815260200190565b03925af18015610e3b57610cf695610ccf610cdf926020968c91610e9c575b50610cc96107588d610173565b146108d2565b6040519687948593849360e01b90565b83526001600160a01b031660048301526024820190565b03915afa918215610e3b578a98610d3393610d18928891610e6d575b50610717565b998a91610d2e610d2788610173565b8411610912565b6118d5565b6020610d3e60405190565b63950da28760e01b8152928390600490829087905af1918215610e3b57610d6c92610e40575b505a90610717565b610d786109e3896104e2565b803b1561010757888391610dab93838a610d9160405190565b9687958694859363287bbb3d60e01b855260048501610987565b03925af18015610e3b577faf8c946fad4dc7fc3f8d96e39251f3273b720222db4b39390936a6cf0eb0803695610e0893610df593610def93610e0e575b5050610437565b95610437565b95610dff60405190565b938493846109b6565b0390a390565b81610e2d92903d10610e34575b610e25818361057d565b81019061010c565b3880610de8565b503d610e1b565b6105cb565b610e619060203d602011610e66575b610e59818361057d565b81019061096a565b610d64565b503d610e4f565b610e8f915060203d602011610e95575b610e87818361057d565b8101906105b7565b38610d12565b503d610e7d565b610eb39150873d8911610e9557610e87818361057d565b38610cbc565b889392919b50610c9d610c746109e3610ee0602094853d8711610e9557610e87818361057d565b9e94959650505050610c5f565b610be8919650610f0b9060203d602011610e9557610e87818361057d565b9590610bd0565b60209350610f3590843d8611610f3b575b610f2d818361057d565b8101906105e4565b92610a38565b503d610f23565b610f5b915060203d602011610e9557610e87818361057d565b38610a0d565b610117906000610530565b61011a6101176101179290565b61011790610f6c565b15610f8957565b60405162461bcd60e51b815260206004820152600c60248201526b5a65726f206164647265737360a01b6044820152606490fd5b15610fc457565b60405162461bcd60e51b815260206004820152600e60248201526d139bdd08185d5d1a1bdc9a5e995960921b6044820152606490fd5b6101179060a01c6104a1565b6101179054610ffa565b1561101757565b60405162461bcd60e51b8152602060048201526016602482015275119858dd1bdc9e48185b1c9958591e481b1bd8dad95960521b6044820152606490fd5b906001600160a01b03905b9181191691161790565b9061107a61011761108192610437565b8254611055565b9055565b9060ff60a01b9060a01b611060565b906110a461011761108192151590565b8254611085565b6110cc6110bb61011a6000610f79565b6001600160a01b0383161415610f82565b6110e36110dc61011a60006104e2565b3314610fbd565b6110fc6110f76110f36001611006565b1590565b611010565b61112861112261110c60006104e2565b61111784600061106a565b6109e3600180611094565b91610437565b907f333c7678baf16017cf31e1d2f90143a62aab01a67a0807f6836a4304ceabb55561115360405190565b80805b0390a3565b9061012a9161117061054561011a60006104e2565b611279565b1561117c57565b60405162461bcd60e51b815260206004820152600a602482015269115b5c1d1e481b1a5cdd60b21b6044820152606490fd5b91908110156106fc576020020190565b35610117816101bd565b67ffffffffffffffff811161059f57602090601f01601f19160190565b9061069f61069a836111c8565b3d1561120c576112013d6111e5565b903d6000602084013e565b606090565b60005b8381106112245750506000910152565b8181015183820152602001611214565b61125561125e6020936104ec93611249815190565b80835293849260200190565b95869101611211565b601f01601f191690565b602080825261011792910190611234565b8160009361129061128986610173565b8511611175565b61129985610173565b845b811015611383576112ab30610437565b6112be6112b98386886111ae565b6111be565b91813b156101075787806112f161135a9461129b966112dc60405190565b948593849283919063ec7d7df560e01b610cdf565b03925af19081611367575b50611361576113096111f2565b7ff2432448bd7f4f83571af712c44c366acd66e1c64f00b76f244ffe5d48383e0961135161133e6109e36112b9868b8d6111ae565b9261134860405190565b91829182611268565b0390a260010190565b9050611299565b60010190565b61137d908a3d8c11610e3457610e25818361057d565b386112fc565b509350505050565b9061012a9161115b565b61139f6001611006565b806113a75790565b506113b260006104e2565b6113cf6113c261011a6000610f79565b916001600160a01b031690565b141590565b6113de60006104e2565b6113eb6109e360016104e2565b916113f66001611006565b91929190565b61140d906114086117de565b611451565b61012a61180e565b1561141c57565b60405162461bcd60e51b815260206004820152600d60248201526c496e7465726e616c206f6e6c7960981b6044820152606490fd5b61145a30610437565b61146e6001600160a01b0382163314611415565b61147a6109e383610437565b6114845a91610437565b9161148e60405190565b631fa7053160e01b8152602081600481875afa908115610e3b5760009161178b575b50604051638da5cb5b60e01b815292602084600481885afa938415610e3b5760009461176a575b5083948394506000916114f26114ec84610173565b85610a50565b73b97ef9ef8734c71904d8002f8b6bc66dd9c48a6e602061151282610437565b61151e87898c84611819565b61153c87739a93a421b74f1c5755b83dd2c211614dc419c44b610aa8565b61154461066d565b90611552610ac46001610173565b6115636109e3610b81610b62610322565b908789611577610ba1610b9b61012c610173565b03925af1958615610e3b578496611745575b5061159a906109e3610be186610173565b956115b986735c0401e81e6953a22c95311bc54060bde84b1022610c03565b6115c287610437565b6115cb81610437565b916370a08231926115db60405190565b996115e68560e01b90565b8b526001600160a01b03831660048c015260208b602481855afa9a8b15610e3b57889b611711575b50906020611623610c746109e38b9695610437565b03925af18015610e3b5761164e95610ccf610cdf926020968c91610e9c5750610cc96107588d610173565b03915afa918215610e3b578a9861166f93610d18928891610e6d5750610717565b602061167a60405190565b63950da28760e01b8152928390600490829087905af1918215610e3b576116a792610e4057505a90610717565b6116b46109e360016104e2565b803b1561010757600183916116ce93838a610d9160405190565b03925af18015610e3b577faf8c946fad4dc7fc3f8d96e39251f3273b720222db4b39390936a6cf0eb080369561115693610df593610def93610e0e575050610437565b889392919b50611623610c746109e3611738602094853d8711610e9557610e87818361057d565b9e9495965050505061160e565b61159a9196506117639060203d602011610e9557610e87818361057d565b9590611589565b8394506117859060203d602011610f3b57610f2d818361057d565b936114d7565b6117a4915060203d602011610e9557610e87818361057d565b386114b0565b61012a906113fc565b6101176002610173565b9060001990611060565b906117d761011761108192610173565b82546117bd565b6117e66118e6565b61012a6117f16117b3565b60006117fe61011761192f565b016117c7565b6101176001610173565b61012a6117f1611804565b9260019061182b936110f39386611937565b6118325750565b61185f611840600092610437565b635274afe760e01b83526001600160a01b031660048301526024820190565b036000fd5b90916000926118786110f3858484876119b0565b611883575b50505050565b61189b6110f3600161189487610173565b84876119b0565b6118c75760016118af926110f392856119b0565b6118ba57808061187d565b61052c6118408392610437565b838061052c61184086610437565b9160016110f39161182b9385611a12565b6118ee611a6a565b6118f457565b633ee5aeb560e01b6000908152600490fd5b6101177f9b779b17422d0df92223018b32b4d1fa46e071723d6817e2486d003becc55f00610173565b610117611906565b6040516323b872dd60e01b60009081526001600160a01b0393841660045293909216602452604493909352929392919060209060648180855af19360016000511485161561198c575b50506040526000606052565b84929415166119a6576000903b113d151616913880611980565b833d6000823e3d90fd5b60405163095ea7b360e01b60009081526001600160a01b039093166004526024939093529293929060209060448180855af1936001600051148516156119f8575b5050604052565b84929415166119a6576000903b113d1516169138806119f1565b60405163a9059cbb60e01b60009081526001600160a01b039093166004526024939093529293929060209060448180855af1936001600051148516156119f8575050604052565b6101179081565b6101179054611a59565b611a806000611a7a61011761192f565b01611a60565b611a8e6107586101176117b3565b149056fea2646970667358221220ad93bcd29ab256142be7a8d691b0291bdffc04044fffc5fcb8186442afe6b98c64736f6c634300081c0033",
          "opcodes": "PUSH1 0x80 PUSH1 0x40 MSTORE CALLVALUE PUSH2 0x2A JUMPI PUSH2 0x19 PUSH2 0x14 PUSH2 0xC2 JUMP JUMPDEST PUSH2 0x1BE JUMP JUMPDEST PUSH1 0x40 MLOAD PUSH2 0x1AC8 PUSH2 0x299 DUP3 CODECOPY PUSH2 0x1AC8 SWAP1 RETURN JUMPDEST PUSH1 0x0 DUP1 REVERT JUMPDEST PUSH4 0x4E487B71 PUSH1 0xE0 SHL PUSH1 0x0 MSTORE PUSH1 0x41 PUSH1 0x4 MSTORE PUSH1 0x24 PUSH1 0x0 REVERT JUMPDEST SWAP1 PUSH1 0x1F ADD PUSH1 0x1F NOT AND DUP2 ADD SWAP1 DUP2 LT PUSH1 0x1 PUSH1 0x1 PUSH1 0x40 SHL SUB DUP3 GT OR PUSH2 0x66 JUMPI PUSH1 0x40 MSTORE JUMP JUMPDEST PUSH2 0x2F JUMP JUMPDEST SWAP1 PUSH2 0x7F PUSH2 0x78 PUSH1 0x40 MLOAD SWAP1 JUMP JUMPDEST SWAP3 DUP4 PUSH2 0x45 JUMP JUMPDEST JUMP JUMPDEST PUSH1 0x1 PUSH1 0x1 PUSH1 0xA0 SHL SUB AND SWAP1 JUMP JUMPDEST SWAP1 JUMP JUMPDEST PUSH1 0x1 PUSH1 0x1 PUSH1 0xA0 SHL SUB DUP2 AND SUB PUSH2 0x2A JUMPI JUMP JUMPDEST SWAP1 POP MLOAD SWAP1 PUSH2 0x7F DUP3 PUSH2 0x90 JUMP JUMPDEST SWAP1 PUSH1 0x20 DUP3 DUP3 SUB SLT PUSH2 0x2A JUMPI PUSH2 0x8D SWAP2 PUSH2 0xA1 JUMP JUMPDEST PUSH2 0x8D PUSH2 0x1D61 DUP1 CODESIZE SUB DUP1 PUSH2 0xD5 DUP2 PUSH2 0x6B JUMP JUMPDEST SWAP3 DUP4 CODECOPY DUP2 ADD SWAP1 PUSH2 0xAE JUMP JUMPDEST PUSH2 0x81 PUSH2 0x8D PUSH2 0x8D SWAP3 SWAP1 JUMP JUMPDEST PUSH2 0x8D SWAP1 PUSH2 0xE0 JUMP JUMPDEST ISZERO PUSH2 0xFD JUMPI JUMP JUMPDEST PUSH1 0x40 MLOAD PUSH3 0x461BCD PUSH1 0xE5 SHL DUP2 MSTORE PUSH1 0x20 PUSH1 0x4 DUP3 ADD MSTORE PUSH1 0x13 PUSH1 0x24 DUP3 ADD MSTORE PUSH32 0x496E76616C6964204275726E547261636B657200000000000000000000000000 PUSH1 0x44 DUP3 ADD MSTORE PUSH1 0x64 SWAP1 REVERT JUMPDEST SWAP1 PUSH1 0x1 PUSH1 0x1 PUSH1 0xA0 SHL SUB SWAP1 JUMPDEST SWAP2 DUP2 NOT AND SWAP2 AND OR SWAP1 JUMP JUMPDEST PUSH2 0x8D SWAP1 PUSH2 0x81 SWAP1 PUSH1 0x1 PUSH1 0x1 PUSH1 0xA0 SHL SUB AND DUP3 JUMP JUMPDEST PUSH2 0x8D SWAP1 PUSH2 0x157 JUMP JUMPDEST PUSH2 0x8D SWAP1 PUSH2 0x16B JUMP JUMPDEST SWAP1 PUSH2 0x18D PUSH2 0x8D PUSH2 0x194 SWAP3 PUSH2 0x174 JUMP JUMPDEST DUP3 SLOAD PUSH2 0x142 JUMP JUMPDEST SWAP1 SSTORE JUMP JUMPDEST SWAP1 PUSH1 0xFF PUSH1 0xA0 SHL SWAP1 PUSH1 0xA0 SHL PUSH2 0x14D JUMP JUMPDEST SWAP1 PUSH2 0x1B7 PUSH2 0x8D PUSH2 0x194 SWAP3 ISZERO ISZERO SWAP1 JUMP JUMPDEST DUP3 SLOAD PUSH2 0x198 JUMP JUMPDEST PUSH2 0x1FE PUSH2 0x205 SWAP2 PUSH2 0x1CD PUSH2 0x249 JUMP JUMPDEST PUSH2 0x1EE PUSH2 0x1DD PUSH2 0x81 PUSH1 0x0 PUSH2 0xED JUMP JUMPDEST PUSH1 0x1 PUSH1 0x1 PUSH1 0xA0 SHL SUB DUP4 AND EQ ISZERO PUSH2 0xF6 JUMP JUMPDEST PUSH2 0x1F9 CALLER PUSH1 0x0 PUSH2 0x17D JUMP JUMPDEST PUSH2 0x174 JUMP JUMPDEST PUSH1 0x1 PUSH2 0x17D JUMP JUMPDEST PUSH2 0x7F PUSH1 0x0 PUSH1 0x1 PUSH2 0x1A7 JUMP JUMPDEST PUSH2 0x8D PUSH2 0x8D PUSH2 0x8D SWAP3 SWAP1 JUMP JUMPDEST PUSH2 0x8D PUSH1 0x1 PUSH2 0x211 JUMP JUMPDEST SWAP1 PUSH1 0x0 NOT SWAP1 PUSH2 0x14D JUMP JUMPDEST SWAP1 PUSH2 0x242 PUSH2 0x8D PUSH2 0x194 SWAP3 PUSH2 0x211 JUMP JUMPDEST DUP3 SLOAD PUSH2 0x228 JUMP JUMPDEST PUSH2 0x7F PUSH2 0x254 PUSH2 0x21E JUMP JUMPDEST PUSH1 0x0 PUSH2 0x261 PUSH2 0x8D PUSH2 0x290 JUMP JUMPDEST ADD PUSH2 0x232 JUMP JUMPDEST PUSH2 0x8D PUSH32 0x9B779B17422D0DF92223018B32B4D1FA46E071723D6817E2486D003BECC55F00 PUSH2 0x211 JUMP JUMPDEST PUSH2 0x8D PUSH2 0x267 JUMP INVALID PUSH1 0x80 PUSH1 0x40 MSTORE PUSH1 0x4 CALLDATASIZE LT ISZERO PUSH2 0x12 JUMPI PUSH1 0x0 DUP1 REVERT JUMPDEST PUSH1 0x0 CALLDATALOAD PUSH1 0xE0 SHR DUP1 PUSH4 0x7F03D44 EQ PUSH2 0x102 JUMPI DUP1 PUSH4 0x36B4134A EQ PUSH2 0xFD JUMPI DUP1 PUSH4 0x3BE37E79 EQ PUSH2 0xF8 JUMPI DUP1 PUSH4 0x5BB47808 EQ PUSH2 0xF3 JUMPI DUP1 PUSH4 0x5BBF3783 EQ PUSH2 0xEE JUMPI DUP1 PUSH4 0x73B295C2 EQ PUSH2 0xE9 JUMPI DUP1 PUSH4 0x89A30271 EQ PUSH2 0xE4 JUMPI DUP1 PUSH4 0xA094A031 EQ PUSH2 0xDF JUMPI DUP1 PUSH4 0xAAF5EB68 EQ PUSH2 0xDA JUMPI DUP1 PUSH4 0xBE424AF3 EQ PUSH2 0xD5 JUMPI DUP1 PUSH4 0xC3F909D4 EQ PUSH2 0xD0 JUMPI DUP1 PUSH4 0xC45A0155 EQ PUSH2 0xCB JUMPI DUP1 PUSH4 0xD306254D EQ PUSH2 0xC6 JUMPI DUP1 PUSH4 0xEC7D7DF5 EQ PUSH2 0xC1 JUMPI PUSH4 0xF2355BAC SUB PUSH2 0x107 JUMPI PUSH2 0x4BE JUMP JUMPDEST PUSH2 0x480 JUMP JUMPDEST PUSH2 0x459 JUMP JUMPDEST PUSH2 0x3F3 JUMP JUMPDEST PUSH2 0x39F JUMP JUMPDEST PUSH2 0x350 JUMP JUMPDEST PUSH2 0x335 JUMP JUMPDEST PUSH2 0x307 JUMP JUMPDEST PUSH2 0x2DA JUMP JUMPDEST PUSH2 0x2AD JUMP JUMPDEST PUSH2 0x294 JUMP JUMPDEST PUSH2 0x21D JUMP JUMPDEST PUSH2 0x1F0 JUMP JUMPDEST PUSH2 0x192 JUMP JUMPDEST PUSH2 0x12C JUMP JUMPDEST PUSH1 0x0 DUP1 REVERT JUMPDEST PUSH1 0x0 SWAP2 SUB SLT PUSH2 0x107 JUMPI JUMP JUMPDEST SWAP1 JUMP JUMPDEST PUSH1 0x1 PUSH1 0x1 PUSH1 0xA0 SHL SUB AND SWAP1 JUMP JUMPDEST SWAP1 MSTORE JUMP JUMPDEST JUMP JUMPDEST CALLVALUE PUSH2 0x107 JUMPI PUSH2 0x13C CALLDATASIZE PUSH1 0x4 PUSH2 0x10C JUMP JUMPDEST PUSH2 0x16F PUSH20 0x9A93A421B74F1C5755B83DD2C211614DC419C44B JUMPDEST PUSH1 0x40 MLOAD SWAP2 DUP3 SWAP2 DUP3 PUSH1 0x1 PUSH1 0x1 PUSH1 0xA0 SHL SUB SWAP1 SWAP2 AND DUP2 MSTORE PUSH1 0x20 ADD SWAP1 JUMP JUMPDEST SUB SWAP1 RETURN JUMPDEST PUSH2 0x117 PUSH2 0x117 PUSH2 0x117 SWAP3 SWAP1 JUMP JUMPDEST PUSH2 0x117 PUSH1 0x64 PUSH2 0x173 JUMP JUMPDEST PUSH2 0x117 PUSH2 0x180 JUMP JUMPDEST CALLVALUE PUSH2 0x107 JUMPI PUSH2 0x1A2 CALLDATASIZE PUSH1 0x4 PUSH2 0x10C JUMP JUMPDEST PUSH2 0x16F PUSH2 0x1AD PUSH2 0x18A JUMP JUMPDEST PUSH1 0x40 MLOAD SWAP2 DUP3 SWAP2 DUP3 SWAP1 DUP2 MSTORE PUSH1 0x20 ADD SWAP1 JUMP JUMPDEST PUSH1 0x1 PUSH1 0x1 PUSH1 0xA0 SHL SUB DUP2 AND JUMPDEST SUB PUSH2 0x107 JUMPI JUMP JUMPDEST SWAP1 POP CALLDATALOAD SWAP1 PUSH2 0x12A DUP3 PUSH2 0x1BD JUMP JUMPDEST SWAP1 PUSH1 0x20 DUP3 DUP3 SUB SLT PUSH2 0x107 JUMPI PUSH2 0x117 SWAP2 PUSH2 0x1CF JUMP JUMPDEST CALLVALUE PUSH2 0x107 JUMPI PUSH2 0x16F PUSH2 0x20B PUSH2 0x206 CALLDATASIZE PUSH1 0x4 PUSH2 0x1DC JUMP JUMPDEST PUSH2 0xF61 JUMP JUMPDEST PUSH1 0x40 MLOAD SWAP2 DUP3 SWAP2 DUP3 SWAP1 ISZERO ISZERO DUP2 MSTORE PUSH1 0x20 ADD SWAP1 JUMP JUMPDEST CALLVALUE PUSH2 0x107 JUMPI PUSH2 0x235 PUSH2 0x230 CALLDATASIZE PUSH1 0x4 PUSH2 0x1DC JUMP JUMPDEST PUSH2 0x10AB JUMP JUMPDEST PUSH1 0x40 MLOAD STOP JUMPDEST SWAP1 SWAP2 DUP3 PUSH1 0x1F DUP4 ADD SLT ISZERO PUSH2 0x107 JUMPI DUP2 CALLDATALOAD SWAP2 PUSH8 0xFFFFFFFFFFFFFFFF DUP4 GT PUSH2 0x107 JUMPI PUSH1 0x20 ADD SWAP3 PUSH1 0x20 DUP4 MUL DUP5 ADD GT PUSH2 0x107 JUMPI JUMP JUMPDEST SWAP1 PUSH1 0x20 DUP3 DUP3 SUB SLT PUSH2 0x107 JUMPI DUP2 CALLDATALOAD PUSH8 0xFFFFFFFFFFFFFFFF DUP2 GT PUSH2 0x107 JUMPI PUSH2 0x290 SWAP3 ADD PUSH2 0x23A JUMP JUMPDEST SWAP1 SWAP2 JUMP JUMPDEST CALLVALUE PUSH2 0x107 JUMPI PUSH2 0x235 PUSH2 0x2A7 CALLDATASIZE PUSH1 0x4 PUSH2 0x26A JUMP JUMPDEST SWAP1 PUSH2 0x138B JUMP JUMPDEST CALLVALUE PUSH2 0x107 JUMPI PUSH2 0x2BD CALLDATASIZE PUSH1 0x4 PUSH2 0x10C JUMP JUMPDEST PUSH2 0x16F PUSH20 0xB31F66AA3C1E785363F0875A1B74E27B85FD66C7 PUSH2 0x155 JUMP JUMPDEST CALLVALUE PUSH2 0x107 JUMPI PUSH2 0x2EA CALLDATASIZE PUSH1 0x4 PUSH2 0x10C JUMP JUMPDEST PUSH2 0x16F PUSH20 0xB97EF9EF8734C71904D8002F8B6BC66DD9C48A6E PUSH2 0x155 JUMP JUMPDEST CALLVALUE PUSH2 0x107 JUMPI PUSH2 0x317 CALLDATASIZE PUSH1 0x4 PUSH2 0x10C JUMP JUMPDEST PUSH2 0x16F PUSH2 0x20B PUSH2 0x1395 JUMP JUMPDEST PUSH2 0x117 PUSH2 0x2710 PUSH2 0x173 JUMP JUMPDEST PUSH2 0x117 PUSH2 0x322 JUMP JUMPDEST CALLVALUE PUSH2 0x107 JUMPI PUSH2 0x345 CALLDATASIZE PUSH1 0x4 PUSH2 0x10C JUMP JUMPDEST PUSH2 0x16F PUSH2 0x1AD PUSH2 0x32D JUMP JUMPDEST CALLVALUE PUSH2 0x107 JUMPI PUSH2 0x360 CALLDATASIZE PUSH1 0x4 PUSH2 0x10C JUMP JUMPDEST PUSH2 0x16F PUSH20 0x5C0401E81E6953A22C95311BC54060BDE84B1022 PUSH2 0x155 JUMP JUMPDEST PUSH1 0x1 PUSH1 0x1 PUSH1 0xA0 SHL SUB SWAP2 DUP3 AND DUP2 MSTORE SWAP2 AND PUSH1 0x20 DUP3 ADD MSTORE SWAP1 ISZERO ISZERO PUSH1 0x40 DUP3 ADD MSTORE PUSH1 0x60 ADD SWAP1 JUMP JUMPDEST CALLVALUE PUSH2 0x107 JUMPI PUSH2 0x3AF CALLDATASIZE PUSH1 0x4 PUSH2 0x10C JUMP JUMPDEST PUSH2 0x16F PUSH2 0x3BA PUSH2 0x13D4 JUMP JUMPDEST PUSH1 0x40 MLOAD SWAP2 SWAP4 SWAP2 SWAP4 DUP5 SWAP4 DUP5 PUSH2 0x37D JUMP JUMPDEST PUSH2 0x117 SWAP2 PUSH1 0x8 MUL SHR PUSH1 0x1 PUSH1 0x1 PUSH1 0xA0 SHL SUB AND SWAP1 JUMP JUMPDEST SWAP1 PUSH2 0x117 SWAP2 SLOAD PUSH2 0x3C9 JUMP JUMPDEST PUSH2 0x117 PUSH1 0x0 DUP1 PUSH2 0x3DD JUMP JUMPDEST CALLVALUE PUSH2 0x107 JUMPI PUSH2 0x403 CALLDATASIZE PUSH1 0x4 PUSH2 0x10C JUMP JUMPDEST PUSH2 0x16F PUSH2 0x155 PUSH2 0x3E8 JUMP JUMPDEST PUSH2 0x117 PUSH1 0x0 PUSH1 0x1 PUSH2 0x3DD JUMP JUMPDEST PUSH2 0x117 SWAP1 PUSH2 0x11A SWAP1 PUSH1 0x1 PUSH1 0x1 PUSH1 0xA0 SHL SUB AND DUP3 JUMP JUMPDEST PUSH2 0x117 SWAP1 PUSH2 0x41A JUMP JUMPDEST PUSH2 0x117 SWAP1 PUSH2 0x42E JUMP JUMPDEST PUSH2 0x126 SWAP1 PUSH2 0x437 JUMP JUMPDEST PUSH1 0x20 DUP2 ADD SWAP3 SWAP2 PUSH2 0x12A SWAP2 SWAP1 PUSH2 0x440 JUMP JUMPDEST CALLVALUE PUSH2 0x107 JUMPI PUSH2 0x469 CALLDATASIZE PUSH1 0x4 PUSH2 0x10C JUMP JUMPDEST PUSH2 0x16F PUSH2 0x474 PUSH2 0x40E JUMP JUMPDEST PUSH1 0x40 MLOAD SWAP2 DUP3 SWAP2 DUP3 PUSH2 0x449 JUMP JUMPDEST CALLVALUE PUSH2 0x107 JUMPI PUSH2 0x235 PUSH2 0x493 CALLDATASIZE PUSH1 0x4 PUSH2 0x1DC JUMP JUMPDEST PUSH2 0x17AA JUMP JUMPDEST PUSH2 0x117 SWAP2 PUSH1 0x8 MUL SHR JUMPDEST PUSH1 0xFF AND SWAP1 JUMP JUMPDEST SWAP1 PUSH2 0x117 SWAP2 SLOAD PUSH2 0x498 JUMP JUMPDEST PUSH2 0x117 PUSH1 0x14 PUSH1 0x1 PUSH2 0x4A7 JUMP JUMPDEST CALLVALUE PUSH2 0x107 JUMPI PUSH2 0x4CE CALLDATASIZE PUSH1 0x4 PUSH2 0x10C JUMP JUMPDEST PUSH2 0x16F PUSH2 0x20B PUSH2 0x4B2 JUMP JUMPDEST PUSH2 0x117 SWAP1 PUSH2 0x11A JUMP JUMPDEST PUSH2 0x117 SWAP1 SLOAD PUSH2 0x4D9 JUMP JUMPDEST ADD SWAP1 JUMP JUMPDEST ISZERO PUSH2 0x4F7 JUMPI JUMP JUMPDEST PUSH1 0x40 MLOAD PUSH3 0x461BCD PUSH1 0xE5 SHL DUP2 MSTORE PUSH1 0x20 PUSH1 0x4 DUP3 ADD MSTORE PUSH1 0xC PUSH1 0x24 DUP3 ADD MSTORE PUSH12 0x4F6E6C7920666163746F7279 PUSH1 0xA0 SHL PUSH1 0x44 DUP3 ADD MSTORE DUP1 PUSH1 0x64 DUP2 ADD JUMPDEST SUB SWAP1 REVERT JUMPDEST SWAP1 PUSH2 0x117 SWAP2 PUSH2 0x54C PUSH2 0x545 PUSH2 0x11A PUSH1 0x0 PUSH2 0x4E2 JUMP JUMPDEST CALLER EQ PUSH2 0x4F0 JUMP JUMPDEST SWAP1 PUSH2 0x55E SWAP2 PUSH2 0x559 PUSH2 0x17DE JUMP JUMPDEST PUSH2 0x9D1 JUMP JUMPDEST SWAP1 PUSH2 0x12A PUSH2 0x180E JUMP JUMPDEST PUSH4 0x4E487B71 PUSH1 0xE0 SHL PUSH1 0x0 MSTORE PUSH1 0x41 PUSH1 0x4 MSTORE PUSH1 0x24 PUSH1 0x0 REVERT JUMPDEST SWAP1 PUSH1 0x1F ADD PUSH1 0x1F NOT AND DUP2 ADD SWAP1 DUP2 LT PUSH8 0xFFFFFFFFFFFFFFFF DUP3 GT OR PUSH2 0x59F JUMPI PUSH1 0x40 MSTORE JUMP JUMPDEST PUSH2 0x567 JUMP JUMPDEST DUP1 PUSH2 0x1C8 JUMP JUMPDEST SWAP1 POP MLOAD SWAP1 PUSH2 0x12A DUP3 PUSH2 0x5A4 JUMP JUMPDEST SWAP1 PUSH1 0x20 DUP3 DUP3 SUB SLT PUSH2 0x107 JUMPI PUSH2 0x117 SWAP2 PUSH2 0x5AA JUMP JUMPDEST PUSH1 0x40 MLOAD RETURNDATASIZE PUSH1 0x0 DUP3 RETURNDATACOPY RETURNDATASIZE SWAP1 REVERT JUMPDEST SWAP1 POP MLOAD SWAP1 PUSH2 0x12A DUP3 PUSH2 0x1BD JUMP JUMPDEST SWAP1 PUSH1 0x20 DUP3 DUP3 SUB SLT PUSH2 0x107 JUMPI PUSH2 0x117 SWAP2 PUSH2 0x5D7 JUMP JUMPDEST ISZERO PUSH2 0x5FF JUMPI JUMP JUMPDEST PUSH1 0x40 MLOAD PUSH3 0x461BCD PUSH1 0xE5 SHL DUP2 MSTORE PUSH1 0x20 PUSH1 0x4 DUP3 ADD MSTORE PUSH1 0x12 PUSH1 0x24 DUP3 ADD MSTORE PUSH18 0x42757920616D6F756E74206973207A65726F PUSH1 0x70 SHL PUSH1 0x44 DUP3 ADD MSTORE PUSH1 0x64 SWAP1 REVERT JUMPDEST SWAP1 PUSH2 0x12A PUSH2 0x646 PUSH1 0x40 MLOAD SWAP1 JUMP JUMPDEST SWAP3 DUP4 PUSH2 0x57D JUMP JUMPDEST PUSH2 0x117 PUSH1 0x40 PUSH2 0x639 JUMP JUMPDEST PUSH2 0x65F PUSH2 0x64D JUMP JUMPDEST SWAP1 PUSH1 0x60 DUP3 MSTORE PUSH1 0x60 PUSH1 0x20 DUP4 ADD MSTORE JUMP JUMPDEST PUSH2 0x117 PUSH2 0x657 JUMP JUMPDEST PUSH8 0xFFFFFFFFFFFFFFFF DUP2 GT PUSH2 0x59F JUMPI PUSH1 0x20 DUP1 SWAP2 MUL ADD SWAP1 JUMP JUMPDEST SWAP1 PUSH2 0x69F PUSH2 0x69A DUP4 PUSH2 0x675 JUMP JUMPDEST PUSH2 0x639 JUMP JUMPDEST SWAP2 DUP3 MSTORE JUMP JUMPDEST CALLDATASIZE SWAP1 CALLDATACOPY JUMP JUMPDEST SWAP1 PUSH2 0x12A PUSH2 0x6BF PUSH2 0x6B9 DUP5 PUSH2 0x68D JUMP JUMPDEST SWAP4 PUSH2 0x675 JUMP JUMPDEST PUSH1 0x1F NOT ADD PUSH1 0x20 DUP5 ADD PUSH2 0x6A4 JUMP JUMPDEST PUSH4 0x4E487B71 PUSH1 0xE0 SHL PUSH1 0x0 MSTORE PUSH1 0x32 PUSH1 0x4 MSTORE PUSH1 0x24 PUSH1 0x0 REVERT JUMPDEST SWAP1 PUSH2 0x6EB DUP3 MLOAD SWAP1 JUMP JUMPDEST DUP2 LT ISZERO PUSH2 0x6FC JUMPI PUSH1 0x20 DUP1 SWAP2 MUL ADD ADD SWAP1 JUMP JUMPDEST PUSH2 0x6CC JUMP JUMPDEST PUSH4 0x4E487B71 PUSH1 0xE0 SHL PUSH1 0x0 MSTORE PUSH1 0x11 PUSH1 0x4 MSTORE PUSH1 0x24 PUSH1 0x0 REVERT JUMPDEST SWAP2 SWAP1 DUP3 SUB SWAP2 DUP3 GT PUSH2 0x724 JUMPI JUMP JUMPDEST PUSH2 0x701 JUMP JUMPDEST DUP2 DUP2 MUL SWAP3 SWAP2 DUP2 ISZERO SWAP2 DUP5 DIV EQ OR ISZERO PUSH2 0x724 JUMPI JUMP JUMPDEST PUSH4 0x4E487B71 PUSH1 0xE0 SHL PUSH1 0x0 MSTORE PUSH1 0x12 PUSH1 0x4 MSTORE PUSH1 0x24 PUSH1 0x0 REVERT JUMPDEST SWAP1 PUSH2 0x75C JUMP JUMPDEST SWAP2 SWAP1 JUMP JUMPDEST SWAP1 DUP2 ISZERO PUSH2 0x767 JUMPI DIV SWAP1 JUMP JUMPDEST PUSH2 0x73C JUMP JUMPDEST SWAP2 SWAP1 DUP3 ADD DUP1 SWAP3 GT PUSH2 0x724 JUMPI JUMP JUMPDEST SWAP1 PUSH2 0x799 PUSH2 0x792 PUSH2 0x788 DUP5 MLOAD SWAP1 JUMP JUMPDEST DUP1 DUP5 MSTORE SWAP3 PUSH1 0x20 ADD SWAP1 JUMP JUMPDEST SWAP3 PUSH1 0x20 ADD SWAP1 JUMP JUMPDEST SWAP1 PUSH1 0x0 JUMPDEST DUP2 DUP2 LT PUSH2 0x7AA JUMPI POP POP POP SWAP1 JUMP JUMPDEST SWAP1 SWAP2 SWAP3 PUSH2 0x7C7 PUSH2 0x7C0 PUSH1 0x1 SWAP3 DUP7 MLOAD DUP2 MSTORE PUSH1 0x20 ADD SWAP1 JUMP JUMPDEST SWAP5 PUSH1 0x20 ADD SWAP1 JUMP JUMPDEST SWAP3 SWAP2 ADD PUSH2 0x79D JUMP JUMPDEST SWAP1 PUSH2 0x7DE PUSH2 0x792 PUSH2 0x788 DUP5 MLOAD SWAP1 JUMP JUMPDEST SWAP1 PUSH1 0x0 JUMPDEST DUP2 DUP2 LT PUSH2 0x7EF JUMPI POP POP POP SWAP1 JUMP JUMPDEST SWAP1 SWAP2 SWAP3 PUSH2 0x80E PUSH2 0x7C0 PUSH1 0x1 SWAP3 DUP7 MLOAD PUSH1 0x1 PUSH1 0x1 PUSH1 0xA0 SHL SUB AND DUP2 MSTORE PUSH1 0x20 ADD SWAP1 JUMP JUMPDEST SWAP3 SWAP2 ADD PUSH2 0x7E2 JUMP JUMPDEST DUP1 MLOAD PUSH1 0x40 DUP1 DUP5 MSTORE PUSH2 0x117 SWAP4 SWAP2 PUSH1 0x20 SWAP2 PUSH2 0x832 SWAP2 SWAP1 DUP5 ADD SWAP1 PUSH2 0x779 JUMP JUMPDEST SWAP3 ADD MLOAD SWAP1 PUSH1 0x20 DUP2 DUP5 SUB SWAP2 ADD MSTORE PUSH2 0x7CF JUMP JUMPDEST SWAP1 PUSH2 0x87B PUSH2 0x88D SWAP2 PUSH2 0x12A SWAP7 SWAP9 SWAP8 SWAP6 PUSH2 0x86E PUSH1 0x80 SWAP7 PUSH2 0x867 PUSH1 0xA0 DUP9 ADD SWAP5 PUSH1 0x0 DUP10 ADD MSTORE JUMP JUMPDEST PUSH1 0x20 DUP8 ADD MSTORE JUMP JUMPDEST DUP5 DUP3 SUB PUSH1 0x40 DUP7 ADD MSTORE PUSH2 0x816 JUMP JUMPDEST PUSH1 0x1 PUSH1 0x1 PUSH1 0xA0 SHL SUB SWAP1 SWAP8 AND PUSH1 0x60 DUP4 ADD MSTORE JUMP JUMPDEST ADD MSTORE JUMP JUMPDEST ISZERO PUSH2 0x898 JUMPI JUMP JUMPDEST PUSH1 0x40 MLOAD PUSH3 0x461BCD PUSH1 0xE5 SHL DUP2 MSTORE PUSH1 0x20 PUSH1 0x4 DUP3 ADD MSTORE PUSH1 0x12 PUSH1 0x24 DUP3 ADD MSTORE PUSH18 0x537761702072657475726E6564207A65726F PUSH1 0x70 SHL PUSH1 0x44 DUP3 ADD MSTORE PUSH1 0x64 SWAP1 REVERT JUMPDEST ISZERO PUSH2 0x8D9 JUMPI JUMP JUMPDEST PUSH1 0x40 MLOAD PUSH3 0x461BCD PUSH1 0xE5 SHL DUP2 MSTORE PUSH1 0x20 PUSH1 0x4 DUP3 ADD MSTORE PUSH1 0x11 PUSH1 0x24 DUP3 ADD MSTORE PUSH17 0x10995B9C5A481B5A5B9D0819985A5B1959 PUSH1 0x7A SHL PUSH1 0x44 DUP3 ADD MSTORE PUSH1 0x64 SWAP1 REVERT JUMPDEST ISZERO PUSH2 0x919 JUMPI JUMP JUMPDEST PUSH1 0x40 MLOAD PUSH3 0x461BCD PUSH1 0xE5 SHL DUP2 MSTORE PUSH1 0x20 PUSH1 0x4 DUP3 ADD MSTORE PUSH1 0x14 PUSH1 0x24 DUP3 ADD MSTORE PUSH20 0x139BC81C5A551BDAD95B9CC81C9958D95A5D9959 PUSH1 0x62 SHL PUSH1 0x44 DUP3 ADD MSTORE PUSH1 0x64 SWAP1 REVERT JUMPDEST DUP1 ISZERO ISZERO PUSH2 0x1C8 JUMP JUMPDEST SWAP1 POP MLOAD SWAP1 PUSH2 0x12A DUP3 PUSH2 0x955 JUMP JUMPDEST SWAP1 PUSH1 0x20 DUP3 DUP3 SUB SLT PUSH2 0x107 JUMPI PUSH2 0x117 SWAP2 PUSH2 0x95D JUMP JUMPDEST PUSH2 0x126 SWAP1 PUSH2 0x173 JUMP JUMPDEST PUSH1 0x1 PUSH1 0x1 PUSH1 0xA0 SHL SUB SWAP1 SWAP2 AND DUP2 MSTORE PUSH1 0x60 DUP2 ADD SWAP4 SWAP3 PUSH2 0x12A SWAP3 SWAP1 SWAP2 PUSH1 0x40 SWAP2 PUSH2 0x9AF SWAP1 JUMPDEST PUSH1 0x20 DUP4 ADD MSTORE JUMP JUMPDEST ADD SWAP1 PUSH2 0x97E JUMP JUMPDEST SWAP1 DUP2 MSTORE PUSH1 0x60 DUP2 ADD SWAP4 SWAP3 PUSH2 0x12A SWAP3 SWAP1 SWAP2 PUSH1 0x40 SWAP2 PUSH2 0x88D SWAP1 PUSH2 0x9A8 JUMP JUMPDEST POP GAS SWAP1 PUSH2 0x9E8 PUSH2 0x9E3 PUSH2 0x9E3 DUP4 PUSH2 0x437 JUMP JUMPDEST PUSH2 0x437 JUMP JUMPDEST PUSH1 0x40 MLOAD PUSH4 0x1FA70531 PUSH1 0xE0 SHL DUP2 MSTORE PUSH1 0x20 DUP2 PUSH1 0x4 DUP2 DUP6 GAS STATICCALL SWAP1 DUP2 ISZERO PUSH2 0xE3B JUMPI PUSH1 0x0 SWAP2 PUSH2 0xF42 JUMPI JUMPDEST POP PUSH1 0x40 MLOAD PUSH4 0x8DA5CB5B PUSH1 0xE0 SHL DUP2 MSTORE SWAP4 PUSH1 0x20 DUP6 PUSH1 0x4 DUP2 DUP7 GAS STATICCALL SWAP2 DUP3 ISZERO PUSH2 0xE3B JUMPI PUSH2 0xAC4 SWAP6 PUSH1 0x0 SWAP4 PUSH2 0xF12 JUMPI JUMPDEST POP DUP3 SWAP4 PUSH1 0x20 SWAP4 POP PUSH1 0x0 SWAP1 PUSH2 0xA56 PUSH2 0xA4E DUP4 PUSH2 0x173 JUMP JUMPDEST DUP5 JUMPDEST GT PUSH2 0x5F8 JUMP JUMPDEST PUSH20 0xB97EF9EF8734C71904D8002F8B6BC66DD9C48A6E SWAP4 PUSH2 0xA75 DUP6 PUSH2 0x437 JUMP JUMPDEST SWAP5 PUSH2 0xA7F ADDRESS PUSH2 0x437 JUMP JUMPDEST SWAP7 DUP7 PUSH2 0xA8E DUP8 DUP11 DUP13 DUP2 SWAP12 PUSH2 0x1819 JUMP JUMPDEST PUSH2 0xAAF DUP8 PUSH20 0x9A93A421B74F1C5755B83DD2C211614DC419C44B JUMPDEST DUP1 SWAP4 PUSH2 0x1864 JUMP JUMPDEST PUSH2 0xAB7 PUSH2 0x66D JUMP JUMPDEST SWAP1 PUSH2 0xB51 PUSH1 0x1 SWAP14 DUP15 PUSH2 0x173 JUMP JUMPDEST SWAP5 PUSH2 0xAF8 PUSH2 0xAD1 DUP8 PUSH2 0x6A9 JUMP JUMPDEST DUP11 DUP7 ADD SWAP1 DUP2 MSTORE PUSH2 0xAF5 PUSH2 0xAE4 PUSH1 0x14 PUSH2 0x173 JUMP JUMPDEST SWAP2 MLOAD PUSH2 0xAEF DUP14 PUSH2 0x173 JUMP JUMPDEST SWAP1 PUSH2 0x6E2 JUMP JUMPDEST MSTORE JUMP JUMPDEST PUSH2 0xB30 PUSH2 0xB0D PUSH2 0xB08 PUSH1 0x2 PUSH2 0x173 JUMP JUMPDEST PUSH2 0x6A9 JUMP JUMPDEST SWAP2 DUP7 DUP7 ADD SWAP3 DUP4 MSTORE PUSH2 0xB22 DUP4 MLOAD PUSH2 0xAEF DUP14 PUSH2 0x173 JUMP JUMPDEST SWAP1 PUSH1 0x1 PUSH1 0x1 PUSH1 0xA0 SHL SUB AND SWAP1 MSTORE JUMP JUMPDEST PUSH2 0xB22 PUSH20 0xB31F66AA3C1E785363F0875A1B74E27B85FD66C7 SWAP7 DUP8 SWAP3 MLOAD PUSH2 0x6E2 JUMP JUMPDEST PUSH2 0xB87 PUSH2 0x9E3 PUSH2 0xB81 PUSH2 0xB62 PUSH2 0x322 JUMP JUMPDEST PUSH2 0xB7C PUSH2 0xB76 PUSH2 0xB70 PUSH2 0x180 JUMP JUMPDEST DUP4 PUSH2 0x717 JUMP JUMPDEST DUP14 PUSH2 0x729 JUMP JUMPDEST PUSH2 0x752 JUMP JUMPDEST SWAP3 PUSH2 0x437 JUMP JUMPDEST SWAP1 DUP8 DUP10 PUSH2 0xBBE PUSH2 0xBA1 PUSH2 0xB9B PUSH2 0x12C PUSH2 0x173 JUMP JUMPDEST TIMESTAMP PUSH2 0x76C JUMP JUMPDEST PUSH1 0x40 MLOAD SWAP14 DUP15 SWAP8 DUP9 SWAP7 DUP8 SWAP6 PUSH4 0x6B34FF09 PUSH1 0xE1 SHL DUP8 MSTORE PUSH1 0x4 DUP8 ADD PUSH2 0x843 JUMP JUMPDEST SUB SWAP3 GAS CALL SWAP6 DUP7 ISZERO PUSH2 0xE3B JUMPI DUP5 SWAP7 PUSH2 0xEED JUMPI JUMPDEST POP PUSH2 0xBE8 SWAP1 PUSH2 0x9E3 PUSH2 0xBE1 DUP7 PUSH2 0x173 JUMP JUMPDEST DUP9 GT PUSH2 0x891 JUMP JUMPDEST SWAP6 PUSH2 0xC0A DUP7 PUSH20 0x5C0401E81E6953A22C95311BC54060BDE84B1022 JUMPDEST DUP1 SWAP10 PUSH2 0x1864 JUMP JUMPDEST PUSH2 0xC13 DUP8 PUSH2 0x437 JUMP JUMPDEST PUSH2 0xC1C DUP2 PUSH2 0x437 JUMP JUMPDEST SWAP2 PUSH4 0x70A08231 SWAP3 PUSH2 0xC2C PUSH1 0x40 MLOAD SWAP1 JUMP JUMPDEST SWAP10 PUSH2 0xC37 DUP6 PUSH1 0xE0 SHL SWAP1 JUMP JUMPDEST DUP12 MSTORE PUSH1 0x1 PUSH1 0x1 PUSH1 0xA0 SHL SUB DUP4 AND PUSH1 0x4 DUP13 ADD MSTORE PUSH1 0x20 DUP12 PUSH1 0x24 DUP2 DUP6 GAS STATICCALL SWAP11 DUP12 ISZERO PUSH2 0xE3B JUMPI DUP9 SWAP12 PUSH2 0xEB9 JUMPI JUMPDEST POP SWAP1 PUSH1 0x20 PUSH2 0xC9D PUSH2 0xC74 PUSH2 0x9E3 DUP12 SWAP7 SWAP6 PUSH2 0x437 JUMP JUMPDEST DUP13 PUSH2 0xC7E PUSH1 0x40 MLOAD SWAP1 JUMP JUMPDEST SWAP7 DUP8 SWAP4 DUP5 SWAP3 DUP4 SWAP2 SWAP1 PUSH4 0x140E25AD PUSH1 0xE3 SHL DUP4 MSTORE PUSH1 0x4 DUP4 ADD SWAP1 DUP2 MSTORE PUSH1 0x20 ADD SWAP1 JUMP JUMPDEST SUB SWAP3 GAS CALL DUP1 ISZERO PUSH2 0xE3B JUMPI PUSH2 0xCF6 SWAP6 PUSH2 0xCCF PUSH2 0xCDF SWAP3 PUSH1 0x20 SWAP7 DUP13 SWAP2 PUSH2 0xE9C JUMPI JUMPDEST POP PUSH2 0xCC9 PUSH2 0x758 DUP14 PUSH2 0x173 JUMP JUMPDEST EQ PUSH2 0x8D2 JUMP JUMPDEST PUSH1 0x40 MLOAD SWAP7 DUP8 SWAP5 DUP6 SWAP4 DUP5 SWAP4 PUSH1 0xE0 SHL SWAP1 JUMP JUMPDEST DUP4 MSTORE PUSH1 0x1 PUSH1 0x1 PUSH1 0xA0 SHL SUB AND PUSH1 0x4 DUP4 ADD MSTORE PUSH1 0x24 DUP3 ADD SWAP1 JUMP JUMPDEST SUB SWAP2 GAS STATICCALL SWAP2 DUP3 ISZERO PUSH2 0xE3B JUMPI DUP11 SWAP9 PUSH2 0xD33 SWAP4 PUSH2 0xD18 SWAP3 DUP9 SWAP2 PUSH2 0xE6D JUMPI JUMPDEST POP PUSH2 0x717 JUMP JUMPDEST SWAP10 DUP11 SWAP2 PUSH2 0xD2E PUSH2 0xD27 DUP9 PUSH2 0x173 JUMP JUMPDEST DUP5 GT PUSH2 0x912 JUMP JUMPDEST PUSH2 0x18D5 JUMP JUMPDEST PUSH1 0x20 PUSH2 0xD3E PUSH1 0x40 MLOAD SWAP1 JUMP JUMPDEST PUSH4 0x950DA287 PUSH1 0xE0 SHL DUP2 MSTORE SWAP3 DUP4 SWAP1 PUSH1 0x4 SWAP1 DUP3 SWAP1 DUP8 SWAP1 GAS CALL SWAP2 DUP3 ISZERO PUSH2 0xE3B JUMPI PUSH2 0xD6C SWAP3 PUSH2 0xE40 JUMPI JUMPDEST POP GAS SWAP1 PUSH2 0x717 JUMP JUMPDEST PUSH2 0xD78 PUSH2 0x9E3 DUP10 PUSH2 0x4E2 JUMP JUMPDEST DUP1 EXTCODESIZE ISZERO PUSH2 0x107 JUMPI DUP9 DUP4 SWAP2 PUSH2 0xDAB SWAP4 DUP4 DUP11 PUSH2 0xD91 PUSH1 0x40 MLOAD SWAP1 JUMP JUMPDEST SWAP7 DUP8 SWAP6 DUP7 SWAP5 DUP6 SWAP4 PUSH4 0x287BBB3D PUSH1 0xE0 SHL DUP6 MSTORE PUSH1 0x4 DUP6 ADD PUSH2 0x987 JUMP JUMPDEST SUB SWAP3 GAS CALL DUP1 ISZERO PUSH2 0xE3B JUMPI PUSH32 0xAF8C946FAD4DC7FC3F8D96E39251F3273B720222DB4B39390936A6CF0EB08036 SWAP6 PUSH2 0xE08 SWAP4 PUSH2 0xDF5 SWAP4 PUSH2 0xDEF SWAP4 PUSH2 0xE0E JUMPI JUMPDEST POP POP PUSH2 0x437 JUMP JUMPDEST SWAP6 PUSH2 0x437 JUMP JUMPDEST SWAP6 PUSH2 0xDFF PUSH1 0x40 MLOAD SWAP1 JUMP JUMPDEST SWAP4 DUP5 SWAP4 DUP5 PUSH2 0x9B6 JUMP JUMPDEST SUB SWAP1 LOG3 SWAP1 JUMP JUMPDEST DUP2 PUSH2 0xE2D SWAP3 SWAP1 RETURNDATASIZE LT PUSH2 0xE34 JUMPI JUMPDEST PUSH2 0xE25 DUP2 DUP4 PUSH2 0x57D JUMP JUMPDEST DUP2 ADD SWAP1 PUSH2 0x10C JUMP JUMPDEST CODESIZE DUP1 PUSH2 0xDE8 JUMP JUMPDEST POP RETURNDATASIZE PUSH2 0xE1B JUMP JUMPDEST PUSH2 0x5CB JUMP JUMPDEST PUSH2 0xE61 SWAP1 PUSH1 0x20 RETURNDATASIZE PUSH1 0x20 GT PUSH2 0xE66 JUMPI JUMPDEST PUSH2 0xE59 DUP2 DUP4 PUSH2 0x57D JUMP JUMPDEST DUP2 ADD SWAP1 PUSH2 0x96A JUMP JUMPDEST PUSH2 0xD64 JUMP JUMPDEST POP RETURNDATASIZE PUSH2 0xE4F JUMP JUMPDEST PUSH2 0xE8F SWAP2 POP PUSH1 0x20 RETURNDATASIZE PUSH1 0x20 GT PUSH2 0xE95 JUMPI JUMPDEST PUSH2 0xE87 DUP2 DUP4 PUSH2 0x57D JUMP JUMPDEST DUP2 ADD SWAP1 PUSH2 0x5B7 JUMP JUMPDEST CODESIZE PUSH2 0xD12 JUMP JUMPDEST POP RETURNDATASIZE PUSH2 0xE7D JUMP JUMPDEST PUSH2 0xEB3 SWAP2 POP DUP8 RETURNDATASIZE DUP10 GT PUSH2 0xE95 JUMPI PUSH2 0xE87 DUP2 DUP4 PUSH2 0x57D JUMP JUMPDEST CODESIZE PUSH2 0xCBC JUMP JUMPDEST DUP9 SWAP4 SWAP3 SWAP2 SWAP12 POP PUSH2 0xC9D PUSH2 0xC74 PUSH2 0x9E3 PUSH2 0xEE0 PUSH1 0x20 SWAP5 DUP6 RETURNDATASIZE DUP8 GT PUSH2 0xE95 JUMPI PUSH2 0xE87 DUP2 DUP4 PUSH2 0x57D JUMP JUMPDEST SWAP15 SWAP5 SWAP6 SWAP7 POP POP POP POP PUSH2 0xC5F JUMP JUMPDEST PUSH2 0xBE8 SWAP2 SWAP7 POP PUSH2 0xF0B SWAP1 PUSH1 0x20 RETURNDATASIZE PUSH1 0x20 GT PUSH2 0xE95 JUMPI PUSH2 0xE87 DUP2 DUP4 PUSH2 0x57D JUMP JUMPDEST SWAP6 SWAP1 PUSH2 0xBD0 JUMP JUMPDEST PUSH1 0x20 SWAP4 POP PUSH2 0xF35 SWAP1 DUP5 RETURNDATASIZE DUP7 GT PUSH2 0xF3B JUMPI JUMPDEST PUSH2 0xF2D DUP2 DUP4 PUSH2 0x57D JUMP JUMPDEST DUP2 ADD SWAP1 PUSH2 0x5E4 JUMP JUMPDEST SWAP3 PUSH2 0xA38 JUMP JUMPDEST POP RETURNDATASIZE PUSH2 0xF23 JUMP JUMPDEST PUSH2 0xF5B SWAP2 POP PUSH1 0x20 RETURNDATASIZE PUSH1 0x20 GT PUSH2 0xE95 JUMPI PUSH2 0xE87 DUP2 DUP4 PUSH2 0x57D JUMP JUMPDEST CODESIZE PUSH2 0xA0D JUMP JUMPDEST PUSH2 0x117 SWAP1 PUSH1 0x0 PUSH2 0x530 JUMP JUMPDEST PUSH2 0x11A PUSH2 0x117 PUSH2 0x117 SWAP3 SWAP1 JUMP JUMPDEST PUSH2 0x117 SWAP1 PUSH2 0xF6C JUMP JUMPDEST ISZERO PUSH2 0xF89 JUMPI JUMP JUMPDEST PUSH1 0x40 MLOAD PUSH3 0x461BCD PUSH1 0xE5 SHL DUP2 MSTORE PUSH1 0x20 PUSH1 0x4 DUP3 ADD MSTORE PUSH1 0xC PUSH1 0x24 DUP3 ADD MSTORE PUSH12 0x5A65726F2061646472657373 PUSH1 0xA0 SHL PUSH1 0x44 DUP3 ADD MSTORE PUSH1 0x64 SWAP1 REVERT JUMPDEST ISZERO PUSH2 0xFC4 JUMPI JUMP JUMPDEST PUSH1 0x40 MLOAD PUSH3 0x461BCD PUSH1 0xE5 SHL DUP2 MSTORE PUSH1 0x20 PUSH1 0x4 DUP3 ADD MSTORE PUSH1 0xE PUSH1 0x24 DUP3 ADD MSTORE PUSH14 0x139BDD08185D5D1A1BDC9A5E9959 PUSH1 0x92 SHL PUSH1 0x44 DUP3 ADD MSTORE PUSH1 0x64 SWAP1 REVERT JUMPDEST PUSH2 0x117 SWAP1 PUSH1 0xA0 SHR PUSH2 0x4A1 JUMP JUMPDEST PUSH2 0x117 SWAP1 SLOAD PUSH2 0xFFA JUMP JUMPDEST ISZERO PUSH2 0x1017 JUMPI JUMP JUMPDEST PUSH1 0x40 MLOAD PUSH3 0x461BCD PUSH1 0xE5 SHL DUP2 MSTORE PUSH1 0x20 PUSH1 0x4 DUP3 ADD MSTORE PUSH1 0x16 PUSH1 0x24 DUP3 ADD MSTORE PUSH22 0x119858DD1BDC9E48185B1C9958591E481B1BD8DAD959 PUSH1 0x52 SHL PUSH1 0x44 DUP3 ADD MSTORE PUSH1 0x64 SWAP1 REVERT JUMPDEST SWAP1 PUSH1 0x1 PUSH1 0x1 PUSH1 0xA0 SHL SUB SWAP1 JUMPDEST SWAP2 DUP2 NOT AND SWAP2 AND OR SWAP1 JUMP JUMPDEST SWAP1 PUSH2 0x107A PUSH2 0x117 PUSH2 0x1081 SWAP3 PUSH2 0x437 JUMP JUMPDEST DUP3 SLOAD PUSH2 0x1055 JUMP JUMPDEST SWAP1 SSTORE JUMP JUMPDEST SWAP1 PUSH1 0xFF PUSH1 0xA0 SHL SWAP1 PUSH1 0xA0 SHL PUSH2 0x1060 JUMP JUMPDEST SWAP1 PUSH2 0x10A4 PUSH2 0x117 PUSH2 0x1081 SWAP3 ISZERO ISZERO SWAP1 JUMP JUMPDEST DUP3 SLOAD PUSH2 0x1085 JUMP JUMPDEST PUSH2 0x10CC PUSH2 0x10BB PUSH2 0x11A PUSH1 0x0 PUSH2 0xF79 JUMP JUMPDEST PUSH1 0x1 PUSH1 0x1 PUSH1 0xA0 SHL SUB DUP4 AND EQ ISZERO PUSH2 0xF82 JUMP JUMPDEST PUSH2 0x10E3 PUSH2 0x10DC PUSH2 0x11A PUSH1 0x0 PUSH2 0x4E2 JUMP JUMPDEST CALLER EQ PUSH2 0xFBD JUMP JUMPDEST PUSH2 0x10FC PUSH2 0x10F7 PUSH2 0x10F3 PUSH1 0x1 PUSH2 0x1006 JUMP JUMPDEST ISZERO SWAP1 JUMP JUMPDEST PUSH2 0x1010 JUMP JUMPDEST PUSH2 0x1128 PUSH2 0x1122 PUSH2 0x110C PUSH1 0x0 PUSH2 0x4E2 JUMP JUMPDEST PUSH2 0x1117 DUP5 PUSH1 0x0 PUSH2 0x106A JUMP JUMPDEST PUSH2 0x9E3 PUSH1 0x1 DUP1 PUSH2 0x1094 JUMP JUMPDEST SWAP2 PUSH2 0x437 JUMP JUMPDEST SWAP1 PUSH32 0x333C7678BAF16017CF31E1D2F90143A62AAB01A67A0807F6836A4304CEABB555 PUSH2 0x1153 PUSH1 0x40 MLOAD SWAP1 JUMP JUMPDEST DUP1 DUP1 JUMPDEST SUB SWAP1 LOG3 JUMP JUMPDEST SWAP1 PUSH2 0x12A SWAP2 PUSH2 0x1170 PUSH2 0x545 PUSH2 0x11A PUSH1 0x0 PUSH2 0x4E2 JUMP JUMPDEST PUSH2 0x1279 JUMP JUMPDEST ISZERO PUSH2 0x117C JUMPI JUMP JUMPDEST PUSH1 0x40 MLOAD PUSH3 0x461BCD PUSH1 0xE5 SHL DUP2 MSTORE PUSH1 0x20 PUSH1 0x4 DUP3 ADD MSTORE PUSH1 0xA PUSH1 0x24 DUP3 ADD MSTORE PUSH10 0x115B5C1D1E481B1A5CDD PUSH1 0xB2 SHL PUSH1 0x44 DUP3 ADD MSTORE PUSH1 0x64 SWAP1 REVERT JUMPDEST SWAP2 SWAP1 DUP2 LT ISZERO PUSH2 0x6FC JUMPI PUSH1 0x20 MUL ADD SWAP1 JUMP JUMPDEST CALLDATALOAD PUSH2 0x117 DUP2 PUSH2 0x1BD JUMP JUMPDEST PUSH8 0xFFFFFFFFFFFFFFFF DUP2 GT PUSH2 0x59F JUMPI PUSH1 0x20 SWAP1 PUSH1 0x1F ADD PUSH1 0x1F NOT AND ADD SWAP1 JUMP JUMPDEST SWAP1 PUSH2 0x69F PUSH2 0x69A DUP4 PUSH2 0x11C8 JUMP JUMPDEST RETURNDATASIZE ISZERO PUSH2 0x120C JUMPI PUSH2 0x1201 RETURNDATASIZE PUSH2 0x11E5 JUMP JUMPDEST SWAP1 RETURNDATASIZE PUSH1 0x0 PUSH1 0x20 DUP5 ADD RETURNDATACOPY JUMP JUMPDEST PUSH1 0x60 SWAP1 JUMP JUMPDEST PUSH1 0x0 JUMPDEST DUP4 DUP2 LT PUSH2 0x1224 JUMPI POP POP PUSH1 0x0 SWAP2 ADD MSTORE JUMP JUMPDEST DUP2 DUP2 ADD MLOAD DUP4 DUP3 ADD MSTORE PUSH1 0x20 ADD PUSH2 0x1214 JUMP JUMPDEST PUSH2 0x1255 PUSH2 0x125E PUSH1 0x20 SWAP4 PUSH2 0x4EC SWAP4 PUSH2 0x1249 DUP2 MLOAD SWAP1 JUMP JUMPDEST DUP1 DUP4 MSTORE SWAP4 DUP5 SWAP3 PUSH1 0x20 ADD SWAP1 JUMP JUMPDEST SWAP6 DUP7 SWAP2 ADD PUSH2 0x1211 JUMP JUMPDEST PUSH1 0x1F ADD PUSH1 0x1F NOT AND SWAP1 JUMP JUMPDEST PUSH1 0x20 DUP1 DUP3 MSTORE PUSH2 0x117 SWAP3 SWAP2 ADD SWAP1 PUSH2 0x1234 JUMP JUMPDEST DUP2 PUSH1 0x0 SWAP4 PUSH2 0x1290 PUSH2 0x1289 DUP7 PUSH2 0x173 JUMP JUMPDEST DUP6 GT PUSH2 0x1175 JUMP JUMPDEST PUSH2 0x1299 DUP6 PUSH2 0x173 JUMP JUMPDEST DUP5 JUMPDEST DUP2 LT ISZERO PUSH2 0x1383 JUMPI PUSH2 0x12AB ADDRESS PUSH2 0x437 JUMP JUMPDEST PUSH2 0x12BE PUSH2 0x12B9 DUP4 DUP7 DUP9 PUSH2 0x11AE JUMP JUMPDEST PUSH2 0x11BE JUMP JUMPDEST SWAP2 DUP2 EXTCODESIZE ISZERO PUSH2 0x107 JUMPI DUP8 DUP1 PUSH2 0x12F1 PUSH2 0x135A SWAP5 PUSH2 0x129B SWAP7 PUSH2 0x12DC PUSH1 0x40 MLOAD SWAP1 JUMP JUMPDEST SWAP5 DUP6 SWAP4 DUP5 SWAP3 DUP4 SWAP2 SWAP1 PUSH4 0xEC7D7DF5 PUSH1 0xE0 SHL PUSH2 0xCDF JUMP JUMPDEST SUB SWAP3 GAS CALL SWAP1 DUP2 PUSH2 0x1367 JUMPI JUMPDEST POP PUSH2 0x1361 JUMPI PUSH2 0x1309 PUSH2 0x11F2 JUMP JUMPDEST PUSH32 0xF2432448BD7F4F83571AF712C44C366ACD66E1C64F00B76F244FFE5D48383E09 PUSH2 0x1351 PUSH2 0x133E PUSH2 0x9E3 PUSH2 0x12B9 DUP7 DUP12 DUP14 PUSH2 0x11AE JUMP JUMPDEST SWAP3 PUSH2 0x1348 PUSH1 0x40 MLOAD SWAP1 JUMP JUMPDEST SWAP2 DUP3 SWAP2 DUP3 PUSH2 0x1268 JUMP JUMPDEST SUB SWAP1 LOG2 PUSH1 0x1 ADD SWAP1 JUMP JUMPDEST SWAP1 POP PUSH2 0x1299 JUMP JUMPDEST PUSH1 0x1 ADD SWAP1 JUMP JUMPDEST PUSH2 0x137D SWAP1 DUP11 RETURNDATASIZE DUP13 GT PUSH2 0xE34 JUMPI PUSH2 0xE25 DUP2 DUP4 PUSH2 0x57D JUMP JUMPDEST CODESIZE PUSH2 0x12FC JUMP JUMPDEST POP SWAP4 POP POP POP POP JUMP JUMPDEST SWAP1 PUSH2 0x12A SWAP2 PUSH2 0x115B JUMP JUMPDEST PUSH2 0x139F PUSH1 0x1 PUSH2 0x1006 JUMP JUMPDEST DUP1 PUSH2 0x13A7 JUMPI SWAP1 JUMP JUMPDEST POP PUSH2 0x13B2 PUSH1 0x0 PUSH2 0x4E2 JUMP JUMPDEST PUSH2 0x13CF PUSH2 0x13C2 PUSH2 0x11A PUSH1 0x0 PUSH2 0xF79 JUMP JUMPDEST SWAP2 PUSH1 0x1 PUSH1 0x1 PUSH1 0xA0 SHL SUB AND SWAP1 JUMP JUMPDEST EQ ISZERO SWAP1 JUMP JUMPDEST PUSH2 0x13DE PUSH1 0x0 PUSH2 0x4E2 JUMP JUMPDEST PUSH2 0x13EB PUSH2 0x9E3 PUSH1 0x1 PUSH2 0x4E2 JUMP JUMPDEST SWAP2 PUSH2 0x13F6 PUSH1 0x1 PUSH2 0x1006 JUMP JUMPDEST SWAP2 SWAP3 SWAP2 SWAP1 JUMP JUMPDEST PUSH2 0x140D SWAP1 PUSH2 0x1408 PUSH2 0x17DE JUMP JUMPDEST PUSH2 0x1451 JUMP JUMPDEST PUSH2 0x12A PUSH2 0x180E JUMP JUMPDEST ISZERO PUSH2 0x141C JUMPI JUMP JUMPDEST PUSH1 0x40 MLOAD PUSH3 0x461BCD PUSH1 0xE5 SHL DUP2 MSTORE PUSH1 0x20 PUSH1 0x4 DUP3 ADD MSTORE PUSH1 0xD PUSH1 0x24 DUP3 ADD MSTORE PUSH13 0x496E7465726E616C206F6E6C79 PUSH1 0x98 SHL PUSH1 0x44 DUP3 ADD MSTORE PUSH1 0x64 SWAP1 REVERT JUMPDEST PUSH2 0x145A ADDRESS PUSH2 0x437 JUMP JUMPDEST PUSH2 0x146E PUSH1 0x1 PUSH1 0x1 PUSH1 0xA0 SHL SUB DUP3 AND CALLER EQ PUSH2 0x1415 JUMP JUMPDEST PUSH2 0x147A PUSH2 0x9E3 DUP4 PUSH2 0x437 JUMP JUMPDEST PUSH2 0x1484 GAS SWAP2 PUSH2 0x437 JUMP JUMPDEST SWAP2 PUSH2 0x148E PUSH1 0x40 MLOAD SWAP1 JUMP JUMPDEST PUSH4 0x1FA70531 PUSH1 0xE0 SHL DUP2 MSTORE PUSH1 0x20 DUP2 PUSH1 0x4 DUP2 DUP8 GAS STATICCALL SWAP1 DUP2 ISZERO PUSH2 0xE3B JUMPI PUSH1 0x0 SWAP2 PUSH2 0x178B JUMPI JUMPDEST POP PUSH1 0x40 MLOAD PUSH4 0x8DA5CB5B PUSH1 0xE0 SHL DUP2 MSTORE SWAP3 PUSH1 0x20 DUP5 PUSH1 0x4 DUP2 DUP9 GAS STATICCALL SWAP4 DUP5 ISZERO PUSH2 0xE3B JUMPI PUSH1 0x0 SWAP5 PUSH2 0x176A JUMPI JUMPDEST POP DUP4 SWAP5 DUP4 SWAP5 POP PUSH1 0x0 SWAP2 PUSH2 0x14F2 PUSH2 0x14EC DUP5 PUSH2 0x173 JUMP JUMPDEST DUP6 PUSH2 0xA50 JUMP JUMPDEST PUSH20 0xB97EF9EF8734C71904D8002F8B6BC66DD9C48A6E PUSH1 0x20 PUSH2 0x1512 DUP3 PUSH2 0x437 JUMP JUMPDEST PUSH2 0x151E DUP8 DUP10 DUP13 DUP5 PUSH2 0x1819 JUMP JUMPDEST PUSH2 0x153C DUP8 PUSH20 0x9A93A421B74F1C5755B83DD2C211614DC419C44B PUSH2 0xAA8 JUMP JUMPDEST PUSH2 0x1544 PUSH2 0x66D JUMP JUMPDEST SWAP1 PUSH2 0x1552 PUSH2 0xAC4 PUSH1 0x1 PUSH2 0x173 JUMP JUMPDEST PUSH2 0x1563 PUSH2 0x9E3 PUSH2 0xB81 PUSH2 0xB62 PUSH2 0x322 JUMP JUMPDEST SWAP1 DUP8 DUP10 PUSH2 0x1577 PUSH2 0xBA1 PUSH2 0xB9B PUSH2 0x12C PUSH2 0x173 JUMP JUMPDEST SUB SWAP3 GAS CALL SWAP6 DUP7 ISZERO PUSH2 0xE3B JUMPI DUP5 SWAP7 PUSH2 0x1745 JUMPI JUMPDEST POP PUSH2 0x159A SWAP1 PUSH2 0x9E3 PUSH2 0xBE1 DUP7 PUSH2 0x173 JUMP JUMPDEST SWAP6 PUSH2 0x15B9 DUP7 PUSH20 0x5C0401E81E6953A22C95311BC54060BDE84B1022 PUSH2 0xC03 JUMP JUMPDEST PUSH2 0x15C2 DUP8 PUSH2 0x437 JUMP JUMPDEST PUSH2 0x15CB DUP2 PUSH2 0x437 JUMP JUMPDEST SWAP2 PUSH4 0x70A08231 SWAP3 PUSH2 0x15DB PUSH1 0x40 MLOAD SWAP1 JUMP JUMPDEST SWAP10 PUSH2 0x15E6 DUP6 PUSH1 0xE0 SHL SWAP1 JUMP JUMPDEST DUP12 MSTORE PUSH1 0x1 PUSH1 0x1 PUSH1 0xA0 SHL SUB DUP4 AND PUSH1 0x4 DUP13 ADD MSTORE PUSH1 0x20 DUP12 PUSH1 0x24 DUP2 DUP6 GAS STATICCALL SWAP11 DUP12 ISZERO PUSH2 0xE3B JUMPI DUP9 SWAP12 PUSH2 0x1711 JUMPI JUMPDEST POP SWAP1 PUSH1 0x20 PUSH2 0x1623 PUSH2 0xC74 PUSH2 0x9E3 DUP12 SWAP7 SWAP6 PUSH2 0x437 JUMP JUMPDEST SUB SWAP3 GAS CALL DUP1 ISZERO PUSH2 0xE3B JUMPI PUSH2 0x164E SWAP6 PUSH2 0xCCF PUSH2 0xCDF SWAP3 PUSH1 0x20 SWAP7 DUP13 SWAP2 PUSH2 0xE9C JUMPI POP PUSH2 0xCC9 PUSH2 0x758 DUP14 PUSH2 0x173 JUMP JUMPDEST SUB SWAP2 GAS STATICCALL SWAP2 DUP3 ISZERO PUSH2 0xE3B JUMPI DUP11 SWAP9 PUSH2 0x166F SWAP4 PUSH2 0xD18 SWAP3 DUP9 SWAP2 PUSH2 0xE6D JUMPI POP PUSH2 0x717 JUMP JUMPDEST PUSH1 0x20 PUSH2 0x167A PUSH1 0x40 MLOAD SWAP1 JUMP JUMPDEST PUSH4 0x950DA287 PUSH1 0xE0 SHL DUP2 MSTORE SWAP3 DUP4 SWAP1 PUSH1 0x4 SWAP1 DUP3 SWAP1 DUP8 SWAP1 GAS CALL SWAP2 DUP3 ISZERO PUSH2 0xE3B JUMPI PUSH2 0x16A7 SWAP3 PUSH2 0xE40 JUMPI POP GAS SWAP1 PUSH2 0x717 JUMP JUMPDEST PUSH2 0x16B4 PUSH2 0x9E3 PUSH1 0x1 PUSH2 0x4E2 JUMP JUMPDEST DUP1 EXTCODESIZE ISZERO PUSH2 0x107 JUMPI PUSH1 0x1 DUP4 SWAP2 PUSH2 0x16CE SWAP4 DUP4 DUP11 PUSH2 0xD91 PUSH1 0x40 MLOAD SWAP1 JUMP JUMPDEST SUB SWAP3 GAS CALL DUP1 ISZERO PUSH2 0xE3B JUMPI PUSH32 0xAF8C946FAD4DC7FC3F8D96E39251F3273B720222DB4B39390936A6CF0EB08036 SWAP6 PUSH2 0x1156 SWAP4 PUSH2 0xDF5 SWAP4 PUSH2 0xDEF SWAP4 PUSH2 0xE0E JUMPI POP POP PUSH2 0x437 JUMP JUMPDEST DUP9 SWAP4 SWAP3 SWAP2 SWAP12 POP PUSH2 0x1623 PUSH2 0xC74 PUSH2 0x9E3 PUSH2 0x1738 PUSH1 0x20 SWAP5 DUP6 RETURNDATASIZE DUP8 GT PUSH2 0xE95 JUMPI PUSH2 0xE87 DUP2 DUP4 PUSH2 0x57D JUMP JUMPDEST SWAP15 SWAP5 SWAP6 SWAP7 POP POP POP POP PUSH2 0x160E JUMP JUMPDEST PUSH2 0x159A SWAP2 SWAP7 POP PUSH2 0x1763 SWAP1 PUSH1 0x20 RETURNDATASIZE PUSH1 0x20 GT PUSH2 0xE95 JUMPI PUSH2 0xE87 DUP2 DUP4 PUSH2 0x57D JUMP JUMPDEST SWAP6 SWAP1 PUSH2 0x1589 JUMP JUMPDEST DUP4 SWAP5 POP PUSH2 0x1785 SWAP1 PUSH1 0x20 RETURNDATASIZE PUSH1 0x20 GT PUSH2 0xF3B JUMPI PUSH2 0xF2D DUP2 DUP4 PUSH2 0x57D JUMP JUMPDEST SWAP4 PUSH2 0x14D7 JUMP JUMPDEST PUSH2 0x17A4 SWAP2 POP PUSH1 0x20 RETURNDATASIZE PUSH1 0x20 GT PUSH2 0xE95 JUMPI PUSH2 0xE87 DUP2 DUP4 PUSH2 0x57D JUMP JUMPDEST CODESIZE PUSH2 0x14B0 JUMP JUMPDEST PUSH2 0x12A SWAP1 PUSH2 0x13FC JUMP JUMPDEST PUSH2 0x117 PUSH1 0x2 PUSH2 0x173 JUMP JUMPDEST SWAP1 PUSH1 0x0 NOT SWAP1 PUSH2 0x1060 JUMP JUMPDEST SWAP1 PUSH2 0x17D7 PUSH2 0x117 PUSH2 0x1081 SWAP3 PUSH2 0x173 JUMP JUMPDEST DUP3 SLOAD PUSH2 0x17BD JUMP JUMPDEST PUSH2 0x17E6 PUSH2 0x18E6 JUMP JUMPDEST PUSH2 0x12A PUSH2 0x17F1 PUSH2 0x17B3 JUMP JUMPDEST PUSH1 0x0 PUSH2 0x17FE PUSH2 0x117 PUSH2 0x192F JUMP JUMPDEST ADD PUSH2 0x17C7 JUMP JUMPDEST PUSH2 0x117 PUSH1 0x1 PUSH2 0x173 JUMP JUMPDEST PUSH2 0x12A PUSH2 0x17F1 PUSH2 0x1804 JUMP JUMPDEST SWAP3 PUSH1 0x1 SWAP1 PUSH2 0x182B SWAP4 PUSH2 0x10F3 SWAP4 DUP7 PUSH2 0x1937 JUMP JUMPDEST PUSH2 0x1832 JUMPI POP JUMP JUMPDEST PUSH2 0x185F PUSH2 0x1840 PUSH1 0x0 SWAP3 PUSH2 0x437 JUMP JUMPDEST PUSH4 0x5274AFE7 PUSH1 0xE0 SHL DUP4 MSTORE PUSH1 0x1 PUSH1 0x1 PUSH1 0xA0 SHL SUB AND PUSH1 0x4 DUP4 ADD MSTORE PUSH1 0x24 DUP3 ADD SWAP1 JUMP JUMPDEST SUB PUSH1 0x0 REVERT JUMPDEST SWAP1 SWAP2 PUSH1 0x0 SWAP3 PUSH2 0x1878 PUSH2 0x10F3 DUP6 DUP5 DUP5 DUP8 PUSH2 0x19B0 JUMP JUMPDEST PUSH2 0x1883 JUMPI JUMPDEST POP POP POP POP JUMP JUMPDEST PUSH2 0x189B PUSH2 0x10F3 PUSH1 0x1 PUSH2 0x1894 DUP8 PUSH2 0x173 JUMP JUMPDEST DUP5 DUP8 PUSH2 0x19B0 JUMP JUMPDEST PUSH2 0x18C7 JUMPI PUSH1 0x1 PUSH2 0x18AF SWAP3 PUSH2 0x10F3 SWAP3 DUP6 PUSH2 0x19B0 JUMP JUMPDEST PUSH2 0x18BA JUMPI DUP1 DUP1 PUSH2 0x187D JUMP JUMPDEST PUSH2 0x52C PUSH2 0x1840 DUP4 SWAP3 PUSH2 0x437 JUMP JUMPDEST DUP4 DUP1 PUSH2 0x52C PUSH2 0x1840 DUP7 PUSH2 0x437 JUMP JUMPDEST SWAP2 PUSH1 0x1 PUSH2 0x10F3 SWAP2 PUSH2 0x182B SWAP4 DUP6 PUSH2 0x1A12 JUMP JUMPDEST PUSH2 0x18EE PUSH2 0x1A6A JUMP JUMPDEST PUSH2 0x18F4 JUMPI JUMP JUMPDEST PUSH4 0x3EE5AEB5 PUSH1 0xE0 SHL PUSH1 0x0 SWAP1 DUP2 MSTORE PUSH1 0x4 SWAP1 REVERT JUMPDEST PUSH2 0x117 PUSH32 0x9B779B17422D0DF92223018B32B4D1FA46E071723D6817E2486D003BECC55F00 PUSH2 0x173 JUMP JUMPDEST PUSH2 0x117 PUSH2 0x1906 JUMP JUMPDEST PUSH1 0x40 MLOAD PUSH4 0x23B872DD PUSH1 0xE0 SHL PUSH1 0x0 SWAP1 DUP2 MSTORE PUSH1 0x1 PUSH1 0x1 PUSH1 0xA0 SHL SUB SWAP4 DUP5 AND PUSH1 0x4 MSTORE SWAP4 SWAP1 SWAP3 AND PUSH1 0x24 MSTORE PUSH1 0x44 SWAP4 SWAP1 SWAP4 MSTORE SWAP3 SWAP4 SWAP3 SWAP2 SWAP1 PUSH1 0x20 SWAP1 PUSH1 0x64 DUP2 DUP1 DUP6 GAS CALL SWAP4 PUSH1 0x1 PUSH1 0x0 MLOAD EQ DUP6 AND ISZERO PUSH2 0x198C JUMPI JUMPDEST POP POP PUSH1 0x40 MSTORE PUSH1 0x0 PUSH1 0x60 MSTORE JUMP JUMPDEST DUP5 SWAP3 SWAP5 ISZERO AND PUSH2 0x19A6 JUMPI PUSH1 0x0 SWAP1 EXTCODESIZE GT RETURNDATASIZE ISZERO AND AND SWAP2 CODESIZE DUP1 PUSH2 0x1980 JUMP JUMPDEST DUP4 RETURNDATASIZE PUSH1 0x0 DUP3 RETURNDATACOPY RETURNDATASIZE SWAP1 REVERT JUMPDEST PUSH1 0x40 MLOAD PUSH4 0x95EA7B3 PUSH1 0xE0 SHL PUSH1 0x0 SWAP1 DUP2 MSTORE PUSH1 0x1 PUSH1 0x1 PUSH1 0xA0 SHL SUB SWAP1 SWAP4 AND PUSH1 0x4 MSTORE PUSH1 0x24 SWAP4 SWAP1 SWAP4 MSTORE SWAP3 SWAP4 SWAP3 SWAP1 PUSH1 0x20 SWAP1 PUSH1 0x44 DUP2 DUP1 DUP6 GAS CALL SWAP4 PUSH1 0x1 PUSH1 0x0 MLOAD EQ DUP6 AND ISZERO PUSH2 0x19F8 JUMPI JUMPDEST POP POP PUSH1 0x40 MSTORE JUMP JUMPDEST DUP5 SWAP3 SWAP5 ISZERO AND PUSH2 0x19A6 JUMPI PUSH1 0x0 SWAP1 EXTCODESIZE GT RETURNDATASIZE ISZERO AND AND SWAP2 CODESIZE DUP1 PUSH2 0x19F1 JUMP JUMPDEST PUSH1 0x40 MLOAD PUSH4 0xA9059CBB PUSH1 0xE0 SHL PUSH1 0x0 SWAP1 DUP2 MSTORE PUSH1 0x1 PUSH1 0x1 PUSH1 0xA0 SHL SUB SWAP1 SWAP4 AND PUSH1 0x4 MSTORE PUSH1 0x24 SWAP4 SWAP1 SWAP4 MSTORE SWAP3 SWAP4 SWAP3 SWAP1 PUSH1 0x20 SWAP1 PUSH1 0x44 DUP2 DUP1 DUP6 GAS CALL SWAP4 PUSH1 0x1 PUSH1 0x0 MLOAD EQ DUP6 AND ISZERO PUSH2 0x19F8 JUMPI POP POP PUSH1 0x40 MSTORE JUMP JUMPDEST PUSH2 0x117 SWAP1 DUP2 JUMP JUMPDEST PUSH2 0x117 SWAP1 SLOAD PUSH2 0x1A59 JUMP JUMPDEST PUSH2 0x1A80 PUSH1 0x0 PUSH2 0x1A7A PUSH2 0x117 PUSH2 0x192F JUMP JUMPDEST ADD PUSH2 0x1A60 JUMP JUMPDEST PUSH2 0x1A8E PUSH2 0x758 PUSH2 0x117 PUSH2 0x17B3 JUMP JUMPDEST EQ SWAP1 JUMP INVALID LOG2 PUSH5 0x6970667358 0x22 SLT KECCAK256 0xAD SWAP4 0xBC 0xD2 SWAP11 0xB2 JUMP EQ 0x2B 0xE7 0xA8 0xD6 SWAP2 0xB0 0x29 SHL 0xDF 0xFC DIV DIV 0x4F SELFDESTRUCT 0xC5 0xFC 0xB8 XOR PUSH5 0x42AFE6B98C PUSH5 0x736F6C6343 STOP ADDMOD SHR STOP CALLER "
        },
        "methodIdentifiers": {
          "BENQI_qiAVAX()": "be424af3",
          "LB_ROUTER()": "07f03d44",
          "PRECISION()": "aaf5eb68",
          "SLIPPAGE()": "36b4134a",
          "USDC()": "89a30271",
          "WAVAX()": "73b295c2",
          "_executeInternal(address)": "ec7d7df5",
          "burnTracker()": "d306254d",
          "executeBatch(address[])": "5bbf3783",
          "executeDCA(address)": "3be37e79",
          "factory()": "c45a0155",
          "factoryLocked()": "f2355bac",
          "getConfig()": "c3f909d4",
          "isReady()": "a094a031",
          "setFactory(address)": "5bb47808"
        }
      }
    }
  }
}