{
  "contracts/mocks/MockTraderJoe.sol": {
    "MockTraderJoe": {
      "abi": [
        {
          "inputs": [
            {
              "internalType": "address",
              "name": "_wavax",
              "type": "address"
            }
          ],
          "stateMutability": "nonpayable",
          "type": "constructor"
        },
        {
          "inputs": [
            {
              "internalType": "address",
              "name": "token",
              "type": "address"
            }
          ],
          "name": "SafeERC20FailedOperation",
          "type": "error"
        },
        {
          "inputs": [],
          "name": "exchangeRate",
          "outputs": [
            {
              "internalType": "uint256",
              "name": "",
              "type": "uint256"
            }
          ],
          "stateMutability": "view",
          "type": "function"
        },
        {
          "inputs": [
            {
              "internalType": "uint256",
              "name": "_rate",
              "type": "uint256"
            }
          ],
          "name": "setExchangeRate",
          "outputs": [],
          "stateMutability": "nonpayable",
          "type": "function"
        },
        {
          "inputs": [
            {
              "internalType": "uint256",
              "name": "amountIn",
              "type": "uint256"
            },
            {
              "internalType": "uint256",
              "name": "amountOutMin",
              "type": "uint256"
            },
            {
              "components": [
                {
                  "internalType": "uint256[]",
                  "name": "pairBinSteps",
                  "type": "uint256[]"
                },
                {
                  "internalType": "address[]",
                  "name": "tokenPath",
                  "type": "address[]"
                }
              ],
              "internalType": "struct ILBRouter.Path",
              "name": "path",
              "type": "tuple"
            },
            {
              "internalType": "address",
              "name": "to",
              "type": "address"
            },
            {
              "internalType": "uint256",
              "name": "",
              "type": "uint256"
            }
          ],
          "name": "swapExactTokensForTokens",
          "outputs": [
            {
              "internalType": "uint256",
              "name": "amountOut",
              "type": "uint256"
            }
          ],
          "stateMutability": "nonpayable",
          "type": "function"
        },
        {
          "inputs": [],
          "name": "wavax",
          "outputs": [
            {
              "internalType": "address",
              "name": "",
              "type": "address"
            }
          ],
          "stateMutability": "view",
          "type": "function"
        }
      ],
      "evm": {
        "bytecode": {
          "linkReferences": {},
          "object": "60806040523461002a576100196100146100c2565b610164565b6040516105c161018282396105c190f35b600080fd5b634e487b7160e01b600052604160045260246000fd5b90601f01601f191681019081106001600160401b0382111761006657604052565b61002f565b9061007f61007860405190565b9283610045565b565b6001600160a01b031690565b90565b6001600160a01b0381160361002a57565b9050519061007f82610090565b9060208282031261002a5761008d916100a1565b61008d610743803803806100d58161006b565b9283398101906100ae565b90600019905b9181191691161790565b61008d61008d61008d9290565b9061010d61008d610114926100f0565b82546100e0565b9055565b906001600160a01b03906100e6565b61008d90610081906001600160a01b031682565b61008d90610127565b61008d9061013b565b9061015d61008d61011492610144565b8254610118565b61007f9061017a66b1a2bc2ec5000060006100fd565b600161014d56fe6080604052600436101561001257600080fd5b60003560e01c8063117be4c2146100525780633ba0b9a91461004d578063d669fe12146100485763db068e0e03610057576101f8565b6101c5565b610101565b6100b5565b600080fd5b600091031261005757565b61007c916008021c5b6001600160a01b031690565b90565b9061007c9154610067565b61007c6000600161007f565b61009f90610070565b9052565b6020810192916100b39190610096565b565b34610057576100c536600461005c565b6100dc6100d061008a565b604051918291826100a3565b0390f35b61007c916008021c81565b9061007c91546100e0565b61007c6000806100eb565b346100575761011136600461005c565b6100dc61011c6100f6565b6040519182918290815260200190565b805b0361005757565b905035906100b38261012c565b908160409103126100575790565b61012e81610070565b905035906100b382610150565b919060a0838203126100575761017c8184610135565b9261018a8260208301610135565b92604082013567ffffffffffffffff8111610057576101ae8461007c928501610142565b9360806101be8260608701610159565b9401610135565b34610057576100dc61011c6101db366004610166565b93929092610382565b906020828203126100575761007c91610135565b346100575761021061020b3660046101e4565b610451565b604051005b903590601e193682900301821215610057570180359067ffffffffffffffff82116100575760200191602082023603831361005757565b634e487b7160e01b600052603260045260246000fd5b9190811015610272576020020190565b61024c565b61007c61007c61007c9290565b3561007c81610150565b61007c90610070906001600160a01b031682565b61007c9061028e565b61007c906102a2565b61007c9081565b61007c90546102b4565b634e487b7160e01b600052601160045260246000fd5b818102929181159184041417156102ee57565b6102c5565b634e487b7160e01b600052601260045260246000fd5b8115610313570490565b6102f3565b1561031f57565b60405162461bcd60e51b815260206004820152602260248201527f4d6f636b5472616465724a6f653a20696e73756666696369656e74206f7574706044820152611d5d60f21b6064820152608490fd5b61007c90610070565b61007c905461036f565b610423945061041d6104066103f8836103e861042b956103d76103d26103cd6103bd61007c9d9b9c6103b2600090565b506020810190610215565b6103c76000610277565b91610262565b610284565b6102ab565b6103e0306102ab565b90339061045c565b6103f260006102bb565b906102db565b6103f264e8d4a51000610277565b610417670de0b6b3a7640000610277565b90610309565b94859390565b831015610318565b6104386103d26001610378565b61049f565b9061007c61007c61044d92610277565b9055565b6100b390600061043d565b926001906104729361046e93866104b0565b1590565b6104795750565b61049a6104876000926102ab565b635274afe760e01b8352600483016100a3565b036000fd5b91600161046e916104729385610529565b6040516323b872dd60e01b60009081526001600160a01b0393841660045293909216602452604493909352929392919060209060648180855af193600160005114851615610505575b50506040526000606052565b849294151661051f576000903b113d1516169138806104f9565b833d6000823e3d90fd5b60405163a9059cbb60e01b60009081526001600160a01b039093166004526024939093529293929060209060448180855af193600160005114851615610571575b5050604052565b849294151661051f576000903b113d15161691388061056a56fea264697066735822122043062f71a0472f03d9d7de257ccf334ad182372eda253b1f576f2b2bf5fea52e64736f6c634300081c0033",
          "opcodes": "PUSH1 0x80 PUSH1 0x40 MSTORE CALLVALUE PUSH2 0x2A JUMPI PUSH2 0x19 PUSH2 0x14 PUSH2 0xC2 JUMP JUMPDEST PUSH2 0x164 JUMP JUMPDEST PUSH1 0x40 MLOAD PUSH2 0x5C1 PUSH2 0x182 DUP3 CODECOPY PUSH2 0x5C1 SWAP1 RETURN JUMPDEST PUSH1 0x0 DUP1 REVERT JUMPDEST PUSH4 0x4E487B71 PUSH1 0xE0 SHL PUSH1 0x0 MSTORE PUSH1 0x41 PUSH1 0x4 MSTORE PUSH1 0x24 PUSH1 0x0 REVERT JUMPDEST SWAP1 PUSH1 0x1F ADD PUSH1 0x1F NOT AND DUP2 ADD SWAP1 DUP2 LT PUSH1 0x1 PUSH1 0x1 PUSH1 0x40 SHL SUB DUP3 GT OR PUSH2 0x66 JUMPI PUSH1 0x40 MSTORE JUMP JUMPDEST PUSH2 0x2F JUMP JUMPDEST SWAP1 PUSH2 0x7F PUSH2 0x78 PUSH1 0x40 MLOAD SWAP1 JUMP JUMPDEST SWAP3 DUP4 PUSH2 0x45 JUMP JUMPDEST JUMP JUMPDEST PUSH1 0x1 PUSH1 0x1 PUSH1 0xA0 SHL SUB AND SWAP1 JUMP JUMPDEST SWAP1 JUMP JUMPDEST PUSH1 0x1 PUSH1 0x1 PUSH1 0xA0 SHL SUB DUP2 AND SUB PUSH2 0x2A JUMPI JUMP JUMPDEST SWAP1 POP MLOAD SWAP1 PUSH2 0x7F DUP3 PUSH2 0x90 JUMP JUMPDEST SWAP1 PUSH1 0x20 DUP3 DUP3 SUB SLT PUSH2 0x2A JUMPI PUSH2 0x8D SWAP2 PUSH2 0xA1 JUMP JUMPDEST PUSH2 0x8D PUSH2 0x743 DUP1 CODESIZE SUB DUP1 PUSH2 0xD5 DUP2 PUSH2 0x6B JUMP JUMPDEST SWAP3 DUP4 CODECOPY DUP2 ADD SWAP1 PUSH2 0xAE JUMP JUMPDEST SWAP1 PUSH1 0x0 NOT SWAP1 JUMPDEST SWAP2 DUP2 NOT AND SWAP2 AND OR SWAP1 JUMP JUMPDEST PUSH2 0x8D PUSH2 0x8D PUSH2 0x8D SWAP3 SWAP1 JUMP JUMPDEST SWAP1 PUSH2 0x10D PUSH2 0x8D PUSH2 0x114 SWAP3 PUSH2 0xF0 JUMP JUMPDEST DUP3 SLOAD PUSH2 0xE0 JUMP JUMPDEST SWAP1 SSTORE JUMP JUMPDEST SWAP1 PUSH1 0x1 PUSH1 0x1 PUSH1 0xA0 SHL SUB SWAP1 PUSH2 0xE6 JUMP JUMPDEST PUSH2 0x8D SWAP1 PUSH2 0x81 SWAP1 PUSH1 0x1 PUSH1 0x1 PUSH1 0xA0 SHL SUB AND DUP3 JUMP JUMPDEST PUSH2 0x8D SWAP1 PUSH2 0x127 JUMP JUMPDEST PUSH2 0x8D SWAP1 PUSH2 0x13B JUMP JUMPDEST SWAP1 PUSH2 0x15D PUSH2 0x8D PUSH2 0x114 SWAP3 PUSH2 0x144 JUMP JUMPDEST DUP3 SLOAD PUSH2 0x118 JUMP JUMPDEST PUSH2 0x7F SWAP1 PUSH2 0x17A PUSH7 0xB1A2BC2EC50000 PUSH1 0x0 PUSH2 0xFD JUMP JUMPDEST PUSH1 0x1 PUSH2 0x14D JUMP INVALID PUSH1 0x80 PUSH1 0x40 MSTORE PUSH1 0x4 CALLDATASIZE LT ISZERO PUSH2 0x12 JUMPI PUSH1 0x0 DUP1 REVERT JUMPDEST PUSH1 0x0 CALLDATALOAD PUSH1 0xE0 SHR DUP1 PUSH4 0x117BE4C2 EQ PUSH2 0x52 JUMPI DUP1 PUSH4 0x3BA0B9A9 EQ PUSH2 0x4D JUMPI DUP1 PUSH4 0xD669FE12 EQ PUSH2 0x48 JUMPI PUSH4 0xDB068E0E SUB PUSH2 0x57 JUMPI PUSH2 0x1F8 JUMP JUMPDEST PUSH2 0x1C5 JUMP JUMPDEST PUSH2 0x101 JUMP JUMPDEST PUSH2 0xB5 JUMP JUMPDEST PUSH1 0x0 DUP1 REVERT JUMPDEST PUSH1 0x0 SWAP2 SUB SLT PUSH2 0x57 JUMPI JUMP JUMPDEST PUSH2 0x7C SWAP2 PUSH1 0x8 MUL SHR JUMPDEST PUSH1 0x1 PUSH1 0x1 PUSH1 0xA0 SHL SUB AND SWAP1 JUMP JUMPDEST SWAP1 JUMP JUMPDEST SWAP1 PUSH2 0x7C SWAP2 SLOAD PUSH2 0x67 JUMP JUMPDEST PUSH2 0x7C PUSH1 0x0 PUSH1 0x1 PUSH2 0x7F JUMP JUMPDEST PUSH2 0x9F SWAP1 PUSH2 0x70 JUMP JUMPDEST SWAP1 MSTORE JUMP JUMPDEST PUSH1 0x20 DUP2 ADD SWAP3 SWAP2 PUSH2 0xB3 SWAP2 SWAP1 PUSH2 0x96 JUMP JUMPDEST JUMP JUMPDEST CALLVALUE PUSH2 0x57 JUMPI PUSH2 0xC5 CALLDATASIZE PUSH1 0x4 PUSH2 0x5C JUMP JUMPDEST PUSH2 0xDC PUSH2 0xD0 PUSH2 0x8A JUMP JUMPDEST PUSH1 0x40 MLOAD SWAP2 DUP3 SWAP2 DUP3 PUSH2 0xA3 JUMP JUMPDEST SUB SWAP1 RETURN JUMPDEST PUSH2 0x7C SWAP2 PUSH1 0x8 MUL SHR DUP2 JUMP JUMPDEST SWAP1 PUSH2 0x7C SWAP2 SLOAD PUSH2 0xE0 JUMP JUMPDEST PUSH2 0x7C PUSH1 0x0 DUP1 PUSH2 0xEB JUMP JUMPDEST CALLVALUE PUSH2 0x57 JUMPI PUSH2 0x111 CALLDATASIZE PUSH1 0x4 PUSH2 0x5C JUMP JUMPDEST PUSH2 0xDC PUSH2 0x11C PUSH2 0xF6 JUMP JUMPDEST PUSH1 0x40 MLOAD SWAP2 DUP3 SWAP2 DUP3 SWAP1 DUP2 MSTORE PUSH1 0x20 ADD SWAP1 JUMP JUMPDEST DUP1 JUMPDEST SUB PUSH2 0x57 JUMPI JUMP JUMPDEST SWAP1 POP CALLDATALOAD SWAP1 PUSH2 0xB3 DUP3 PUSH2 0x12C JUMP JUMPDEST SWAP1 DUP2 PUSH1 0x40 SWAP2 SUB SLT PUSH2 0x57 JUMPI SWAP1 JUMP JUMPDEST PUSH2 0x12E DUP2 PUSH2 0x70 JUMP JUMPDEST SWAP1 POP CALLDATALOAD SWAP1 PUSH2 0xB3 DUP3 PUSH2 0x150 JUMP JUMPDEST SWAP2 SWAP1 PUSH1 0xA0 DUP4 DUP3 SUB SLT PUSH2 0x57 JUMPI PUSH2 0x17C DUP2 DUP5 PUSH2 0x135 JUMP JUMPDEST SWAP3 PUSH2 0x18A DUP3 PUSH1 0x20 DUP4 ADD PUSH2 0x135 JUMP JUMPDEST SWAP3 PUSH1 0x40 DUP3 ADD CALLDATALOAD PUSH8 0xFFFFFFFFFFFFFFFF DUP2 GT PUSH2 0x57 JUMPI PUSH2 0x1AE DUP5 PUSH2 0x7C SWAP3 DUP6 ADD PUSH2 0x142 JUMP JUMPDEST SWAP4 PUSH1 0x80 PUSH2 0x1BE DUP3 PUSH1 0x60 DUP8 ADD PUSH2 0x159 JUMP JUMPDEST SWAP5 ADD PUSH2 0x135 JUMP JUMPDEST CALLVALUE PUSH2 0x57 JUMPI PUSH2 0xDC PUSH2 0x11C PUSH2 0x1DB CALLDATASIZE PUSH1 0x4 PUSH2 0x166 JUMP JUMPDEST SWAP4 SWAP3 SWAP1 SWAP3 PUSH2 0x382 JUMP JUMPDEST SWAP1 PUSH1 0x20 DUP3 DUP3 SUB SLT PUSH2 0x57 JUMPI PUSH2 0x7C SWAP2 PUSH2 0x135 JUMP JUMPDEST CALLVALUE PUSH2 0x57 JUMPI PUSH2 0x210 PUSH2 0x20B CALLDATASIZE PUSH1 0x4 PUSH2 0x1E4 JUMP JUMPDEST PUSH2 0x451 JUMP JUMPDEST PUSH1 0x40 MLOAD STOP JUMPDEST SWAP1 CALLDATALOAD SWAP1 PUSH1 0x1E NOT CALLDATASIZE DUP3 SWAP1 SUB ADD DUP3 SLT ISZERO PUSH2 0x57 JUMPI ADD DUP1 CALLDATALOAD SWAP1 PUSH8 0xFFFFFFFFFFFFFFFF DUP3 GT PUSH2 0x57 JUMPI PUSH1 0x20 ADD SWAP2 PUSH1 0x20 DUP3 MUL CALLDATASIZE SUB DUP4 SGT PUSH2 0x57 JUMPI JUMP JUMPDEST PUSH4 0x4E487B71 PUSH1 0xE0 SHL PUSH1 0x0 MSTORE PUSH1 0x32 PUSH1 0x4 MSTORE PUSH1 0x24 PUSH1 0x0 REVERT JUMPDEST SWAP2 SWAP1 DUP2 LT ISZERO PUSH2 0x272 JUMPI PUSH1 0x20 MUL ADD SWAP1 JUMP JUMPDEST PUSH2 0x24C JUMP JUMPDEST PUSH2 0x7C PUSH2 0x7C PUSH2 0x7C SWAP3 SWAP1 JUMP JUMPDEST CALLDATALOAD PUSH2 0x7C DUP2 PUSH2 0x150 JUMP JUMPDEST PUSH2 0x7C SWAP1 PUSH2 0x70 SWAP1 PUSH1 0x1 PUSH1 0x1 PUSH1 0xA0 SHL SUB AND DUP3 JUMP JUMPDEST PUSH2 0x7C SWAP1 PUSH2 0x28E JUMP JUMPDEST PUSH2 0x7C SWAP1 PUSH2 0x2A2 JUMP JUMPDEST PUSH2 0x7C SWAP1 DUP2 JUMP JUMPDEST PUSH2 0x7C SWAP1 SLOAD PUSH2 0x2B4 JUMP JUMPDEST PUSH4 0x4E487B71 PUSH1 0xE0 SHL PUSH1 0x0 MSTORE PUSH1 0x11 PUSH1 0x4 MSTORE PUSH1 0x24 PUSH1 0x0 REVERT JUMPDEST DUP2 DUP2 MUL SWAP3 SWAP2 DUP2 ISZERO SWAP2 DUP5 DIV EQ OR ISZERO PUSH2 0x2EE JUMPI JUMP JUMPDEST PUSH2 0x2C5 JUMP JUMPDEST PUSH4 0x4E487B71 PUSH1 0xE0 SHL PUSH1 0x0 MSTORE PUSH1 0x12 PUSH1 0x4 MSTORE PUSH1 0x24 PUSH1 0x0 REVERT JUMPDEST DUP2 ISZERO PUSH2 0x313 JUMPI DIV SWAP1 JUMP JUMPDEST PUSH2 0x2F3 JUMP JUMPDEST ISZERO PUSH2 0x31F JUMPI JUMP JUMPDEST PUSH1 0x40 MLOAD PUSH3 0x461BCD PUSH1 0xE5 SHL DUP2 MSTORE PUSH1 0x20 PUSH1 0x4 DUP3 ADD MSTORE PUSH1 0x22 PUSH1 0x24 DUP3 ADD MSTORE PUSH32 0x4D6F636B5472616465724A6F653A20696E73756666696369656E74206F757470 PUSH1 0x44 DUP3 ADD MSTORE PUSH2 0x1D5D PUSH1 0xF2 SHL PUSH1 0x64 DUP3 ADD MSTORE PUSH1 0x84 SWAP1 REVERT JUMPDEST PUSH2 0x7C SWAP1 PUSH2 0x70 JUMP JUMPDEST PUSH2 0x7C SWAP1 SLOAD PUSH2 0x36F JUMP JUMPDEST PUSH2 0x423 SWAP5 POP PUSH2 0x41D PUSH2 0x406 PUSH2 0x3F8 DUP4 PUSH2 0x3E8 PUSH2 0x42B SWAP6 PUSH2 0x3D7 PUSH2 0x3D2 PUSH2 0x3CD PUSH2 0x3BD PUSH2 0x7C SWAP14 SWAP12 SWAP13 PUSH2 0x3B2 PUSH1 0x0 SWAP1 JUMP JUMPDEST POP PUSH1 0x20 DUP2 ADD SWAP1 PUSH2 0x215 JUMP JUMPDEST PUSH2 0x3C7 PUSH1 0x0 PUSH2 0x277 JUMP JUMPDEST SWAP2 PUSH2 0x262 JUMP JUMPDEST PUSH2 0x284 JUMP JUMPDEST PUSH2 0x2AB JUMP JUMPDEST PUSH2 0x3E0 ADDRESS PUSH2 0x2AB JUMP JUMPDEST SWAP1 CALLER SWAP1 PUSH2 0x45C JUMP JUMPDEST PUSH2 0x3F2 PUSH1 0x0 PUSH2 0x2BB JUMP JUMPDEST SWAP1 PUSH2 0x2DB JUMP JUMPDEST PUSH2 0x3F2 PUSH5 0xE8D4A51000 PUSH2 0x277 JUMP JUMPDEST PUSH2 0x417 PUSH8 0xDE0B6B3A7640000 PUSH2 0x277 JUMP JUMPDEST SWAP1 PUSH2 0x309 JUMP JUMPDEST SWAP5 DUP6 SWAP4 SWAP1 JUMP JUMPDEST DUP4 LT ISZERO PUSH2 0x318 JUMP JUMPDEST PUSH2 0x438 PUSH2 0x3D2 PUSH1 0x1 PUSH2 0x378 JUMP JUMPDEST PUSH2 0x49F JUMP JUMPDEST SWAP1 PUSH2 0x7C PUSH2 0x7C PUSH2 0x44D SWAP3 PUSH2 0x277 JUMP JUMPDEST SWAP1 SSTORE JUMP JUMPDEST PUSH2 0xB3 SWAP1 PUSH1 0x0 PUSH2 0x43D JUMP JUMPDEST SWAP3 PUSH1 0x1 SWAP1 PUSH2 0x472 SWAP4 PUSH2 0x46E SWAP4 DUP7 PUSH2 0x4B0 JUMP JUMPDEST ISZERO SWAP1 JUMP JUMPDEST PUSH2 0x479 JUMPI POP JUMP JUMPDEST PUSH2 0x49A PUSH2 0x487 PUSH1 0x0 SWAP3 PUSH2 0x2AB JUMP JUMPDEST PUSH4 0x5274AFE7 PUSH1 0xE0 SHL DUP4 MSTORE PUSH1 0x4 DUP4 ADD PUSH2 0xA3 JUMP JUMPDEST SUB PUSH1 0x0 REVERT JUMPDEST SWAP2 PUSH1 0x1 PUSH2 0x46E SWAP2 PUSH2 0x472 SWAP4 DUP6 PUSH2 0x529 JUMP JUMPDEST PUSH1 0x40 MLOAD PUSH4 0x23B872DD PUSH1 0xE0 SHL PUSH1 0x0 SWAP1 DUP2 MSTORE PUSH1 0x1 PUSH1 0x1 PUSH1 0xA0 SHL SUB SWAP4 DUP5 AND PUSH1 0x4 MSTORE SWAP4 SWAP1 SWAP3 AND PUSH1 0x24 MSTORE PUSH1 0x44 SWAP4 SWAP1 SWAP4 MSTORE SWAP3 SWAP4 SWAP3 SWAP2 SWAP1 PUSH1 0x20 SWAP1 PUSH1 0x64 DUP2 DUP1 DUP6 GAS CALL SWAP4 PUSH1 0x1 PUSH1 0x0 MLOAD EQ DUP6 AND ISZERO PUSH2 0x505 JUMPI JUMPDEST POP POP PUSH1 0x40 MSTORE PUSH1 0x0 PUSH1 0x60 MSTORE JUMP JUMPDEST DUP5 SWAP3 SWAP5 ISZERO AND PUSH2 0x51F JUMPI PUSH1 0x0 SWAP1 EXTCODESIZE GT RETURNDATASIZE ISZERO AND AND SWAP2 CODESIZE DUP1 PUSH2 0x4F9 JUMP JUMPDEST DUP4 RETURNDATASIZE PUSH1 0x0 DUP3 RETURNDATACOPY RETURNDATASIZE SWAP1 REVERT JUMPDEST PUSH1 0x40 MLOAD PUSH4 0xA9059CBB PUSH1 0xE0 SHL PUSH1 0x0 SWAP1 DUP2 MSTORE PUSH1 0x1 PUSH1 0x1 PUSH1 0xA0 SHL SUB SWAP1 SWAP4 AND PUSH1 0x4 MSTORE PUSH1 0x24 SWAP4 SWAP1 SWAP4 MSTORE SWAP3 SWAP4 SWAP3 SWAP1 PUSH1 0x20 SWAP1 PUSH1 0x44 DUP2 DUP1 DUP6 GAS CALL SWAP4 PUSH1 0x1 PUSH1 0x0 MLOAD EQ DUP6 AND ISZERO PUSH2 0x571 JUMPI JUMPDEST POP POP PUSH1 0x40 MSTORE JUMP JUMPDEST DUP5 SWAP3 SWAP5 ISZERO AND PUSH2 0x51F JUMPI PUSH1 0x0 SWAP1 EXTCODESIZE GT RETURNDATASIZE ISZERO AND AND SWAP2 CODESIZE DUP1 PUSH2 0x56A JUMP INVALID LOG2 PUSH5 0x6970667358 0x22 SLT KECCAK256 NUMBER MOD 0x2F PUSH18 0xA0472F03D9D7DE257CCF334AD182372EDA25 EXTCODESIZE 0x1F JUMPI PUSH16 0x2B2BF5FEA52E64736F6C634300081C00 CALLER "
        },
        "methodIdentifiers": {
          "exchangeRate()": "3ba0b9a9",
          "setExchangeRate(uint256)": "db068e0e",
          "swapExactTokensForTokens(uint256,uint256,(uint256[],address[]),address,uint256)": "d669fe12",
          "wavax()": "117be4c2"
        }
      }
    }
  }
}