{
  "contracts/mocks/MockBenqi.sol": {
    "MockBenqi": {
      "abi": [
        {
          "inputs": [
            {
              "internalType": "address",
              "name": "_wavax",
              "type": "address"
            }
          ],
          "stateMutability": "nonpayable",
          "type": "constructor"
        },
        {
          "inputs": [
            {
              "internalType": "address",
              "name": "spender",
              "type": "address"
            },
            {
              "internalType": "uint256",
              "name": "allowance",
              "type": "uint256"
            },
            {
              "internalType": "uint256",
              "name": "needed",
              "type": "uint256"
            }
          ],
          "name": "ERC20InsufficientAllowance",
          "type": "error"
        },
        {
          "inputs": [
            {
              "internalType": "address",
              "name": "sender",
              "type": "address"
            },
            {
              "internalType": "uint256",
              "name": "balance",
              "type": "uint256"
            },
            {
              "internalType": "uint256",
              "name": "needed",
              "type": "uint256"
            }
          ],
          "name": "ERC20InsufficientBalance",
          "type": "error"
        },
        {
          "inputs": [
            {
              "internalType": "address",
              "name": "approver",
              "type": "address"
            }
          ],
          "name": "ERC20InvalidApprover",
          "type": "error"
        },
        {
          "inputs": [
            {
              "internalType": "address",
              "name": "receiver",
              "type": "address"
            }
          ],
          "name": "ERC20InvalidReceiver",
          "type": "error"
        },
        {
          "inputs": [
            {
              "internalType": "address",
              "name": "sender",
              "type": "address"
            }
          ],
          "name": "ERC20InvalidSender",
          "type": "error"
        },
        {
          "inputs": [
            {
              "internalType": "address",
              "name": "spender",
              "type": "address"
            }
          ],
          "name": "ERC20InvalidSpender",
          "type": "error"
        },
        {
          "inputs": [
            {
              "internalType": "address",
              "name": "token",
              "type": "address"
            }
          ],
          "name": "SafeERC20FailedOperation",
          "type": "error"
        },
        {
          "anonymous": false,
          "inputs": [
            {
              "indexed": true,
              "internalType": "address",
              "name": "owner",
              "type": "address"
            },
            {
              "indexed": true,
              "internalType": "address",
              "name": "spender",
              "type": "address"
            },
            {
              "indexed": false,
              "internalType": "uint256",
              "name": "value",
              "type": "uint256"
            }
          ],
          "name": "Approval",
          "type": "event"
        },
        {
          "anonymous": false,
          "inputs": [
            {
              "indexed": true,
              "internalType": "address",
              "name": "from",
              "type": "address"
            },
            {
              "indexed": true,
              "internalType": "address",
              "name": "to",
              "type": "address"
            },
            {
              "indexed": false,
              "internalType": "uint256",
              "name": "value",
              "type": "uint256"
            }
          ],
          "name": "Transfer",
          "type": "event"
        },
        {
          "inputs": [
            {
              "internalType": "address",
              "name": "owner",
              "type": "address"
            },
            {
              "internalType": "address",
              "name": "spender",
              "type": "address"
            }
          ],
          "name": "allowance",
          "outputs": [
            {
              "internalType": "uint256",
              "name": "",
              "type": "uint256"
            }
          ],
          "stateMutability": "view",
          "type": "function"
        },
        {
          "inputs": [
            {
              "internalType": "address",
              "name": "spender",
              "type": "address"
            },
            {
              "internalType": "uint256",
              "name": "value",
              "type": "uint256"
            }
          ],
          "name": "approve",
          "outputs": [
            {
              "internalType": "bool",
              "name": "",
              "type": "bool"
            }
          ],
          "stateMutability": "nonpayable",
          "type": "function"
        },
        {
          "inputs": [
            {
              "internalType": "address",
              "name": "account",
              "type": "address"
            }
          ],
          "name": "balanceOf",
          "outputs": [
            {
              "internalType": "uint256",
              "name": "",
              "type": "uint256"
            }
          ],
          "stateMutability": "view",
          "type": "function"
        },
        {
          "inputs": [],
          "name": "decimals",
          "outputs": [
            {
              "internalType": "uint8",
              "name": "",
              "type": "uint8"
            }
          ],
          "stateMutability": "view",
          "type": "function"
        },
        {
          "inputs": [],
          "name": "exchangeRate",
          "outputs": [
            {
              "internalType": "uint256",
              "name": "",
              "type": "uint256"
            }
          ],
          "stateMutability": "view",
          "type": "function"
        },
        {
          "inputs": [
            {
              "internalType": "uint256",
              "name": "mintAmount",
              "type": "uint256"
            }
          ],
          "name": "mint",
          "outputs": [
            {
              "internalType": "uint256",
              "name": "",
              "type": "uint256"
            }
          ],
          "stateMutability": "nonpayable",
          "type": "function"
        },
        {
          "inputs": [],
          "name": "name",
          "outputs": [
            {
              "internalType": "string",
              "name": "",
              "type": "string"
            }
          ],
          "stateMutability": "view",
          "type": "function"
        },
        {
          "inputs": [
            {
              "internalType": "uint256",
              "name": "_rate",
              "type": "uint256"
            }
          ],
          "name": "setExchangeRate",
          "outputs": [],
          "stateMutability": "nonpayable",
          "type": "function"
        },
        {
          "inputs": [],
          "name": "symbol",
          "outputs": [
            {
              "internalType": "string",
              "name": "",
              "type": "string"
            }
          ],
          "stateMutability": "view",
          "type": "function"
        },
        {
          "inputs": [],
          "name": "totalSupply",
          "outputs": [
            {
              "internalType": "uint256",
              "name": "",
              "type": "uint256"
            }
          ],
          "stateMutability": "view",
          "type": "function"
        },
        {
          "inputs": [
            {
              "internalType": "address",
              "name": "to",
              "type": "address"
            },
            {
              "internalType": "uint256",
              "name": "value",
              "type": "uint256"
            }
          ],
          "name": "transfer",
          "outputs": [
            {
              "internalType": "bool",
              "name": "",
              "type": "bool"
            }
          ],
          "stateMutability": "nonpayable",
          "type": "function"
        },
        {
          "inputs": [
            {
              "internalType": "address",
              "name": "from",
              "type": "address"
            },
            {
              "internalType": "address",
              "name": "to",
              "type": "address"
            },
            {
              "internalType": "uint256",
              "name": "value",
              "type": "uint256"
            }
          ],
          "name": "transferFrom",
          "outputs": [
            {
              "internalType": "bool",
              "name": "",
              "type": "bool"
            }
          ],
          "stateMutability": "nonpayable",
          "type": "function"
        },
        {
          "inputs": [],
          "name": "wavax",
          "outputs": [
            {
              "internalType": "address",
              "name": "",
              "type": "address"
            }
          ],
          "stateMutability": "view",
          "type": "function"
        }
      ],
      "evm": {
        "bytecode": {
          "linkReferences": {},
          "object": "60806040523461002a576100196100146100c2565b6101e4565b604051610c286103f48239610c2890f35b600080fd5b634e487b7160e01b600052604160045260246000fd5b90601f01601f191681019081106001600160401b0382111761006657604052565b61002f565b9061007f61007860405190565b9283610045565b565b6001600160a01b031690565b90565b6001600160a01b0381160361002a57565b9050519061007f82610090565b9060208282031261002a5761008d916100a1565b61008d61101c803803806100d58161006b565b9283398101906100ae565b6001600160401b03811161006657602090601f01601f19160190565b9061010e610109836100e0565b61006b565b918252565b61011d600b6100fc565b6a09adec6d640e2d282ac82b60ab1b602082015290565b61008d610113565b61014660066100fc565b650e2d282ac82b60d31b602082015290565b61008d61013c565b90600019905b9181191691161790565b61008d61008d61008d9290565b9061018d61008d61019492610170565b8254610160565b9055565b906001600160a01b0390610166565b61008d90610081906001600160a01b031682565b61008d906101a7565b61008d906101bb565b906101dd61008d610194926101c4565b8254610198565b61007f906102016101f3610134565b6101fb610158565b906103dd565b6102156802b5e3af16b1880000600661017d565b60056101cd565b634e487b7160e01b600052602260045260246000fd5b9060016002830492168015610252575b602083101461024d57565b61021c565b91607f1691610242565b9160001960089290920291821b911b610166565b919061028161008d61019493610170565b90835461025c565b61007f91600091610270565b8181106102a0575050565b806102ae6000600193610289565b01610295565b9190601f81116102c357505050565b6102d561007f93600052602060002090565b906020601f8401819004830193106102f7575b6020601f909101040190610295565b90915081906102e8565b9061030a815190565b906001600160401b0382116100665761032d826103278554610232565b856102b4565b602090601f83116001146103685761019492916000918361035d575b5050600019600883021c1916906002021790565b015190503880610349565b601f1983169161037d85600052602060002090565b9260005b8181106103bb575091600293918560019694106103a2575b50505002019055565b01516000196008601f8516021c19169055388080610399565b91936020600181928787015181550195019201610381565b9061007f91610301565b906103ec61007f9260036103d3565b60046103d356fe6080604052600436101561001257600080fd5b60003560e01c806306fdde03146100e2578063095ea7b3146100dd578063117be4c2146100d857806318160ddd146100d357806323b872dd146100ce578063313ce567146100c95780633ba0b9a9146100c457806370a08231146100bf57806395d89b41146100ba578063a0712d68146100b5578063a9059cbb146100b0578063db068e0e146100ab5763dd62ed3e036100e757610434565b6103f4565b6103d8565b6103bd565b61038e565b610373565b610344565b6102f3565b6102d7565b610282565b61024d565b6101f4565b610166565b600080fd5b60009103126100e757565b60005b83811061010a5750506000910152565b81810151838201526020016100fa565b61013b61014460209361014e9361012f815190565b80835293849260200190565b958691016100f7565b601f01601f191690565b0190565b60208082526101639291019061011a565b90565b346100e7576101763660046100ec565b61018d610181610585565b60405191829182610152565b0390f35b6001600160a01b031690565b6001600160a01b0381165b036100e757565b905035906101bc8261019d565b565b806101a8565b905035906101bc826101be565b91906040838203126100e7576101639060206101ed82866101af565b94016101c4565b346100e75761018d61021061020a3660046101d1565b9061058f565b60405191829182901515815260200190565b610163916008021c6001600160a01b031690565b906101639154610222565b61016360006005610236565b346100e75761025d3660046100ec565b61018d610268610241565b604051918291826001600160a01b03909116815260200190565b346100e7576102923660046100ec565b61018d61029d6105b0565b6040515b9182918290815260200190565b90916060828403126100e7576101636102c784846101af565b9360406101ed82602087016101af565b346100e75761018d6102106102ed3660046102ae565b916105ba565b346100e7576103033660046100ec565b61018d61030e6105e3565b6040519182918260ff909116815260200190565b610163916008021c81565b906101639154610322565b6101636000600661032d565b346100e7576103543660046100ec565b61018d61029d610338565b906020828203126100e757610163916101af565b346100e75761018d61029d61038936600461035f565b61062b565b346100e75761039e3660046100ec565b61018d610181610647565b906020828203126100e757610163916101c4565b346100e75761018d61029d6103d33660046103a9565b6106c4565b346100e75761018d6102106103ee3660046101d1565b90610735565b346100e75761040c6104073660046103a9565b610754565b604051005b91906040838203126100e75761016390602061042d82866101af565b94016101af565b346100e75761018d61029d61044a366004610411565b9061075f565b634e487b7160e01b600052602260045260246000fd5b9060016002830492168015610486575b602083101461048157565b610450565b91607f1691610476565b805460009392916104ad6104a383610466565b8085529360200190565b91600181169081156104ff57506001146104c657505050565b6104d99192939450600052602060002090565b916000925b8184106104eb5750500190565b8054848401526020909301926001016104de565b92949550505060ff1916825215156020020190565b9061016391610490565b634e487b7160e01b600052604160045260246000fd5b90601f01601f1916810190811067ffffffffffffffff82111761055657604052565b61051e565b906101bc6105759261056c60405190565b93848092610514565b0383610534565b6101639061055b565b610163600361057c565b61059a91903361077f565b600190565b6101639081565b610163905461059f565b61016360026105a6565b61059a9291906105cb8333836107b7565b61082d565b6105dd6101636101639290565b60ff1690565b61016360126105d0565b61016390610191906001600160a01b031682565b610163906105ed565b61016390610601565b9061061d9061060a565b600052602052604060002090565b6106426101639161063a600090565b506000610613565b6105a6565b610163600461057c565b61016390610191565b6101639054610651565b634e487b7160e01b600052601160045260246000fd5b8181029291811591840414171561068d57565b610664565b6101636101636101639290565b634e487b7160e01b600052601260045260246000fd5b81156106bf570490565b61069f565b61072561070e61072b926106d6600090565b506106fe816106ed6106e8600561065a565b61060a565b6106f63061060a565b9033906108bf565b61070860066105a6565b9061067a565b61071f670de0b6b3a7640000610692565b906106b5565b33610909565b6101636000610692565b61059a91903361082d565b9061016361016361075092610692565b9055565b6101bc906006610740565b6101639161077a61064292610772600090565b506001610613565b610613565b916001916101bc93610958565b6001600160a01b0390911681526060810193926101bc9290916040916107b3906020830152565b0152565b916107c2828461075f565b60001981106107d2575b50505050565b8181106107f857916107e96107ef94926000940390565b91610958565b388080806107cc565b637dc7a0d960e11b6000908152935061081292600461078c565b036000fd5b6101916101636101639290565b61016390610817565b92919060009361083c85610824565b856001600160a01b0382166001600160a01b0384161461089f57506001600160a01b0381166001600160a01b0384161461087c57506101bc939450610a47565b63ec442f0560e01b86526001600160a01b031660048601528480602481015b0390fd5b634b637e8f60e11b81526001600160a01b03919091166004820152602490fd5b926001906108d5936108d19386610b79565b1590565b6108dc5750565b6108126108ea60009261060a565b635274afe760e01b83526001600160a01b031660048301526024820190565b919060009261091784610824565b6001600160a01b0381166001600160a01b0383161461093b576101bc939450610a47565b63ec442f0560e01b85526001600160a01b03166004850152602484fd5b909192600061096681610824565b6001600160a01b0381166001600160a01b03851614610a1d576001600160a01b0381166001600160a01b03861614610a005750506109b2846109ad8561077a866001610613565b610740565b6109bb57505050565b6109fb6109f16109eb7f8c5be1e5ebec7d5bd14f71427d1e84f3dd0314c0f7b2291e5b200ac8c7c3b9259361060a565b9361060a565b936102a160405190565b0390a3565b634a1406b160e11b82526001600160a01b03166004820152602490fd5b63e602df0560e01b82526001600160a01b03166004820152602490fd5b9190820180921161068d57565b816000610a5381610824565b6001600160a01b0381166001600160a01b03851603610b00577fddf252ad1be2c89b69c2b068fc378daa952ba7f163c4a11628f55a4df523b3ef936109fb936109f193610aba6109eb94610191610ab38c610aae60026105a6565b610a3a565b6002610740565b6001600160a01b03831603610ae05750506106e8610ab388610adc60026105a6565b0390565b6106e891610aed91610613565b610afa8961014e836105a6565b90610740565b909150610b106106428484610613565b858110610b5e577fddf252ad1be2c89b69c2b068fc378daa952ba7f163c4a11628f55a4df523b3ef93856109fb94610aba6109f195610191610b548c6109eb980390565b6109ad8786610613565b8261089b8782938763391434e360e21b85526004850161078c565b6040516323b872dd60e01b60009081526001600160a01b0393841660045293909216602452604493909352929392919060209060648180855af193600160005114851615610bce575b50506040526000606052565b8492941516610be8576000903b113d151616913880610bc2565b833d6000823e3d90fdfea2646970667358221220161c9715e87b52519524b830d66921a42c7f86efd319fce33f3faa3007ec12b764736f6c634300081c0033",
          "opcodes": "PUSH1 0x80 PUSH1 0x40 MSTORE CALLVALUE PUSH2 0x2A JUMPI PUSH2 0x19 PUSH2 0x14 PUSH2 0xC2 JUMP JUMPDEST PUSH2 0x1E4 JUMP JUMPDEST PUSH1 0x40 MLOAD PUSH2 0xC28 PUSH2 0x3F4 DUP3 CODECOPY PUSH2 0xC28 SWAP1 RETURN JUMPDEST PUSH1 0x0 DUP1 REVERT JUMPDEST PUSH4 0x4E487B71 PUSH1 0xE0 SHL PUSH1 0x0 MSTORE PUSH1 0x41 PUSH1 0x4 MSTORE PUSH1 0x24 PUSH1 0x0 REVERT JUMPDEST SWAP1 PUSH1 0x1F ADD PUSH1 0x1F NOT AND DUP2 ADD SWAP1 DUP2 LT PUSH1 0x1 PUSH1 0x1 PUSH1 0x40 SHL SUB DUP3 GT OR PUSH2 0x66 JUMPI PUSH1 0x40 MSTORE JUMP JUMPDEST PUSH2 0x2F JUMP JUMPDEST SWAP1 PUSH2 0x7F PUSH2 0x78 PUSH1 0x40 MLOAD SWAP1 JUMP JUMPDEST SWAP3 DUP4 PUSH2 0x45 JUMP JUMPDEST JUMP JUMPDEST PUSH1 0x1 PUSH1 0x1 PUSH1 0xA0 SHL SUB AND SWAP1 JUMP JUMPDEST SWAP1 JUMP JUMPDEST PUSH1 0x1 PUSH1 0x1 PUSH1 0xA0 SHL SUB DUP2 AND SUB PUSH2 0x2A JUMPI JUMP JUMPDEST SWAP1 POP MLOAD SWAP1 PUSH2 0x7F DUP3 PUSH2 0x90 JUMP JUMPDEST SWAP1 PUSH1 0x20 DUP3 DUP3 SUB SLT PUSH2 0x2A JUMPI PUSH2 0x8D SWAP2 PUSH2 0xA1 JUMP JUMPDEST PUSH2 0x8D PUSH2 0x101C DUP1 CODESIZE SUB DUP1 PUSH2 0xD5 DUP2 PUSH2 0x6B JUMP JUMPDEST SWAP3 DUP4 CODECOPY DUP2 ADD SWAP1 PUSH2 0xAE JUMP JUMPDEST PUSH1 0x1 PUSH1 0x1 PUSH1 0x40 SHL SUB DUP2 GT PUSH2 0x66 JUMPI PUSH1 0x20 SWAP1 PUSH1 0x1F ADD PUSH1 0x1F NOT AND ADD SWAP1 JUMP JUMPDEST SWAP1 PUSH2 0x10E PUSH2 0x109 DUP4 PUSH2 0xE0 JUMP JUMPDEST PUSH2 0x6B JUMP JUMPDEST SWAP2 DUP3 MSTORE JUMP JUMPDEST PUSH2 0x11D PUSH1 0xB PUSH2 0xFC JUMP JUMPDEST PUSH11 0x9ADEC6D640E2D282AC82B PUSH1 0xAB SHL PUSH1 0x20 DUP3 ADD MSTORE SWAP1 JUMP JUMPDEST PUSH2 0x8D PUSH2 0x113 JUMP JUMPDEST PUSH2 0x146 PUSH1 0x6 PUSH2 0xFC JUMP JUMPDEST PUSH6 0xE2D282AC82B PUSH1 0xD3 SHL PUSH1 0x20 DUP3 ADD MSTORE SWAP1 JUMP JUMPDEST PUSH2 0x8D PUSH2 0x13C JUMP JUMPDEST SWAP1 PUSH1 0x0 NOT SWAP1 JUMPDEST SWAP2 DUP2 NOT AND SWAP2 AND OR SWAP1 JUMP JUMPDEST PUSH2 0x8D PUSH2 0x8D PUSH2 0x8D SWAP3 SWAP1 JUMP JUMPDEST SWAP1 PUSH2 0x18D PUSH2 0x8D PUSH2 0x194 SWAP3 PUSH2 0x170 JUMP JUMPDEST DUP3 SLOAD PUSH2 0x160 JUMP JUMPDEST SWAP1 SSTORE JUMP JUMPDEST SWAP1 PUSH1 0x1 PUSH1 0x1 PUSH1 0xA0 SHL SUB SWAP1 PUSH2 0x166 JUMP JUMPDEST PUSH2 0x8D SWAP1 PUSH2 0x81 SWAP1 PUSH1 0x1 PUSH1 0x1 PUSH1 0xA0 SHL SUB AND DUP3 JUMP JUMPDEST PUSH2 0x8D SWAP1 PUSH2 0x1A7 JUMP JUMPDEST PUSH2 0x8D SWAP1 PUSH2 0x1BB JUMP JUMPDEST SWAP1 PUSH2 0x1DD PUSH2 0x8D PUSH2 0x194 SWAP3 PUSH2 0x1C4 JUMP JUMPDEST DUP3 SLOAD PUSH2 0x198 JUMP JUMPDEST PUSH2 0x7F SWAP1 PUSH2 0x201 PUSH2 0x1F3 PUSH2 0x134 JUMP JUMPDEST PUSH2 0x1FB PUSH2 0x158 JUMP JUMPDEST SWAP1 PUSH2 0x3DD JUMP JUMPDEST PUSH2 0x215 PUSH9 0x2B5E3AF16B1880000 PUSH1 0x6 PUSH2 0x17D JUMP JUMPDEST PUSH1 0x5 PUSH2 0x1CD JUMP JUMPDEST PUSH4 0x4E487B71 PUSH1 0xE0 SHL PUSH1 0x0 MSTORE PUSH1 0x22 PUSH1 0x4 MSTORE PUSH1 0x24 PUSH1 0x0 REVERT JUMPDEST SWAP1 PUSH1 0x1 PUSH1 0x2 DUP4 DIV SWAP3 AND DUP1 ISZERO PUSH2 0x252 JUMPI JUMPDEST PUSH1 0x20 DUP4 LT EQ PUSH2 0x24D JUMPI JUMP JUMPDEST PUSH2 0x21C JUMP JUMPDEST SWAP2 PUSH1 0x7F AND SWAP2 PUSH2 0x242 JUMP JUMPDEST SWAP2 PUSH1 0x0 NOT PUSH1 0x8 SWAP3 SWAP1 SWAP3 MUL SWAP2 DUP3 SHL SWAP2 SHL PUSH2 0x166 JUMP JUMPDEST SWAP2 SWAP1 PUSH2 0x281 PUSH2 0x8D PUSH2 0x194 SWAP4 PUSH2 0x170 JUMP JUMPDEST SWAP1 DUP4 SLOAD PUSH2 0x25C JUMP JUMPDEST PUSH2 0x7F SWAP2 PUSH1 0x0 SWAP2 PUSH2 0x270 JUMP JUMPDEST DUP2 DUP2 LT PUSH2 0x2A0 JUMPI POP POP JUMP JUMPDEST DUP1 PUSH2 0x2AE PUSH1 0x0 PUSH1 0x1 SWAP4 PUSH2 0x289 JUMP JUMPDEST ADD PUSH2 0x295 JUMP JUMPDEST SWAP2 SWAP1 PUSH1 0x1F DUP2 GT PUSH2 0x2C3 JUMPI POP POP POP JUMP JUMPDEST PUSH2 0x2D5 PUSH2 0x7F SWAP4 PUSH1 0x0 MSTORE PUSH1 0x20 PUSH1 0x0 KECCAK256 SWAP1 JUMP JUMPDEST SWAP1 PUSH1 0x20 PUSH1 0x1F DUP5 ADD DUP2 SWAP1 DIV DUP4 ADD SWAP4 LT PUSH2 0x2F7 JUMPI JUMPDEST PUSH1 0x20 PUSH1 0x1F SWAP1 SWAP2 ADD DIV ADD SWAP1 PUSH2 0x295 JUMP JUMPDEST SWAP1 SWAP2 POP DUP2 SWAP1 PUSH2 0x2E8 JUMP JUMPDEST SWAP1 PUSH2 0x30A DUP2 MLOAD SWAP1 JUMP JUMPDEST SWAP1 PUSH1 0x1 PUSH1 0x1 PUSH1 0x40 SHL SUB DUP3 GT PUSH2 0x66 JUMPI PUSH2 0x32D DUP3 PUSH2 0x327 DUP6 SLOAD PUSH2 0x232 JUMP JUMPDEST DUP6 PUSH2 0x2B4 JUMP JUMPDEST PUSH1 0x20 SWAP1 PUSH1 0x1F DUP4 GT PUSH1 0x1 EQ PUSH2 0x368 JUMPI PUSH2 0x194 SWAP3 SWAP2 PUSH1 0x0 SWAP2 DUP4 PUSH2 0x35D JUMPI JUMPDEST POP POP PUSH1 0x0 NOT PUSH1 0x8 DUP4 MUL SHR NOT AND SWAP1 PUSH1 0x2 MUL OR SWAP1 JUMP JUMPDEST ADD MLOAD SWAP1 POP CODESIZE DUP1 PUSH2 0x349 JUMP JUMPDEST PUSH1 0x1F NOT DUP4 AND SWAP2 PUSH2 0x37D DUP6 PUSH1 0x0 MSTORE PUSH1 0x20 PUSH1 0x0 KECCAK256 SWAP1 JUMP JUMPDEST SWAP3 PUSH1 0x0 JUMPDEST DUP2 DUP2 LT PUSH2 0x3BB JUMPI POP SWAP2 PUSH1 0x2 SWAP4 SWAP2 DUP6 PUSH1 0x1 SWAP7 SWAP5 LT PUSH2 0x3A2 JUMPI JUMPDEST POP POP POP MUL ADD SWAP1 SSTORE JUMP JUMPDEST ADD MLOAD PUSH1 0x0 NOT PUSH1 0x8 PUSH1 0x1F DUP6 AND MUL SHR NOT AND SWAP1 SSTORE CODESIZE DUP1 DUP1 PUSH2 0x399 JUMP JUMPDEST SWAP2 SWAP4 PUSH1 0x20 PUSH1 0x1 DUP2 SWAP3 DUP8 DUP8 ADD MLOAD DUP2 SSTORE ADD SWAP6 ADD SWAP3 ADD PUSH2 0x381 JUMP JUMPDEST SWAP1 PUSH2 0x7F SWAP2 PUSH2 0x301 JUMP JUMPDEST SWAP1 PUSH2 0x3EC PUSH2 0x7F SWAP3 PUSH1 0x3 PUSH2 0x3D3 JUMP JUMPDEST PUSH1 0x4 PUSH2 0x3D3 JUMP INVALID PUSH1 0x80 PUSH1 0x40 MSTORE PUSH1 0x4 CALLDATASIZE LT ISZERO PUSH2 0x12 JUMPI PUSH1 0x0 DUP1 REVERT JUMPDEST PUSH1 0x0 CALLDATALOAD PUSH1 0xE0 SHR DUP1 PUSH4 0x6FDDE03 EQ PUSH2 0xE2 JUMPI DUP1 PUSH4 0x95EA7B3 EQ PUSH2 0xDD JUMPI DUP1 PUSH4 0x117BE4C2 EQ PUSH2 0xD8 JUMPI DUP1 PUSH4 0x18160DDD EQ PUSH2 0xD3 JUMPI DUP1 PUSH4 0x23B872DD EQ PUSH2 0xCE JUMPI DUP1 PUSH4 0x313CE567 EQ PUSH2 0xC9 JUMPI DUP1 PUSH4 0x3BA0B9A9 EQ PUSH2 0xC4 JUMPI DUP1 PUSH4 0x70A08231 EQ PUSH2 0xBF JUMPI DUP1 PUSH4 0x95D89B41 EQ PUSH2 0xBA JUMPI DUP1 PUSH4 0xA0712D68 EQ PUSH2 0xB5 JUMPI DUP1 PUSH4 0xA9059CBB EQ PUSH2 0xB0 JUMPI DUP1 PUSH4 0xDB068E0E EQ PUSH2 0xAB JUMPI PUSH4 0xDD62ED3E SUB PUSH2 0xE7 JUMPI PUSH2 0x434 JUMP JUMPDEST PUSH2 0x3F4 JUMP JUMPDEST PUSH2 0x3D8 JUMP JUMPDEST PUSH2 0x3BD JUMP JUMPDEST PUSH2 0x38E JUMP JUMPDEST PUSH2 0x373 JUMP JUMPDEST PUSH2 0x344 JUMP JUMPDEST PUSH2 0x2F3 JUMP JUMPDEST PUSH2 0x2D7 JUMP JUMPDEST PUSH2 0x282 JUMP JUMPDEST PUSH2 0x24D JUMP JUMPDEST PUSH2 0x1F4 JUMP JUMPDEST PUSH2 0x166 JUMP JUMPDEST PUSH1 0x0 DUP1 REVERT JUMPDEST PUSH1 0x0 SWAP2 SUB SLT PUSH2 0xE7 JUMPI JUMP JUMPDEST PUSH1 0x0 JUMPDEST DUP4 DUP2 LT PUSH2 0x10A JUMPI POP POP PUSH1 0x0 SWAP2 ADD MSTORE JUMP JUMPDEST DUP2 DUP2 ADD MLOAD DUP4 DUP3 ADD MSTORE PUSH1 0x20 ADD PUSH2 0xFA JUMP JUMPDEST PUSH2 0x13B PUSH2 0x144 PUSH1 0x20 SWAP4 PUSH2 0x14E SWAP4 PUSH2 0x12F DUP2 MLOAD SWAP1 JUMP JUMPDEST DUP1 DUP4 MSTORE SWAP4 DUP5 SWAP3 PUSH1 0x20 ADD SWAP1 JUMP JUMPDEST SWAP6 DUP7 SWAP2 ADD PUSH2 0xF7 JUMP JUMPDEST PUSH1 0x1F ADD PUSH1 0x1F NOT AND SWAP1 JUMP JUMPDEST ADD SWAP1 JUMP JUMPDEST PUSH1 0x20 DUP1 DUP3 MSTORE PUSH2 0x163 SWAP3 SWAP2 ADD SWAP1 PUSH2 0x11A JUMP JUMPDEST SWAP1 JUMP JUMPDEST CALLVALUE PUSH2 0xE7 JUMPI PUSH2 0x176 CALLDATASIZE PUSH1 0x4 PUSH2 0xEC JUMP JUMPDEST PUSH2 0x18D PUSH2 0x181 PUSH2 0x585 JUMP JUMPDEST PUSH1 0x40 MLOAD SWAP2 DUP3 SWAP2 DUP3 PUSH2 0x152 JUMP JUMPDEST SUB SWAP1 RETURN JUMPDEST PUSH1 0x1 PUSH1 0x1 PUSH1 0xA0 SHL SUB AND SWAP1 JUMP JUMPDEST PUSH1 0x1 PUSH1 0x1 PUSH1 0xA0 SHL SUB DUP2 AND JUMPDEST SUB PUSH2 0xE7 JUMPI JUMP JUMPDEST SWAP1 POP CALLDATALOAD SWAP1 PUSH2 0x1BC DUP3 PUSH2 0x19D JUMP JUMPDEST JUMP JUMPDEST DUP1 PUSH2 0x1A8 JUMP JUMPDEST SWAP1 POP CALLDATALOAD SWAP1 PUSH2 0x1BC DUP3 PUSH2 0x1BE JUMP JUMPDEST SWAP2 SWAP1 PUSH1 0x40 DUP4 DUP3 SUB SLT PUSH2 0xE7 JUMPI PUSH2 0x163 SWAP1 PUSH1 0x20 PUSH2 0x1ED DUP3 DUP7 PUSH2 0x1AF JUMP JUMPDEST SWAP5 ADD PUSH2 0x1C4 JUMP JUMPDEST CALLVALUE PUSH2 0xE7 JUMPI PUSH2 0x18D PUSH2 0x210 PUSH2 0x20A CALLDATASIZE PUSH1 0x4 PUSH2 0x1D1 JUMP JUMPDEST SWAP1 PUSH2 0x58F JUMP JUMPDEST PUSH1 0x40 MLOAD SWAP2 DUP3 SWAP2 DUP3 SWAP1 ISZERO ISZERO DUP2 MSTORE PUSH1 0x20 ADD SWAP1 JUMP JUMPDEST PUSH2 0x163 SWAP2 PUSH1 0x8 MUL SHR PUSH1 0x1 PUSH1 0x1 PUSH1 0xA0 SHL SUB AND SWAP1 JUMP JUMPDEST SWAP1 PUSH2 0x163 SWAP2 SLOAD PUSH2 0x222 JUMP JUMPDEST PUSH2 0x163 PUSH1 0x0 PUSH1 0x5 PUSH2 0x236 JUMP JUMPDEST CALLVALUE PUSH2 0xE7 JUMPI PUSH2 0x25D CALLDATASIZE PUSH1 0x4 PUSH2 0xEC JUMP JUMPDEST PUSH2 0x18D PUSH2 0x268 PUSH2 0x241 JUMP JUMPDEST PUSH1 0x40 MLOAD SWAP2 DUP3 SWAP2 DUP3 PUSH1 0x1 PUSH1 0x1 PUSH1 0xA0 SHL SUB SWAP1 SWAP2 AND DUP2 MSTORE PUSH1 0x20 ADD SWAP1 JUMP JUMPDEST CALLVALUE PUSH2 0xE7 JUMPI PUSH2 0x292 CALLDATASIZE PUSH1 0x4 PUSH2 0xEC JUMP JUMPDEST PUSH2 0x18D PUSH2 0x29D PUSH2 0x5B0 JUMP JUMPDEST PUSH1 0x40 MLOAD JUMPDEST SWAP2 DUP3 SWAP2 DUP3 SWAP1 DUP2 MSTORE PUSH1 0x20 ADD SWAP1 JUMP JUMPDEST SWAP1 SWAP2 PUSH1 0x60 DUP3 DUP5 SUB SLT PUSH2 0xE7 JUMPI PUSH2 0x163 PUSH2 0x2C7 DUP5 DUP5 PUSH2 0x1AF JUMP JUMPDEST SWAP4 PUSH1 0x40 PUSH2 0x1ED DUP3 PUSH1 0x20 DUP8 ADD PUSH2 0x1AF JUMP JUMPDEST CALLVALUE PUSH2 0xE7 JUMPI PUSH2 0x18D PUSH2 0x210 PUSH2 0x2ED CALLDATASIZE PUSH1 0x4 PUSH2 0x2AE JUMP JUMPDEST SWAP2 PUSH2 0x5BA JUMP JUMPDEST CALLVALUE PUSH2 0xE7 JUMPI PUSH2 0x303 CALLDATASIZE PUSH1 0x4 PUSH2 0xEC JUMP JUMPDEST PUSH2 0x18D PUSH2 0x30E PUSH2 0x5E3 JUMP JUMPDEST PUSH1 0x40 MLOAD SWAP2 DUP3 SWAP2 DUP3 PUSH1 0xFF SWAP1 SWAP2 AND DUP2 MSTORE PUSH1 0x20 ADD SWAP1 JUMP JUMPDEST PUSH2 0x163 SWAP2 PUSH1 0x8 MUL SHR DUP2 JUMP JUMPDEST SWAP1 PUSH2 0x163 SWAP2 SLOAD PUSH2 0x322 JUMP JUMPDEST PUSH2 0x163 PUSH1 0x0 PUSH1 0x6 PUSH2 0x32D JUMP JUMPDEST CALLVALUE PUSH2 0xE7 JUMPI PUSH2 0x354 CALLDATASIZE PUSH1 0x4 PUSH2 0xEC JUMP JUMPDEST PUSH2 0x18D PUSH2 0x29D PUSH2 0x338 JUMP JUMPDEST SWAP1 PUSH1 0x20 DUP3 DUP3 SUB SLT PUSH2 0xE7 JUMPI PUSH2 0x163 SWAP2 PUSH2 0x1AF JUMP JUMPDEST CALLVALUE PUSH2 0xE7 JUMPI PUSH2 0x18D PUSH2 0x29D PUSH2 0x389 CALLDATASIZE PUSH1 0x4 PUSH2 0x35F JUMP JUMPDEST PUSH2 0x62B JUMP JUMPDEST CALLVALUE PUSH2 0xE7 JUMPI PUSH2 0x39E CALLDATASIZE PUSH1 0x4 PUSH2 0xEC JUMP JUMPDEST PUSH2 0x18D PUSH2 0x181 PUSH2 0x647 JUMP JUMPDEST SWAP1 PUSH1 0x20 DUP3 DUP3 SUB SLT PUSH2 0xE7 JUMPI PUSH2 0x163 SWAP2 PUSH2 0x1C4 JUMP JUMPDEST CALLVALUE PUSH2 0xE7 JUMPI PUSH2 0x18D PUSH2 0x29D PUSH2 0x3D3 CALLDATASIZE PUSH1 0x4 PUSH2 0x3A9 JUMP JUMPDEST PUSH2 0x6C4 JUMP JUMPDEST CALLVALUE PUSH2 0xE7 JUMPI PUSH2 0x18D PUSH2 0x210 PUSH2 0x3EE CALLDATASIZE PUSH1 0x4 PUSH2 0x1D1 JUMP JUMPDEST SWAP1 PUSH2 0x735 JUMP JUMPDEST CALLVALUE PUSH2 0xE7 JUMPI PUSH2 0x40C PUSH2 0x407 CALLDATASIZE PUSH1 0x4 PUSH2 0x3A9 JUMP JUMPDEST PUSH2 0x754 JUMP JUMPDEST PUSH1 0x40 MLOAD STOP JUMPDEST SWAP2 SWAP1 PUSH1 0x40 DUP4 DUP3 SUB SLT PUSH2 0xE7 JUMPI PUSH2 0x163 SWAP1 PUSH1 0x20 PUSH2 0x42D DUP3 DUP7 PUSH2 0x1AF JUMP JUMPDEST SWAP5 ADD PUSH2 0x1AF JUMP JUMPDEST CALLVALUE PUSH2 0xE7 JUMPI PUSH2 0x18D PUSH2 0x29D PUSH2 0x44A CALLDATASIZE PUSH1 0x4 PUSH2 0x411 JUMP JUMPDEST SWAP1 PUSH2 0x75F JUMP JUMPDEST PUSH4 0x4E487B71 PUSH1 0xE0 SHL PUSH1 0x0 MSTORE PUSH1 0x22 PUSH1 0x4 MSTORE PUSH1 0x24 PUSH1 0x0 REVERT JUMPDEST SWAP1 PUSH1 0x1 PUSH1 0x2 DUP4 DIV SWAP3 AND DUP1 ISZERO PUSH2 0x486 JUMPI JUMPDEST PUSH1 0x20 DUP4 LT EQ PUSH2 0x481 JUMPI JUMP JUMPDEST PUSH2 0x450 JUMP JUMPDEST SWAP2 PUSH1 0x7F AND SWAP2 PUSH2 0x476 JUMP JUMPDEST DUP1 SLOAD PUSH1 0x0 SWAP4 SWAP3 SWAP2 PUSH2 0x4AD PUSH2 0x4A3 DUP4 PUSH2 0x466 JUMP JUMPDEST DUP1 DUP6 MSTORE SWAP4 PUSH1 0x20 ADD SWAP1 JUMP JUMPDEST SWAP2 PUSH1 0x1 DUP2 AND SWAP1 DUP2 ISZERO PUSH2 0x4FF JUMPI POP PUSH1 0x1 EQ PUSH2 0x4C6 JUMPI POP POP POP JUMP JUMPDEST PUSH2 0x4D9 SWAP2 SWAP3 SWAP4 SWAP5 POP PUSH1 0x0 MSTORE PUSH1 0x20 PUSH1 0x0 KECCAK256 SWAP1 JUMP JUMPDEST SWAP2 PUSH1 0x0 SWAP3 JUMPDEST DUP2 DUP5 LT PUSH2 0x4EB JUMPI POP POP ADD SWAP1 JUMP JUMPDEST DUP1 SLOAD DUP5 DUP5 ADD MSTORE PUSH1 0x20 SWAP1 SWAP4 ADD SWAP3 PUSH1 0x1 ADD PUSH2 0x4DE JUMP JUMPDEST SWAP3 SWAP5 SWAP6 POP POP POP PUSH1 0xFF NOT AND DUP3 MSTORE ISZERO ISZERO PUSH1 0x20 MUL ADD SWAP1 JUMP JUMPDEST SWAP1 PUSH2 0x163 SWAP2 PUSH2 0x490 JUMP JUMPDEST PUSH4 0x4E487B71 PUSH1 0xE0 SHL PUSH1 0x0 MSTORE PUSH1 0x41 PUSH1 0x4 MSTORE PUSH1 0x24 PUSH1 0x0 REVERT JUMPDEST SWAP1 PUSH1 0x1F ADD PUSH1 0x1F NOT AND DUP2 ADD SWAP1 DUP2 LT PUSH8 0xFFFFFFFFFFFFFFFF DUP3 GT OR PUSH2 0x556 JUMPI PUSH1 0x40 MSTORE JUMP JUMPDEST PUSH2 0x51E JUMP JUMPDEST SWAP1 PUSH2 0x1BC PUSH2 0x575 SWAP3 PUSH2 0x56C PUSH1 0x40 MLOAD SWAP1 JUMP JUMPDEST SWAP4 DUP5 DUP1 SWAP3 PUSH2 0x514 JUMP JUMPDEST SUB DUP4 PUSH2 0x534 JUMP JUMPDEST PUSH2 0x163 SWAP1 PUSH2 0x55B JUMP JUMPDEST PUSH2 0x163 PUSH1 0x3 PUSH2 0x57C JUMP JUMPDEST PUSH2 0x59A SWAP2 SWAP1 CALLER PUSH2 0x77F JUMP JUMPDEST PUSH1 0x1 SWAP1 JUMP JUMPDEST PUSH2 0x163 SWAP1 DUP2 JUMP JUMPDEST PUSH2 0x163 SWAP1 SLOAD PUSH2 0x59F JUMP JUMPDEST PUSH2 0x163 PUSH1 0x2 PUSH2 0x5A6 JUMP JUMPDEST PUSH2 0x59A SWAP3 SWAP2 SWAP1 PUSH2 0x5CB DUP4 CALLER DUP4 PUSH2 0x7B7 JUMP JUMPDEST PUSH2 0x82D JUMP JUMPDEST PUSH2 0x5DD PUSH2 0x163 PUSH2 0x163 SWAP3 SWAP1 JUMP JUMPDEST PUSH1 0xFF AND SWAP1 JUMP JUMPDEST PUSH2 0x163 PUSH1 0x12 PUSH2 0x5D0 JUMP JUMPDEST PUSH2 0x163 SWAP1 PUSH2 0x191 SWAP1 PUSH1 0x1 PUSH1 0x1 PUSH1 0xA0 SHL SUB AND DUP3 JUMP JUMPDEST PUSH2 0x163 SWAP1 PUSH2 0x5ED JUMP JUMPDEST PUSH2 0x163 SWAP1 PUSH2 0x601 JUMP JUMPDEST SWAP1 PUSH2 0x61D SWAP1 PUSH2 0x60A JUMP JUMPDEST PUSH1 0x0 MSTORE PUSH1 0x20 MSTORE PUSH1 0x40 PUSH1 0x0 KECCAK256 SWAP1 JUMP JUMPDEST PUSH2 0x642 PUSH2 0x163 SWAP2 PUSH2 0x63A PUSH1 0x0 SWAP1 JUMP JUMPDEST POP PUSH1 0x0 PUSH2 0x613 JUMP JUMPDEST PUSH2 0x5A6 JUMP JUMPDEST PUSH2 0x163 PUSH1 0x4 PUSH2 0x57C JUMP JUMPDEST PUSH2 0x163 SWAP1 PUSH2 0x191 JUMP JUMPDEST PUSH2 0x163 SWAP1 SLOAD PUSH2 0x651 JUMP JUMPDEST PUSH4 0x4E487B71 PUSH1 0xE0 SHL PUSH1 0x0 MSTORE PUSH1 0x11 PUSH1 0x4 MSTORE PUSH1 0x24 PUSH1 0x0 REVERT JUMPDEST DUP2 DUP2 MUL SWAP3 SWAP2 DUP2 ISZERO SWAP2 DUP5 DIV EQ OR ISZERO PUSH2 0x68D JUMPI JUMP JUMPDEST PUSH2 0x664 JUMP JUMPDEST PUSH2 0x163 PUSH2 0x163 PUSH2 0x163 SWAP3 SWAP1 JUMP JUMPDEST PUSH4 0x4E487B71 PUSH1 0xE0 SHL PUSH1 0x0 MSTORE PUSH1 0x12 PUSH1 0x4 MSTORE PUSH1 0x24 PUSH1 0x0 REVERT JUMPDEST DUP2 ISZERO PUSH2 0x6BF JUMPI DIV SWAP1 JUMP JUMPDEST PUSH2 0x69F JUMP JUMPDEST PUSH2 0x725 PUSH2 0x70E PUSH2 0x72B SWAP3 PUSH2 0x6D6 PUSH1 0x0 SWAP1 JUMP JUMPDEST POP PUSH2 0x6FE DUP2 PUSH2 0x6ED PUSH2 0x6E8 PUSH1 0x5 PUSH2 0x65A JUMP JUMPDEST PUSH2 0x60A JUMP JUMPDEST PUSH2 0x6F6 ADDRESS PUSH2 0x60A JUMP JUMPDEST SWAP1 CALLER SWAP1 PUSH2 0x8BF JUMP JUMPDEST PUSH2 0x708 PUSH1 0x6 PUSH2 0x5A6 JUMP JUMPDEST SWAP1 PUSH2 0x67A JUMP JUMPDEST PUSH2 0x71F PUSH8 0xDE0B6B3A7640000 PUSH2 0x692 JUMP JUMPDEST SWAP1 PUSH2 0x6B5 JUMP JUMPDEST CALLER PUSH2 0x909 JUMP JUMPDEST PUSH2 0x163 PUSH1 0x0 PUSH2 0x692 JUMP JUMPDEST PUSH2 0x59A SWAP2 SWAP1 CALLER PUSH2 0x82D JUMP JUMPDEST SWAP1 PUSH2 0x163 PUSH2 0x163 PUSH2 0x750 SWAP3 PUSH2 0x692 JUMP JUMPDEST SWAP1 SSTORE JUMP JUMPDEST PUSH2 0x1BC SWAP1 PUSH1 0x6 PUSH2 0x740 JUMP JUMPDEST PUSH2 0x163 SWAP2 PUSH2 0x77A PUSH2 0x642 SWAP3 PUSH2 0x772 PUSH1 0x0 SWAP1 JUMP JUMPDEST POP PUSH1 0x1 PUSH2 0x613 JUMP JUMPDEST PUSH2 0x613 JUMP JUMPDEST SWAP2 PUSH1 0x1 SWAP2 PUSH2 0x1BC SWAP4 PUSH2 0x958 JUMP JUMPDEST PUSH1 0x1 PUSH1 0x1 PUSH1 0xA0 SHL SUB SWAP1 SWAP2 AND DUP2 MSTORE PUSH1 0x60 DUP2 ADD SWAP4 SWAP3 PUSH2 0x1BC SWAP3 SWAP1 SWAP2 PUSH1 0x40 SWAP2 PUSH2 0x7B3 SWAP1 PUSH1 0x20 DUP4 ADD MSTORE JUMP JUMPDEST ADD MSTORE JUMP JUMPDEST SWAP2 PUSH2 0x7C2 DUP3 DUP5 PUSH2 0x75F JUMP JUMPDEST PUSH1 0x0 NOT DUP2 LT PUSH2 0x7D2 JUMPI JUMPDEST POP POP POP POP JUMP JUMPDEST DUP2 DUP2 LT PUSH2 0x7F8 JUMPI SWAP2 PUSH2 0x7E9 PUSH2 0x7EF SWAP5 SWAP3 PUSH1 0x0 SWAP5 SUB SWAP1 JUMP JUMPDEST SWAP2 PUSH2 0x958 JUMP JUMPDEST CODESIZE DUP1 DUP1 DUP1 PUSH2 0x7CC JUMP JUMPDEST PUSH4 0x7DC7A0D9 PUSH1 0xE1 SHL PUSH1 0x0 SWAP1 DUP2 MSTORE SWAP4 POP PUSH2 0x812 SWAP3 PUSH1 0x4 PUSH2 0x78C JUMP JUMPDEST SUB PUSH1 0x0 REVERT JUMPDEST PUSH2 0x191 PUSH2 0x163 PUSH2 0x163 SWAP3 SWAP1 JUMP JUMPDEST PUSH2 0x163 SWAP1 PUSH2 0x817 JUMP JUMPDEST SWAP3 SWAP2 SWAP1 PUSH1 0x0 SWAP4 PUSH2 0x83C DUP6 PUSH2 0x824 JUMP JUMPDEST DUP6 PUSH1 0x1 PUSH1 0x1 PUSH1 0xA0 SHL SUB DUP3 AND PUSH1 0x1 PUSH1 0x1 PUSH1 0xA0 SHL SUB DUP5 AND EQ PUSH2 0x89F JUMPI POP PUSH1 0x1 PUSH1 0x1 PUSH1 0xA0 SHL SUB DUP2 AND PUSH1 0x1 PUSH1 0x1 PUSH1 0xA0 SHL SUB DUP5 AND EQ PUSH2 0x87C JUMPI POP PUSH2 0x1BC SWAP4 SWAP5 POP PUSH2 0xA47 JUMP JUMPDEST PUSH4 0xEC442F05 PUSH1 0xE0 SHL DUP7 MSTORE PUSH1 0x1 PUSH1 0x1 PUSH1 0xA0 SHL SUB AND PUSH1 0x4 DUP7 ADD MSTORE DUP5 DUP1 PUSH1 0x24 DUP2 ADD JUMPDEST SUB SWAP1 REVERT JUMPDEST PUSH4 0x4B637E8F PUSH1 0xE1 SHL DUP2 MSTORE PUSH1 0x1 PUSH1 0x1 PUSH1 0xA0 SHL SUB SWAP2 SWAP1 SWAP2 AND PUSH1 0x4 DUP3 ADD MSTORE PUSH1 0x24 SWAP1 REVERT JUMPDEST SWAP3 PUSH1 0x1 SWAP1 PUSH2 0x8D5 SWAP4 PUSH2 0x8D1 SWAP4 DUP7 PUSH2 0xB79 JUMP JUMPDEST ISZERO SWAP1 JUMP JUMPDEST PUSH2 0x8DC JUMPI POP JUMP JUMPDEST PUSH2 0x812 PUSH2 0x8EA PUSH1 0x0 SWAP3 PUSH2 0x60A JUMP JUMPDEST PUSH4 0x5274AFE7 PUSH1 0xE0 SHL DUP4 MSTORE PUSH1 0x1 PUSH1 0x1 PUSH1 0xA0 SHL SUB AND PUSH1 0x4 DUP4 ADD MSTORE PUSH1 0x24 DUP3 ADD SWAP1 JUMP JUMPDEST SWAP2 SWAP1 PUSH1 0x0 SWAP3 PUSH2 0x917 DUP5 PUSH2 0x824 JUMP JUMPDEST PUSH1 0x1 PUSH1 0x1 PUSH1 0xA0 SHL SUB DUP2 AND PUSH1 0x1 PUSH1 0x1 PUSH1 0xA0 SHL SUB DUP4 AND EQ PUSH2 0x93B JUMPI PUSH2 0x1BC SWAP4 SWAP5 POP PUSH2 0xA47 JUMP JUMPDEST PUSH4 0xEC442F05 PUSH1 0xE0 SHL DUP6 MSTORE PUSH1 0x1 PUSH1 0x1 PUSH1 0xA0 SHL SUB AND PUSH1 0x4 DUP6 ADD MSTORE PUSH1 0x24 DUP5 REVERT JUMPDEST SWAP1 SWAP2 SWAP3 PUSH1 0x0 PUSH2 0x966 DUP2 PUSH2 0x824 JUMP JUMPDEST PUSH1 0x1 PUSH1 0x1 PUSH1 0xA0 SHL SUB DUP2 AND PUSH1 0x1 PUSH1 0x1 PUSH1 0xA0 SHL SUB DUP6 AND EQ PUSH2 0xA1D JUMPI PUSH1 0x1 PUSH1 0x1 PUSH1 0xA0 SHL SUB DUP2 AND PUSH1 0x1 PUSH1 0x1 PUSH1 0xA0 SHL SUB DUP7 AND EQ PUSH2 0xA00 JUMPI POP POP PUSH2 0x9B2 DUP5 PUSH2 0x9AD DUP6 PUSH2 0x77A DUP7 PUSH1 0x1 PUSH2 0x613 JUMP JUMPDEST PUSH2 0x740 JUMP JUMPDEST PUSH2 0x9BB JUMPI POP POP POP JUMP JUMPDEST PUSH2 0x9FB PUSH2 0x9F1 PUSH2 0x9EB PUSH32 0x8C5BE1E5EBEC7D5BD14F71427D1E84F3DD0314C0F7B2291E5B200AC8C7C3B925 SWAP4 PUSH2 0x60A JUMP JUMPDEST SWAP4 PUSH2 0x60A JUMP JUMPDEST SWAP4 PUSH2 0x2A1 PUSH1 0x40 MLOAD SWAP1 JUMP JUMPDEST SUB SWAP1 LOG3 JUMP JUMPDEST PUSH4 0x4A1406B1 PUSH1 0xE1 SHL DUP3 MSTORE PUSH1 0x1 PUSH1 0x1 PUSH1 0xA0 SHL SUB AND PUSH1 0x4 DUP3 ADD MSTORE PUSH1 0x24 SWAP1 REVERT JUMPDEST PUSH4 0xE602DF05 PUSH1 0xE0 SHL DUP3 MSTORE PUSH1 0x1 PUSH1 0x1 PUSH1 0xA0 SHL SUB AND PUSH1 0x4 DUP3 ADD MSTORE PUSH1 0x24 SWAP1 REVERT JUMPDEST SWAP2 SWAP1 DUP3 ADD DUP1 SWAP3 GT PUSH2 0x68D JUMPI JUMP JUMPDEST DUP2 PUSH1 0x0 PUSH2 0xA53 DUP2 PUSH2 0x824 JUMP JUMPDEST PUSH1 0x1 PUSH1 0x1 PUSH1 0xA0 SHL SUB DUP2 AND PUSH1 0x1 PUSH1 0x1 PUSH1 0xA0 SHL SUB DUP6 AND SUB PUSH2 0xB00 JUMPI PUSH32 0xDDF252AD1BE2C89B69C2B068FC378DAA952BA7F163C4A11628F55A4DF523B3EF SWAP4 PUSH2 0x9FB SWAP4 PUSH2 0x9F1 SWAP4 PUSH2 0xABA PUSH2 0x9EB SWAP5 PUSH2 0x191 PUSH2 0xAB3 DUP13 PUSH2 0xAAE PUSH1 0x2 PUSH2 0x5A6 JUMP JUMPDEST PUSH2 0xA3A JUMP JUMPDEST PUSH1 0x2 PUSH2 0x740 JUMP JUMPDEST PUSH1 0x1 PUSH1 0x1 PUSH1 0xA0 SHL SUB DUP4 AND SUB PUSH2 0xAE0 JUMPI POP POP PUSH2 0x6E8 PUSH2 0xAB3 DUP9 PUSH2 0xADC PUSH1 0x2 PUSH2 0x5A6 JUMP JUMPDEST SUB SWAP1 JUMP JUMPDEST PUSH2 0x6E8 SWAP2 PUSH2 0xAED SWAP2 PUSH2 0x613 JUMP JUMPDEST PUSH2 0xAFA DUP10 PUSH2 0x14E DUP4 PUSH2 0x5A6 JUMP JUMPDEST SWAP1 PUSH2 0x740 JUMP JUMPDEST SWAP1 SWAP2 POP PUSH2 0xB10 PUSH2 0x642 DUP5 DUP5 PUSH2 0x613 JUMP JUMPDEST DUP6 DUP2 LT PUSH2 0xB5E JUMPI PUSH32 0xDDF252AD1BE2C89B69C2B068FC378DAA952BA7F163C4A11628F55A4DF523B3EF SWAP4 DUP6 PUSH2 0x9FB SWAP5 PUSH2 0xABA PUSH2 0x9F1 SWAP6 PUSH2 0x191 PUSH2 0xB54 DUP13 PUSH2 0x9EB SWAP9 SUB SWAP1 JUMP JUMPDEST PUSH2 0x9AD DUP8 DUP7 PUSH2 0x613 JUMP JUMPDEST DUP3 PUSH2 0x89B DUP8 DUP3 SWAP4 DUP8 PUSH4 0x391434E3 PUSH1 0xE2 SHL DUP6 MSTORE PUSH1 0x4 DUP6 ADD PUSH2 0x78C JUMP JUMPDEST PUSH1 0x40 MLOAD PUSH4 0x23B872DD PUSH1 0xE0 SHL PUSH1 0x0 SWAP1 DUP2 MSTORE PUSH1 0x1 PUSH1 0x1 PUSH1 0xA0 SHL SUB SWAP4 DUP5 AND PUSH1 0x4 MSTORE SWAP4 SWAP1 SWAP3 AND PUSH1 0x24 MSTORE PUSH1 0x44 SWAP4 SWAP1 SWAP4 MSTORE SWAP3 SWAP4 SWAP3 SWAP2 SWAP1 PUSH1 0x20 SWAP1 PUSH1 0x64 DUP2 DUP1 DUP6 GAS CALL SWAP4 PUSH1 0x1 PUSH1 0x0 MLOAD EQ DUP6 AND ISZERO PUSH2 0xBCE JUMPI JUMPDEST POP POP PUSH1 0x40 MSTORE PUSH1 0x0 PUSH1 0x60 MSTORE JUMP JUMPDEST DUP5 SWAP3 SWAP5 ISZERO AND PUSH2 0xBE8 JUMPI PUSH1 0x0 SWAP1 EXTCODESIZE GT RETURNDATASIZE ISZERO AND AND SWAP2 CODESIZE DUP1 PUSH2 0xBC2 JUMP JUMPDEST DUP4 RETURNDATASIZE PUSH1 0x0 DUP3 RETURNDATACOPY RETURNDATASIZE SWAP1 REVERT INVALID LOG2 PUSH5 0x6970667358 0x22 SLT KECCAK256 AND SHR SWAP8 ISZERO 0xE8 PUSH28 0x52519524B830D66921A42C7F86EFD319FCE33F3FAA3007EC12B76473 PUSH16 0x6C634300081C00330000000000000000 "
        },
        "methodIdentifiers": {
          "allowance(address,address)": "dd62ed3e",
          "approve(address,uint256)": "095ea7b3",
          "balanceOf(address)": "70a08231",
          "decimals()": "313ce567",
          "exchangeRate()": "3ba0b9a9",
          "mint(uint256)": "a0712d68",
          "name()": "06fdde03",
          "setExchangeRate(uint256)": "db068e0e",
          "symbol()": "95d89b41",
          "totalSupply()": "18160ddd",
          "transfer(address,uint256)": "a9059cbb",
          "transferFrom(address,address,uint256)": "23b872dd",
          "wavax()": "117be4c2"
        }
      }
    }
  }
}