{
  "contracts/BurnTracker.sol": {
    "BurnTracker": {
      "abi": [
        {
          "anonymous": false,
          "inputs": [
            {
              "indexed": false,
              "internalType": "address",
              "name": "user",
              "type": "address"
            },
            {
              "indexed": false,
              "internalType": "uint256",
              "name": "gasUsed",
              "type": "uint256"
            },
            {
              "indexed": false,
              "internalType": "uint256",
              "name": "txCount",
              "type": "uint256"
            }
          ],
          "name": "GasTracked",
          "type": "event"
        },
        {
          "inputs": [],
          "name": "getMyStats",
          "outputs": [
            {
              "components": [
                {
                  "internalType": "uint256",
                  "name": "totalGasUsed",
                  "type": "uint256"
                },
                {
                  "internalType": "uint256",
                  "name": "totalTransactions",
                  "type": "uint256"
                },
                {
                  "internalType": "uint256",
                  "name": "avaxBurned",
                  "type": "uint256"
                }
              ],
              "internalType": "struct BurnTracker.UserStats",
              "name": "",
              "type": "tuple"
            }
          ],
          "stateMutability": "view",
          "type": "function"
        },
        {
          "inputs": [
            {
              "internalType": "address",
              "name": "user",
              "type": "address"
            },
            {
              "internalType": "uint256",
              "name": "gasUsed",
              "type": "uint256"
            },
            {
              "internalType": "uint256",
              "name": "txCount",
              "type": "uint256"
            }
          ],
          "name": "recordUsage",
          "outputs": [],
          "stateMutability": "nonpayable",
          "type": "function"
        },
        {
          "inputs": [
            {
              "internalType": "address",
              "name": "",
              "type": "address"
            }
          ],
          "name": "userStats",
          "outputs": [
            {
              "internalType": "uint256",
              "name": "totalGasUsed",
              "type": "uint256"
            },
            {
              "internalType": "uint256",
              "name": "totalTransactions",
              "type": "uint256"
            },
            {
              "internalType": "uint256",
              "name": "avaxBurned",
              "type": "uint256"
            }
          ],
          "stateMutability": "view",
          "type": "function"
        }
      ],
      "evm": {
        "bytecode": {
          "linkReferences": {},
          "object": "60806040523460195760405161046361001f823961046390f35b600080fdfe6080604052600436101561001257600080fd5b60003560e01c8063287bbb3d146100425780637a52723e1461003d57638a65d87403610047576101fa565b610121565b6100bf565b600080fd5b6001600160a01b031690565b90565b6001600160a01b0381165b0361004757565b9050359061007a8261005b565b565b80610066565b9050359061007a8261007c565b9091606082840312610047576100586100a8848461006d565b9360406100b88260208701610082565b9401610082565b34610047576100d86100d236600461008f565b916102a5565b60405180805b0390f35b600091031261004757565b8051825261007a9190604090819061010a60208201516020860152565b0151910152565b60608101929161007a91906100ed565b34610047576101313660046100e2565b6100de61013c610411565b60405191829182610111565b90602082820312610047576100589161006d565b6100589061004c906001600160a01b031682565b6100589061015c565b61005890610170565b9061018c90610179565b600052602052604060002090565b6100589081565b610058905461019a565b6101b6906000610182565b6101bf816101a1565b9161005860026101d1600185016101a1565b93016101a1565b90815260608101939261007a9290916040916101f6905b6020830152565b0152565b34610047576100de610215610210366004610148565b6101ab565b604051919391938493846101d8565b634e487b7160e01b600052601160045260246000fd5b9190820180921161024757565b610224565b6100586100586100589290565b906100586100586102699261024c565b9055565b8181029291811591840414171561024757565b6001600160a01b03909116815260608101939261007a9290916040916101f6906101ef565b61033f7fc8d15027016f06bce945af08d67204532f647fe6ea775c5e663a923a85ab1336936103336102db610058856000610182565b6102f7816102f1886102ec836101a1565b61023a565b90610259565b61030b600182016102f1856102ec836101a1565b6102f160026103276103216405d21dba0061024c565b8961026d565b9201916102ec836101a1565b60405193849384610280565b0390a1565b634e487b7160e01b600052604160045260246000fd5b90601f01601f1916810190811067ffffffffffffffff82111761037c57604052565b610344565b9061007a61038e60405190565b928361035a565b6100586060610381565b6103a7610395565b600080825260208201819052604082015290565b61005861039f565b9061007a61040160026103d4610395565b946103e56103e1826101a1565b8752565b6103fb6103f4600183016101a1565b6020880152565b016101a1565b6040840152565b610058906103c3565b6104196103bb565b50610058610428336000610182565b61040856fea2646970667358221220637416ed84313d4f2d603cd41aaeada67bc085f999c9fd250169eca14144cda064736f6c634300081c0033",
          "opcodes": "PUSH1 0x80 PUSH1 0x40 MSTORE CALLVALUE PUSH1 0x19 JUMPI PUSH1 0x40 MLOAD PUSH2 0x463 PUSH2 0x1F DUP3 CODECOPY PUSH2 0x463 SWAP1 RETURN JUMPDEST PUSH1 0x0 DUP1 REVERT INVALID PUSH1 0x80 PUSH1 0x40 MSTORE PUSH1 0x4 CALLDATASIZE LT ISZERO PUSH2 0x12 JUMPI PUSH1 0x0 DUP1 REVERT JUMPDEST PUSH1 0x0 CALLDATALOAD PUSH1 0xE0 SHR DUP1 PUSH4 0x287BBB3D EQ PUSH2 0x42 JUMPI DUP1 PUSH4 0x7A52723E EQ PUSH2 0x3D JUMPI PUSH4 0x8A65D874 SUB PUSH2 0x47 JUMPI PUSH2 0x1FA JUMP JUMPDEST PUSH2 0x121 JUMP JUMPDEST PUSH2 0xBF JUMP JUMPDEST PUSH1 0x0 DUP1 REVERT JUMPDEST PUSH1 0x1 PUSH1 0x1 PUSH1 0xA0 SHL SUB AND SWAP1 JUMP JUMPDEST SWAP1 JUMP JUMPDEST PUSH1 0x1 PUSH1 0x1 PUSH1 0xA0 SHL SUB DUP2 AND JUMPDEST SUB PUSH2 0x47 JUMPI JUMP JUMPDEST SWAP1 POP CALLDATALOAD SWAP1 PUSH2 0x7A DUP3 PUSH2 0x5B JUMP JUMPDEST JUMP JUMPDEST DUP1 PUSH2 0x66 JUMP JUMPDEST SWAP1 POP CALLDATALOAD SWAP1 PUSH2 0x7A DUP3 PUSH2 0x7C JUMP JUMPDEST SWAP1 SWAP2 PUSH1 0x60 DUP3 DUP5 SUB SLT PUSH2 0x47 JUMPI PUSH2 0x58 PUSH2 0xA8 DUP5 DUP5 PUSH2 0x6D JUMP JUMPDEST SWAP4 PUSH1 0x40 PUSH2 0xB8 DUP3 PUSH1 0x20 DUP8 ADD PUSH2 0x82 JUMP JUMPDEST SWAP5 ADD PUSH2 0x82 JUMP JUMPDEST CALLVALUE PUSH2 0x47 JUMPI PUSH2 0xD8 PUSH2 0xD2 CALLDATASIZE PUSH1 0x4 PUSH2 0x8F JUMP JUMPDEST SWAP2 PUSH2 0x2A5 JUMP JUMPDEST PUSH1 0x40 MLOAD DUP1 DUP1 JUMPDEST SUB SWAP1 RETURN JUMPDEST PUSH1 0x0 SWAP2 SUB SLT PUSH2 0x47 JUMPI JUMP JUMPDEST DUP1 MLOAD DUP3 MSTORE PUSH2 0x7A SWAP2 SWAP1 PUSH1 0x40 SWAP1 DUP2 SWAP1 PUSH2 0x10A PUSH1 0x20 DUP3 ADD MLOAD PUSH1 0x20 DUP7 ADD MSTORE JUMP JUMPDEST ADD MLOAD SWAP2 ADD MSTORE JUMP JUMPDEST PUSH1 0x60 DUP2 ADD SWAP3 SWAP2 PUSH2 0x7A SWAP2 SWAP1 PUSH2 0xED JUMP JUMPDEST CALLVALUE PUSH2 0x47 JUMPI PUSH2 0x131 CALLDATASIZE PUSH1 0x4 PUSH2 0xE2 JUMP JUMPDEST PUSH2 0xDE PUSH2 0x13C PUSH2 0x411 JUMP JUMPDEST PUSH1 0x40 MLOAD SWAP2 DUP3 SWAP2 DUP3 PUSH2 0x111 JUMP JUMPDEST SWAP1 PUSH1 0x20 DUP3 DUP3 SUB SLT PUSH2 0x47 JUMPI PUSH2 0x58 SWAP2 PUSH2 0x6D JUMP JUMPDEST PUSH2 0x58 SWAP1 PUSH2 0x4C SWAP1 PUSH1 0x1 PUSH1 0x1 PUSH1 0xA0 SHL SUB AND DUP3 JUMP JUMPDEST PUSH2 0x58 SWAP1 PUSH2 0x15C JUMP JUMPDEST PUSH2 0x58 SWAP1 PUSH2 0x170 JUMP JUMPDEST SWAP1 PUSH2 0x18C SWAP1 PUSH2 0x179 JUMP JUMPDEST PUSH1 0x0 MSTORE PUSH1 0x20 MSTORE PUSH1 0x40 PUSH1 0x0 KECCAK256 SWAP1 JUMP JUMPDEST PUSH2 0x58 SWAP1 DUP2 JUMP JUMPDEST PUSH2 0x58 SWAP1 SLOAD PUSH2 0x19A JUMP JUMPDEST PUSH2 0x1B6 SWAP1 PUSH1 0x0 PUSH2 0x182 JUMP JUMPDEST PUSH2 0x1BF DUP2 PUSH2 0x1A1 JUMP JUMPDEST SWAP2 PUSH2 0x58 PUSH1 0x2 PUSH2 0x1D1 PUSH1 0x1 DUP6 ADD PUSH2 0x1A1 JUMP JUMPDEST SWAP4 ADD PUSH2 0x1A1 JUMP JUMPDEST SWAP1 DUP2 MSTORE PUSH1 0x60 DUP2 ADD SWAP4 SWAP3 PUSH2 0x7A SWAP3 SWAP1 SWAP2 PUSH1 0x40 SWAP2 PUSH2 0x1F6 SWAP1 JUMPDEST PUSH1 0x20 DUP4 ADD MSTORE JUMP JUMPDEST ADD MSTORE JUMP JUMPDEST CALLVALUE PUSH2 0x47 JUMPI PUSH2 0xDE PUSH2 0x215 PUSH2 0x210 CALLDATASIZE PUSH1 0x4 PUSH2 0x148 JUMP JUMPDEST PUSH2 0x1AB JUMP JUMPDEST PUSH1 0x40 MLOAD SWAP2 SWAP4 SWAP2 SWAP4 DUP5 SWAP4 DUP5 PUSH2 0x1D8 JUMP JUMPDEST PUSH4 0x4E487B71 PUSH1 0xE0 SHL PUSH1 0x0 MSTORE PUSH1 0x11 PUSH1 0x4 MSTORE PUSH1 0x24 PUSH1 0x0 REVERT JUMPDEST SWAP2 SWAP1 DUP3 ADD DUP1 SWAP3 GT PUSH2 0x247 JUMPI JUMP JUMPDEST PUSH2 0x224 JUMP JUMPDEST PUSH2 0x58 PUSH2 0x58 PUSH2 0x58 SWAP3 SWAP1 JUMP JUMPDEST SWAP1 PUSH2 0x58 PUSH2 0x58 PUSH2 0x269 SWAP3 PUSH2 0x24C JUMP JUMPDEST SWAP1 SSTORE JUMP JUMPDEST DUP2 DUP2 MUL SWAP3 SWAP2 DUP2 ISZERO SWAP2 DUP5 DIV EQ OR ISZERO PUSH2 0x247 JUMPI JUMP JUMPDEST PUSH1 0x1 PUSH1 0x1 PUSH1 0xA0 SHL SUB SWAP1 SWAP2 AND DUP2 MSTORE PUSH1 0x60 DUP2 ADD SWAP4 SWAP3 PUSH2 0x7A SWAP3 SWAP1 SWAP2 PUSH1 0x40 SWAP2 PUSH2 0x1F6 SWAP1 PUSH2 0x1EF JUMP JUMPDEST PUSH2 0x33F PUSH32 0xC8D15027016F06BCE945AF08D67204532F647FE6EA775C5E663A923A85AB1336 SWAP4 PUSH2 0x333 PUSH2 0x2DB PUSH2 0x58 DUP6 PUSH1 0x0 PUSH2 0x182 JUMP JUMPDEST PUSH2 0x2F7 DUP2 PUSH2 0x2F1 DUP9 PUSH2 0x2EC DUP4 PUSH2 0x1A1 JUMP JUMPDEST PUSH2 0x23A JUMP JUMPDEST SWAP1 PUSH2 0x259 JUMP JUMPDEST PUSH2 0x30B PUSH1 0x1 DUP3 ADD PUSH2 0x2F1 DUP6 PUSH2 0x2EC DUP4 PUSH2 0x1A1 JUMP JUMPDEST PUSH2 0x2F1 PUSH1 0x2 PUSH2 0x327 PUSH2 0x321 PUSH5 0x5D21DBA00 PUSH2 0x24C JUMP JUMPDEST DUP10 PUSH2 0x26D JUMP JUMPDEST SWAP3 ADD SWAP2 PUSH2 0x2EC DUP4 PUSH2 0x1A1 JUMP JUMPDEST PUSH1 0x40 MLOAD SWAP4 DUP5 SWAP4 DUP5 PUSH2 0x280 JUMP JUMPDEST SUB SWAP1 LOG1 JUMP JUMPDEST PUSH4 0x4E487B71 PUSH1 0xE0 SHL PUSH1 0x0 MSTORE PUSH1 0x41 PUSH1 0x4 MSTORE PUSH1 0x24 PUSH1 0x0 REVERT JUMPDEST SWAP1 PUSH1 0x1F ADD PUSH1 0x1F NOT AND DUP2 ADD SWAP1 DUP2 LT PUSH8 0xFFFFFFFFFFFFFFFF DUP3 GT OR PUSH2 0x37C JUMPI PUSH1 0x40 MSTORE JUMP JUMPDEST PUSH2 0x344 JUMP JUMPDEST SWAP1 PUSH2 0x7A PUSH2 0x38E PUSH1 0x40 MLOAD SWAP1 JUMP JUMPDEST SWAP3 DUP4 PUSH2 0x35A JUMP JUMPDEST PUSH2 0x58 PUSH1 0x60 PUSH2 0x381 JUMP JUMPDEST PUSH2 0x3A7 PUSH2 0x395 JUMP JUMPDEST PUSH1 0x0 DUP1 DUP3 MSTORE PUSH1 0x20 DUP3 ADD DUP2 SWAP1 MSTORE PUSH1 0x40 DUP3 ADD MSTORE SWAP1 JUMP JUMPDEST PUSH2 0x58 PUSH2 0x39F JUMP JUMPDEST SWAP1 PUSH2 0x7A PUSH2 0x401 PUSH1 0x2 PUSH2 0x3D4 PUSH2 0x395 JUMP JUMPDEST SWAP5 PUSH2 0x3E5 PUSH2 0x3E1 DUP3 PUSH2 0x1A1 JUMP JUMPDEST DUP8 MSTORE JUMP JUMPDEST PUSH2 0x3FB PUSH2 0x3F4 PUSH1 0x1 DUP4 ADD PUSH2 0x1A1 JUMP JUMPDEST PUSH1 0x20 DUP9 ADD MSTORE JUMP JUMPDEST ADD PUSH2 0x1A1 JUMP JUMPDEST PUSH1 0x40 DUP5 ADD MSTORE JUMP JUMPDEST PUSH2 0x58 SWAP1 PUSH2 0x3C3 JUMP JUMPDEST PUSH2 0x419 PUSH2 0x3BB JUMP JUMPDEST POP PUSH2 0x58 PUSH2 0x428 CALLER PUSH1 0x0 PUSH2 0x182 JUMP JUMPDEST PUSH2 0x408 JUMP INVALID LOG2 PUSH5 0x6970667358 0x22 SLT KECCAK256 PUSH4 0x7416ED84 BALANCE RETURNDATASIZE 0x4F 0x2D PUSH1 0x3C 0xD4 BYTE 0xAE 0xAD 0xA6 PUSH28 0xC085F999C9FD250169ECA14144CDA064736F6C634300081C00330000 "
        },
        "methodIdentifiers": {
          "getMyStats()": "7a52723e",
          "recordUsage(address,uint256,uint256)": "287bbb3d",
          "userStats(address)": "8a65d874"
        }
      }
    }
  }
}