{
  "contracts/DCAFactory.sol": {
    "DCAFactory": {
      "abi": [
        {
          "inputs": [],
          "stateMutability": "nonpayable",
          "type": "constructor"
        },
        {
          "anonymous": false,
          "inputs": [
            {
              "indexed": true,
              "internalType": "address",
              "name": "burnTracker",
              "type": "address"
            }
          ],
          "name": "BurnTrackerSet",
          "type": "event"
        },
        {
          "anonymous": false,
          "inputs": [
            {
              "indexed": true,
              "internalType": "address",
              "name": "vault",
              "type": "address"
            },
            {
              "indexed": true,
              "internalType": "address",
              "name": "user",
              "type": "address"
            }
          ],
          "name": "DCATriggered",
          "type": "event"
        },
        {
          "anonymous": false,
          "inputs": [
            {
              "indexed": true,
              "internalType": "address",
              "name": "executionEngine",
              "type": "address"
            }
          ],
          "name": "ExecutionEngineSet",
          "type": "event"
        },
        {
          "anonymous": false,
          "inputs": [
            {
              "indexed": true,
              "internalType": "address",
              "name": "user",
              "type": "address"
            },
            {
              "indexed": true,
              "internalType": "address",
              "name": "vault",
              "type": "address"
            }
          ],
          "name": "VaultCreated",
          "type": "event"
        },
        {
          "inputs": [
            {
              "internalType": "uint256",
              "name": "",
              "type": "uint256"
            }
          ],
          "name": "allVaults",
          "outputs": [
            {
              "internalType": "address",
              "name": "",
              "type": "address"
            }
          ],
          "stateMutability": "view",
          "type": "function"
        },
        {
          "inputs": [],
          "name": "burnTracker",
          "outputs": [
            {
              "internalType": "address",
              "name": "",
              "type": "address"
            }
          ],
          "stateMutability": "view",
          "type": "function"
        },
        {
          "inputs": [
            {
              "internalType": "uint256",
              "name": "_buyAmount",
              "type": "uint256"
            },
            {
              "internalType": "uint256",
              "name": "_frequency",
              "type": "uint256"
            }
          ],
          "name": "createVault",
          "outputs": [
            {
              "internalType": "address",
              "name": "",
              "type": "address"
            }
          ],
          "stateMutability": "nonpayable",
          "type": "function"
        },
        {
          "inputs": [],
          "name": "executionEngine",
          "outputs": [
            {
              "internalType": "address",
              "name": "",
              "type": "address"
            }
          ],
          "stateMutability": "view",
          "type": "function"
        },
        {
          "inputs": [],
          "name": "getAllVaults",
          "outputs": [
            {
              "internalType": "address[]",
              "name": "",
              "type": "address[]"
            }
          ],
          "stateMutability": "view",
          "type": "function"
        },
        {
          "inputs": [],
          "name": "getMyVault",
          "outputs": [
            {
              "internalType": "address",
              "name": "",
              "type": "address"
            }
          ],
          "stateMutability": "view",
          "type": "function"
        },
        {
          "inputs": [],
          "name": "owner",
          "outputs": [
            {
              "internalType": "address",
              "name": "",
              "type": "address"
            }
          ],
          "stateMutability": "view",
          "type": "function"
        },
        {
          "inputs": [
            {
              "internalType": "address",
              "name": "_burnTracker",
              "type": "address"
            }
          ],
          "name": "setBurnTracker",
          "outputs": [],
          "stateMutability": "nonpayable",
          "type": "function"
        },
        {
          "inputs": [
            {
              "internalType": "address",
              "name": "_executionEngine",
              "type": "address"
            }
          ],
          "name": "setExecutionEngine",
          "outputs": [],
          "stateMutability": "nonpayable",
          "type": "function"
        },
        {
          "inputs": [
            {
              "internalType": "address[]",
              "name": "users",
              "type": "address[]"
            }
          ],
          "name": "triggerBatchDCA",
          "outputs": [],
          "stateMutability": "nonpayable",
          "type": "function"
        },
        {
          "inputs": [
            {
              "internalType": "address",
              "name": "user",
              "type": "address"
            }
          ],
          "name": "triggerDCA",
          "outputs": [],
          "stateMutability": "nonpayable",
          "type": "function"
        },
        {
          "inputs": [
            {
              "internalType": "address",
              "name": "",
              "type": "address"
            }
          ],
          "name": "userVault",
          "outputs": [
            {
              "internalType": "address",
              "name": "",
              "type": "address"
            }
          ],
          "stateMutability": "view",
          "type": "function"
        }
      ],
      "evm": {
        "bytecode": {
          "linkReferences": {},
          "object": "608060405234601f57600e607f565b60405161243961008b823961243990f35b600080fd5b6036906039906001600160a01b031682565b90565b6001600160a01b031690565b6036906024565b6036906045565b90605f6036607b92604c565b82546001600160a01b0319166001600160a01b03919091161790565b9055565b60883360006053565b56fe6080604052600436101561001257600080fd5b60003560e01c806323a92172146100d257806348861e1c146100cd5780635064e065146100c85780636f8206ba146100c35780638303efef146100be5780638da5cb5b146100b95780639094a91e146100b457806397331bf9146100af578063ab2cba85146100aa578063d306254d146100a5578063d42a0a32146100a05763e5fbab85036100d757610484565b610449565b61042e565b61040a565b6103e3565b610353565b6102b5565b61028f565b610221565b610208565b610191565b610135565b600080fd5b60009103126100d757565b6100fc916008021c5b6001600160a01b031690565b90565b906100fc91546100e7565b6100fc600060016100ff565b61011f906100f0565b9052565b6020810192916101339190610116565b565b346100d7576101453660046100dc565b61015c61015061010a565b60405191829182610123565b0390f35b610169816100f0565b036100d757565b9050359061013382610160565b906020828203126100d7576100fc91610170565b346100d7576101a96101a436600461017d565b610687565b604051005b909182601f830112156100d75781359167ffffffffffffffff83116100d75760200192602083028401116100d757565b906020828203126100d757813567ffffffffffffffff81116100d75761020492016101ae565b9091565b346100d7576101a961021b3660046101de565b9061089c565b346100d7576102313660046100dc565b61015c610150610a9e565b6100fc906100f0906001600160a01b031682565b6100fc9061023c565b6100fc90610250565b9061026c90610259565b600052602052604060002090565b600061028a6100fc926004610262565b6100ff565b346100d75761015c6101506102a536600461017d565b61027a565b6100fc6000806100ff565b346100d7576102c53660046100dc565b61015c6101506102aa565b80610169565b90503590610133826102d0565b906020828203126100d7576100fc916102d6565b634e487b7160e01b600052603260045260246000fd5b805482101561033057610327600191600052602060002090565b91020190600090565b6102f7565b6003548110156100d75761034d6100fc91600361030d565b906100ff565b346100d75761015c6101506103693660046102e3565b610335565b9061037b81602093610116565b0190565b9061039f61039861038e845190565b8084529260200190565b9260200190565b9060005b8181106103b05750505090565b9091926103ca6103c3600192865161036e565b9460200190565b9291016103a3565b60208082526100fc9291019061037f565b346100d7576103f33660046100dc565b61015c6103fe610b35565b604051918291826103d2565b346100d7576101a961041d36600461017d565b610bb5565b6100fc600060026100ff565b346100d75761043e3660046100dc565b61015c610150610422565b346100d7576101a961045c36600461017d565b610c6f565b91906040838203126100d7576100fc90602061047d82866102d6565b94016102d6565b346100d75761015c61015061049a366004610461565b90610f13565b6100fc906100f0565b6100fc90546104a0565b6020808252600990820152682737ba1037bbb732b960b91b604082015260600190565b156104dd57565b60405162461bcd60e51b8152806104f6600482016104b3565b0390fd5b6101339061052261051361050e60006104a9565b6100f0565b61051c336100f0565b146104d6565b6105f8565b6100f06100fc6100fc9290565b6100fc90610527565b6020808252600c908201526b5a65726f206164647265737360a01b604082015260600190565b1561056a57565b60405162461bcd60e51b8152806104f66004820161053d565b6020808252600b908201526a105b1c9958591e481cd95d60aa1b604082015260600190565b156105af57565b60405162461bcd60e51b8152806104f660048201610583565b906001600160a01b03905b9181191691161790565b906105ed6100fc6105f492610259565b82546105c8565b9055565b610657906106476106096000610534565b610625610615826100f0565b61061e856100f0565b1415610563565b61064161063b61063560016104a9565b926100f0565b916100f0565b146105a8565b6106528160016105dd565b610259565b7fc171d6acef8d865308b516e5735c034f7f64631ba31eaab195c11cf1a2d576ee61068160405190565b600090a2565b610133906104fa565b60208082526017908201527f457865637574696f6e456e67696e65206e6f7420736574000000000000000000604082015260600190565b156106ce57565b60405162461bcd60e51b8152806104f660048201610690565b6100fc6100fc6100fc9290565b6020808252600a9082015269115b5c1d1e481b1a5cdd60b21b604082015260600190565b1561071f57565b60405162461bcd60e51b8152806104f6600482016106f4565b634e487b7160e01b600052604160045260246000fd5b90601f01601f1916810190811067ffffffffffffffff82111761077057604052565b610738565b9061013361078260405190565b928361074e565b67ffffffffffffffff81116107705760208091020190565b906107b36107ae83610789565b610775565b918252565b369037565b906101336107d36107cd846107a1565b93610789565b601f1901602084016107b8565b9190811015610330576020020190565b356100fc81610160565b801515610169565b90505190610133826107fa565b906020828203126100d7576100fc91610802565b6040513d6000823e3d90fd5b90610838825190565b811015610330576020809102010190565b9061011f906100f0565b6020808252600f908201526e4e6f207661756c747320726561647960881b604082015260600190565b1561088357565b60405162461bcd60e51b8152806104f660048201610853565b906108a760016104a9565b926000936108cb6108b786610534565b916108c461063b846100f0565b14156106c7565b82936108e06108d9876106e7565b8611610718565b6108e9856107bd565b936108f3876106e7565b93845b875b811015610a0757600461092861065261092361091d61091886898b6107e0565b6107f0565b84610262565b6104a9565b90610932876100f0565b61093b83610259565b1415908161098e575b5061095a575b506108f8906001015b90506108f6565b6109866108f8929761098061097161095394610259565b61097b838d61082f565b610849565b60010190565b96915061094a565b6109bb91506020906109a261065285610259565b604051938492839182916378b9033760e01b8352820190565b03915afa908115610a02578b916109d4575b5038610944565b6109f5915060203d81116109fb575b6109ed818361074e565b81019061080f565b386109cd565b503d6109e3565b610823565b50969550505050610a21610a1a846106e7565b821161087c565b8152610a3361065261065260016104a9565b803b156100d757610a668392918392610a4b60405190565b9485938492839190635bbf378360e01b8352600483016103d2565b03925af18015610a0257610a78575050565b8161013392903d10610a97575b610a8f818361074e565b8101906100dc565b503d610a85565b6100fc610923336004610262565b90610ac7610abb61038e845490565b92600052602060002090565b9060005b818110610ad85750505090565b909192610af9610af2600192610aed876104a9565b61036e565b9460010190565b929101610acb565b906100fc91610aac565b90610133610b2592610b1c60405190565b93848092610b01565b038361074e565b6100fc90610b0b565b6100fc6003610b2c565b61013390610b5361051361050e60006104a9565b610b8b90610b80610b646000610534565b610b70610615826100f0565b61064161063b61063560026104a9565b6106528160026105dd565b7ff01a3de481149951b491b02ccf6fc8cd0843b6175ceb5ef1b07be4291c97d6e361068160405190565b61013390610b3f565b6020808252601190820152702737903b30bab63a103337b9103ab9b2b960791b604082015260600190565b15610bf057565b60405162461bcd60e51b8152806104f660048201610bbe565b602080825260139082015272546f6f20736f6f6e20746f206578656375746560681b604082015260600190565b15610c3d57565b60405162461bcd60e51b8152806104f660048201610c09565b61011f90610259565b6020810192916101339190610c56565b610c7960016104a9565b610c866108b76000610534565b610cad610c9d610635610652610923866004610262565b610ca683610259565b1415610be9565b610cb961065282610259565b6020610cc460405190565b6378b9033760e01b815291829060049082905afa8015610a0257610cf091600091610d9c575b50610c36565b610d0061065261065260016104a9565b906020610d0c60405190565b928390633be37e7960e01b825281600081610d2a8760048301610c5f565b03925af1908115610a0257610d4e92610d4892610d7f575b50610259565b91610259565b907f44674e6e0ca70ec2495040e65b5dfc69b59f96a8329dff312642c7f68341e78b610d7960405190565b600090a3565b610d979060203d6020116109fb576109ed818361074e565b610d42565b610db5915060203d6020116109fb576109ed818361074e565b38610cea565b6020808252601490820152735661756c7420616c72656164792065786973747360601b604082015260600190565b15610df057565b60405162461bcd60e51b8152806104f660048201610dbb565b60208082526012908201527142757920616d6f756e74206973207a65726f60701b604082015260600190565b15610e3c57565b60405162461bcd60e51b8152806104f660048201610e09565b6020808252601190820152704672657175656e6379206973207a65726f60781b604082015260600190565b15610e8757565b60405162461bcd60e51b8152806104f660048201610e55565b9081526040810192916101339160200152565b916001600160a01b0360089290920291821b911b6105d3565b9190610edd6100fc6105f493610259565b908354610eb3565b90815491680100000000000000008310156107705782610f0d9160016101339501815561030d565b90610ecc565b90600490610f246109233384610262565b91610f40600093610f3a61063b61050e87610534565b14610de9565b610f53610f4c846106e7565b8511610e35565b610f66610f5f846106e7565b8311610e80565b604051611397810181811067ffffffffffffffff82111761077057610f95829161139761106d84393390610123565b039084f08015610a0257610fa890610259565b93843b156100d757610fd6928491610fbf60405190565b9485928392637251808b60e11b8452868401610ea0565b038183885af1908115610a0257611000938593610ffb9361104f575b50503390610262565b6105dd565b61100b816003610ee5565b61101433610259565b61101d82610259565b907f5d9c31ffa0fecffd7cf379989a3c7af252f0335e0d2a1320b55245912c781f5361104860405190565b600090a390565b8161106592903d10610a9757610a8f818361074e565b3880610ff256fe60806040523461002a576100196100146100c2565b6101a8565b60405161111c61027b823961111c90f35b600080fd5b634e487b7160e01b600052604160045260246000fd5b90601f01601f191681019081106001600160401b0382111761006657604052565b61002f565b9061007f61007860405190565b9283610045565b565b6001600160a01b031690565b90565b6001600160a01b0381160361002a57565b9050519061007f82610090565b9060208282031261002a5761008d916100a1565b61008d611397803803806100d58161006b565b9283398101906100ae565b61008161008d61008d9290565b61008d906100e0565b156100fd57565b60405162461bcd60e51b815260206004820152600d60248201526c24b73b30b634b21037bbb732b960991b6044820152606490fd5b906001600160a01b03905b9181191691161790565b61008d90610081906001600160a01b031682565b61008d90610147565b61008d9061015b565b9061017d61008d61018492610164565b8254610132565b9055565b9060ff9061013d565b906101a161008d61018492151590565b8254610188565b6101dc906101b461022b565b6101d56101c461008160006100ed565b6001600160a01b03831614156100f6565b600061016d565b6101e733600161016d565b61007f60016007610191565b61008d61008d61008d9290565b61008d60016101f3565b906000199061013d565b9061022461008d610184926101f3565b825461020a565b61007f610236610200565b600061024361008d610272565b01610214565b61008d7f9b779b17422d0df92223018b32b4d1fa46e071723d6817e2486d003becc55f006101f3565b61008d61024956fe6080604052600436101561001b575b361561001957600080fd5b005b60003560e01c8063015af8ee1461012b57806302fb0c5e14610126578063046f7da2146101215780631fa705311461011c5780634e69d560146101175780635216aeec1461011257806378b903371461010d5780638456cb59146101085780638da5cb5b14610103578063950da287146100fe578063a17ecef3146100f9578063aeb5cd5e146100f4578063b7fc3e51146100ef578063c45a0155146100ea578063e4a30116146100e5578063ead50da3146100e05763f3fef3a30361000e576104ca565b61047d565b610458565b61043d565b610416565b6103f2565b6103c3565b61039c565b610375565b610319565b6102fe565b6102e3565b6102a0565b610232565b6101f8565b6101cb565b610173565b805b0361013957565b600080fd5b9050359061014b82610130565b565b919060408382031261013957610170906020610169828661013e565b940161013e565b90565b346101395761018c61018636600461014d565b90610654565b60405180805b0390f35b600091031261013957565b610170916008021c5b60ff1690565b9061017091546101a1565b610170600060076101b0565b9052565b34610139576101db366004610196565b6101926101e66101bb565b60405191829182901515815260200190565b3461013957610208366004610196565b61018c61073b565b610170916008021c81565b906101709154610210565b6101706000600261021b565b3461013957610242366004610196565b61019261024d610226565b6040515b9182918290815260200190565b908152610100810198979690959094909390929091602087015260408601526060850152608084015260a0830152151560c082015260e00161014b9115159052565b34610139576102b0366004610196565b6101926102bb61077c565b946102ce98969894919493929360405190565b9889988961025e565b6101706000600561021b565b34610139576102f3366004610196565b61019261024d6102d7565b346101395761030e366004610196565b6101926101e6610812565b3461013957610329366004610196565b61018c6108d8565b610170916008021c5b6001600160a01b031690565b906101709154610331565b610170600080610346565b6101c79061033a565b60208101929161014b919061035c565b3461013957610385366004610196565b610192610390610351565b60405191829182610365565b34610139576103ac366004610196565b6101926101e6610aae565b6101706000600661021b565b34610139576103d3366004610196565b61019261024d6103b7565b90602082820312610139576101709161013e565b346101395761018c6104053660046103de565b610d38565b6101706000600461021b565b3461013957610426366004610196565b61019261024d61040a565b61017060006001610346565b346101395761044d366004610196565b610192610390610431565b346101395761018c61046b36600461014d565b90610dea565b6101706000600361021b565b346101395761048d366004610196565b61019261024d610471565b6101328161033a565b9050359061014b82610498565b91906040838203126101395761017090602061016982866104a1565b346101395761018c6104dd3660046104ae565b90610f74565b6101709061033a565b61017090546104e3565b156104fd57565b60405162461bcd60e51b815260206004820152600a60248201526927b7363c9037bbb732b960b11b6044820152606490fd5b9061014b9161055861054961054460006104ec565b61033a565b6105523361033a565b146104f6565b610616565b6101706101706101709290565b1561057157565b60405162461bcd60e51b8152602060048201526012602482015271125b9d985b1a5908189d5e48185b5bdd5b9d60721b6044820152606490fd5b156105b257565b60405162461bcd60e51b8152602060048201526011602482015270496e76616c6964206672657175656e637960781b6044820152606490fd5b90600019905b9181191691161790565b9061060b6101706106129261055d565b82546105eb565b9055565b9061064d61014b9261063261062b600061055d565b821161056a565b61064661063f600061055d565b84116105ab565b60026105fb565b60036105fb565b9061014b9161052f565b61066e61054961054460006104ec565b61014b6106e6565b610170906101aa565b6101709054610676565b1561069057565b60405162461bcd60e51b815260206004820152600e60248201526d416c72656164792061637469766560901b6044820152606490fd5b9060ff906105f1565b906106df61017061061292151590565b82546106c6565b6106ff6106fa6106f6600761067f565b1590565b610689565b61070b600160076106cf565b7f24bbfa46317916d25bbe66f8089a3529e508cac063113c9162ea96f3bc4642ce61073560405190565b600090a1565b61014b61065e565b6101709081565b6101709054610743565b634e487b7160e01b600052601160045260246000fd5b9190820180921161077757565b610754565b610786600261074a565b90610791600361074a565b9161079c600461074a565b916107ba6107aa600461074a565b6107b4600361074a565b9061076a565b916107c5600561074a565b916107d0600661074a565b916107db600761067f565b916107e6600761067f565b91826107f7575b9796959493929190565b91506108096101706107aa600461074a565b421015916107ed565b61081c600761067f565b806108245790565b506108356101706107aa600461074a565b42101590565b61084b61054961054460006104ec565b61014b610890565b1561085a57565b60405162461bcd60e51b815260206004820152600e60248201526d105b1c9958591e481c185d5cd95960921b6044820152606490fd5b6108a261089d600761067f565b610853565b6108ae600060076106cf565b7fda9f8b34d443b240f8cc4c9cc013a7723b45924b823bd142ae3b3d79c371eb7c61073560405190565b61014b61083b565b156108e757565b60405162461bcd60e51b815260206004820152600c60248201526b4f6e6c7920666163746f727960a01b6044820152606490fd5b6101709061093e61092f61054460016104ec565b6109383361033a565b146108e0565b61094f9061094a610f88565b6109ef565b9061014b610fb8565b1561095f57565b60405162461bcd60e51b815260206004820152600f60248201526e15985d5b1d081a5cc81c185d5cd959608a1b6044820152606490fd5b1561099d57565b60405162461bcd60e51b81526020600482015260086024820152672a37b79039b7b7b760c11b6044820152606490fd5b60001981146107775760010190565b90815260408101929161014b9160200152565b50610a026109fd600761067f565b610958565b610a1d610a156101706107aa600461074a565b421015610996565b610a39610a32610a2d600661074a565b6109cd565b60066105fb565b610a444260046105fb565b610a6a610a63610a54600261074a565b610a5e600561074a565b61076a565b60056105fb565b7f2d34647a20ca77c2e73db80e924f221793f95460c4a41be3e7a73fa3db2268b7610aa6610a98600261074a565b6040519182914290836109dc565b0390a1600190565b610170600061091b565b61014b90610acc61054961054460006104ec565b610add90610ad8610f88565b610c94565b61014b610fb8565b15610aec57565b60405162461bcd60e51b815260206004820152601760248201527f416d6f756e74206d75737420626520706f7369746976650000000000000000006044820152606490fd5b6101709061033a906001600160a01b031682565b61017090610b31565b61017090610b45565b15610b5e57565b60405162461bcd60e51b8152602060048201526011602482015270092dce6eaccccd2c6d2cadce84082ac82b607b1b6044820152606490fd5b634e487b7160e01b600052604160045260246000fd5b90601f01601f1916810190811067ffffffffffffffff821117610bcf57604052565b610b97565b9061014b610be160405190565b9283610bad565b67ffffffffffffffff8111610bcf57602090601f01601f19160190565b90610c17610c1283610be8565b610bd4565b918252565b3d15610c3657610c2b3d610c05565b903d6000602084013e565b606090565b15610c4257565b60405162461bcd60e51b815260206004820152601460248201527310559056081d1c985b9cd9995c8819985a5b195960621b6044820152606490fd5b61033a6101706101709290565b61017090610c7e565b7f7084f5476618d8e60b11ef0d7d3f06914655adb8793e28ff7f018d4c76d505d5610d33610d29610d076000610cd4610ccc8261055d565b875b11610ae5565b610cf3610ce030610b4e565b879031610cec565b9190565b1015610b57565b610d248180610d0c610d07610d07836104ec565b610b4e565b6040516000918b905af1610d1e610c1c565b50610c3b565b610c8b565b9261025160405190565b0390a2565b61014b90610ab8565b9061014b91610d5661092f61054460016104ec565b610d9d565b15610d6257565b60405162461bcd60e51b8152602060048201526013602482015272105b1c9958591e481a5b9a5d1a585b1a5e9959606a1b6044820152606490fd5b9061064d610ddf92610db261062b600061055d565b610dbf61063f600061055d565b610646610dcc600261074a565b610dd9610ce8600061055d565b14610d5b565b61014b4260046105fb565b9061014b91610d41565b9061014b91610e0961054961054460006104ec565b90610add91610e16610f88565b610e8b565b9050519061014b82610130565b906020828203126101395761017091610e1b565b6040513d6000823e3d90fd5b15610e4f57565b60405162461bcd60e51b8152602060048201526014602482015273496e73756666696369656e742062616c616e636560601b6044820152606490fd5b610ee390610ea2610e9c600061055d565b84610cce565b610eab81610b4e565b6020610eb682610b4e565b610ebf30610b4e565b90610ec960405190565b958692839182916370a0823160e01b835260048301610365565b03915afa918215610f6f57610d0785610d2993610f30610d33967f7084f5476618d8e60b11ef0d7d3f06914655adb8793e28ff7f018d4c76d505d598600091610f40575b50831115610e48565b610f3a60006104ec565b90610fc3565b610f62915060203d602011610f68575b610f5a8183610bad565b810190610e28565b38610f27565b503d610f50565b610e3c565b9061014b91610df4565b610170600261055d565b610f90611001565b61014b610f9b610f7e565b6000610fa861017061104a565b016105fb565b610170600161055d565b61014b610f9b610fae565b9160016106f691610fd49385611052565b610fdb5750565b610ffc610fe9600092610b4e565b635274afe760e01b835260048301610365565b036000fd5b6110096110be565b61100f57565b633ee5aeb560e01b6000908152600490fd5b6101707f9b779b17422d0df92223018b32b4d1fa46e071723d6817e2486d003becc55f0061055d565b610170611021565b60405163a9059cbb60e01b60009081526001600160a01b039093166004526024939093529293929060209060448180855af19360016000511485161561109a575b5050604052565b84929415166110b4576000903b113d151616913880611093565b833d6000823e3d90fd5b6110d460006110ce61017061104a565b0161074a565b6110e2610ce8610170610f7e565b149056fea26469706673582212203685d79e640dfd60281029e36ca8bbf6c8fa30643275bde6f46878c75ebcfd0864736f6c634300081c0033a2646970667358221220b365d758b17fe239999b4878a5c09b0538c9a6b637cb13fa2ffc39d3a254118764736f6c634300081c0033",
          "opcodes": "PUSH1 0x80 PUSH1 0x40 MSTORE CALLVALUE PUSH1 0x1F JUMPI PUSH1 0xE PUSH1 0x7F JUMP JUMPDEST PUSH1 0x40 MLOAD PUSH2 0x2439 PUSH2 0x8B DUP3 CODECOPY PUSH2 0x2439 SWAP1 RETURN JUMPDEST PUSH1 0x0 DUP1 REVERT JUMPDEST PUSH1 0x36 SWAP1 PUSH1 0x39 SWAP1 PUSH1 0x1 PUSH1 0x1 PUSH1 0xA0 SHL SUB AND DUP3 JUMP JUMPDEST SWAP1 JUMP JUMPDEST PUSH1 0x1 PUSH1 0x1 PUSH1 0xA0 SHL SUB AND SWAP1 JUMP JUMPDEST PUSH1 0x36 SWAP1 PUSH1 0x24 JUMP JUMPDEST PUSH1 0x36 SWAP1 PUSH1 0x45 JUMP JUMPDEST SWAP1 PUSH1 0x5F PUSH1 0x36 PUSH1 0x7B SWAP3 PUSH1 0x4C JUMP JUMPDEST DUP3 SLOAD PUSH1 0x1 PUSH1 0x1 PUSH1 0xA0 SHL SUB NOT AND PUSH1 0x1 PUSH1 0x1 PUSH1 0xA0 SHL SUB SWAP2 SWAP1 SWAP2 AND OR SWAP1 JUMP JUMPDEST SWAP1 SSTORE JUMP JUMPDEST PUSH1 0x88 CALLER PUSH1 0x0 PUSH1 0x53 JUMP JUMPDEST JUMP INVALID PUSH1 0x80 PUSH1 0x40 MSTORE PUSH1 0x4 CALLDATASIZE LT ISZERO PUSH2 0x12 JUMPI PUSH1 0x0 DUP1 REVERT JUMPDEST PUSH1 0x0 CALLDATALOAD PUSH1 0xE0 SHR DUP1 PUSH4 0x23A92172 EQ PUSH2 0xD2 JUMPI DUP1 PUSH4 0x48861E1C EQ PUSH2 0xCD JUMPI DUP1 PUSH4 0x5064E065 EQ PUSH2 0xC8 JUMPI DUP1 PUSH4 0x6F8206BA EQ PUSH2 0xC3 JUMPI DUP1 PUSH4 0x8303EFEF EQ PUSH2 0xBE JUMPI DUP1 PUSH4 0x8DA5CB5B EQ PUSH2 0xB9 JUMPI DUP1 PUSH4 0x9094A91E EQ PUSH2 0xB4 JUMPI DUP1 PUSH4 0x97331BF9 EQ PUSH2 0xAF JUMPI DUP1 PUSH4 0xAB2CBA85 EQ PUSH2 0xAA JUMPI DUP1 PUSH4 0xD306254D EQ PUSH2 0xA5 JUMPI DUP1 PUSH4 0xD42A0A32 EQ PUSH2 0xA0 JUMPI PUSH4 0xE5FBAB85 SUB PUSH2 0xD7 JUMPI PUSH2 0x484 JUMP JUMPDEST PUSH2 0x449 JUMP JUMPDEST PUSH2 0x42E JUMP JUMPDEST PUSH2 0x40A JUMP JUMPDEST PUSH2 0x3E3 JUMP JUMPDEST PUSH2 0x353 JUMP JUMPDEST PUSH2 0x2B5 JUMP JUMPDEST PUSH2 0x28F JUMP JUMPDEST PUSH2 0x221 JUMP JUMPDEST PUSH2 0x208 JUMP JUMPDEST PUSH2 0x191 JUMP JUMPDEST PUSH2 0x135 JUMP JUMPDEST PUSH1 0x0 DUP1 REVERT JUMPDEST PUSH1 0x0 SWAP2 SUB SLT PUSH2 0xD7 JUMPI JUMP JUMPDEST PUSH2 0xFC SWAP2 PUSH1 0x8 MUL SHR JUMPDEST PUSH1 0x1 PUSH1 0x1 PUSH1 0xA0 SHL SUB AND SWAP1 JUMP JUMPDEST SWAP1 JUMP JUMPDEST SWAP1 PUSH2 0xFC SWAP2 SLOAD PUSH2 0xE7 JUMP JUMPDEST PUSH2 0xFC PUSH1 0x0 PUSH1 0x1 PUSH2 0xFF JUMP JUMPDEST PUSH2 0x11F SWAP1 PUSH2 0xF0 JUMP JUMPDEST SWAP1 MSTORE JUMP JUMPDEST PUSH1 0x20 DUP2 ADD SWAP3 SWAP2 PUSH2 0x133 SWAP2 SWAP1 PUSH2 0x116 JUMP JUMPDEST JUMP JUMPDEST CALLVALUE PUSH2 0xD7 JUMPI PUSH2 0x145 CALLDATASIZE PUSH1 0x4 PUSH2 0xDC JUMP JUMPDEST PUSH2 0x15C PUSH2 0x150 PUSH2 0x10A JUMP JUMPDEST PUSH1 0x40 MLOAD SWAP2 DUP3 SWAP2 DUP3 PUSH2 0x123 JUMP JUMPDEST SUB SWAP1 RETURN JUMPDEST PUSH2 0x169 DUP2 PUSH2 0xF0 JUMP JUMPDEST SUB PUSH2 0xD7 JUMPI JUMP JUMPDEST SWAP1 POP CALLDATALOAD SWAP1 PUSH2 0x133 DUP3 PUSH2 0x160 JUMP JUMPDEST SWAP1 PUSH1 0x20 DUP3 DUP3 SUB SLT PUSH2 0xD7 JUMPI PUSH2 0xFC SWAP2 PUSH2 0x170 JUMP JUMPDEST CALLVALUE PUSH2 0xD7 JUMPI PUSH2 0x1A9 PUSH2 0x1A4 CALLDATASIZE PUSH1 0x4 PUSH2 0x17D JUMP JUMPDEST PUSH2 0x687 JUMP JUMPDEST PUSH1 0x40 MLOAD STOP JUMPDEST SWAP1 SWAP2 DUP3 PUSH1 0x1F DUP4 ADD SLT ISZERO PUSH2 0xD7 JUMPI DUP2 CALLDATALOAD SWAP2 PUSH8 0xFFFFFFFFFFFFFFFF DUP4 GT PUSH2 0xD7 JUMPI PUSH1 0x20 ADD SWAP3 PUSH1 0x20 DUP4 MUL DUP5 ADD GT PUSH2 0xD7 JUMPI JUMP JUMPDEST SWAP1 PUSH1 0x20 DUP3 DUP3 SUB SLT PUSH2 0xD7 JUMPI DUP2 CALLDATALOAD PUSH8 0xFFFFFFFFFFFFFFFF DUP2 GT PUSH2 0xD7 JUMPI PUSH2 0x204 SWAP3 ADD PUSH2 0x1AE JUMP JUMPDEST SWAP1 SWAP2 JUMP JUMPDEST CALLVALUE PUSH2 0xD7 JUMPI PUSH2 0x1A9 PUSH2 0x21B CALLDATASIZE PUSH1 0x4 PUSH2 0x1DE JUMP JUMPDEST SWAP1 PUSH2 0x89C JUMP JUMPDEST CALLVALUE PUSH2 0xD7 JUMPI PUSH2 0x231 CALLDATASIZE PUSH1 0x4 PUSH2 0xDC JUMP JUMPDEST PUSH2 0x15C PUSH2 0x150 PUSH2 0xA9E JUMP JUMPDEST PUSH2 0xFC SWAP1 PUSH2 0xF0 SWAP1 PUSH1 0x1 PUSH1 0x1 PUSH1 0xA0 SHL SUB AND DUP3 JUMP JUMPDEST PUSH2 0xFC SWAP1 PUSH2 0x23C JUMP JUMPDEST PUSH2 0xFC SWAP1 PUSH2 0x250 JUMP JUMPDEST SWAP1 PUSH2 0x26C SWAP1 PUSH2 0x259 JUMP JUMPDEST PUSH1 0x0 MSTORE PUSH1 0x20 MSTORE PUSH1 0x40 PUSH1 0x0 KECCAK256 SWAP1 JUMP JUMPDEST PUSH1 0x0 PUSH2 0x28A PUSH2 0xFC SWAP3 PUSH1 0x4 PUSH2 0x262 JUMP JUMPDEST PUSH2 0xFF JUMP JUMPDEST CALLVALUE PUSH2 0xD7 JUMPI PUSH2 0x15C PUSH2 0x150 PUSH2 0x2A5 CALLDATASIZE PUSH1 0x4 PUSH2 0x17D JUMP JUMPDEST PUSH2 0x27A JUMP JUMPDEST PUSH2 0xFC PUSH1 0x0 DUP1 PUSH2 0xFF JUMP JUMPDEST CALLVALUE PUSH2 0xD7 JUMPI PUSH2 0x2C5 CALLDATASIZE PUSH1 0x4 PUSH2 0xDC JUMP JUMPDEST PUSH2 0x15C PUSH2 0x150 PUSH2 0x2AA JUMP JUMPDEST DUP1 PUSH2 0x169 JUMP JUMPDEST SWAP1 POP CALLDATALOAD SWAP1 PUSH2 0x133 DUP3 PUSH2 0x2D0 JUMP JUMPDEST SWAP1 PUSH1 0x20 DUP3 DUP3 SUB SLT PUSH2 0xD7 JUMPI PUSH2 0xFC SWAP2 PUSH2 0x2D6 JUMP JUMPDEST PUSH4 0x4E487B71 PUSH1 0xE0 SHL PUSH1 0x0 MSTORE PUSH1 0x32 PUSH1 0x4 MSTORE PUSH1 0x24 PUSH1 0x0 REVERT JUMPDEST DUP1 SLOAD DUP3 LT ISZERO PUSH2 0x330 JUMPI PUSH2 0x327 PUSH1 0x1 SWAP2 PUSH1 0x0 MSTORE PUSH1 0x20 PUSH1 0x0 KECCAK256 SWAP1 JUMP JUMPDEST SWAP2 MUL ADD SWAP1 PUSH1 0x0 SWAP1 JUMP JUMPDEST PUSH2 0x2F7 JUMP JUMPDEST PUSH1 0x3 SLOAD DUP2 LT ISZERO PUSH2 0xD7 JUMPI PUSH2 0x34D PUSH2 0xFC SWAP2 PUSH1 0x3 PUSH2 0x30D JUMP JUMPDEST SWAP1 PUSH2 0xFF JUMP JUMPDEST CALLVALUE PUSH2 0xD7 JUMPI PUSH2 0x15C PUSH2 0x150 PUSH2 0x369 CALLDATASIZE PUSH1 0x4 PUSH2 0x2E3 JUMP JUMPDEST PUSH2 0x335 JUMP JUMPDEST SWAP1 PUSH2 0x37B DUP2 PUSH1 0x20 SWAP4 PUSH2 0x116 JUMP JUMPDEST ADD SWAP1 JUMP JUMPDEST SWAP1 PUSH2 0x39F PUSH2 0x398 PUSH2 0x38E DUP5 MLOAD SWAP1 JUMP JUMPDEST DUP1 DUP5 MSTORE SWAP3 PUSH1 0x20 ADD SWAP1 JUMP JUMPDEST SWAP3 PUSH1 0x20 ADD SWAP1 JUMP JUMPDEST SWAP1 PUSH1 0x0 JUMPDEST DUP2 DUP2 LT PUSH2 0x3B0 JUMPI POP POP POP SWAP1 JUMP JUMPDEST SWAP1 SWAP2 SWAP3 PUSH2 0x3CA PUSH2 0x3C3 PUSH1 0x1 SWAP3 DUP7 MLOAD PUSH2 0x36E JUMP JUMPDEST SWAP5 PUSH1 0x20 ADD SWAP1 JUMP JUMPDEST SWAP3 SWAP2 ADD PUSH2 0x3A3 JUMP JUMPDEST PUSH1 0x20 DUP1 DUP3 MSTORE PUSH2 0xFC SWAP3 SWAP2 ADD SWAP1 PUSH2 0x37F JUMP JUMPDEST CALLVALUE PUSH2 0xD7 JUMPI PUSH2 0x3F3 CALLDATASIZE PUSH1 0x4 PUSH2 0xDC JUMP JUMPDEST PUSH2 0x15C PUSH2 0x3FE PUSH2 0xB35 JUMP JUMPDEST PUSH1 0x40 MLOAD SWAP2 DUP3 SWAP2 DUP3 PUSH2 0x3D2 JUMP JUMPDEST CALLVALUE PUSH2 0xD7 JUMPI PUSH2 0x1A9 PUSH2 0x41D CALLDATASIZE PUSH1 0x4 PUSH2 0x17D JUMP JUMPDEST PUSH2 0xBB5 JUMP JUMPDEST PUSH2 0xFC PUSH1 0x0 PUSH1 0x2 PUSH2 0xFF JUMP JUMPDEST CALLVALUE PUSH2 0xD7 JUMPI PUSH2 0x43E CALLDATASIZE PUSH1 0x4 PUSH2 0xDC JUMP JUMPDEST PUSH2 0x15C PUSH2 0x150 PUSH2 0x422 JUMP JUMPDEST CALLVALUE PUSH2 0xD7 JUMPI PUSH2 0x1A9 PUSH2 0x45C CALLDATASIZE PUSH1 0x4 PUSH2 0x17D JUMP JUMPDEST PUSH2 0xC6F JUMP JUMPDEST SWAP2 SWAP1 PUSH1 0x40 DUP4 DUP3 SUB SLT PUSH2 0xD7 JUMPI PUSH2 0xFC SWAP1 PUSH1 0x20 PUSH2 0x47D DUP3 DUP7 PUSH2 0x2D6 JUMP JUMPDEST SWAP5 ADD PUSH2 0x2D6 JUMP JUMPDEST CALLVALUE PUSH2 0xD7 JUMPI PUSH2 0x15C PUSH2 0x150 PUSH2 0x49A CALLDATASIZE PUSH1 0x4 PUSH2 0x461 JUMP JUMPDEST SWAP1 PUSH2 0xF13 JUMP JUMPDEST PUSH2 0xFC SWAP1 PUSH2 0xF0 JUMP JUMPDEST PUSH2 0xFC SWAP1 SLOAD PUSH2 0x4A0 JUMP JUMPDEST PUSH1 0x20 DUP1 DUP3 MSTORE PUSH1 0x9 SWAP1 DUP3 ADD MSTORE PUSH9 0x2737BA1037BBB732B9 PUSH1 0xB9 SHL PUSH1 0x40 DUP3 ADD MSTORE PUSH1 0x60 ADD SWAP1 JUMP JUMPDEST ISZERO PUSH2 0x4DD JUMPI JUMP JUMPDEST PUSH1 0x40 MLOAD PUSH3 0x461BCD PUSH1 0xE5 SHL DUP2 MSTORE DUP1 PUSH2 0x4F6 PUSH1 0x4 DUP3 ADD PUSH2 0x4B3 JUMP JUMPDEST SUB SWAP1 REVERT JUMPDEST PUSH2 0x133 SWAP1 PUSH2 0x522 PUSH2 0x513 PUSH2 0x50E PUSH1 0x0 PUSH2 0x4A9 JUMP JUMPDEST PUSH2 0xF0 JUMP JUMPDEST PUSH2 0x51C CALLER PUSH2 0xF0 JUMP JUMPDEST EQ PUSH2 0x4D6 JUMP JUMPDEST PUSH2 0x5F8 JUMP JUMPDEST PUSH2 0xF0 PUSH2 0xFC PUSH2 0xFC SWAP3 SWAP1 JUMP JUMPDEST PUSH2 0xFC SWAP1 PUSH2 0x527 JUMP JUMPDEST PUSH1 0x20 DUP1 DUP3 MSTORE PUSH1 0xC SWAP1 DUP3 ADD MSTORE PUSH12 0x5A65726F2061646472657373 PUSH1 0xA0 SHL PUSH1 0x40 DUP3 ADD MSTORE PUSH1 0x60 ADD SWAP1 JUMP JUMPDEST ISZERO PUSH2 0x56A JUMPI JUMP JUMPDEST PUSH1 0x40 MLOAD PUSH3 0x461BCD PUSH1 0xE5 SHL DUP2 MSTORE DUP1 PUSH2 0x4F6 PUSH1 0x4 DUP3 ADD PUSH2 0x53D JUMP JUMPDEST PUSH1 0x20 DUP1 DUP3 MSTORE PUSH1 0xB SWAP1 DUP3 ADD MSTORE PUSH11 0x105B1C9958591E481CD95D PUSH1 0xAA SHL PUSH1 0x40 DUP3 ADD MSTORE PUSH1 0x60 ADD SWAP1 JUMP JUMPDEST ISZERO PUSH2 0x5AF JUMPI JUMP JUMPDEST PUSH1 0x40 MLOAD PUSH3 0x461BCD PUSH1 0xE5 SHL DUP2 MSTORE DUP1 PUSH2 0x4F6 PUSH1 0x4 DUP3 ADD PUSH2 0x583 JUMP JUMPDEST SWAP1 PUSH1 0x1 PUSH1 0x1 PUSH1 0xA0 SHL SUB SWAP1 JUMPDEST SWAP2 DUP2 NOT AND SWAP2 AND OR SWAP1 JUMP JUMPDEST SWAP1 PUSH2 0x5ED PUSH2 0xFC PUSH2 0x5F4 SWAP3 PUSH2 0x259 JUMP JUMPDEST DUP3 SLOAD PUSH2 0x5C8 JUMP JUMPDEST SWAP1 SSTORE JUMP JUMPDEST PUSH2 0x657 SWAP1 PUSH2 0x647 PUSH2 0x609 PUSH1 0x0 PUSH2 0x534 JUMP JUMPDEST PUSH2 0x625 PUSH2 0x615 DUP3 PUSH2 0xF0 JUMP JUMPDEST PUSH2 0x61E DUP6 PUSH2 0xF0 JUMP JUMPDEST EQ ISZERO PUSH2 0x563 JUMP JUMPDEST PUSH2 0x641 PUSH2 0x63B PUSH2 0x635 PUSH1 0x1 PUSH2 0x4A9 JUMP JUMPDEST SWAP3 PUSH2 0xF0 JUMP JUMPDEST SWAP2 PUSH2 0xF0 JUMP JUMPDEST EQ PUSH2 0x5A8 JUMP JUMPDEST PUSH2 0x652 DUP2 PUSH1 0x1 PUSH2 0x5DD JUMP JUMPDEST PUSH2 0x259 JUMP JUMPDEST PUSH32 0xC171D6ACEF8D865308B516E5735C034F7F64631BA31EAAB195C11CF1A2D576EE PUSH2 0x681 PUSH1 0x40 MLOAD SWAP1 JUMP JUMPDEST PUSH1 0x0 SWAP1 LOG2 JUMP JUMPDEST PUSH2 0x133 SWAP1 PUSH2 0x4FA JUMP JUMPDEST PUSH1 0x20 DUP1 DUP3 MSTORE PUSH1 0x17 SWAP1 DUP3 ADD MSTORE PUSH32 0x457865637574696F6E456E67696E65206E6F7420736574000000000000000000 PUSH1 0x40 DUP3 ADD MSTORE PUSH1 0x60 ADD SWAP1 JUMP JUMPDEST ISZERO PUSH2 0x6CE JUMPI JUMP JUMPDEST PUSH1 0x40 MLOAD PUSH3 0x461BCD PUSH1 0xE5 SHL DUP2 MSTORE DUP1 PUSH2 0x4F6 PUSH1 0x4 DUP3 ADD PUSH2 0x690 JUMP JUMPDEST PUSH2 0xFC PUSH2 0xFC PUSH2 0xFC SWAP3 SWAP1 JUMP JUMPDEST PUSH1 0x20 DUP1 DUP3 MSTORE PUSH1 0xA SWAP1 DUP3 ADD MSTORE PUSH10 0x115B5C1D1E481B1A5CDD PUSH1 0xB2 SHL PUSH1 0x40 DUP3 ADD MSTORE PUSH1 0x60 ADD SWAP1 JUMP JUMPDEST ISZERO PUSH2 0x71F JUMPI JUMP JUMPDEST PUSH1 0x40 MLOAD PUSH3 0x461BCD PUSH1 0xE5 SHL DUP2 MSTORE DUP1 PUSH2 0x4F6 PUSH1 0x4 DUP3 ADD PUSH2 0x6F4 JUMP JUMPDEST PUSH4 0x4E487B71 PUSH1 0xE0 SHL PUSH1 0x0 MSTORE PUSH1 0x41 PUSH1 0x4 MSTORE PUSH1 0x24 PUSH1 0x0 REVERT JUMPDEST SWAP1 PUSH1 0x1F ADD PUSH1 0x1F NOT AND DUP2 ADD SWAP1 DUP2 LT PUSH8 0xFFFFFFFFFFFFFFFF DUP3 GT OR PUSH2 0x770 JUMPI PUSH1 0x40 MSTORE JUMP JUMPDEST PUSH2 0x738 JUMP JUMPDEST SWAP1 PUSH2 0x133 PUSH2 0x782 PUSH1 0x40 MLOAD SWAP1 JUMP JUMPDEST SWAP3 DUP4 PUSH2 0x74E JUMP JUMPDEST PUSH8 0xFFFFFFFFFFFFFFFF DUP2 GT PUSH2 0x770 JUMPI PUSH1 0x20 DUP1 SWAP2 MUL ADD SWAP1 JUMP JUMPDEST SWAP1 PUSH2 0x7B3 PUSH2 0x7AE DUP4 PUSH2 0x789 JUMP JUMPDEST PUSH2 0x775 JUMP JUMPDEST SWAP2 DUP3 MSTORE JUMP JUMPDEST CALLDATASIZE SWAP1 CALLDATACOPY JUMP JUMPDEST SWAP1 PUSH2 0x133 PUSH2 0x7D3 PUSH2 0x7CD DUP5 PUSH2 0x7A1 JUMP JUMPDEST SWAP4 PUSH2 0x789 JUMP JUMPDEST PUSH1 0x1F NOT ADD PUSH1 0x20 DUP5 ADD PUSH2 0x7B8 JUMP JUMPDEST SWAP2 SWAP1 DUP2 LT ISZERO PUSH2 0x330 JUMPI PUSH1 0x20 MUL ADD SWAP1 JUMP JUMPDEST CALLDATALOAD PUSH2 0xFC DUP2 PUSH2 0x160 JUMP JUMPDEST DUP1 ISZERO ISZERO PUSH2 0x169 JUMP JUMPDEST SWAP1 POP MLOAD SWAP1 PUSH2 0x133 DUP3 PUSH2 0x7FA JUMP JUMPDEST SWAP1 PUSH1 0x20 DUP3 DUP3 SUB SLT PUSH2 0xD7 JUMPI PUSH2 0xFC SWAP2 PUSH2 0x802 JUMP JUMPDEST PUSH1 0x40 MLOAD RETURNDATASIZE PUSH1 0x0 DUP3 RETURNDATACOPY RETURNDATASIZE SWAP1 REVERT JUMPDEST SWAP1 PUSH2 0x838 DUP3 MLOAD SWAP1 JUMP JUMPDEST DUP2 LT ISZERO PUSH2 0x330 JUMPI PUSH1 0x20 DUP1 SWAP2 MUL ADD ADD SWAP1 JUMP JUMPDEST SWAP1 PUSH2 0x11F SWAP1 PUSH2 0xF0 JUMP JUMPDEST PUSH1 0x20 DUP1 DUP3 MSTORE PUSH1 0xF SWAP1 DUP3 ADD MSTORE PUSH15 0x4E6F207661756C7473207265616479 PUSH1 0x88 SHL PUSH1 0x40 DUP3 ADD MSTORE PUSH1 0x60 ADD SWAP1 JUMP JUMPDEST ISZERO PUSH2 0x883 JUMPI JUMP JUMPDEST PUSH1 0x40 MLOAD PUSH3 0x461BCD PUSH1 0xE5 SHL DUP2 MSTORE DUP1 PUSH2 0x4F6 PUSH1 0x4 DUP3 ADD PUSH2 0x853 JUMP JUMPDEST SWAP1 PUSH2 0x8A7 PUSH1 0x1 PUSH2 0x4A9 JUMP JUMPDEST SWAP3 PUSH1 0x0 SWAP4 PUSH2 0x8CB PUSH2 0x8B7 DUP7 PUSH2 0x534 JUMP JUMPDEST SWAP2 PUSH2 0x8C4 PUSH2 0x63B DUP5 PUSH2 0xF0 JUMP JUMPDEST EQ ISZERO PUSH2 0x6C7 JUMP JUMPDEST DUP3 SWAP4 PUSH2 0x8E0 PUSH2 0x8D9 DUP8 PUSH2 0x6E7 JUMP JUMPDEST DUP7 GT PUSH2 0x718 JUMP JUMPDEST PUSH2 0x8E9 DUP6 PUSH2 0x7BD JUMP JUMPDEST SWAP4 PUSH2 0x8F3 DUP8 PUSH2 0x6E7 JUMP JUMPDEST SWAP4 DUP5 JUMPDEST DUP8 JUMPDEST DUP2 LT ISZERO PUSH2 0xA07 JUMPI PUSH1 0x4 PUSH2 0x928 PUSH2 0x652 PUSH2 0x923 PUSH2 0x91D PUSH2 0x918 DUP7 DUP10 DUP12 PUSH2 0x7E0 JUMP JUMPDEST PUSH2 0x7F0 JUMP JUMPDEST DUP5 PUSH2 0x262 JUMP JUMPDEST PUSH2 0x4A9 JUMP JUMPDEST SWAP1 PUSH2 0x932 DUP8 PUSH2 0xF0 JUMP JUMPDEST PUSH2 0x93B DUP4 PUSH2 0x259 JUMP JUMPDEST EQ ISZERO SWAP1 DUP2 PUSH2 0x98E JUMPI JUMPDEST POP PUSH2 0x95A JUMPI JUMPDEST POP PUSH2 0x8F8 SWAP1 PUSH1 0x1 ADD JUMPDEST SWAP1 POP PUSH2 0x8F6 JUMP JUMPDEST PUSH2 0x986 PUSH2 0x8F8 SWAP3 SWAP8 PUSH2 0x980 PUSH2 0x971 PUSH2 0x953 SWAP5 PUSH2 0x259 JUMP JUMPDEST PUSH2 0x97B DUP4 DUP14 PUSH2 0x82F JUMP JUMPDEST PUSH2 0x849 JUMP JUMPDEST PUSH1 0x1 ADD SWAP1 JUMP JUMPDEST SWAP7 SWAP2 POP PUSH2 0x94A JUMP JUMPDEST PUSH2 0x9BB SWAP2 POP PUSH1 0x20 SWAP1 PUSH2 0x9A2 PUSH2 0x652 DUP6 PUSH2 0x259 JUMP JUMPDEST PUSH1 0x40 MLOAD SWAP4 DUP5 SWAP3 DUP4 SWAP2 DUP3 SWAP2 PUSH4 0x78B90337 PUSH1 0xE0 SHL DUP4 MSTORE DUP3 ADD SWAP1 JUMP JUMPDEST SUB SWAP2 GAS STATICCALL SWAP1 DUP2 ISZERO PUSH2 0xA02 JUMPI DUP12 SWAP2 PUSH2 0x9D4 JUMPI JUMPDEST POP CODESIZE PUSH2 0x944 JUMP JUMPDEST PUSH2 0x9F5 SWAP2 POP PUSH1 0x20 RETURNDATASIZE DUP2 GT PUSH2 0x9FB JUMPI JUMPDEST PUSH2 0x9ED DUP2 DUP4 PUSH2 0x74E JUMP JUMPDEST DUP2 ADD SWAP1 PUSH2 0x80F JUMP JUMPDEST CODESIZE PUSH2 0x9CD JUMP JUMPDEST POP RETURNDATASIZE PUSH2 0x9E3 JUMP JUMPDEST PUSH2 0x823 JUMP JUMPDEST POP SWAP7 SWAP6 POP POP POP POP PUSH2 0xA21 PUSH2 0xA1A DUP5 PUSH2 0x6E7 JUMP JUMPDEST DUP3 GT PUSH2 0x87C JUMP JUMPDEST DUP2 MSTORE PUSH2 0xA33 PUSH2 0x652 PUSH2 0x652 PUSH1 0x1 PUSH2 0x4A9 JUMP JUMPDEST DUP1 EXTCODESIZE ISZERO PUSH2 0xD7 JUMPI PUSH2 0xA66 DUP4 SWAP3 SWAP2 DUP4 SWAP3 PUSH2 0xA4B PUSH1 0x40 MLOAD SWAP1 JUMP JUMPDEST SWAP5 DUP6 SWAP4 DUP5 SWAP3 DUP4 SWAP2 SWAP1 PUSH4 0x5BBF3783 PUSH1 0xE0 SHL DUP4 MSTORE PUSH1 0x4 DUP4 ADD PUSH2 0x3D2 JUMP JUMPDEST SUB SWAP3 GAS CALL DUP1 ISZERO PUSH2 0xA02 JUMPI PUSH2 0xA78 JUMPI POP POP JUMP JUMPDEST DUP2 PUSH2 0x133 SWAP3 SWAP1 RETURNDATASIZE LT PUSH2 0xA97 JUMPI JUMPDEST PUSH2 0xA8F DUP2 DUP4 PUSH2 0x74E JUMP JUMPDEST DUP2 ADD SWAP1 PUSH2 0xDC JUMP JUMPDEST POP RETURNDATASIZE PUSH2 0xA85 JUMP JUMPDEST PUSH2 0xFC PUSH2 0x923 CALLER PUSH1 0x4 PUSH2 0x262 JUMP JUMPDEST SWAP1 PUSH2 0xAC7 PUSH2 0xABB PUSH2 0x38E DUP5 SLOAD SWAP1 JUMP JUMPDEST SWAP3 PUSH1 0x0 MSTORE PUSH1 0x20 PUSH1 0x0 KECCAK256 SWAP1 JUMP JUMPDEST SWAP1 PUSH1 0x0 JUMPDEST DUP2 DUP2 LT PUSH2 0xAD8 JUMPI POP POP POP SWAP1 JUMP JUMPDEST SWAP1 SWAP2 SWAP3 PUSH2 0xAF9 PUSH2 0xAF2 PUSH1 0x1 SWAP3 PUSH2 0xAED DUP8 PUSH2 0x4A9 JUMP JUMPDEST PUSH2 0x36E JUMP JUMPDEST SWAP5 PUSH1 0x1 ADD SWAP1 JUMP JUMPDEST SWAP3 SWAP2 ADD PUSH2 0xACB JUMP JUMPDEST SWAP1 PUSH2 0xFC SWAP2 PUSH2 0xAAC JUMP JUMPDEST SWAP1 PUSH2 0x133 PUSH2 0xB25 SWAP3 PUSH2 0xB1C PUSH1 0x40 MLOAD SWAP1 JUMP JUMPDEST SWAP4 DUP5 DUP1 SWAP3 PUSH2 0xB01 JUMP JUMPDEST SUB DUP4 PUSH2 0x74E JUMP JUMPDEST PUSH2 0xFC SWAP1 PUSH2 0xB0B JUMP JUMPDEST PUSH2 0xFC PUSH1 0x3 PUSH2 0xB2C JUMP JUMPDEST PUSH2 0x133 SWAP1 PUSH2 0xB53 PUSH2 0x513 PUSH2 0x50E PUSH1 0x0 PUSH2 0x4A9 JUMP JUMPDEST PUSH2 0xB8B SWAP1 PUSH2 0xB80 PUSH2 0xB64 PUSH1 0x0 PUSH2 0x534 JUMP JUMPDEST PUSH2 0xB70 PUSH2 0x615 DUP3 PUSH2 0xF0 JUMP JUMPDEST PUSH2 0x641 PUSH2 0x63B PUSH2 0x635 PUSH1 0x2 PUSH2 0x4A9 JUMP JUMPDEST PUSH2 0x652 DUP2 PUSH1 0x2 PUSH2 0x5DD JUMP JUMPDEST PUSH32 0xF01A3DE481149951B491B02CCF6FC8CD0843B6175CEB5EF1B07BE4291C97D6E3 PUSH2 0x681 PUSH1 0x40 MLOAD SWAP1 JUMP JUMPDEST PUSH2 0x133 SWAP1 PUSH2 0xB3F JUMP JUMPDEST PUSH1 0x20 DUP1 DUP3 MSTORE PUSH1 0x11 SWAP1 DUP3 ADD MSTORE PUSH17 0x2737903B30BAB63A103337B9103AB9B2B9 PUSH1 0x79 SHL PUSH1 0x40 DUP3 ADD MSTORE PUSH1 0x60 ADD SWAP1 JUMP JUMPDEST ISZERO PUSH2 0xBF0 JUMPI JUMP JUMPDEST PUSH1 0x40 MLOAD PUSH3 0x461BCD PUSH1 0xE5 SHL DUP2 MSTORE DUP1 PUSH2 0x4F6 PUSH1 0x4 DUP3 ADD PUSH2 0xBBE JUMP JUMPDEST PUSH1 0x20 DUP1 DUP3 MSTORE PUSH1 0x13 SWAP1 DUP3 ADD MSTORE PUSH19 0x546F6F20736F6F6E20746F2065786563757465 PUSH1 0x68 SHL PUSH1 0x40 DUP3 ADD MSTORE PUSH1 0x60 ADD SWAP1 JUMP JUMPDEST ISZERO PUSH2 0xC3D JUMPI JUMP JUMPDEST PUSH1 0x40 MLOAD PUSH3 0x461BCD PUSH1 0xE5 SHL DUP2 MSTORE DUP1 PUSH2 0x4F6 PUSH1 0x4 DUP3 ADD PUSH2 0xC09 JUMP JUMPDEST PUSH2 0x11F SWAP1 PUSH2 0x259 JUMP JUMPDEST PUSH1 0x20 DUP2 ADD SWAP3 SWAP2 PUSH2 0x133 SWAP2 SWAP1 PUSH2 0xC56 JUMP JUMPDEST PUSH2 0xC79 PUSH1 0x1 PUSH2 0x4A9 JUMP JUMPDEST PUSH2 0xC86 PUSH2 0x8B7 PUSH1 0x0 PUSH2 0x534 JUMP JUMPDEST PUSH2 0xCAD PUSH2 0xC9D PUSH2 0x635 PUSH2 0x652 PUSH2 0x923 DUP7 PUSH1 0x4 PUSH2 0x262 JUMP JUMPDEST PUSH2 0xCA6 DUP4 PUSH2 0x259 JUMP JUMPDEST EQ ISZERO PUSH2 0xBE9 JUMP JUMPDEST PUSH2 0xCB9 PUSH2 0x652 DUP3 PUSH2 0x259 JUMP JUMPDEST PUSH1 0x20 PUSH2 0xCC4 PUSH1 0x40 MLOAD SWAP1 JUMP JUMPDEST PUSH4 0x78B90337 PUSH1 0xE0 SHL DUP2 MSTORE SWAP2 DUP3 SWAP1 PUSH1 0x4 SWAP1 DUP3 SWAP1 GAS STATICCALL DUP1 ISZERO PUSH2 0xA02 JUMPI PUSH2 0xCF0 SWAP2 PUSH1 0x0 SWAP2 PUSH2 0xD9C JUMPI JUMPDEST POP PUSH2 0xC36 JUMP JUMPDEST PUSH2 0xD00 PUSH2 0x652 PUSH2 0x652 PUSH1 0x1 PUSH2 0x4A9 JUMP JUMPDEST SWAP1 PUSH1 0x20 PUSH2 0xD0C PUSH1 0x40 MLOAD SWAP1 JUMP JUMPDEST SWAP3 DUP4 SWAP1 PUSH4 0x3BE37E79 PUSH1 0xE0 SHL DUP3 MSTORE DUP2 PUSH1 0x0 DUP2 PUSH2 0xD2A DUP8 PUSH1 0x4 DUP4 ADD PUSH2 0xC5F JUMP JUMPDEST SUB SWAP3 GAS CALL SWAP1 DUP2 ISZERO PUSH2 0xA02 JUMPI PUSH2 0xD4E SWAP3 PUSH2 0xD48 SWAP3 PUSH2 0xD7F JUMPI JUMPDEST POP PUSH2 0x259 JUMP JUMPDEST SWAP2 PUSH2 0x259 JUMP JUMPDEST SWAP1 PUSH32 0x44674E6E0CA70EC2495040E65B5DFC69B59F96A8329DFF312642C7F68341E78B PUSH2 0xD79 PUSH1 0x40 MLOAD SWAP1 JUMP JUMPDEST PUSH1 0x0 SWAP1 LOG3 JUMP JUMPDEST PUSH2 0xD97 SWAP1 PUSH1 0x20 RETURNDATASIZE PUSH1 0x20 GT PUSH2 0x9FB JUMPI PUSH2 0x9ED DUP2 DUP4 PUSH2 0x74E JUMP JUMPDEST PUSH2 0xD42 JUMP JUMPDEST PUSH2 0xDB5 SWAP2 POP PUSH1 0x20 RETURNDATASIZE PUSH1 0x20 GT PUSH2 0x9FB JUMPI PUSH2 0x9ED DUP2 DUP4 PUSH2 0x74E JUMP JUMPDEST CODESIZE PUSH2 0xCEA JUMP JUMPDEST PUSH1 0x20 DUP1 DUP3 MSTORE PUSH1 0x14 SWAP1 DUP3 ADD MSTORE PUSH20 0x5661756C7420616C726561647920657869737473 PUSH1 0x60 SHL PUSH1 0x40 DUP3 ADD MSTORE PUSH1 0x60 ADD SWAP1 JUMP JUMPDEST ISZERO PUSH2 0xDF0 JUMPI JUMP JUMPDEST PUSH1 0x40 MLOAD PUSH3 0x461BCD PUSH1 0xE5 SHL DUP2 MSTORE DUP1 PUSH2 0x4F6 PUSH1 0x4 DUP3 ADD PUSH2 0xDBB JUMP JUMPDEST PUSH1 0x20 DUP1 DUP3 MSTORE PUSH1 0x12 SWAP1 DUP3 ADD MSTORE PUSH18 0x42757920616D6F756E74206973207A65726F PUSH1 0x70 SHL PUSH1 0x40 DUP3 ADD MSTORE PUSH1 0x60 ADD SWAP1 JUMP JUMPDEST ISZERO PUSH2 0xE3C JUMPI JUMP JUMPDEST PUSH1 0x40 MLOAD PUSH3 0x461BCD PUSH1 0xE5 SHL DUP2 MSTORE DUP1 PUSH2 0x4F6 PUSH1 0x4 DUP3 ADD PUSH2 0xE09 JUMP JUMPDEST PUSH1 0x20 DUP1 DUP3 MSTORE PUSH1 0x11 SWAP1 DUP3 ADD MSTORE PUSH17 0x4672657175656E6379206973207A65726F PUSH1 0x78 SHL PUSH1 0x40 DUP3 ADD MSTORE PUSH1 0x60 ADD SWAP1 JUMP JUMPDEST ISZERO PUSH2 0xE87 JUMPI JUMP JUMPDEST PUSH1 0x40 MLOAD PUSH3 0x461BCD PUSH1 0xE5 SHL DUP2 MSTORE DUP1 PUSH2 0x4F6 PUSH1 0x4 DUP3 ADD PUSH2 0xE55 JUMP JUMPDEST SWAP1 DUP2 MSTORE PUSH1 0x40 DUP2 ADD SWAP3 SWAP2 PUSH2 0x133 SWAP2 PUSH1 0x20 ADD MSTORE JUMP JUMPDEST SWAP2 PUSH1 0x1 PUSH1 0x1 PUSH1 0xA0 SHL SUB PUSH1 0x8 SWAP3 SWAP1 SWAP3 MUL SWAP2 DUP3 SHL SWAP2 SHL PUSH2 0x5D3 JUMP JUMPDEST SWAP2 SWAP1 PUSH2 0xEDD PUSH2 0xFC PUSH2 0x5F4 SWAP4 PUSH2 0x259 JUMP JUMPDEST SWAP1 DUP4 SLOAD PUSH2 0xEB3 JUMP JUMPDEST SWAP1 DUP2 SLOAD SWAP2 PUSH9 0x10000000000000000 DUP4 LT ISZERO PUSH2 0x770 JUMPI DUP3 PUSH2 0xF0D SWAP2 PUSH1 0x1 PUSH2 0x133 SWAP6 ADD DUP2 SSTORE PUSH2 0x30D JUMP JUMPDEST SWAP1 PUSH2 0xECC JUMP JUMPDEST SWAP1 PUSH1 0x4 SWAP1 PUSH2 0xF24 PUSH2 0x923 CALLER DUP5 PUSH2 0x262 JUMP JUMPDEST SWAP2 PUSH2 0xF40 PUSH1 0x0 SWAP4 PUSH2 0xF3A PUSH2 0x63B PUSH2 0x50E DUP8 PUSH2 0x534 JUMP JUMPDEST EQ PUSH2 0xDE9 JUMP JUMPDEST PUSH2 0xF53 PUSH2 0xF4C DUP5 PUSH2 0x6E7 JUMP JUMPDEST DUP6 GT PUSH2 0xE35 JUMP JUMPDEST PUSH2 0xF66 PUSH2 0xF5F DUP5 PUSH2 0x6E7 JUMP JUMPDEST DUP4 GT PUSH2 0xE80 JUMP JUMPDEST PUSH1 0x40 MLOAD PUSH2 0x1397 DUP2 ADD DUP2 DUP2 LT PUSH8 0xFFFFFFFFFFFFFFFF DUP3 GT OR PUSH2 0x770 JUMPI PUSH2 0xF95 DUP3 SWAP2 PUSH2 0x1397 PUSH2 0x106D DUP5 CODECOPY CALLER SWAP1 PUSH2 0x123 JUMP JUMPDEST SUB SWAP1 DUP5 CREATE DUP1 ISZERO PUSH2 0xA02 JUMPI PUSH2 0xFA8 SWAP1 PUSH2 0x259 JUMP JUMPDEST SWAP4 DUP5 EXTCODESIZE ISZERO PUSH2 0xD7 JUMPI PUSH2 0xFD6 SWAP3 DUP5 SWAP2 PUSH2 0xFBF PUSH1 0x40 MLOAD SWAP1 JUMP JUMPDEST SWAP5 DUP6 SWAP3 DUP4 SWAP3 PUSH4 0x7251808B PUSH1 0xE1 SHL DUP5 MSTORE DUP7 DUP5 ADD PUSH2 0xEA0 JUMP JUMPDEST SUB DUP2 DUP4 DUP9 GAS CALL SWAP1 DUP2 ISZERO PUSH2 0xA02 JUMPI PUSH2 0x1000 SWAP4 DUP6 SWAP4 PUSH2 0xFFB SWAP4 PUSH2 0x104F JUMPI JUMPDEST POP POP CALLER SWAP1 PUSH2 0x262 JUMP JUMPDEST PUSH2 0x5DD JUMP JUMPDEST PUSH2 0x100B DUP2 PUSH1 0x3 PUSH2 0xEE5 JUMP JUMPDEST PUSH2 0x1014 CALLER PUSH2 0x259 JUMP JUMPDEST PUSH2 0x101D DUP3 PUSH2 0x259 JUMP JUMPDEST SWAP1 PUSH32 0x5D9C31FFA0FECFFD7CF379989A3C7AF252F0335E0D2A1320B55245912C781F53 PUSH2 0x1048 PUSH1 0x40 MLOAD SWAP1 JUMP JUMPDEST PUSH1 0x0 SWAP1 LOG3 SWAP1 JUMP JUMPDEST DUP2 PUSH2 0x1065 SWAP3 SWAP1 RETURNDATASIZE LT PUSH2 0xA97 JUMPI PUSH2 0xA8F DUP2 DUP4 PUSH2 0x74E JUMP JUMPDEST CODESIZE DUP1 PUSH2 0xFF2 JUMP INVALID PUSH1 0x80 PUSH1 0x40 MSTORE CALLVALUE PUSH2 0x2A JUMPI PUSH2 0x19 PUSH2 0x14 PUSH2 0xC2 JUMP JUMPDEST PUSH2 0x1A8 JUMP JUMPDEST PUSH1 0x40 MLOAD PUSH2 0x111C PUSH2 0x27B DUP3 CODECOPY PUSH2 0x111C SWAP1 RETURN JUMPDEST PUSH1 0x0 DUP1 REVERT JUMPDEST PUSH4 0x4E487B71 PUSH1 0xE0 SHL PUSH1 0x0 MSTORE PUSH1 0x41 PUSH1 0x4 MSTORE PUSH1 0x24 PUSH1 0x0 REVERT JUMPDEST SWAP1 PUSH1 0x1F ADD PUSH1 0x1F NOT AND DUP2 ADD SWAP1 DUP2 LT PUSH1 0x1 PUSH1 0x1 PUSH1 0x40 SHL SUB DUP3 GT OR PUSH2 0x66 JUMPI PUSH1 0x40 MSTORE JUMP JUMPDEST PUSH2 0x2F JUMP JUMPDEST SWAP1 PUSH2 0x7F PUSH2 0x78 PUSH1 0x40 MLOAD SWAP1 JUMP JUMPDEST SWAP3 DUP4 PUSH2 0x45 JUMP JUMPDEST JUMP JUMPDEST PUSH1 0x1 PUSH1 0x1 PUSH1 0xA0 SHL SUB AND SWAP1 JUMP JUMPDEST SWAP1 JUMP JUMPDEST PUSH1 0x1 PUSH1 0x1 PUSH1 0xA0 SHL SUB DUP2 AND SUB PUSH2 0x2A JUMPI JUMP JUMPDEST SWAP1 POP MLOAD SWAP1 PUSH2 0x7F DUP3 PUSH2 0x90 JUMP JUMPDEST SWAP1 PUSH1 0x20 DUP3 DUP3 SUB SLT PUSH2 0x2A JUMPI PUSH2 0x8D SWAP2 PUSH2 0xA1 JUMP JUMPDEST PUSH2 0x8D PUSH2 0x1397 DUP1 CODESIZE SUB DUP1 PUSH2 0xD5 DUP2 PUSH2 0x6B JUMP JUMPDEST SWAP3 DUP4 CODECOPY DUP2 ADD SWAP1 PUSH2 0xAE JUMP JUMPDEST PUSH2 0x81 PUSH2 0x8D PUSH2 0x8D SWAP3 SWAP1 JUMP JUMPDEST PUSH2 0x8D SWAP1 PUSH2 0xE0 JUMP JUMPDEST ISZERO PUSH2 0xFD JUMPI JUMP JUMPDEST PUSH1 0x40 MLOAD PUSH3 0x461BCD PUSH1 0xE5 SHL DUP2 MSTORE PUSH1 0x20 PUSH1 0x4 DUP3 ADD MSTORE PUSH1 0xD PUSH1 0x24 DUP3 ADD MSTORE PUSH13 0x24B73B30B634B21037BBB732B9 PUSH1 0x99 SHL PUSH1 0x44 DUP3 ADD MSTORE PUSH1 0x64 SWAP1 REVERT JUMPDEST SWAP1 PUSH1 0x1 PUSH1 0x1 PUSH1 0xA0 SHL SUB SWAP1 JUMPDEST SWAP2 DUP2 NOT AND SWAP2 AND OR SWAP1 JUMP JUMPDEST PUSH2 0x8D SWAP1 PUSH2 0x81 SWAP1 PUSH1 0x1 PUSH1 0x1 PUSH1 0xA0 SHL SUB AND DUP3 JUMP JUMPDEST PUSH2 0x8D SWAP1 PUSH2 0x147 JUMP JUMPDEST PUSH2 0x8D SWAP1 PUSH2 0x15B JUMP JUMPDEST SWAP1 PUSH2 0x17D PUSH2 0x8D PUSH2 0x184 SWAP3 PUSH2 0x164 JUMP JUMPDEST DUP3 SLOAD PUSH2 0x132 JUMP JUMPDEST SWAP1 SSTORE JUMP JUMPDEST SWAP1 PUSH1 0xFF SWAP1 PUSH2 0x13D JUMP JUMPDEST SWAP1 PUSH2 0x1A1 PUSH2 0x8D PUSH2 0x184 SWAP3 ISZERO ISZERO SWAP1 JUMP JUMPDEST DUP3 SLOAD PUSH2 0x188 JUMP JUMPDEST PUSH2 0x1DC SWAP1 PUSH2 0x1B4 PUSH2 0x22B JUMP JUMPDEST PUSH2 0x1D5 PUSH2 0x1C4 PUSH2 0x81 PUSH1 0x0 PUSH2 0xED JUMP JUMPDEST PUSH1 0x1 PUSH1 0x1 PUSH1 0xA0 SHL SUB DUP4 AND EQ ISZERO PUSH2 0xF6 JUMP JUMPDEST PUSH1 0x0 PUSH2 0x16D JUMP JUMPDEST PUSH2 0x1E7 CALLER PUSH1 0x1 PUSH2 0x16D JUMP JUMPDEST PUSH2 0x7F PUSH1 0x1 PUSH1 0x7 PUSH2 0x191 JUMP JUMPDEST PUSH2 0x8D PUSH2 0x8D PUSH2 0x8D SWAP3 SWAP1 JUMP JUMPDEST PUSH2 0x8D PUSH1 0x1 PUSH2 0x1F3 JUMP JUMPDEST SWAP1 PUSH1 0x0 NOT SWAP1 PUSH2 0x13D JUMP JUMPDEST SWAP1 PUSH2 0x224 PUSH2 0x8D PUSH2 0x184 SWAP3 PUSH2 0x1F3 JUMP JUMPDEST DUP3 SLOAD PUSH2 0x20A JUMP JUMPDEST PUSH2 0x7F PUSH2 0x236 PUSH2 0x200 JUMP JUMPDEST PUSH1 0x0 PUSH2 0x243 PUSH2 0x8D PUSH2 0x272 JUMP JUMPDEST ADD PUSH2 0x214 JUMP JUMPDEST PUSH2 0x8D PUSH32 0x9B779B17422D0DF92223018B32B4D1FA46E071723D6817E2486D003BECC55F00 PUSH2 0x1F3 JUMP JUMPDEST PUSH2 0x8D PUSH2 0x249 JUMP INVALID PUSH1 0x80 PUSH1 0x40 MSTORE PUSH1 0x4 CALLDATASIZE LT ISZERO PUSH2 0x1B JUMPI JUMPDEST CALLDATASIZE ISZERO PUSH2 0x19 JUMPI PUSH1 0x0 DUP1 REVERT JUMPDEST STOP JUMPDEST PUSH1 0x0 CALLDATALOAD PUSH1 0xE0 SHR DUP1 PUSH4 0x15AF8EE EQ PUSH2 0x12B JUMPI DUP1 PUSH4 0x2FB0C5E EQ PUSH2 0x126 JUMPI DUP1 PUSH4 0x46F7DA2 EQ PUSH2 0x121 JUMPI DUP1 PUSH4 0x1FA70531 EQ PUSH2 0x11C JUMPI DUP1 PUSH4 0x4E69D560 EQ PUSH2 0x117 JUMPI DUP1 PUSH4 0x5216AEEC EQ PUSH2 0x112 JUMPI DUP1 PUSH4 0x78B90337 EQ PUSH2 0x10D JUMPI DUP1 PUSH4 0x8456CB59 EQ PUSH2 0x108 JUMPI DUP1 PUSH4 0x8DA5CB5B EQ PUSH2 0x103 JUMPI DUP1 PUSH4 0x950DA287 EQ PUSH2 0xFE JUMPI DUP1 PUSH4 0xA17ECEF3 EQ PUSH2 0xF9 JUMPI DUP1 PUSH4 0xAEB5CD5E EQ PUSH2 0xF4 JUMPI DUP1 PUSH4 0xB7FC3E51 EQ PUSH2 0xEF JUMPI DUP1 PUSH4 0xC45A0155 EQ PUSH2 0xEA JUMPI DUP1 PUSH4 0xE4A30116 EQ PUSH2 0xE5 JUMPI DUP1 PUSH4 0xEAD50DA3 EQ PUSH2 0xE0 JUMPI PUSH4 0xF3FEF3A3 SUB PUSH2 0xE JUMPI PUSH2 0x4CA JUMP JUMPDEST PUSH2 0x47D JUMP JUMPDEST PUSH2 0x458 JUMP JUMPDEST PUSH2 0x43D JUMP JUMPDEST PUSH2 0x416 JUMP JUMPDEST PUSH2 0x3F2 JUMP JUMPDEST PUSH2 0x3C3 JUMP JUMPDEST PUSH2 0x39C JUMP JUMPDEST PUSH2 0x375 JUMP JUMPDEST PUSH2 0x319 JUMP JUMPDEST PUSH2 0x2FE JUMP JUMPDEST PUSH2 0x2E3 JUMP JUMPDEST PUSH2 0x2A0 JUMP JUMPDEST PUSH2 0x232 JUMP JUMPDEST PUSH2 0x1F8 JUMP JUMPDEST PUSH2 0x1CB JUMP JUMPDEST PUSH2 0x173 JUMP JUMPDEST DUP1 JUMPDEST SUB PUSH2 0x139 JUMPI JUMP JUMPDEST PUSH1 0x0 DUP1 REVERT JUMPDEST SWAP1 POP CALLDATALOAD SWAP1 PUSH2 0x14B DUP3 PUSH2 0x130 JUMP JUMPDEST JUMP JUMPDEST SWAP2 SWAP1 PUSH1 0x40 DUP4 DUP3 SUB SLT PUSH2 0x139 JUMPI PUSH2 0x170 SWAP1 PUSH1 0x20 PUSH2 0x169 DUP3 DUP7 PUSH2 0x13E JUMP JUMPDEST SWAP5 ADD PUSH2 0x13E JUMP JUMPDEST SWAP1 JUMP JUMPDEST CALLVALUE PUSH2 0x139 JUMPI PUSH2 0x18C PUSH2 0x186 CALLDATASIZE PUSH1 0x4 PUSH2 0x14D JUMP JUMPDEST SWAP1 PUSH2 0x654 JUMP JUMPDEST PUSH1 0x40 MLOAD DUP1 DUP1 JUMPDEST SUB SWAP1 RETURN JUMPDEST PUSH1 0x0 SWAP2 SUB SLT PUSH2 0x139 JUMPI JUMP JUMPDEST PUSH2 0x170 SWAP2 PUSH1 0x8 MUL SHR JUMPDEST PUSH1 0xFF AND SWAP1 JUMP JUMPDEST SWAP1 PUSH2 0x170 SWAP2 SLOAD PUSH2 0x1A1 JUMP JUMPDEST PUSH2 0x170 PUSH1 0x0 PUSH1 0x7 PUSH2 0x1B0 JUMP JUMPDEST SWAP1 MSTORE JUMP JUMPDEST CALLVALUE PUSH2 0x139 JUMPI PUSH2 0x1DB CALLDATASIZE PUSH1 0x4 PUSH2 0x196 JUMP JUMPDEST PUSH2 0x192 PUSH2 0x1E6 PUSH2 0x1BB JUMP JUMPDEST PUSH1 0x40 MLOAD SWAP2 DUP3 SWAP2 DUP3 SWAP1 ISZERO ISZERO DUP2 MSTORE PUSH1 0x20 ADD SWAP1 JUMP JUMPDEST CALLVALUE PUSH2 0x139 JUMPI PUSH2 0x208 CALLDATASIZE PUSH1 0x4 PUSH2 0x196 JUMP JUMPDEST PUSH2 0x18C PUSH2 0x73B JUMP JUMPDEST PUSH2 0x170 SWAP2 PUSH1 0x8 MUL SHR DUP2 JUMP JUMPDEST SWAP1 PUSH2 0x170 SWAP2 SLOAD PUSH2 0x210 JUMP JUMPDEST PUSH2 0x170 PUSH1 0x0 PUSH1 0x2 PUSH2 0x21B JUMP JUMPDEST CALLVALUE PUSH2 0x139 JUMPI PUSH2 0x242 CALLDATASIZE PUSH1 0x4 PUSH2 0x196 JUMP JUMPDEST PUSH2 0x192 PUSH2 0x24D PUSH2 0x226 JUMP JUMPDEST PUSH1 0x40 MLOAD JUMPDEST SWAP2 DUP3 SWAP2 DUP3 SWAP1 DUP2 MSTORE PUSH1 0x20 ADD SWAP1 JUMP JUMPDEST SWAP1 DUP2 MSTORE PUSH2 0x100 DUP2 ADD SWAP9 SWAP8 SWAP7 SWAP1 SWAP6 SWAP1 SWAP5 SWAP1 SWAP4 SWAP1 SWAP3 SWAP1 SWAP2 PUSH1 0x20 DUP8 ADD MSTORE PUSH1 0x40 DUP7 ADD MSTORE PUSH1 0x60 DUP6 ADD MSTORE PUSH1 0x80 DUP5 ADD MSTORE PUSH1 0xA0 DUP4 ADD MSTORE ISZERO ISZERO PUSH1 0xC0 DUP3 ADD MSTORE PUSH1 0xE0 ADD PUSH2 0x14B SWAP2 ISZERO ISZERO SWAP1 MSTORE JUMP JUMPDEST CALLVALUE PUSH2 0x139 JUMPI PUSH2 0x2B0 CALLDATASIZE PUSH1 0x4 PUSH2 0x196 JUMP JUMPDEST PUSH2 0x192 PUSH2 0x2BB PUSH2 0x77C JUMP JUMPDEST SWAP5 PUSH2 0x2CE SWAP9 SWAP7 SWAP9 SWAP5 SWAP2 SWAP5 SWAP4 SWAP3 SWAP4 PUSH1 0x40 MLOAD SWAP1 JUMP JUMPDEST SWAP9 DUP10 SWAP9 DUP10 PUSH2 0x25E JUMP JUMPDEST PUSH2 0x170 PUSH1 0x0 PUSH1 0x5 PUSH2 0x21B JUMP JUMPDEST CALLVALUE PUSH2 0x139 JUMPI PUSH2 0x2F3 CALLDATASIZE PUSH1 0x4 PUSH2 0x196 JUMP JUMPDEST PUSH2 0x192 PUSH2 0x24D PUSH2 0x2D7 JUMP JUMPDEST CALLVALUE PUSH2 0x139 JUMPI PUSH2 0x30E CALLDATASIZE PUSH1 0x4 PUSH2 0x196 JUMP JUMPDEST PUSH2 0x192 PUSH2 0x1E6 PUSH2 0x812 JUMP JUMPDEST CALLVALUE PUSH2 0x139 JUMPI PUSH2 0x329 CALLDATASIZE PUSH1 0x4 PUSH2 0x196 JUMP JUMPDEST PUSH2 0x18C PUSH2 0x8D8 JUMP JUMPDEST PUSH2 0x170 SWAP2 PUSH1 0x8 MUL SHR JUMPDEST PUSH1 0x1 PUSH1 0x1 PUSH1 0xA0 SHL SUB AND SWAP1 JUMP JUMPDEST SWAP1 PUSH2 0x170 SWAP2 SLOAD PUSH2 0x331 JUMP JUMPDEST PUSH2 0x170 PUSH1 0x0 DUP1 PUSH2 0x346 JUMP JUMPDEST PUSH2 0x1C7 SWAP1 PUSH2 0x33A JUMP JUMPDEST PUSH1 0x20 DUP2 ADD SWAP3 SWAP2 PUSH2 0x14B SWAP2 SWAP1 PUSH2 0x35C JUMP JUMPDEST CALLVALUE PUSH2 0x139 JUMPI PUSH2 0x385 CALLDATASIZE PUSH1 0x4 PUSH2 0x196 JUMP JUMPDEST PUSH2 0x192 PUSH2 0x390 PUSH2 0x351 JUMP JUMPDEST PUSH1 0x40 MLOAD SWAP2 DUP3 SWAP2 DUP3 PUSH2 0x365 JUMP JUMPDEST CALLVALUE PUSH2 0x139 JUMPI PUSH2 0x3AC CALLDATASIZE PUSH1 0x4 PUSH2 0x196 JUMP JUMPDEST PUSH2 0x192 PUSH2 0x1E6 PUSH2 0xAAE JUMP JUMPDEST PUSH2 0x170 PUSH1 0x0 PUSH1 0x6 PUSH2 0x21B JUMP JUMPDEST CALLVALUE PUSH2 0x139 JUMPI PUSH2 0x3D3 CALLDATASIZE PUSH1 0x4 PUSH2 0x196 JUMP JUMPDEST PUSH2 0x192 PUSH2 0x24D PUSH2 0x3B7 JUMP JUMPDEST SWAP1 PUSH1 0x20 DUP3 DUP3 SUB SLT PUSH2 0x139 JUMPI PUSH2 0x170 SWAP2 PUSH2 0x13E JUMP JUMPDEST CALLVALUE PUSH2 0x139 JUMPI PUSH2 0x18C PUSH2 0x405 CALLDATASIZE PUSH1 0x4 PUSH2 0x3DE JUMP JUMPDEST PUSH2 0xD38 JUMP JUMPDEST PUSH2 0x170 PUSH1 0x0 PUSH1 0x4 PUSH2 0x21B JUMP JUMPDEST CALLVALUE PUSH2 0x139 JUMPI PUSH2 0x426 CALLDATASIZE PUSH1 0x4 PUSH2 0x196 JUMP JUMPDEST PUSH2 0x192 PUSH2 0x24D PUSH2 0x40A JUMP JUMPDEST PUSH2 0x170 PUSH1 0x0 PUSH1 0x1 PUSH2 0x346 JUMP JUMPDEST CALLVALUE PUSH2 0x139 JUMPI PUSH2 0x44D CALLDATASIZE PUSH1 0x4 PUSH2 0x196 JUMP JUMPDEST PUSH2 0x192 PUSH2 0x390 PUSH2 0x431 JUMP JUMPDEST CALLVALUE PUSH2 0x139 JUMPI PUSH2 0x18C PUSH2 0x46B CALLDATASIZE PUSH1 0x4 PUSH2 0x14D JUMP JUMPDEST SWAP1 PUSH2 0xDEA JUMP JUMPDEST PUSH2 0x170 PUSH1 0x0 PUSH1 0x3 PUSH2 0x21B JUMP JUMPDEST CALLVALUE PUSH2 0x139 JUMPI PUSH2 0x48D CALLDATASIZE PUSH1 0x4 PUSH2 0x196 JUMP JUMPDEST PUSH2 0x192 PUSH2 0x24D PUSH2 0x471 JUMP JUMPDEST PUSH2 0x132 DUP2 PUSH2 0x33A JUMP JUMPDEST SWAP1 POP CALLDATALOAD SWAP1 PUSH2 0x14B DUP3 PUSH2 0x498 JUMP JUMPDEST SWAP2 SWAP1 PUSH1 0x40 DUP4 DUP3 SUB SLT PUSH2 0x139 JUMPI PUSH2 0x170 SWAP1 PUSH1 0x20 PUSH2 0x169 DUP3 DUP7 PUSH2 0x4A1 JUMP JUMPDEST CALLVALUE PUSH2 0x139 JUMPI PUSH2 0x18C PUSH2 0x4DD CALLDATASIZE PUSH1 0x4 PUSH2 0x4AE JUMP JUMPDEST SWAP1 PUSH2 0xF74 JUMP JUMPDEST PUSH2 0x170 SWAP1 PUSH2 0x33A JUMP JUMPDEST PUSH2 0x170 SWAP1 SLOAD PUSH2 0x4E3 JUMP JUMPDEST ISZERO PUSH2 0x4FD JUMPI JUMP JUMPDEST PUSH1 0x40 MLOAD PUSH3 0x461BCD PUSH1 0xE5 SHL DUP2 MSTORE PUSH1 0x20 PUSH1 0x4 DUP3 ADD MSTORE PUSH1 0xA PUSH1 0x24 DUP3 ADD MSTORE PUSH10 0x27B7363C9037BBB732B9 PUSH1 0xB1 SHL PUSH1 0x44 DUP3 ADD MSTORE PUSH1 0x64 SWAP1 REVERT JUMPDEST SWAP1 PUSH2 0x14B SWAP2 PUSH2 0x558 PUSH2 0x549 PUSH2 0x544 PUSH1 0x0 PUSH2 0x4EC JUMP JUMPDEST PUSH2 0x33A JUMP JUMPDEST PUSH2 0x552 CALLER PUSH2 0x33A JUMP JUMPDEST EQ PUSH2 0x4F6 JUMP JUMPDEST PUSH2 0x616 JUMP JUMPDEST PUSH2 0x170 PUSH2 0x170 PUSH2 0x170 SWAP3 SWAP1 JUMP JUMPDEST ISZERO PUSH2 0x571 JUMPI JUMP JUMPDEST PUSH1 0x40 MLOAD PUSH3 0x461BCD PUSH1 0xE5 SHL DUP2 MSTORE PUSH1 0x20 PUSH1 0x4 DUP3 ADD MSTORE PUSH1 0x12 PUSH1 0x24 DUP3 ADD MSTORE PUSH18 0x125B9D985B1A5908189D5E48185B5BDD5B9D PUSH1 0x72 SHL PUSH1 0x44 DUP3 ADD MSTORE PUSH1 0x64 SWAP1 REVERT JUMPDEST ISZERO PUSH2 0x5B2 JUMPI JUMP JUMPDEST PUSH1 0x40 MLOAD PUSH3 0x461BCD PUSH1 0xE5 SHL DUP2 MSTORE PUSH1 0x20 PUSH1 0x4 DUP3 ADD MSTORE PUSH1 0x11 PUSH1 0x24 DUP3 ADD MSTORE PUSH17 0x496E76616C6964206672657175656E6379 PUSH1 0x78 SHL PUSH1 0x44 DUP3 ADD MSTORE PUSH1 0x64 SWAP1 REVERT JUMPDEST SWAP1 PUSH1 0x0 NOT SWAP1 JUMPDEST SWAP2 DUP2 NOT AND SWAP2 AND OR SWAP1 JUMP JUMPDEST SWAP1 PUSH2 0x60B PUSH2 0x170 PUSH2 0x612 SWAP3 PUSH2 0x55D JUMP JUMPDEST DUP3 SLOAD PUSH2 0x5EB JUMP JUMPDEST SWAP1 SSTORE JUMP JUMPDEST SWAP1 PUSH2 0x64D PUSH2 0x14B SWAP3 PUSH2 0x632 PUSH2 0x62B PUSH1 0x0 PUSH2 0x55D JUMP JUMPDEST DUP3 GT PUSH2 0x56A JUMP JUMPDEST PUSH2 0x646 PUSH2 0x63F PUSH1 0x0 PUSH2 0x55D JUMP JUMPDEST DUP5 GT PUSH2 0x5AB JUMP JUMPDEST PUSH1 0x2 PUSH2 0x5FB JUMP JUMPDEST PUSH1 0x3 PUSH2 0x5FB JUMP JUMPDEST SWAP1 PUSH2 0x14B SWAP2 PUSH2 0x52F JUMP JUMPDEST PUSH2 0x66E PUSH2 0x549 PUSH2 0x544 PUSH1 0x0 PUSH2 0x4EC JUMP JUMPDEST PUSH2 0x14B PUSH2 0x6E6 JUMP JUMPDEST PUSH2 0x170 SWAP1 PUSH2 0x1AA JUMP JUMPDEST PUSH2 0x170 SWAP1 SLOAD PUSH2 0x676 JUMP JUMPDEST ISZERO PUSH2 0x690 JUMPI JUMP JUMPDEST PUSH1 0x40 MLOAD PUSH3 0x461BCD PUSH1 0xE5 SHL DUP2 MSTORE PUSH1 0x20 PUSH1 0x4 DUP3 ADD MSTORE PUSH1 0xE PUSH1 0x24 DUP3 ADD MSTORE PUSH14 0x416C726561647920616374697665 PUSH1 0x90 SHL PUSH1 0x44 DUP3 ADD MSTORE PUSH1 0x64 SWAP1 REVERT JUMPDEST SWAP1 PUSH1 0xFF SWAP1 PUSH2 0x5F1 JUMP JUMPDEST SWAP1 PUSH2 0x6DF PUSH2 0x170 PUSH2 0x612 SWAP3 ISZERO ISZERO SWAP1 JUMP JUMPDEST DUP3 SLOAD PUSH2 0x6C6 JUMP JUMPDEST PUSH2 0x6FF PUSH2 0x6FA PUSH2 0x6F6 PUSH1 0x7 PUSH2 0x67F JUMP JUMPDEST ISZERO SWAP1 JUMP JUMPDEST PUSH2 0x689 JUMP JUMPDEST PUSH2 0x70B PUSH1 0x1 PUSH1 0x7 PUSH2 0x6CF JUMP JUMPDEST PUSH32 0x24BBFA46317916D25BBE66F8089A3529E508CAC063113C9162EA96F3BC4642CE PUSH2 0x735 PUSH1 0x40 MLOAD SWAP1 JUMP JUMPDEST PUSH1 0x0 SWAP1 LOG1 JUMP JUMPDEST PUSH2 0x14B PUSH2 0x65E JUMP JUMPDEST PUSH2 0x170 SWAP1 DUP2 JUMP JUMPDEST PUSH2 0x170 SWAP1 SLOAD PUSH2 0x743 JUMP JUMPDEST PUSH4 0x4E487B71 PUSH1 0xE0 SHL PUSH1 0x0 MSTORE PUSH1 0x11 PUSH1 0x4 MSTORE PUSH1 0x24 PUSH1 0x0 REVERT JUMPDEST SWAP2 SWAP1 DUP3 ADD DUP1 SWAP3 GT PUSH2 0x777 JUMPI JUMP JUMPDEST PUSH2 0x754 JUMP JUMPDEST PUSH2 0x786 PUSH1 0x2 PUSH2 0x74A JUMP JUMPDEST SWAP1 PUSH2 0x791 PUSH1 0x3 PUSH2 0x74A JUMP JUMPDEST SWAP2 PUSH2 0x79C PUSH1 0x4 PUSH2 0x74A JUMP JUMPDEST SWAP2 PUSH2 0x7BA PUSH2 0x7AA PUSH1 0x4 PUSH2 0x74A JUMP JUMPDEST PUSH2 0x7B4 PUSH1 0x3 PUSH2 0x74A JUMP JUMPDEST SWAP1 PUSH2 0x76A JUMP JUMPDEST SWAP2 PUSH2 0x7C5 PUSH1 0x5 PUSH2 0x74A JUMP JUMPDEST SWAP2 PUSH2 0x7D0 PUSH1 0x6 PUSH2 0x74A JUMP JUMPDEST SWAP2 PUSH2 0x7DB PUSH1 0x7 PUSH2 0x67F JUMP JUMPDEST SWAP2 PUSH2 0x7E6 PUSH1 0x7 PUSH2 0x67F JUMP JUMPDEST SWAP2 DUP3 PUSH2 0x7F7 JUMPI JUMPDEST SWAP8 SWAP7 SWAP6 SWAP5 SWAP4 SWAP3 SWAP2 SWAP1 JUMP JUMPDEST SWAP2 POP PUSH2 0x809 PUSH2 0x170 PUSH2 0x7AA PUSH1 0x4 PUSH2 0x74A JUMP JUMPDEST TIMESTAMP LT ISZERO SWAP2 PUSH2 0x7ED JUMP JUMPDEST PUSH2 0x81C PUSH1 0x7 PUSH2 0x67F JUMP JUMPDEST DUP1 PUSH2 0x824 JUMPI SWAP1 JUMP JUMPDEST POP PUSH2 0x835 PUSH2 0x170 PUSH2 0x7AA PUSH1 0x4 PUSH2 0x74A JUMP JUMPDEST TIMESTAMP LT ISZERO SWAP1 JUMP JUMPDEST PUSH2 0x84B PUSH2 0x549 PUSH2 0x544 PUSH1 0x0 PUSH2 0x4EC JUMP JUMPDEST PUSH2 0x14B PUSH2 0x890 JUMP JUMPDEST ISZERO PUSH2 0x85A JUMPI JUMP JUMPDEST PUSH1 0x40 MLOAD PUSH3 0x461BCD PUSH1 0xE5 SHL DUP2 MSTORE PUSH1 0x20 PUSH1 0x4 DUP3 ADD MSTORE PUSH1 0xE PUSH1 0x24 DUP3 ADD MSTORE PUSH14 0x105B1C9958591E481C185D5CD959 PUSH1 0x92 SHL PUSH1 0x44 DUP3 ADD MSTORE PUSH1 0x64 SWAP1 REVERT JUMPDEST PUSH2 0x8A2 PUSH2 0x89D PUSH1 0x7 PUSH2 0x67F JUMP JUMPDEST PUSH2 0x853 JUMP JUMPDEST PUSH2 0x8AE PUSH1 0x0 PUSH1 0x7 PUSH2 0x6CF JUMP JUMPDEST PUSH32 0xDA9F8B34D443B240F8CC4C9CC013A7723B45924B823BD142AE3B3D79C371EB7C PUSH2 0x735 PUSH1 0x40 MLOAD SWAP1 JUMP JUMPDEST PUSH2 0x14B PUSH2 0x83B JUMP JUMPDEST ISZERO PUSH2 0x8E7 JUMPI JUMP JUMPDEST PUSH1 0x40 MLOAD PUSH3 0x461BCD PUSH1 0xE5 SHL DUP2 MSTORE PUSH1 0x20 PUSH1 0x4 DUP3 ADD MSTORE PUSH1 0xC PUSH1 0x24 DUP3 ADD MSTORE PUSH12 0x4F6E6C7920666163746F7279 PUSH1 0xA0 SHL PUSH1 0x44 DUP3 ADD MSTORE PUSH1 0x64 SWAP1 REVERT JUMPDEST PUSH2 0x170 SWAP1 PUSH2 0x93E PUSH2 0x92F PUSH2 0x544 PUSH1 0x1 PUSH2 0x4EC JUMP JUMPDEST PUSH2 0x938 CALLER PUSH2 0x33A JUMP JUMPDEST EQ PUSH2 0x8E0 JUMP JUMPDEST PUSH2 0x94F SWAP1 PUSH2 0x94A PUSH2 0xF88 JUMP JUMPDEST PUSH2 0x9EF JUMP JUMPDEST SWAP1 PUSH2 0x14B PUSH2 0xFB8 JUMP JUMPDEST ISZERO PUSH2 0x95F JUMPI JUMP JUMPDEST PUSH1 0x40 MLOAD PUSH3 0x461BCD PUSH1 0xE5 SHL DUP2 MSTORE PUSH1 0x20 PUSH1 0x4 DUP3 ADD MSTORE PUSH1 0xF PUSH1 0x24 DUP3 ADD MSTORE PUSH15 0x15985D5B1D081A5CC81C185D5CD959 PUSH1 0x8A SHL PUSH1 0x44 DUP3 ADD MSTORE PUSH1 0x64 SWAP1 REVERT JUMPDEST ISZERO PUSH2 0x99D JUMPI JUMP JUMPDEST PUSH1 0x40 MLOAD PUSH3 0x461BCD PUSH1 0xE5 SHL DUP2 MSTORE PUSH1 0x20 PUSH1 0x4 DUP3 ADD MSTORE PUSH1 0x8 PUSH1 0x24 DUP3 ADD MSTORE PUSH8 0x2A37B79039B7B7B7 PUSH1 0xC1 SHL PUSH1 0x44 DUP3 ADD MSTORE PUSH1 0x64 SWAP1 REVERT JUMPDEST PUSH1 0x0 NOT DUP2 EQ PUSH2 0x777 JUMPI PUSH1 0x1 ADD SWAP1 JUMP JUMPDEST SWAP1 DUP2 MSTORE PUSH1 0x40 DUP2 ADD SWAP3 SWAP2 PUSH2 0x14B SWAP2 PUSH1 0x20 ADD MSTORE JUMP JUMPDEST POP PUSH2 0xA02 PUSH2 0x9FD PUSH1 0x7 PUSH2 0x67F JUMP JUMPDEST PUSH2 0x958 JUMP JUMPDEST PUSH2 0xA1D PUSH2 0xA15 PUSH2 0x170 PUSH2 0x7AA PUSH1 0x4 PUSH2 0x74A JUMP JUMPDEST TIMESTAMP LT ISZERO PUSH2 0x996 JUMP JUMPDEST PUSH2 0xA39 PUSH2 0xA32 PUSH2 0xA2D PUSH1 0x6 PUSH2 0x74A JUMP JUMPDEST PUSH2 0x9CD JUMP JUMPDEST PUSH1 0x6 PUSH2 0x5FB JUMP JUMPDEST PUSH2 0xA44 TIMESTAMP PUSH1 0x4 PUSH2 0x5FB JUMP JUMPDEST PUSH2 0xA6A PUSH2 0xA63 PUSH2 0xA54 PUSH1 0x2 PUSH2 0x74A JUMP JUMPDEST PUSH2 0xA5E PUSH1 0x5 PUSH2 0x74A JUMP JUMPDEST PUSH2 0x76A JUMP JUMPDEST PUSH1 0x5 PUSH2 0x5FB JUMP JUMPDEST PUSH32 0x2D34647A20CA77C2E73DB80E924F221793F95460C4A41BE3E7A73FA3DB2268B7 PUSH2 0xAA6 PUSH2 0xA98 PUSH1 0x2 PUSH2 0x74A JUMP JUMPDEST PUSH1 0x40 MLOAD SWAP2 DUP3 SWAP2 TIMESTAMP SWAP1 DUP4 PUSH2 0x9DC JUMP JUMPDEST SUB SWAP1 LOG1 PUSH1 0x1 SWAP1 JUMP JUMPDEST PUSH2 0x170 PUSH1 0x0 PUSH2 0x91B JUMP JUMPDEST PUSH2 0x14B SWAP1 PUSH2 0xACC PUSH2 0x549 PUSH2 0x544 PUSH1 0x0 PUSH2 0x4EC JUMP JUMPDEST PUSH2 0xADD SWAP1 PUSH2 0xAD8 PUSH2 0xF88 JUMP JUMPDEST PUSH2 0xC94 JUMP JUMPDEST PUSH2 0x14B PUSH2 0xFB8 JUMP JUMPDEST ISZERO PUSH2 0xAEC JUMPI JUMP JUMPDEST PUSH1 0x40 MLOAD PUSH3 0x461BCD PUSH1 0xE5 SHL DUP2 MSTORE PUSH1 0x20 PUSH1 0x4 DUP3 ADD MSTORE PUSH1 0x17 PUSH1 0x24 DUP3 ADD MSTORE PUSH32 0x416D6F756E74206D75737420626520706F736974697665000000000000000000 PUSH1 0x44 DUP3 ADD MSTORE PUSH1 0x64 SWAP1 REVERT JUMPDEST PUSH2 0x170 SWAP1 PUSH2 0x33A SWAP1 PUSH1 0x1 PUSH1 0x1 PUSH1 0xA0 SHL SUB AND DUP3 JUMP JUMPDEST PUSH2 0x170 SWAP1 PUSH2 0xB31 JUMP JUMPDEST PUSH2 0x170 SWAP1 PUSH2 0xB45 JUMP JUMPDEST ISZERO PUSH2 0xB5E JUMPI JUMP JUMPDEST PUSH1 0x40 MLOAD PUSH3 0x461BCD PUSH1 0xE5 SHL DUP2 MSTORE PUSH1 0x20 PUSH1 0x4 DUP3 ADD MSTORE PUSH1 0x11 PUSH1 0x24 DUP3 ADD MSTORE PUSH17 0x92DCE6EACCCCD2C6D2CADCE84082AC82B PUSH1 0x7B SHL PUSH1 0x44 DUP3 ADD MSTORE PUSH1 0x64 SWAP1 REVERT JUMPDEST PUSH4 0x4E487B71 PUSH1 0xE0 SHL PUSH1 0x0 MSTORE PUSH1 0x41 PUSH1 0x4 MSTORE PUSH1 0x24 PUSH1 0x0 REVERT JUMPDEST SWAP1 PUSH1 0x1F ADD PUSH1 0x1F NOT AND DUP2 ADD SWAP1 DUP2 LT PUSH8 0xFFFFFFFFFFFFFFFF DUP3 GT OR PUSH2 0xBCF JUMPI PUSH1 0x40 MSTORE JUMP JUMPDEST PUSH2 0xB97 JUMP JUMPDEST SWAP1 PUSH2 0x14B PUSH2 0xBE1 PUSH1 0x40 MLOAD SWAP1 JUMP JUMPDEST SWAP3 DUP4 PUSH2 0xBAD JUMP JUMPDEST PUSH8 0xFFFFFFFFFFFFFFFF DUP2 GT PUSH2 0xBCF JUMPI PUSH1 0x20 SWAP1 PUSH1 0x1F ADD PUSH1 0x1F NOT AND ADD SWAP1 JUMP JUMPDEST SWAP1 PUSH2 0xC17 PUSH2 0xC12 DUP4 PUSH2 0xBE8 JUMP JUMPDEST PUSH2 0xBD4 JUMP JUMPDEST SWAP2 DUP3 MSTORE JUMP JUMPDEST RETURNDATASIZE ISZERO PUSH2 0xC36 JUMPI PUSH2 0xC2B RETURNDATASIZE PUSH2 0xC05 JUMP JUMPDEST SWAP1 RETURNDATASIZE PUSH1 0x0 PUSH1 0x20 DUP5 ADD RETURNDATACOPY JUMP JUMPDEST PUSH1 0x60 SWAP1 JUMP JUMPDEST ISZERO PUSH2 0xC42 JUMPI JUMP JUMPDEST PUSH1 0x40 MLOAD PUSH3 0x461BCD PUSH1 0xE5 SHL DUP2 MSTORE PUSH1 0x20 PUSH1 0x4 DUP3 ADD MSTORE PUSH1 0x14 PUSH1 0x24 DUP3 ADD MSTORE PUSH20 0x10559056081D1C985B9CD9995C8819985A5B1959 PUSH1 0x62 SHL PUSH1 0x44 DUP3 ADD MSTORE PUSH1 0x64 SWAP1 REVERT JUMPDEST PUSH2 0x33A PUSH2 0x170 PUSH2 0x170 SWAP3 SWAP1 JUMP JUMPDEST PUSH2 0x170 SWAP1 PUSH2 0xC7E JUMP JUMPDEST PUSH32 0x7084F5476618D8E60B11EF0D7D3F06914655ADB8793E28FF7F018D4C76D505D5 PUSH2 0xD33 PUSH2 0xD29 PUSH2 0xD07 PUSH1 0x0 PUSH2 0xCD4 PUSH2 0xCCC DUP3 PUSH2 0x55D JUMP JUMPDEST DUP8 JUMPDEST GT PUSH2 0xAE5 JUMP JUMPDEST PUSH2 0xCF3 PUSH2 0xCE0 ADDRESS PUSH2 0xB4E JUMP JUMPDEST DUP8 SWAP1 BALANCE PUSH2 0xCEC JUMP JUMPDEST SWAP2 SWAP1 JUMP JUMPDEST LT ISZERO PUSH2 0xB57 JUMP JUMPDEST PUSH2 0xD24 DUP2 DUP1 PUSH2 0xD0C PUSH2 0xD07 PUSH2 0xD07 DUP4 PUSH2 0x4EC JUMP JUMPDEST PUSH2 0xB4E JUMP JUMPDEST PUSH1 0x40 MLOAD PUSH1 0x0 SWAP2 DUP12 SWAP1 GAS CALL PUSH2 0xD1E PUSH2 0xC1C JUMP JUMPDEST POP PUSH2 0xC3B JUMP JUMPDEST PUSH2 0xC8B JUMP JUMPDEST SWAP3 PUSH2 0x251 PUSH1 0x40 MLOAD SWAP1 JUMP JUMPDEST SUB SWAP1 LOG2 JUMP JUMPDEST PUSH2 0x14B SWAP1 PUSH2 0xAB8 JUMP JUMPDEST SWAP1 PUSH2 0x14B SWAP2 PUSH2 0xD56 PUSH2 0x92F PUSH2 0x544 PUSH1 0x1 PUSH2 0x4EC JUMP JUMPDEST PUSH2 0xD9D JUMP JUMPDEST ISZERO PUSH2 0xD62 JUMPI JUMP JUMPDEST PUSH1 0x40 MLOAD PUSH3 0x461BCD PUSH1 0xE5 SHL DUP2 MSTORE PUSH1 0x20 PUSH1 0x4 DUP3 ADD MSTORE PUSH1 0x13 PUSH1 0x24 DUP3 ADD MSTORE PUSH19 0x105B1C9958591E481A5B9A5D1A585B1A5E9959 PUSH1 0x6A SHL PUSH1 0x44 DUP3 ADD MSTORE PUSH1 0x64 SWAP1 REVERT JUMPDEST SWAP1 PUSH2 0x64D PUSH2 0xDDF SWAP3 PUSH2 0xDB2 PUSH2 0x62B PUSH1 0x0 PUSH2 0x55D JUMP JUMPDEST PUSH2 0xDBF PUSH2 0x63F PUSH1 0x0 PUSH2 0x55D JUMP JUMPDEST PUSH2 0x646 PUSH2 0xDCC PUSH1 0x2 PUSH2 0x74A JUMP JUMPDEST PUSH2 0xDD9 PUSH2 0xCE8 PUSH1 0x0 PUSH2 0x55D JUMP JUMPDEST EQ PUSH2 0xD5B JUMP JUMPDEST PUSH2 0x14B TIMESTAMP PUSH1 0x4 PUSH2 0x5FB JUMP JUMPDEST SWAP1 PUSH2 0x14B SWAP2 PUSH2 0xD41 JUMP JUMPDEST SWAP1 PUSH2 0x14B SWAP2 PUSH2 0xE09 PUSH2 0x549 PUSH2 0x544 PUSH1 0x0 PUSH2 0x4EC JUMP JUMPDEST SWAP1 PUSH2 0xADD SWAP2 PUSH2 0xE16 PUSH2 0xF88 JUMP JUMPDEST PUSH2 0xE8B JUMP JUMPDEST SWAP1 POP MLOAD SWAP1 PUSH2 0x14B DUP3 PUSH2 0x130 JUMP JUMPDEST SWAP1 PUSH1 0x20 DUP3 DUP3 SUB SLT PUSH2 0x139 JUMPI PUSH2 0x170 SWAP2 PUSH2 0xE1B JUMP JUMPDEST PUSH1 0x40 MLOAD RETURNDATASIZE PUSH1 0x0 DUP3 RETURNDATACOPY RETURNDATASIZE SWAP1 REVERT JUMPDEST ISZERO PUSH2 0xE4F JUMPI JUMP JUMPDEST PUSH1 0x40 MLOAD PUSH3 0x461BCD PUSH1 0xE5 SHL DUP2 MSTORE PUSH1 0x20 PUSH1 0x4 DUP3 ADD MSTORE PUSH1 0x14 PUSH1 0x24 DUP3 ADD MSTORE PUSH20 0x496E73756666696369656E742062616C616E6365 PUSH1 0x60 SHL PUSH1 0x44 DUP3 ADD MSTORE PUSH1 0x64 SWAP1 REVERT JUMPDEST PUSH2 0xEE3 SWAP1 PUSH2 0xEA2 PUSH2 0xE9C PUSH1 0x0 PUSH2 0x55D JUMP JUMPDEST DUP5 PUSH2 0xCCE JUMP JUMPDEST PUSH2 0xEAB DUP2 PUSH2 0xB4E JUMP JUMPDEST PUSH1 0x20 PUSH2 0xEB6 DUP3 PUSH2 0xB4E JUMP JUMPDEST PUSH2 0xEBF ADDRESS PUSH2 0xB4E JUMP JUMPDEST SWAP1 PUSH2 0xEC9 PUSH1 0x40 MLOAD SWAP1 JUMP JUMPDEST SWAP6 DUP7 SWAP3 DUP4 SWAP2 DUP3 SWAP2 PUSH4 0x70A08231 PUSH1 0xE0 SHL DUP4 MSTORE PUSH1 0x4 DUP4 ADD PUSH2 0x365 JUMP JUMPDEST SUB SWAP2 GAS STATICCALL SWAP2 DUP3 ISZERO PUSH2 0xF6F JUMPI PUSH2 0xD07 DUP6 PUSH2 0xD29 SWAP4 PUSH2 0xF30 PUSH2 0xD33 SWAP7 PUSH32 0x7084F5476618D8E60B11EF0D7D3F06914655ADB8793E28FF7F018D4C76D505D5 SWAP9 PUSH1 0x0 SWAP2 PUSH2 0xF40 JUMPI JUMPDEST POP DUP4 GT ISZERO PUSH2 0xE48 JUMP JUMPDEST PUSH2 0xF3A PUSH1 0x0 PUSH2 0x4EC JUMP JUMPDEST SWAP1 PUSH2 0xFC3 JUMP JUMPDEST PUSH2 0xF62 SWAP2 POP PUSH1 0x20 RETURNDATASIZE PUSH1 0x20 GT PUSH2 0xF68 JUMPI JUMPDEST PUSH2 0xF5A DUP2 DUP4 PUSH2 0xBAD JUMP JUMPDEST DUP2 ADD SWAP1 PUSH2 0xE28 JUMP JUMPDEST CODESIZE PUSH2 0xF27 JUMP JUMPDEST POP RETURNDATASIZE PUSH2 0xF50 JUMP JUMPDEST PUSH2 0xE3C JUMP JUMPDEST SWAP1 PUSH2 0x14B SWAP2 PUSH2 0xDF4 JUMP JUMPDEST PUSH2 0x170 PUSH1 0x2 PUSH2 0x55D JUMP JUMPDEST PUSH2 0xF90 PUSH2 0x1001 JUMP JUMPDEST PUSH2 0x14B PUSH2 0xF9B PUSH2 0xF7E JUMP JUMPDEST PUSH1 0x0 PUSH2 0xFA8 PUSH2 0x170 PUSH2 0x104A JUMP JUMPDEST ADD PUSH2 0x5FB JUMP JUMPDEST PUSH2 0x170 PUSH1 0x1 PUSH2 0x55D JUMP JUMPDEST PUSH2 0x14B PUSH2 0xF9B PUSH2 0xFAE JUMP JUMPDEST SWAP2 PUSH1 0x1 PUSH2 0x6F6 SWAP2 PUSH2 0xFD4 SWAP4 DUP6 PUSH2 0x1052 JUMP JUMPDEST PUSH2 0xFDB JUMPI POP JUMP JUMPDEST PUSH2 0xFFC PUSH2 0xFE9 PUSH1 0x0 SWAP3 PUSH2 0xB4E JUMP JUMPDEST PUSH4 0x5274AFE7 PUSH1 0xE0 SHL DUP4 MSTORE PUSH1 0x4 DUP4 ADD PUSH2 0x365 JUMP JUMPDEST SUB PUSH1 0x0 REVERT JUMPDEST PUSH2 0x1009 PUSH2 0x10BE JUMP JUMPDEST PUSH2 0x100F JUMPI JUMP JUMPDEST PUSH4 0x3EE5AEB5 PUSH1 0xE0 SHL PUSH1 0x0 SWAP1 DUP2 MSTORE PUSH1 0x4 SWAP1 REVERT JUMPDEST PUSH2 0x170 PUSH32 0x9B779B17422D0DF92223018B32B4D1FA46E071723D6817E2486D003BECC55F00 PUSH2 0x55D JUMP JUMPDEST PUSH2 0x170 PUSH2 0x1021 JUMP JUMPDEST PUSH1 0x40 MLOAD PUSH4 0xA9059CBB PUSH1 0xE0 SHL PUSH1 0x0 SWAP1 DUP2 MSTORE PUSH1 0x1 PUSH1 0x1 PUSH1 0xA0 SHL SUB SWAP1 SWAP4 AND PUSH1 0x4 MSTORE PUSH1 0x24 SWAP4 SWAP1 SWAP4 MSTORE SWAP3 SWAP4 SWAP3 SWAP1 PUSH1 0x20 SWAP1 PUSH1 0x44 DUP2 DUP1 DUP6 GAS CALL SWAP4 PUSH1 0x1 PUSH1 0x0 MLOAD EQ DUP6 AND ISZERO PUSH2 0x109A JUMPI JUMPDEST POP POP PUSH1 0x40 MSTORE JUMP JUMPDEST DUP5 SWAP3 SWAP5 ISZERO AND PUSH2 0x10B4 JUMPI PUSH1 0x0 SWAP1 EXTCODESIZE GT RETURNDATASIZE ISZERO AND AND SWAP2 CODESIZE DUP1 PUSH2 0x1093 JUMP JUMPDEST DUP4 RETURNDATASIZE PUSH1 0x0 DUP3 RETURNDATACOPY RETURNDATASIZE SWAP1 REVERT JUMPDEST PUSH2 0x10D4 PUSH1 0x0 PUSH2 0x10CE PUSH2 0x170 PUSH2 0x104A JUMP JUMPDEST ADD PUSH2 0x74A JUMP JUMPDEST PUSH2 0x10E2 PUSH2 0xCE8 PUSH2 0x170 PUSH2 0xF7E JUMP JUMPDEST EQ SWAP1 JUMP INVALID LOG2 PUSH5 0x6970667358 0x22 SLT KECCAK256 CALLDATASIZE DUP6 0xD7 SWAP15 PUSH5 0xDFD602810 0x29 0xE3 PUSH13 0xA8BBF6C8FA30643275BDE6F468 PUSH25 0xC75EBCFD0864736F6C634300081C0033A26469706673582212 KECCAK256 0xB3 PUSH6 0xD758B17FE239 SWAP10 SWAP12 BASEFEE PUSH25 0xA5C09B0538C9A6B637CB13FA2FFC39D3A254118764736F6C63 NUMBER STOP ADDMOD SHR STOP CALLER "
        },
        "methodIdentifiers": {
          "allVaults(uint256)": "9094a91e",
          "burnTracker()": "d306254d",
          "createVault(uint256,uint256)": "e5fbab85",
          "executionEngine()": "23a92172",
          "getAllVaults()": "97331bf9",
          "getMyVault()": "6f8206ba",
          "owner()": "8da5cb5b",
          "setBurnTracker(address)": "ab2cba85",
          "setExecutionEngine(address)": "48861e1c",
          "triggerBatchDCA(address[])": "5064e065",
          "triggerDCA(address)": "d42a0a32",
          "userVault(address)": "8303efef"
        }
      }
    }
  }
}