{
  "_format": "hh-sol-artifact-1",
  "contractName": "DCAFactory",
  "sourceName": "contracts/DCAFactory.sol",
  "abi": [
    {
      "inputs": [],
      "stateMutability": "nonpayable",
      "type": "constructor"
    },
    {
      "anonymous": false,
      "inputs": [
        {
          "indexed": true,
          "internalType": "address",
          "name": "burnTracker",
          "type": "address"
        }
      ],
      "name": "BurnTrackerSet",
      "type": "event"
    },
    {
      "anonymous": false,
      "inputs": [
        {
          "indexed": true,
          "internalType": "address",
          "name": "vault",
          "type": "address"
        },
        {
          "indexed": true,
          "internalType": "address",
          "name": "user",
          "type": "address"
        }
      ],
      "name": "DCATriggered",
      "type": "event"
    },
    {
      "anonymous": false,
      "inputs": [
        {
          "indexed": true,
          "internalType": "address",
          "name": "executionEngine",
          "type": "address"
        }
      ],
      "name": "ExecutionEngineSet",
      "type": "event"
    },
    {
      "anonymous": false,
      "inputs": [
        {
          "indexed": true,
          "internalType": "address",
          "name": "user",
          "type": "address"
        },
        {
          "indexed": true,
          "internalType": "address",
          "name": "vault",
          "type": "address"
        }
      ],
      "name": "VaultCreated",
      "type": "event"
    },
    {
      "inputs": [
        {
          "internalType": "uint256",
          "name": "",
          "type": "uint256"
        }
      ],
      "name": "allVaults",
      "outputs": [
        {
          "internalType": "address",
          "name": "",
          "type": "address"
        }
      ],
      "stateMutability": "view",
      "type": "function"
    },
    {
      "inputs": [],
      "name": "burnTracker",
      "outputs": [
        {
          "internalType": "address",
          "name": "",
          "type": "address"
        }
      ],
      "stateMutability": "view",
      "type": "function"
    },
    {
      "inputs": [
        {
          "internalType": "uint256",
          "name": "_buyAmount",
          "type": "uint256"
        },
        {
          "internalType": "uint256",
          "name": "_frequency",
          "type": "uint256"
        }
      ],
      "name": "createVault",
      "outputs": [
        {
          "internalType": "address",
          "name": "",
          "type": "address"
        }
      ],
      "stateMutability": "nonpayable",
      "type": "function"
    },
    {
      "inputs": [],
      "name": "executionEngine",
      "outputs": [
        {
          "internalType": "address",
          "name": "",
          "type": "address"
        }
      ],
      "stateMutability": "view",
      "type": "function"
    },
    {
      "inputs": [],
      "name": "getAllVaults",
      "outputs": [
        {
          "internalType": "address[]",
          "name": "",
          "type": "address[]"
        }
      ],
      "stateMutability": "view",
      "type": "function"
    },
    {
      "inputs": [],
      "name": "getMyVault",
      "outputs": [
        {
          "internalType": "address",
          "name": "",
          "type": "address"
        }
      ],
      "stateMutability": "view",
      "type": "function"
    },
    {
      "inputs": [],
      "name": "owner",
      "outputs": [
        {
          "internalType": "address",
          "name": "",
          "type": "address"
        }
      ],
      "stateMutability": "view",
      "type": "function"
    },
    {
      "inputs": [
        {
          "internalType": "address",
          "name": "_burnTracker",
          "type": "address"
        }
      ],
      "name": "setBurnTracker",
      "outputs": [],
      "stateMutability": "nonpayable",
      "type": "function"
    },
    {
      "inputs": [
        {
          "internalType": "address",
          "name": "_executionEngine",
          "type": "address"
        }
      ],
      "name": "setExecutionEngine",
      "outputs": [],
      "stateMutability": "nonpayable",
      "type": "function"
    },
    {
      "inputs": [
        {
          "internalType": "address[]",
          "name": "users",
          "type": "address[]"
        }
      ],
      "name": "triggerBatchDCA",
      "outputs": [],
      "stateMutability": "nonpayable",
      "type": "function"
    },
    {
      "inputs": [
        {
          "internalType": "address",
          "name": "user",
          "type": "address"
        }
      ],
      "name": "triggerDCA",
      "outputs": [],
      "stateMutability": "nonpayable",
      "type": "function"
    },
    {
      "inputs": [
        {
          "internalType": "address",
          "name": "",
          "type": "address"
        }
      ],
      "name": "userVault",
      "outputs": [
        {
          "internalType": "address",
          "name": "",
          "type": "address"
        }
      ],
      "stateMutability": "view",
      "type": "function"
    }
  ],
  "bytecode": "0x60808060405234602757600080546001600160a01b0319163317905561197c908161002d8239f35b600080fdfe6080604052600436101561001257600080fd5b60003560e01c806323a92172146100d757806348861e1c146100d25780635064e065146100cd5780636f8206ba146100c85780638303efef146100c35780638da5cb5b146100be5780639094a91e146100b957806397331bf9146100b4578063ab2cba85146100af578063d306254d146100aa578063d42a0a32146100a55763e5fbab85146100a057600080fd5b610639565b6104b8565b61048f565b6103fc565b61036c565b6102ce565b61028f565b61024a565b610218565b6101b9565b610126565b6100ec565b60009103126100e757565b600080fd5b346100e75760003660031901126100e7576001546040516001600160a01b039091168152602090f35b6001600160a01b038116036100e757565b346100e75760203660031901126100e75760043561014381610115565b61015860018060a01b036000541633146107aa565b6001600160a01b031661016c8115156107e2565b60015481906101846001600160a01b0382161561081d565b6001600160a01b031916176001557fc171d6acef8d865308b516e5735c034f7f64631ba31eaab195c11cf1a2d576ee600080a2005b346100e75760203660031901126100e75760043567ffffffffffffffff81116100e757366023820112156100e757806004013567ffffffffffffffff81116100e7573660248260051b840101116100e757602461021692016109f6565b005b346100e75760003660031901126100e757336000526004602052602060018060a01b0360406000205416604051908152f35b346100e75760203660031901126100e75760043561026781610115565b60018060a01b03166000526004602052602060018060a01b0360406000205416604051908152f35b346100e75760003660031901126100e7576000546040516001600160a01b039091168152602090f35b634e487b7160e01b600052603260045260246000fd5b346100e75760203660031901126100e7576004356003548110156100e75760036000527fc2575a0e9e593c00f959f8c92f12db2869c3395a3b0502d05e2516446f71f85b01546040516001600160a01b039091168152602090f35b602060408183019282815284518094520192019060005b81811061034d5750505090565b82516001600160a01b0316845260209384019390920191600101610340565b346100e75760003660031901126100e75760405180602060035491828152019060036000527fc2575a0e9e593c00f959f8c92f12db2869c3395a3b0502d05e2516446f71f85b9060005b8181106103dd576103d9856103cd818703826108f2565b60405191829182610329565b0390f35b82546001600160a01b03168452602090930192600192830192016103b6565b346100e75760203660031901126100e75760043561041981610115565b61042e60018060a01b036000541633146107aa565b6001600160a01b03166104428115156107e2565b600254819061045a6001600160a01b0382161561081d565b6001600160a01b031916176002557ff01a3de481149951b491b02ccf6fc8cd0843b6175ceb5ef1b07be4291c97d6e3600080a2005b346100e75760003660031901126100e7576002546040516001600160a01b039091168152602090f35b346100e75760203660031901126100e7576004356104d581610115565b6001546001600160a01b0316906104ed821515610857565b6001600160a01b03811660009081526004602052604090206105279061051b905b546001600160a01b031690565b6001600160a01b031690565b6001600160a01b038116929061053e841515610b6d565b6040516378b9033760e01b815291602083600481885afa9182156106175761057c61051b6105a99361051b602096600098899161061c575b50610bad565b604051633be37e7960e01b81526001600160a01b0390921660048301529093849283919082906024820190565b03925af18015610617576105ea575b506001600160a01b0316907f44674e6e0ca70ec2495040e65b5dfc69b59f96a8329dff312642c7f68341e78b600080a3005b61060b9060203d602011610610575b61060381836108f2565b810190610980565b6105b8565b503d6105f9565b610998565b6106339150883d8a116106105761060381836108f2565b38610576565b346100e75760403660031901126100e75760043560243533600090815260046020526040902090919061067f906001600160a01b03906106789061050e565b1615610bef565b61068a811515610c32565b610695821515610c73565b604051610c278082019082821067ffffffffffffffff8311176107a55782916106c691610d20843933815260200190565b03906000f08015610617576001600160a01b031690813b156100e757604051637251808b60e11b81526004810191909152602481019290925260008260448183855af1918215610617576103d99261078a575b5033600090815260046020526040902080546001600160a01b0319166001600160a01b03831617905561074b81610cb3565b60405191818392337f5d9c31ffa0fecffd7cf379989a3c7af252f0335e0d2a1320b55245912c781f53600080a36001600160a01b031682526020820190565b80610799600061079f936108f2565b806100dc565b38610719565b6108dc565b156107b157565b60405162461bcd60e51b81526020600482015260096024820152682737ba1037bbb732b960b91b6044820152606490fd5b156107e957565b60405162461bcd60e51b815260206004820152600c60248201526b5a65726f206164647265737360a01b6044820152606490fd5b1561082457565b60405162461bcd60e51b815260206004820152600b60248201526a105b1c9958591e481cd95d60aa1b6044820152606490fd5b1561085e57565b60405162461bcd60e51b815260206004820152601760248201527f457865637574696f6e456e67696e65206e6f74207365740000000000000000006044820152606490fd5b156108aa57565b60405162461bcd60e51b815260206004820152600a602482015269115b5c1d1e481b1a5cdd60b21b6044820152606490fd5b634e487b7160e01b600052604160045260246000fd5b90601f8019910116810190811067ffffffffffffffff8211176107a557604052565b67ffffffffffffffff81116107a55760051b60200190565b9061093682610914565b61094360405191826108f2565b8281528092610954601f1991610914565b0190602036910137565b919081101561096e5760051b0190565b6102b8565b3561097d81610115565b90565b908160209103126100e7575180151581036100e75790565b6040513d6000823e3d90fd5b805182101561096e5760209160051b010190565b156109bf57565b60405162461bcd60e51b815260206004820152600f60248201526e4e6f207661756c747320726561647960881b6044820152606490fd5b6001546001600160a01b031690610a0e821515610857565b610a198315156108a3565b610a228361092c565b92600091825b828110610aa257505050610a539181610a4561051b9315156109b8565b84526001600160a01b031690565b803b156100e757604051635bbf378360e01b8152916000918391829084908290610a809060048301610329565b03925af1801561061757610a915750565b806107996000610aa0936108f2565b565b6001600160a01b03610ae061051b61050e610ac6610ac186898961095e565b610973565b6001600160a01b0316600090815260046020526040902090565b1680151580610b23575b610af8575b50600101610a28565b84610b1b6001939692610b0c85948b6109a4565b6001600160a01b039091169052565b019390610aef565b506040516378b9033760e01b8152602081600481855afa90811561061757600091610b4f575b50610aea565b610b67915060203d81116106105761060381836108f2565b38610b49565b15610b7457565b60405162461bcd60e51b81526020600482015260116024820152702737903b30bab63a103337b9103ab9b2b960791b6044820152606490fd5b15610bb457565b60405162461bcd60e51b8152602060048201526013602482015272546f6f20736f6f6e20746f206578656375746560681b6044820152606490fd5b15610bf657565b60405162461bcd60e51b81526020600482015260146024820152735661756c7420616c72656164792065786973747360601b6044820152606490fd5b15610c3957565b60405162461bcd60e51b815260206004820152601260248201527142757920616d6f756e74206973207a65726f60701b6044820152606490fd5b15610c7a57565b60405162461bcd60e51b81526020600482015260116024820152704672657175656e6379206973207a65726f60781b6044820152606490fd5b600354680100000000000000008110156107a55760018101600355600060035482101561096e57600390527fc2575a0e9e593c00f959f8c92f12db2869c3395a3b0502d05e2516446f71f85b0180546001600160a01b0319166001600160a01b0390921691909117905556fe6080346100ed57601f610c2738819003918201601f19168301916001600160401b038311848410176100f2578084926020946040528339810103126100ed57516001600160a01b038116908190036100ed5760017f9b779b17422d0df92223018b32b4d1fa46e071723d6817e2486d003becc55f005580156100b857600080546001600160a01b031990811692909217905560018054909116331781556007805460ff19169091179055604051610b1e90816101098239f35b60405162461bcd60e51b815260206004820152600d60248201526c24b73b30b634b21037bbb732b960991b6044820152606490fd5b600080fd5b634e487b7160e01b600052604160045260246000fdfe6080604052600436101561001b575b361561001957600080fd5b005b60003560e01c8063015af8ee146108c457806302fb0c5e146108a1578063046f7da2146108095780631fa70531146107eb5780634e69d560146107695780635216aeec1461074b57806378b90337146107055780638456cb591461066f5780638da5cb5b14610646578063950da28714610507578063a17ecef3146104e9578063aeb5cd5e14610385578063b7fc3e5114610367578063c45a01551461033e578063e4a30116146102b6578063ead50da3146102985763f3fef3a30361000e573461027f57604036600319011261027f576004356001600160a01b0381169081900361027f5760243561011960018060a01b0360005416331461091c565b610121610a8c565b61012c811515610a1e565b6040516370a0823160e01b8152306004820152602081602481865afa801561028c578291600091610252575b5010610216576000805460405163a9059cbb60e01b83526001600160a01b039091166004526024839052919060209060448180875af16001600051148116156101f6575b82604052156101e157816020917f7084f5476618d8e60b11ef0d7d3f06914655adb8793e28ff7f018d4c76d505d59352a26001600080516020610ac983398151915255005b82635274afe760e01b60005260045260246000fd5b600181151661020c57833b15153d15161661019c565b823d6000823e3d90fd5b60405162461bcd60e51b8152602060048201526014602482015273496e73756666696369656e742062616c616e636560601b6044820152606490fd5b9150506020813d602011610284575b8161026e60209383610a6a565b8101031261027f5781905138610158565b600080fd5b3d9150610261565b6040513d6000823e3d90fd5b3461027f57600036600319011261027f576020600354604051908152f35b3461027f576102c436610906565b906102da60018060a01b036001541633146109e3565b6102e5811515610955565b6102f0821515610996565b6002546103035760025560035542600455005b60405162461bcd60e51b8152602060048201526013602482015272105b1c9958591e481a5b9a5d1a585b1a5e9959606a1b6044820152606490fd5b3461027f57600036600319011261027f576001546040516001600160a01b039091168152602090f35b3461027f57600036600319011261027f576020600454604051908152f35b3461027f57602036600319011261027f576004356103ae60018060a01b0360005416331461091c565b6103b6610a8c565b6103c1811515610a1e565b8047106104b05760008080808460018060a01b038254165af13d156104ab573d67ffffffffffffffff81116104955760405190610408601f8201601f191660200183610a6a565b8152600060203d92013e5b15610459577f7084f5476618d8e60b11ef0d7d3f06914655adb8793e28ff7f018d4c76d505d56020600092604051908152a26001600080516020610ac983398151915255005b60405162461bcd60e51b815260206004820152601460248201527310559056081d1c985b9cd9995c8819985a5b195960621b6044820152606490fd5b634e487b7160e01b600052604160045260246000fd5b610413565b60405162461bcd60e51b8152602060048201526011602482015270092dce6eaccccd2c6d2cadce84082ac82b607b1b6044820152606490fd5b3461027f57600036600319011261027f576020600654604051908152f35b3461027f57600036600319011261027f5761052d60018060a01b036001541633146109e3565b610535610a8c565b60ff600754161561060f5761054f600454600354906109d6565b42106105df5760065460001981146105c957600101600655426004557f2d34647a20ca77c2e73db80e924f221793f95460c4a41be3e7a73fa3db2268b7604060025461059d816005546109d6565b6005558151908152426020820152a16001600080516020610ac983398151915255602060405160018152f35b634e487b7160e01b600052601160045260246000fd5b60405162461bcd60e51b81526020600482015260086024820152672a37b79039b7b7b760c11b6044820152606490fd5b60405162461bcd60e51b815260206004820152600f60248201526e15985d5b1d081a5cc81c185d5cd959608a1b6044820152606490fd5b3461027f57600036600319011261027f576000546040516001600160a01b039091168152602090f35b3461027f57600036600319011261027f5761069560018060a01b0360005416331461091c565b60075460ff8116156106cf5760ff19166007557fda9f8b34d443b240f8cc4c9cc013a7723b45924b823bd142ae3b3d79c371eb7c600080a1005b60405162461bcd60e51b815260206004820152600e60248201526d105b1c9958591e481c185d5cd95960921b6044820152606490fd5b3461027f57600036600319011261027f5760ff600754168061072f575b6020906040519015158152f35b506020610741600454600354906109d6565b4210159050610722565b3461027f57600036600319011261027f576020600554604051908152f35b3461027f57600036600319011261027f576101006002546003546004549061079181836109d6565b6005546006549160ff60075416948594856107d6575b604051978852602088015260408701526060860152608085015260a0840152151560c0830152151560e0820152f35b95506107e286826109d6565b421015956107a7565b3461027f57600036600319011261027f576020600254604051908152f35b3461027f57600036600319011261027f5761082f60018060a01b0360005416331461091c565b60075460ff811661086b5760ff19166001176007557f24bbfa46317916d25bbe66f8089a3529e508cac063113c9162ea96f3bc4642ce600080a1005b60405162461bcd60e51b815260206004820152600e60248201526d416c72656164792061637469766560901b6044820152606490fd5b3461027f57600036600319011261027f57602060ff600754166040519015158152f35b3461027f576108d236610906565b906108e860018060a01b0360005416331461091c565b6108f3811515610955565b6108fe821515610996565b600255600355005b604090600319011261027f576004359060243590565b1561092357565b60405162461bcd60e51b815260206004820152600a60248201526927b7363c9037bbb732b960b11b6044820152606490fd5b1561095c57565b60405162461bcd60e51b8152602060048201526012602482015271125b9d985b1a5908189d5e48185b5bdd5b9d60721b6044820152606490fd5b1561099d57565b60405162461bcd60e51b8152602060048201526011602482015270496e76616c6964206672657175656e637960781b6044820152606490fd5b919082018092116105c957565b156109ea57565b60405162461bcd60e51b815260206004820152600c60248201526b4f6e6c7920666163746f727960a01b6044820152606490fd5b15610a2557565b60405162461bcd60e51b815260206004820152601760248201527f416d6f756e74206d75737420626520706f7369746976650000000000000000006044820152606490fd5b90601f8019910116810190811067ffffffffffffffff82111761049557604052565b6002600080516020610ac98339815191525414610ab7576002600080516020610ac983398151915255565b633ee5aeb560e01b60005260046000fdfe9b779b17422d0df92223018b32b4d1fa46e071723d6817e2486d003becc55f00a2646970667358221220993671389343a20fbd73bf18553519ac5f61f4d08a49f447a64d2c35ac77fe2664736f6c634300081c0033a2646970667358221220132122559cc3c9ddc2297d8b6cccc7c1d673f9499065761675aae48f0e56a91564736f6c634300081c0033",
  "linkReferences": {},
  "deployedLinkReferences": {}
}