{
  "_format": "hh-sol-artifact-1",
  "contractName": "ExecutionEngine",
  "sourceName": "contracts/ExecutionEngine.sol",
  "abi": [
    {
      "inputs": [
        {
          "internalType": "address",
          "name": "_burnTracker",
          "type": "address"
        }
      ],
      "stateMutability": "nonpayable",
      "type": "constructor"
    },
    {
      "inputs": [],
      "name": "ReentrancyGuardReentrantCall",
      "type": "error"
    },
    {
      "inputs": [
        {
          "internalType": "address",
          "name": "token",
          "type": "address"
        }
      ],
      "name": "SafeERC20FailedOperation",
      "type": "error"
    },
    {
      "anonymous": false,
      "inputs": [
        {
          "indexed": true,
          "internalType": "address",
          "name": "vault",
          "type": "address"
        },
        {
          "indexed": true,
          "internalType": "address",
          "name": "user",
          "type": "address"
        },
        {
          "indexed": false,
          "internalType": "uint256",
          "name": "usdcSpent",
          "type": "uint256"
        },
        {
          "indexed": false,
          "internalType": "uint256",
          "name": "avaxReceived",
          "type": "uint256"
        },
        {
          "indexed": false,
          "internalType": "uint256",
          "name": "qiTokens",
          "type": "uint256"
        }
      ],
      "name": "DCAExecuted",
      "type": "event"
    },
    {
      "anonymous": false,
      "inputs": [
        {
          "indexed": true,
          "internalType": "address",
          "name": "vault",
          "type": "address"
        },
        {
          "indexed": false,
          "internalType": "bytes",
          "name": "reason",
          "type": "bytes"
        }
      ],
      "name": "DCAFailed",
      "type": "event"
    },
    {
      "anonymous": false,
      "inputs": [
        {
          "indexed": true,
          "internalType": "address",
          "name": "oldFactory",
          "type": "address"
        },
        {
          "indexed": true,
          "internalType": "address",
          "name": "newFactory",
          "type": "address"
        }
      ],
      "name": "FactoryUpdated",
      "type": "event"
    },
    {
      "inputs": [],
      "name": "BENQI_qiAVAX",
      "outputs": [
        {
          "internalType": "address",
          "name": "",
          "type": "address"
        }
      ],
      "stateMutability": "view",
      "type": "function"
    },
    {
      "inputs": [],
      "name": "LB_ROUTER",
      "outputs": [
        {
          "internalType": "address",
          "name": "",
          "type": "address"
        }
      ],
      "stateMutability": "view",
      "type": "function"
    },
    {
      "inputs": [],
      "name": "PRECISION",
      "outputs": [
        {
          "internalType": "uint256",
          "name": "",
          "type": "uint256"
        }
      ],
      "stateMutability": "view",
      "type": "function"
    },
    {
      "inputs": [],
      "name": "SLIPPAGE",
      "outputs": [
        {
          "internalType": "uint256",
          "name": "",
          "type": "uint256"
        }
      ],
      "stateMutability": "view",
      "type": "function"
    },
    {
      "inputs": [],
      "name": "USDC",
      "outputs": [
        {
          "internalType": "address",
          "name": "",
          "type": "address"
        }
      ],
      "stateMutability": "view",
      "type": "function"
    },
    {
      "inputs": [],
      "name": "WAVAX",
      "outputs": [
        {
          "internalType": "address",
          "name": "",
          "type": "address"
        }
      ],
      "stateMutability": "view",
      "type": "function"
    },
    {
      "inputs": [
        {
          "internalType": "address",
          "name": "vault",
          "type": "address"
        }
      ],
      "name": "_executeInternal",
      "outputs": [],
      "stateMutability": "nonpayable",
      "type": "function"
    },
    {
      "inputs": [],
      "name": "burnTracker",
      "outputs": [
        {
          "internalType": "contract BurnTracker",
          "name": "",
          "type": "address"
        }
      ],
      "stateMutability": "view",
      "type": "function"
    },
    {
      "inputs": [
        {
          "internalType": "address[]",
          "name": "vaults",
          "type": "address[]"
        }
      ],
      "name": "executeBatch",
      "outputs": [],
      "stateMutability": "nonpayable",
      "type": "function"
    },
    {
      "inputs": [
        {
          "internalType": "address",
          "name": "vault",
          "type": "address"
        }
      ],
      "name": "executeDCA",
      "outputs": [
        {
          "internalType": "bool",
          "name": "",
          "type": "bool"
        }
      ],
      "stateMutability": "nonpayable",
      "type": "function"
    },
    {
      "inputs": [],
      "name": "factory",
      "outputs": [
        {
          "internalType": "address",
          "name": "",
          "type": "address"
        }
      ],
      "stateMutability": "view",
      "type": "function"
    },
    {
      "inputs": [],
      "name": "factoryLocked",
      "outputs": [
        {
          "internalType": "bool",
          "name": "",
          "type": "bool"
        }
      ],
      "stateMutability": "view",
      "type": "function"
    },
    {
      "inputs": [],
      "name": "getConfig",
      "outputs": [
        {
          "internalType": "address",
          "name": "_factory",
          "type": "address"
        },
        {
          "internalType": "address",
          "name": "_burnTracker",
          "type": "address"
        },
        {
          "internalType": "bool",
          "name": "_factoryLocked",
          "type": "bool"
        }
      ],
      "stateMutability": "view",
      "type": "function"
    },
    {
      "inputs": [],
      "name": "isReady",
      "outputs": [
        {
          "internalType": "bool",
          "name": "",
          "type": "bool"
        }
      ],
      "stateMutability": "view",
      "type": "function"
    },
    {
      "inputs": [
        {
          "internalType": "address",
          "name": "_factory",
          "type": "address"
        }
      ],
      "name": "setFactory",
      "outputs": [],
      "stateMutability": "nonpayable",
      "type": "function"
    }
  ],
  "bytecode": "0x6080346100f557601f6118af38819003918201601f19168301916001600160401b038311848410176100fa578084926020946040528339810103126100f557516001600160a01b038116908190036100f55760017f9b779b17422d0df92223018b32b4d1fa46e071723d6817e2486d003becc55f005580156100b057600080546001600160a01b03191633179055600180546001600160a81b03191691909117905560405161179e90816101118239f35b60405162461bcd60e51b815260206004820152601360248201527f496e76616c6964204275726e547261636b6572000000000000000000000000006044820152606490fd5b600080fd5b634e487b7160e01b600052604160045260246000fdfe608080604052600436101561001357600080fd5b600090813560e01c90816307f03d4414610fca5750806336b4134a14610fae5780633be37e7914610b125780635bb47808146109d45780635bbf3783146107ce57806373b295c21461079f57806389a3027114610770578063a094a0311461072d578063aaf5eb6814610710578063be424af3146106e7578063c3f909d4146106a5578063c45a01551461067e578063d306254d14610655578063ec7d7df5146100ee5763f2355bac146100c657600080fd5b346100eb57806003193601126100eb57602060ff60015460a01c166040519015158152f35b80fd5b50346100eb5760203660031901126100eb576004356001600160a01b03811680820361046a5761011c611319565b303303610620575a604051631fa7053160e01b81529290602084600481865afa9384156106155785946105e1575b50604051638da5cb5b60e01b815293602085600481875afa9485156105d65786956105a5575b5061017c81151561108a565b610187813087611355565b6101908161141b565b6101986110cb565b9160409060146101c483516101ad8582611033565b60018152601f1985013660208301378087526110f5565b5273b31f66aa3c1e785363f0875a1b74e27b85fd66c761022283516101ea606082611033565b60028152604036602083013773b97ef9ef8734c71904d8002f8b6bc66dd9c48a6e61021b60208901928084526110f5565b5251611118565b5261271061022f8461114b565b0461012c420194854211610591578351636b34ff0960e11b8152958a9392602092889283926102649230918b60048701611163565b038185739a93a421b74f1c5755b83dd2c211614dc419c44b5af194851561046057829561055a575b50610298851515611219565b6102a1856114c7565b82516370a0823160e01b81523060048201526020816024816000805160206117498339815191525afa90811561049b578391610525575b50835163140e25ad60e31b815260048101879052602081602481876000805160206117498339815191525af19081156104e35784916104ed575b5061031d901561125a565b83516370a0823160e01b81523060048201526020816024816000805160206117498339815191525afa9081156104e35784916104a5575b506103749161036291611128565b809761036f82151561129a565b61158a565b825163950da28760e01b8152602081600481868c5af1801561049b57906103a3929161046e575b505a90611128565b9660018060a01b036001541690813b1561046a578291606483928651948593849263287bbb3d60e01b845260018060a01b03169d8e60048501526024840152600160448401525af1801561046057610447575b505051908152602081019190915260408101919091527faf8c946fad4dc7fc3f8d96e39251f3273b720222db4b39390936a6cf0eb0803690606090a360016000805160206117298339815191525580f35b8161045191611033565b61045c5786386103f6565b8680fd5b83513d84823e3d90fd5b8280fd5b61048f9060203d602011610494575b6104878183611033565b8101906112dd565b61039b565b503d61047d565b84513d85823e3d90fd5b9350506020833d6020116104db575b816104c160209383611033565b810103126104d6579151899290610374610354565b600080fd5b3d91506104b4565b85513d86823e3d90fd5b9350506020833d60201161051d575b8161050960209383611033565b810103126104d65761031d8a935190610312565b3d91506104fc565b9250506020823d602011610552575b8161054160209383611033565b810103126104d657889151386102d8565b3d9150610534565b915093506020813d602011610589575b8161057760209383611033565b810103126104d657879051933861028c565b3d915061056a565b634e487b7160e01b8a52601160045260248afd5b6105c891955060203d6020116105cf575b6105c08183611033565b81019061106b565b9338610170565b503d6105b6565b6040513d88823e3d90fd5b9093506020813d60201161060d575b816105fd60209383611033565b810103126104d65751923861014a565b3d91506105f0565b6040513d87823e3d90fd5b60405162461bcd60e51b815260206004820152600d60248201526c496e7465726e616c206f6e6c7960981b6044820152606490fd5b50346100eb57806003193601126100eb576001546040516001600160a01b039091168152602090f35b50346100eb57806003193601126100eb57546040516001600160a01b039091168152602090f35b50346100eb57806003193601126100eb5754600154604080516001600160a01b039384168152928216602084015260a09190911c60ff16151590820152606090f35b50346100eb57806003193601126100eb5760206040516000805160206117498339815191528152f35b50346100eb57806003193601126100eb5760206040516127108152f35b50346100eb57806003193601126100eb5760209060ff60015460a01c16908161075c575b506040519015158152f35b546001600160a01b03161515905038610751565b50346100eb57806003193601126100eb57602060405173b97ef9ef8734c71904d8002f8b6bc66dd9c48a6e8152f35b50346100eb57806003193601126100eb57602060405173b31f66aa3c1e785363f0875a1b74e27b85fd66c78152f35b50346100eb5760203660031901126100eb5760043567ffffffffffffffff81116109d057366023820112156109d05780600401359067ffffffffffffffff821161046a576024810190602436918460051b01011161046a5761083a60018060a01b038454163314610ff8565b811561099e57825b82811061084d578380f35b61086061085b8285856112f5565b611305565b303b1561099a5760405163ec7d7df560e01b81526001600160a01b03909116600482015284808260248183305af19182610985575b505061097d573d15610976573d67ffffffffffffffff811161096257604051906108c9601f8201601f191660200183611033565b81523d85602083013e5b6001600160a01b036108e961085b8487876112f5565b16906040519060208252805190816020840152875b82811061094c57505081604081838a837ff2432448bd7f4f83571af712c44c366acd66e1c64f00b76f244ffe5d48383e099660019a9998010152601f80199101168101030190a25b01610842565b80602080928401015160408287010152016108fe565b634e487b7160e01b85526041600452602485fd5b60606108d3565b600190610946565b8161098f91611033565b61099a578438610895565b8480fd5b60405162461bcd60e51b815260206004820152600a602482015269115b5c1d1e481b1a5cdd60b21b6044820152606490fd5b5080fd5b50346100eb5760203660031901126100eb576004356001600160a01b038116908190036109d0578015610ade5781546001600160a01b0381169033829003610aa8576001549060ff8260a01c16610a6a576001600160a01b0319168317845560ff60a01b1916600160a01b176001557f333c7678baf16017cf31e1d2f90143a62aab01a67a0807f6836a4304ceabb5558380a380f35b60405162461bcd60e51b8152602060048201526016602482015275119858dd1bdc9e48185b1c9958591e481b1bd8dad95960521b6044820152606490fd5b60405162461bcd60e51b815260206004820152600e60248201526d139bdd08185d5d1a1bdc9a5e995960921b6044820152606490fd5b60405162461bcd60e51b815260206004820152600c60248201526b5a65726f206164647265737360a01b6044820152606490fd5b50346100eb5760203660031901126100eb576004356001600160a01b0381169081810361046a57610b4d60018060a01b038454163314610ff8565b610b55611319565b5a9160405191631fa7053160e01b8352602083600481855afa928315610615578593610f7a575b50604051638da5cb5b60e01b815292602084600481865afa9384156105d6578694610f59575b50610bae81151561108a565b610bb9813086611355565b610bc28161141b565b610bca6110cb565b916040956014610bf68851610bdf8a82611033565b60018152601f198a013660208301378087526110f5565b5273b31f66aa3c1e785363f0875a1b74e27b85fd66c7610c1c88516101ea606082611033565b52612710610c298461114b565b0461012c420194854211610591578851636b34ff0960e11b8152958a939260209288928392610c5e9230918b60048701611163565b038185739a93a421b74f1c5755b83dd2c211614dc419c44b5af1948515610f4f578295610f1b575b50610c92851515611219565b610c9b856114c7565b87516370a0823160e01b81523060048201526020816024816000805160206117498339815191525afa908115610e69578391610ee9575b50885163140e25ad60e31b815260048101879052602081602481876000805160206117498339815191525af18015610eab578490610eb5575b610d1691501561125a565b88516370a0823160e01b81523060048201526020816024816000805160206117498339815191525afa908115610eab578491610e73575b50610d6891610d5b91611128565b809461036f82151561129a565b875163950da28760e01b815290602082600481868b5af1918215610e6957610d969261046e57505a90611128565b6001549096906001600160a01b0316803b1561046a57606483928a51948593849263287bbb3d60e01b845260018060a01b03169b8c60048501526024840152600160448401525af18015610e5f5791602098610e33927faf8c946fad4dc7fc3f8d96e39251f3273b720222db4b39390936a6cf0eb08036969594610e4f575b50508751938493846040919493926060820195825260208201520152565b0390a36001600080516020611729833981519152555160018152f35b81610e5991611033565b38610e15565b87513d8a823e3d90fd5b89513d85823e3d90fd5b90506020813d602011610ea3575b81610e8e60209383611033565b81010312610e9f5751610d68610d4d565b8380fd5b3d9150610e81565b8a513d86823e3d90fd5b506020813d602011610ee1575b81610ecf60209383611033565b81010312610e9f57610d169051610d0b565b3d9150610ec2565b90506020813d602011610f13575b81610f0460209383611033565b8101031261046a575138610cd2565b3d9150610ef7565b9094506020813d602011610f47575b81610f3760209383611033565b810103126109d057519338610c86565b3d9150610f2a565b88513d84823e3d90fd5b610f7391945060203d6020116105cf576105c08183611033565b9238610ba2565b9092506020813d602011610fa6575b81610f9660209383611033565b8101031261099a57519138610b7c565b3d9150610f89565b50346100eb57806003193601126100eb57602060405160648152f35b9050346109d057816003193601126109d05780739a93a421b74f1c5755b83dd2c211614dc419c44b60209252f35b15610fff57565b60405162461bcd60e51b815260206004820152600c60248201526b4f6e6c7920666163746f727960a01b6044820152606490fd5b90601f8019910116810190811067ffffffffffffffff82111761105557604052565b634e487b7160e01b600052604160045260246000fd5b908160209103126104d657516001600160a01b03811681036104d65790565b1561109157565b60405162461bcd60e51b815260206004820152601260248201527142757920616d6f756e74206973207a65726f60701b6044820152606490fd5b604051906040820182811067ffffffffffffffff8211176110555760405260606020838281520152565b8051156111025760200190565b634e487b7160e01b600052603260045260246000fd5b8051600110156111025760400190565b9190820391821161113557565b634e487b7160e01b600052601160045260246000fd5b906126ac8202918083046126ac149015171561113557565b929190959493958352602083015260a0604083015260e0820190805191604060a085015282518091526020610100850193019060005b818110611203575050506020015190609f198382030160c08401526020808351928381520192019060005b8181106111e4575050506001600160a01b03909416606082015260800152565b82516001600160a01b03168452602093840193909201916001016111c4565b8251855260209485019490920191600101611199565b1561122057565b60405162461bcd60e51b8152602060048201526012602482015271537761702072657475726e6564207a65726f60701b6044820152606490fd5b1561126157565b60405162461bcd60e51b815260206004820152601160248201527010995b9c5a481b5a5b9d0819985a5b1959607a1b6044820152606490fd5b156112a157565b60405162461bcd60e51b8152602060048201526014602482015273139bc81c5a551bdad95b9cc81c9958d95a5d995960621b6044820152606490fd5b908160209103126104d6575180151581036104d65790565b91908110156111025760051b0190565b356001600160a01b03811681036104d65790565b6002600080516020611729833981519152541461134457600260008051602061172983398151915255565b633ee5aeb560e01b60005260046000fd5b6040516323b872dd60e01b60009081526001600160a01b03928316600452929091166024526044929092526020906064818073b97ef9ef8734c71904d8002f8b6bc66dd9c48a6e5af1906001600051148216156113e5575b6040526000606052156113bc57565b635274afe760e01b60005273b97ef9ef8734c71904d8002f8b6bc66dd9c48a6e60045260246000fd5b9060018115166114115773b97ef9ef8734c71904d8002f8b6bc66dd9c48a6e3b15153d151616906113ad565b503d6000823e3d90fd5b61144e81739a93a421b74f1c5755b83dd2c211614dc419c44b73b97ef9ef8734c71904d8002f8b6bc66dd9c48a6e611628565b156114565750565b611488739a93a421b74f1c5755b83dd2c211614dc419c44b73b97ef9ef8734c71904d8002f8b6bc66dd9c48a6e611682565b156113bc576114c090739a93a421b74f1c5755b83dd2c211614dc419c44b73b97ef9ef8734c71904d8002f8b6bc66dd9c48a6e6116ea565b156113bc57565b6114f48160008051602061174983398151915273b31f66aa3c1e785363f0875a1b74e27b85fd66c7611628565b156114fc5750565b61152860008051602061174983398151915273b31f66aa3c1e785363f0875a1b74e27b85fd66c7611682565b156115615761155a9060008051602061174983398151915273b31f66aa3c1e785363f0875a1b74e27b85fd66c76116ea565b1561156157565b635274afe760e01b60005273b31f66aa3c1e785363f0875a1b74e27b85fd66c760045260246000fd5b60405163a9059cbb60e01b60009081526001600160a01b03909216600452602492909252602090604481806000805160206117498339815191525af190600160005114821615611602575b604052156115df57565b635274afe760e01b60005260008051602061174983398151915260045260246000fd5b906001811516611411576000805160206117498339815191523b15153d151616906115d5565b60405163095ea7b360e01b60009081526001600160a01b039093166004526024939093529092919060208460448180855af193600181511485161561166f575b5050604052565b939193503b15153d151616913880611668565b60405163095ea7b360e01b60009081526001600160a01b03909316600452602483905290929160209060448180875af1926001600051148416156116c7575b50604052565b600184929415166116e0573b15153d15161691386116c1565b833d6000823e3d90fd5b92916040519163095ea7b360e01b60005260018060a01b03166004526024526020600060448180875af1926001600051148416156116c7575060405256fe9b779b17422d0df92223018b32b4d1fa46e071723d6817e2486d003becc55f000000000000000000000000005c0401e81e6953a22c95311bc54060bde84b1022a2646970667358221220f8bd891246a5d51bb3be98ad45ac4c5dd7e647f1326c2c3a464d6aec553dcd4964736f6c634300081c0033",
  "linkReferences": {},
  "deployedLinkReferences": {}
}