{
  "_format": "hh-sol-artifact-1",
  "contractName": "ExecutionEngine",
  "sourceName": "contracts/ExecutionEngine.sol",
  "abi": [
    {
      "inputs": [
        {
          "internalType": "address",
          "name": "_burnTracker",
          "type": "address"
        }
      ],
      "stateMutability": "nonpayable",
      "type": "constructor"
    },
    {
      "inputs": [],
      "name": "ReentrancyGuardReentrantCall",
      "type": "error"
    },
    {
      "inputs": [
        {
          "internalType": "address",
          "name": "token",
          "type": "address"
        }
      ],
      "name": "SafeERC20FailedOperation",
      "type": "error"
    },
    {
      "anonymous": false,
      "inputs": [
        {
          "indexed": true,
          "internalType": "address",
          "name": "vault",
          "type": "address"
        },
        {
          "indexed": true,
          "internalType": "address",
          "name": "user",
          "type": "address"
        },
        {
          "indexed": false,
          "internalType": "uint256",
          "name": "usdcSpent",
          "type": "uint256"
        },
        {
          "indexed": false,
          "internalType": "uint256",
          "name": "avaxReceived",
          "type": "uint256"
        },
        {
          "indexed": false,
          "internalType": "uint256",
          "name": "qiTokens",
          "type": "uint256"
        }
      ],
      "name": "DCAExecuted",
      "type": "event"
    },
    {
      "anonymous": false,
      "inputs": [
        {
          "indexed": true,
          "internalType": "address",
          "name": "vault",
          "type": "address"
        },
        {
          "indexed": false,
          "internalType": "bytes",
          "name": "reason",
          "type": "bytes"
        }
      ],
      "name": "DCAFailed",
      "type": "event"
    },
    {
      "anonymous": false,
      "inputs": [
        {
          "indexed": true,
          "internalType": "address",
          "name": "oldFactory",
          "type": "address"
        },
        {
          "indexed": true,
          "internalType": "address",
          "name": "newFactory",
          "type": "address"
        }
      ],
      "name": "FactoryUpdated",
      "type": "event"
    },
    {
      "inputs": [],
      "name": "BENQI_qiAVAX",
      "outputs": [
        {
          "internalType": "address",
          "name": "",
          "type": "address"
        }
      ],
      "stateMutability": "view",
      "type": "function"
    },
    {
      "inputs": [],
      "name": "LB_ROUTER",
      "outputs": [
        {
          "internalType": "address",
          "name": "",
          "type": "address"
        }
      ],
      "stateMutability": "view",
      "type": "function"
    },
    {
      "inputs": [],
      "name": "PRECISION",
      "outputs": [
        {
          "internalType": "uint256",
          "name": "",
          "type": "uint256"
        }
      ],
      "stateMutability": "view",
      "type": "function"
    },
    {
      "inputs": [],
      "name": "SLIPPAGE",
      "outputs": [
        {
          "internalType": "uint256",
          "name": "",
          "type": "uint256"
        }
      ],
      "stateMutability": "view",
      "type": "function"
    },
    {
      "inputs": [],
      "name": "USDC",
      "outputs": [
        {
          "internalType": "address",
          "name": "",
          "type": "address"
        }
      ],
      "stateMutability": "view",
      "type": "function"
    },
    {
      "inputs": [],
      "name": "WAVAX",
      "outputs": [
        {
          "internalType": "address",
          "name": "",
          "type": "address"
        }
      ],
      "stateMutability": "view",
      "type": "function"
    },
    {
      "inputs": [
        {
          "internalType": "address",
          "name": "vault",
          "type": "address"
        }
      ],
      "name": "_executeInternal",
      "outputs": [],
      "stateMutability": "nonpayable",
      "type": "function"
    },
    {
      "inputs": [],
      "name": "burnTracker",
      "outputs": [
        {
          "internalType": "contract BurnTracker",
          "name": "",
          "type": "address"
        }
      ],
      "stateMutability": "view",
      "type": "function"
    },
    {
      "inputs": [
        {
          "internalType": "address[]",
          "name": "vaults",
          "type": "address[]"
        }
      ],
      "name": "executeBatch",
      "outputs": [],
      "stateMutability": "nonpayable",
      "type": "function"
    },
    {
      "inputs": [
        {
          "internalType": "address",
          "name": "vault",
          "type": "address"
        }
      ],
      "name": "executeDCA",
      "outputs": [
        {
          "internalType": "bool",
          "name": "",
          "type": "bool"
        }
      ],
      "stateMutability": "nonpayable",
      "type": "function"
    },
    {
      "inputs": [],
      "name": "factory",
      "outputs": [
        {
          "internalType": "address",
          "name": "",
          "type": "address"
        }
      ],
      "stateMutability": "view",
      "type": "function"
    },
    {
      "inputs": [],
      "name": "factoryLocked",
      "outputs": [
        {
          "internalType": "bool",
          "name": "",
          "type": "bool"
        }
      ],
      "stateMutability": "view",
      "type": "function"
    },
    {
      "inputs": [],
      "name": "getConfig",
      "outputs": [
        {
          "internalType": "address",
          "name": "_factory",
          "type": "address"
        },
        {
          "internalType": "address",
          "name": "_burnTracker",
          "type": "address"
        },
        {
          "internalType": "bool",
          "name": "_factoryLocked",
          "type": "bool"
        }
      ],
      "stateMutability": "view",
      "type": "function"
    },
    {
      "inputs": [],
      "name": "isReady",
      "outputs": [
        {
          "internalType": "bool",
          "name": "",
          "type": "bool"
        }
      ],
      "stateMutability": "view",
      "type": "function"
    },
    {
      "inputs": [
        {
          "internalType": "address",
          "name": "_factory",
          "type": "address"
        }
      ],
      "name": "setFactory",
      "outputs": [],
      "stateMutability": "nonpayable",
      "type": "function"
    }
  ],
  "bytecode": "0x60806040523461002a576100196100146100c2565b6101be565b604051611ac86102998239611ac890f35b600080fd5b634e487b7160e01b600052604160045260246000fd5b90601f01601f191681019081106001600160401b0382111761006657604052565b61002f565b9061007f61007860405190565b9283610045565b565b6001600160a01b031690565b90565b6001600160a01b0381160361002a57565b9050519061007f82610090565b9060208282031261002a5761008d916100a1565b61008d611d61803803806100d58161006b565b9283398101906100ae565b61008161008d61008d9290565b61008d906100e0565b156100fd57565b60405162461bcd60e51b815260206004820152601360248201527f496e76616c6964204275726e547261636b6572000000000000000000000000006044820152606490fd5b906001600160a01b03905b9181191691161790565b61008d90610081906001600160a01b031682565b61008d90610157565b61008d9061016b565b9061018d61008d61019492610174565b8254610142565b9055565b9060ff60a01b9060a01b61014d565b906101b761008d61019492151590565b8254610198565b6101fe610205916101cd610249565b6101ee6101dd61008160006100ed565b6001600160a01b03831614156100f6565b6101f933600061017d565b610174565b600161017d565b61007f600060016101a7565b61008d61008d61008d9290565b61008d6001610211565b906000199061014d565b9061024261008d61019492610211565b8254610228565b61007f61025461021e565b600061026161008d610290565b01610232565b61008d7f9b779b17422d0df92223018b32b4d1fa46e071723d6817e2486d003becc55f00610211565b61008d61026756fe6080604052600436101561001257600080fd5b60003560e01c806307f03d441461010257806336b4134a146100fd5780633be37e79146100f85780635bb47808146100f35780635bbf3783146100ee57806373b295c2146100e957806389a30271146100e4578063a094a031146100df578063aaf5eb68146100da578063be424af3146100d5578063c3f909d4146100d0578063c45a0155146100cb578063d306254d146100c6578063ec7d7df5146100c15763f2355bac03610107576104be565b610480565b610459565b6103f3565b61039f565b610350565b610335565b610307565b6102da565b6102ad565b610294565b61021d565b6101f0565b610192565b61012c565b600080fd5b600091031261010757565b90565b6001600160a01b031690565b9052565b565b346101075761013c36600461010c565b61016f739a93a421b74f1c5755b83dd2c211614dc419c44b5b604051918291826001600160a01b03909116815260200190565b0390f35b6101176101176101179290565b6101176064610173565b610117610180565b34610107576101a236600461010c565b61016f6101ad61018a565b6040519182918290815260200190565b6001600160a01b0381165b0361010757565b9050359061012a826101bd565b9060208282031261010757610117916101cf565b346101075761016f61020b6102063660046101dc565b610f61565b60405191829182901515815260200190565b34610107576102356102303660046101dc565b6110ab565b604051005b909182601f830112156101075781359167ffffffffffffffff831161010757602001926020830284011161010757565b9060208282031261010757813567ffffffffffffffff811161010757610290920161023a565b9091565b34610107576102356102a736600461026a565b9061138b565b34610107576102bd36600461010c565b61016f73b31f66aa3c1e785363f0875a1b74e27b85fd66c7610155565b34610107576102ea36600461010c565b61016f73b97ef9ef8734c71904d8002f8b6bc66dd9c48a6e610155565b346101075761031736600461010c565b61016f61020b611395565b610117612710610173565b610117610322565b346101075761034536600461010c565b61016f6101ad61032d565b346101075761036036600461010c565b61016f735c0401e81e6953a22c95311bc54060bde84b1022610155565b6001600160a01b03918216815291166020820152901515604082015260600190565b34610107576103af36600461010c565b61016f6103ba6113d4565b6040519193919384938461037d565b610117916008021c6001600160a01b031690565b9061011791546103c9565b6101176000806103dd565b346101075761040336600461010c565b61016f6101556103e8565b610117600060016103dd565b6101179061011a906001600160a01b031682565b6101179061041a565b6101179061042e565b61012690610437565b60208101929161012a9190610440565b346101075761046936600461010c565b61016f61047461040e565b60405191829182610449565b34610107576102356104933660046101dc565b6117aa565b610117916008021c5b60ff1690565b906101179154610498565b610117601460016104a7565b34610107576104ce36600461010c565b61016f61020b6104b2565b6101179061011a565b61011790546104d9565b0190565b156104f757565b60405162461bcd60e51b815260206004820152600c60248201526b4f6e6c7920666163746f727960a01b604482015280606481015b0390fd5b906101179161054c61054561011a60006104e2565b33146104f0565b9061055e916105596117de565b6109d1565b9061012a61180e565b634e487b7160e01b600052604160045260246000fd5b90601f01601f1916810190811067ffffffffffffffff82111761059f57604052565b610567565b806101c8565b9050519061012a826105a4565b9060208282031261010757610117916105aa565b6040513d6000823e3d90fd5b9050519061012a826101bd565b9060208282031261010757610117916105d7565b156105ff57565b60405162461bcd60e51b815260206004820152601260248201527142757920616d6f756e74206973207a65726f60701b6044820152606490fd5b9061012a61064660405190565b928361057d565b6101176040610639565b61065f61064d565b906060825260606020830152565b610117610657565b67ffffffffffffffff811161059f5760208091020190565b9061069f61069a83610675565b610639565b918252565b369037565b9061012a6106bf6106b98461068d565b93610675565b601f1901602084016106a4565b634e487b7160e01b600052603260045260246000fd5b906106eb825190565b8110156106fc576020809102010190565b6106cc565b634e487b7160e01b600052601160045260246000fd5b9190820391821161072457565b610701565b8181029291811591840414171561072457565b634e487b7160e01b600052601260045260246000fd5b9061075c565b9190565b908115610767570490565b61073c565b9190820180921161072457565b90610799610792610788845190565b8084529260200190565b9260200190565b9060005b8181106107aa5750505090565b9091926107c76107c06001928651815260200190565b9460200190565b92910161079d565b906107de610792610788845190565b9060005b8181106107ef5750505090565b90919261080e6107c060019286516001600160a01b0316815260200190565b9291016107e2565b8051604080845261011793916020916108329190840190610779565b9201519060208184039101526107cf565b9061087b61088d9161012a9698979561086e60809661086760a08801946000890152565b6020870152565b8482036040860152610816565b6001600160a01b039097166060830152565b0152565b1561089857565b60405162461bcd60e51b8152602060048201526012602482015271537761702072657475726e6564207a65726f60701b6044820152606490fd5b156108d957565b60405162461bcd60e51b815260206004820152601160248201527010995b9c5a481b5a5b9d0819985a5b1959607a1b6044820152606490fd5b1561091957565b60405162461bcd60e51b8152602060048201526014602482015273139bc81c5a551bdad95b9cc81c9958d95a5d995960621b6044820152606490fd5b8015156101c8565b9050519061012a82610955565b90602082820312610107576101179161095d565b61012690610173565b6001600160a01b03909116815260608101939261012a9290916040916109af905b6020830152565b019061097e565b90815260608101939261012a92909160409161088d906109a8565b505a906109e86109e36109e383610437565b610437565b604051631fa7053160e01b8152602081600481855afa908115610e3b57600091610f42575b50604051638da5cb5b60e01b815293602085600481865afa918215610e3b57610ac495600093610f12575b50829360209350600090610a56610a4e83610173565b845b116105f8565b73b97ef9ef8734c71904d8002f8b6bc66dd9c48a6e93610a7585610437565b94610a7f30610437565b9686610a8e878a8c819b611819565b610aaf87739a93a421b74f1c5755b83dd2c211614dc419c44b5b8093611864565b610ab761066d565b90610b5160019d8e610173565b94610af8610ad1876106a9565b8a8601908152610af5610ae46014610173565b9151610aef8d610173565b906106e2565b52565b610b30610b0d610b086002610173565b6106a9565b91868601928352610b228351610aef8d610173565b906001600160a01b03169052565b610b2273b31f66aa3c1e785363f0875a1b74e27b85fd66c7968792516106e2565b610b876109e3610b81610b62610322565b610b7c610b76610b70610180565b83610717565b8d610729565b610752565b92610437565b908789610bbe610ba1610b9b61012c610173565b4261076c565b6040519d8e9788968795636b34ff0960e11b875260048701610843565b03925af1958615610e3b578496610eed575b50610be8906109e3610be186610173565b8811610891565b95610c0a86735c0401e81e6953a22c95311bc54060bde84b10225b8099611864565b610c1387610437565b610c1c81610437565b916370a0823192610c2c60405190565b99610c378560e01b90565b8b526001600160a01b03831660048c015260208b602481855afa9a8b15610e3b57889b610eb9575b50906020610c9d610c746109e38b9695610437565b8c610c7e60405190565b968793849283919063140e25ad60e31b83526004830190815260200190565b03925af18015610e3b57610cf695610ccf610cdf926020968c91610e9c575b50610cc96107588d610173565b146108d2565b6040519687948593849360e01b90565b83526001600160a01b031660048301526024820190565b03915afa918215610e3b578a98610d3393610d18928891610e6d575b50610717565b998a91610d2e610d2788610173565b8411610912565b6118d5565b6020610d3e60405190565b63950da28760e01b8152928390600490829087905af1918215610e3b57610d6c92610e40575b505a90610717565b610d786109e3896104e2565b803b1561010757888391610dab93838a610d9160405190565b9687958694859363287bbb3d60e01b855260048501610987565b03925af18015610e3b577faf8c946fad4dc7fc3f8d96e39251f3273b720222db4b39390936a6cf0eb0803695610e0893610df593610def93610e0e575b5050610437565b95610437565b95610dff60405190565b938493846109b6565b0390a390565b81610e2d92903d10610e34575b610e25818361057d565b81019061010c565b3880610de8565b503d610e1b565b6105cb565b610e619060203d602011610e66575b610e59818361057d565b81019061096a565b610d64565b503d610e4f565b610e8f915060203d602011610e95575b610e87818361057d565b8101906105b7565b38610d12565b503d610e7d565b610eb39150873d8911610e9557610e87818361057d565b38610cbc565b889392919b50610c9d610c746109e3610ee0602094853d8711610e9557610e87818361057d565b9e94959650505050610c5f565b610be8919650610f0b9060203d602011610e9557610e87818361057d565b9590610bd0565b60209350610f3590843d8611610f3b575b610f2d818361057d565b8101906105e4565b92610a38565b503d610f23565b610f5b915060203d602011610e9557610e87818361057d565b38610a0d565b610117906000610530565b61011a6101176101179290565b61011790610f6c565b15610f8957565b60405162461bcd60e51b815260206004820152600c60248201526b5a65726f206164647265737360a01b6044820152606490fd5b15610fc457565b60405162461bcd60e51b815260206004820152600e60248201526d139bdd08185d5d1a1bdc9a5e995960921b6044820152606490fd5b6101179060a01c6104a1565b6101179054610ffa565b1561101757565b60405162461bcd60e51b8152602060048201526016602482015275119858dd1bdc9e48185b1c9958591e481b1bd8dad95960521b6044820152606490fd5b906001600160a01b03905b9181191691161790565b9061107a61011761108192610437565b8254611055565b9055565b9060ff60a01b9060a01b611060565b906110a461011761108192151590565b8254611085565b6110cc6110bb61011a6000610f79565b6001600160a01b0383161415610f82565b6110e36110dc61011a60006104e2565b3314610fbd565b6110fc6110f76110f36001611006565b1590565b611010565b61112861112261110c60006104e2565b61111784600061106a565b6109e3600180611094565b91610437565b907f333c7678baf16017cf31e1d2f90143a62aab01a67a0807f6836a4304ceabb55561115360405190565b80805b0390a3565b9061012a9161117061054561011a60006104e2565b611279565b1561117c57565b60405162461bcd60e51b815260206004820152600a602482015269115b5c1d1e481b1a5cdd60b21b6044820152606490fd5b91908110156106fc576020020190565b35610117816101bd565b67ffffffffffffffff811161059f57602090601f01601f19160190565b9061069f61069a836111c8565b3d1561120c576112013d6111e5565b903d6000602084013e565b606090565b60005b8381106112245750506000910152565b8181015183820152602001611214565b61125561125e6020936104ec93611249815190565b80835293849260200190565b95869101611211565b601f01601f191690565b602080825261011792910190611234565b8160009361129061128986610173565b8511611175565b61129985610173565b845b811015611383576112ab30610437565b6112be6112b98386886111ae565b6111be565b91813b156101075787806112f161135a9461129b966112dc60405190565b948593849283919063ec7d7df560e01b610cdf565b03925af19081611367575b50611361576113096111f2565b7ff2432448bd7f4f83571af712c44c366acd66e1c64f00b76f244ffe5d48383e0961135161133e6109e36112b9868b8d6111ae565b9261134860405190565b91829182611268565b0390a260010190565b9050611299565b60010190565b61137d908a3d8c11610e3457610e25818361057d565b386112fc565b509350505050565b9061012a9161115b565b61139f6001611006565b806113a75790565b506113b260006104e2565b6113cf6113c261011a6000610f79565b916001600160a01b031690565b141590565b6113de60006104e2565b6113eb6109e360016104e2565b916113f66001611006565b91929190565b61140d906114086117de565b611451565b61012a61180e565b1561141c57565b60405162461bcd60e51b815260206004820152600d60248201526c496e7465726e616c206f6e6c7960981b6044820152606490fd5b61145a30610437565b61146e6001600160a01b0382163314611415565b61147a6109e383610437565b6114845a91610437565b9161148e60405190565b631fa7053160e01b8152602081600481875afa908115610e3b5760009161178b575b50604051638da5cb5b60e01b815292602084600481885afa938415610e3b5760009461176a575b5083948394506000916114f26114ec84610173565b85610a50565b73b97ef9ef8734c71904d8002f8b6bc66dd9c48a6e602061151282610437565b61151e87898c84611819565b61153c87739a93a421b74f1c5755b83dd2c211614dc419c44b610aa8565b61154461066d565b90611552610ac46001610173565b6115636109e3610b81610b62610322565b908789611577610ba1610b9b61012c610173565b03925af1958615610e3b578496611745575b5061159a906109e3610be186610173565b956115b986735c0401e81e6953a22c95311bc54060bde84b1022610c03565b6115c287610437565b6115cb81610437565b916370a08231926115db60405190565b996115e68560e01b90565b8b526001600160a01b03831660048c015260208b602481855afa9a8b15610e3b57889b611711575b50906020611623610c746109e38b9695610437565b03925af18015610e3b5761164e95610ccf610cdf926020968c91610e9c5750610cc96107588d610173565b03915afa918215610e3b578a9861166f93610d18928891610e6d5750610717565b602061167a60405190565b63950da28760e01b8152928390600490829087905af1918215610e3b576116a792610e4057505a90610717565b6116b46109e360016104e2565b803b1561010757600183916116ce93838a610d9160405190565b03925af18015610e3b577faf8c946fad4dc7fc3f8d96e39251f3273b720222db4b39390936a6cf0eb080369561115693610df593610def93610e0e575050610437565b889392919b50611623610c746109e3611738602094853d8711610e9557610e87818361057d565b9e9495965050505061160e565b61159a9196506117639060203d602011610e9557610e87818361057d565b9590611589565b8394506117859060203d602011610f3b57610f2d818361057d565b936114d7565b6117a4915060203d602011610e9557610e87818361057d565b386114b0565b61012a906113fc565b6101176002610173565b9060001990611060565b906117d761011761108192610173565b82546117bd565b6117e66118e6565b61012a6117f16117b3565b60006117fe61011761192f565b016117c7565b6101176001610173565b61012a6117f1611804565b9260019061182b936110f39386611937565b6118325750565b61185f611840600092610437565b635274afe760e01b83526001600160a01b031660048301526024820190565b036000fd5b90916000926118786110f3858484876119b0565b611883575b50505050565b61189b6110f3600161189487610173565b84876119b0565b6118c75760016118af926110f392856119b0565b6118ba57808061187d565b61052c6118408392610437565b838061052c61184086610437565b9160016110f39161182b9385611a12565b6118ee611a6a565b6118f457565b633ee5aeb560e01b6000908152600490fd5b6101177f9b779b17422d0df92223018b32b4d1fa46e071723d6817e2486d003becc55f00610173565b610117611906565b6040516323b872dd60e01b60009081526001600160a01b0393841660045293909216602452604493909352929392919060209060648180855af19360016000511485161561198c575b50506040526000606052565b84929415166119a6576000903b113d151616913880611980565b833d6000823e3d90fd5b60405163095ea7b360e01b60009081526001600160a01b039093166004526024939093529293929060209060448180855af1936001600051148516156119f8575b5050604052565b84929415166119a6576000903b113d1516169138806119f1565b60405163a9059cbb60e01b60009081526001600160a01b039093166004526024939093529293929060209060448180855af1936001600051148516156119f8575050604052565b6101179081565b6101179054611a59565b611a806000611a7a61011761192f565b01611a60565b611a8e6107586101176117b3565b149056fea2646970667358221220ad93bcd29ab256142be7a8d691b0291bdffc04044fffc5fcb8186442afe6b98c64736f6c634300081c0033",
  "linkReferences": {},
  "deployedLinkReferences": {}
}