{
  "_format": "hh-sol-artifact-1",
  "contractName": "BurnTracker",
  "sourceName": "contracts/BurnTracker.sol",
  "abi": [
    {
      "anonymous": false,
      "inputs": [
        {
          "indexed": false,
          "internalType": "address",
          "name": "user",
          "type": "address"
        },
        {
          "indexed": false,
          "internalType": "uint256",
          "name": "gasUsed",
          "type": "uint256"
        },
        {
          "indexed": false,
          "internalType": "uint256",
          "name": "txCount",
          "type": "uint256"
        }
      ],
      "name": "GasTracked",
      "type": "event"
    },
    {
      "inputs": [],
      "name": "getMyStats",
      "outputs": [
        {
          "components": [
            {
              "internalType": "uint256",
              "name": "totalGasUsed",
              "type": "uint256"
            },
            {
              "internalType": "uint256",
              "name": "totalTransactions",
              "type": "uint256"
            },
            {
              "internalType": "uint256",
              "name": "avaxBurned",
              "type": "uint256"
            }
          ],
          "internalType": "struct BurnTracker.UserStats",
          "name": "",
          "type": "tuple"
        }
      ],
      "stateMutability": "view",
      "type": "function"
    },
    {
      "inputs": [
        {
          "internalType": "address",
          "name": "user",
          "type": "address"
        },
        {
          "internalType": "uint256",
          "name": "gasUsed",
          "type": "uint256"
        },
        {
          "internalType": "uint256",
          "name": "txCount",
          "type": "uint256"
        }
      ],
      "name": "recordUsage",
      "outputs": [],
      "stateMutability": "nonpayable",
      "type": "function"
    },
    {
      "inputs": [
        {
          "internalType": "address",
          "name": "",
          "type": "address"
        }
      ],
      "name": "userStats",
      "outputs": [
        {
          "internalType": "uint256",
          "name": "totalGasUsed",
          "type": "uint256"
        },
        {
          "internalType": "uint256",
          "name": "totalTransactions",
          "type": "uint256"
        },
        {
          "internalType": "uint256",
          "name": "avaxBurned",
          "type": "uint256"
        }
      ],
      "stateMutability": "view",
      "type": "function"
    }
  ],
  "bytecode": "0x60806040523460195760405161046361001f823961046390f35b600080fdfe6080604052600436101561001257600080fd5b60003560e01c8063287bbb3d146100425780637a52723e1461003d57638a65d87403610047576101fa565b610121565b6100bf565b600080fd5b6001600160a01b031690565b90565b6001600160a01b0381165b0361004757565b9050359061007a8261005b565b565b80610066565b9050359061007a8261007c565b9091606082840312610047576100586100a8848461006d565b9360406100b88260208701610082565b9401610082565b34610047576100d86100d236600461008f565b916102a5565b60405180805b0390f35b600091031261004757565b8051825261007a9190604090819061010a60208201516020860152565b0151910152565b60608101929161007a91906100ed565b34610047576101313660046100e2565b6100de61013c610411565b60405191829182610111565b90602082820312610047576100589161006d565b6100589061004c906001600160a01b031682565b6100589061015c565b61005890610170565b9061018c90610179565b600052602052604060002090565b6100589081565b610058905461019a565b6101b6906000610182565b6101bf816101a1565b9161005860026101d1600185016101a1565b93016101a1565b90815260608101939261007a9290916040916101f6905b6020830152565b0152565b34610047576100de610215610210366004610148565b6101ab565b604051919391938493846101d8565b634e487b7160e01b600052601160045260246000fd5b9190820180921161024757565b610224565b6100586100586100589290565b906100586100586102699261024c565b9055565b8181029291811591840414171561024757565b6001600160a01b03909116815260608101939261007a9290916040916101f6906101ef565b61033f7fc8d15027016f06bce945af08d67204532f647fe6ea775c5e663a923a85ab1336936103336102db610058856000610182565b6102f7816102f1886102ec836101a1565b61023a565b90610259565b61030b600182016102f1856102ec836101a1565b6102f160026103276103216405d21dba0061024c565b8961026d565b9201916102ec836101a1565b60405193849384610280565b0390a1565b634e487b7160e01b600052604160045260246000fd5b90601f01601f1916810190811067ffffffffffffffff82111761037c57604052565b610344565b9061007a61038e60405190565b928361035a565b6100586060610381565b6103a7610395565b600080825260208201819052604082015290565b61005861039f565b9061007a61040160026103d4610395565b946103e56103e1826101a1565b8752565b6103fb6103f4600183016101a1565b6020880152565b016101a1565b6040840152565b610058906103c3565b6104196103bb565b50610058610428336000610182565b61040856fea2646970667358221220637416ed84313d4f2d603cd41aaeada67bc085f999c9fd250169eca14144cda064736f6c634300081c0033",
  "linkReferences": {},
  "deployedLinkReferences": {}
}