{
  "contracts/DCAFactory.sol": {
    "DCAFactory": {
      "abi": [
        {
          "inputs": [],
          "stateMutability": "nonpayable",
          "type": "constructor"
        },
        {
          "anonymous": false,
          "inputs": [
            {
              "indexed": true,
              "internalType": "address",
              "name": "burnTracker",
              "type": "address"
            }
          ],
          "name": "BurnTrackerSet",
          "type": "event"
        },
        {
          "anonymous": false,
          "inputs": [
            {
              "indexed": true,
              "internalType": "address",
              "name": "vault",
              "type": "address"
            },
            {
              "indexed": true,
              "internalType": "address",
              "name": "user",
              "type": "address"
            }
          ],
          "name": "DCATriggered",
          "type": "event"
        },
        {
          "anonymous": false,
          "inputs": [
            {
              "indexed": true,
              "internalType": "address",
              "name": "executionEngine",
              "type": "address"
            }
          ],
          "name": "ExecutionEngineSet",
          "type": "event"
        },
        {
          "anonymous": false,
          "inputs": [
            {
              "indexed": true,
              "internalType": "address",
              "name": "user",
              "type": "address"
            },
            {
              "indexed": true,
              "internalType": "address",
              "name": "vault",
              "type": "address"
            }
          ],
          "name": "VaultCreated",
          "type": "event"
        },
        {
          "inputs": [
            {
              "internalType": "uint256",
              "name": "",
              "type": "uint256"
            }
          ],
          "name": "allVaults",
          "outputs": [
            {
              "internalType": "address",
              "name": "",
              "type": "address"
            }
          ],
          "stateMutability": "view",
          "type": "function"
        },
        {
          "inputs": [],
          "name": "burnTracker",
          "outputs": [
            {
              "internalType": "address",
              "name": "",
              "type": "address"
            }
          ],
          "stateMutability": "view",
          "type": "function"
        },
        {
          "inputs": [
            {
              "internalType": "uint256",
              "name": "_buyAmount",
              "type": "uint256"
            },
            {
              "internalType": "uint256",
              "name": "_frequency",
              "type": "uint256"
            }
          ],
          "name": "createVault",
          "outputs": [
            {
              "internalType": "address",
              "name": "",
              "type": "address"
            }
          ],
          "stateMutability": "nonpayable",
          "type": "function"
        },
        {
          "inputs": [],
          "name": "executionEngine",
          "outputs": [
            {
              "internalType": "address",
              "name": "",
              "type": "address"
            }
          ],
          "stateMutability": "view",
          "type": "function"
        },
        {
          "inputs": [],
          "name": "getAllVaults",
          "outputs": [
            {
              "internalType": "address[]",
              "name": "",
              "type": "address[]"
            }
          ],
          "stateMutability": "view",
          "type": "function"
        },
        {
          "inputs": [],
          "name": "getMyVault",
          "outputs": [
            {
              "internalType": "address",
              "name": "",
              "type": "address"
            }
          ],
          "stateMutability": "view",
          "type": "function"
        },
        {
          "inputs": [],
          "name": "owner",
          "outputs": [
            {
              "internalType": "address",
              "name": "",
              "type": "address"
            }
          ],
          "stateMutability": "view",
          "type": "function"
        },
        {
          "inputs": [
            {
              "internalType": "address",
              "name": "_burnTracker",
              "type": "address"
            }
          ],
          "name": "setBurnTracker",
          "outputs": [],
          "stateMutability": "nonpayable",
          "type": "function"
        },
        {
          "inputs": [
            {
              "internalType": "address",
              "name": "_executionEngine",
              "type": "address"
            }
          ],
          "name": "setExecutionEngine",
          "outputs": [],
          "stateMutability": "nonpayable",
          "type": "function"
        },
        {
          "inputs": [
            {
              "internalType": "address[]",
              "name": "users",
              "type": "address[]"
            }
          ],
          "name": "triggerBatchDCA",
          "outputs": [],
          "stateMutability": "nonpayable",
          "type": "function"
        },
        {
          "inputs": [
            {
              "internalType": "address",
              "name": "user",
              "type": "address"
            }
          ],
          "name": "triggerDCA",
          "outputs": [],
          "stateMutability": "nonpayable",
          "type": "function"
        },
        {
          "inputs": [
            {
              "internalType": "address",
              "name": "",
              "type": "address"
            }
          ],
          "name": "userVault",
          "outputs": [
            {
              "internalType": "address",
              "name": "",
              "type": "address"
            }
          ],
          "stateMutability": "view",
          "type": "function"
        }
      ],
      "evm": {
        "bytecode": {
          "linkReferences": {},
          "object": "60808060405234602757600080546001600160a01b0319163317905561197c908161002d8239f35b600080fdfe6080604052600436101561001257600080fd5b60003560e01c806323a92172146100d757806348861e1c146100d25780635064e065146100cd5780636f8206ba146100c85780638303efef146100c35780638da5cb5b146100be5780639094a91e146100b957806397331bf9146100b4578063ab2cba85146100af578063d306254d146100aa578063d42a0a32146100a55763e5fbab85146100a057600080fd5b610639565b6104b8565b61048f565b6103fc565b61036c565b6102ce565b61028f565b61024a565b610218565b6101b9565b610126565b6100ec565b60009103126100e757565b600080fd5b346100e75760003660031901126100e7576001546040516001600160a01b039091168152602090f35b6001600160a01b038116036100e757565b346100e75760203660031901126100e75760043561014381610115565b61015860018060a01b036000541633146107aa565b6001600160a01b031661016c8115156107e2565b60015481906101846001600160a01b0382161561081d565b6001600160a01b031916176001557fc171d6acef8d865308b516e5735c034f7f64631ba31eaab195c11cf1a2d576ee600080a2005b346100e75760203660031901126100e75760043567ffffffffffffffff81116100e757366023820112156100e757806004013567ffffffffffffffff81116100e7573660248260051b840101116100e757602461021692016109f6565b005b346100e75760003660031901126100e757336000526004602052602060018060a01b0360406000205416604051908152f35b346100e75760203660031901126100e75760043561026781610115565b60018060a01b03166000526004602052602060018060a01b0360406000205416604051908152f35b346100e75760003660031901126100e7576000546040516001600160a01b039091168152602090f35b634e487b7160e01b600052603260045260246000fd5b346100e75760203660031901126100e7576004356003548110156100e75760036000527fc2575a0e9e593c00f959f8c92f12db2869c3395a3b0502d05e2516446f71f85b01546040516001600160a01b039091168152602090f35b602060408183019282815284518094520192019060005b81811061034d5750505090565b82516001600160a01b0316845260209384019390920191600101610340565b346100e75760003660031901126100e75760405180602060035491828152019060036000527fc2575a0e9e593c00f959f8c92f12db2869c3395a3b0502d05e2516446f71f85b9060005b8181106103dd576103d9856103cd818703826108f2565b60405191829182610329565b0390f35b82546001600160a01b03168452602090930192600192830192016103b6565b346100e75760203660031901126100e75760043561041981610115565b61042e60018060a01b036000541633146107aa565b6001600160a01b03166104428115156107e2565b600254819061045a6001600160a01b0382161561081d565b6001600160a01b031916176002557ff01a3de481149951b491b02ccf6fc8cd0843b6175ceb5ef1b07be4291c97d6e3600080a2005b346100e75760003660031901126100e7576002546040516001600160a01b039091168152602090f35b346100e75760203660031901126100e7576004356104d581610115565b6001546001600160a01b0316906104ed821515610857565b6001600160a01b03811660009081526004602052604090206105279061051b905b546001600160a01b031690565b6001600160a01b031690565b6001600160a01b038116929061053e841515610b6d565b6040516378b9033760e01b815291602083600481885afa9182156106175761057c61051b6105a99361051b602096600098899161061c575b50610bad565b604051633be37e7960e01b81526001600160a01b0390921660048301529093849283919082906024820190565b03925af18015610617576105ea575b506001600160a01b0316907f44674e6e0ca70ec2495040e65b5dfc69b59f96a8329dff312642c7f68341e78b600080a3005b61060b9060203d602011610610575b61060381836108f2565b810190610980565b6105b8565b503d6105f9565b610998565b6106339150883d8a116106105761060381836108f2565b38610576565b346100e75760403660031901126100e75760043560243533600090815260046020526040902090919061067f906001600160a01b03906106789061050e565b1615610bef565b61068a811515610c32565b610695821515610c73565b604051610c278082019082821067ffffffffffffffff8311176107a55782916106c691610d20843933815260200190565b03906000f08015610617576001600160a01b031690813b156100e757604051637251808b60e11b81526004810191909152602481019290925260008260448183855af1918215610617576103d99261078a575b5033600090815260046020526040902080546001600160a01b0319166001600160a01b03831617905561074b81610cb3565b60405191818392337f5d9c31ffa0fecffd7cf379989a3c7af252f0335e0d2a1320b55245912c781f53600080a36001600160a01b031682526020820190565b80610799600061079f936108f2565b806100dc565b38610719565b6108dc565b156107b157565b60405162461bcd60e51b81526020600482015260096024820152682737ba1037bbb732b960b91b6044820152606490fd5b156107e957565b60405162461bcd60e51b815260206004820152600c60248201526b5a65726f206164647265737360a01b6044820152606490fd5b1561082457565b60405162461bcd60e51b815260206004820152600b60248201526a105b1c9958591e481cd95d60aa1b6044820152606490fd5b1561085e57565b60405162461bcd60e51b815260206004820152601760248201527f457865637574696f6e456e67696e65206e6f74207365740000000000000000006044820152606490fd5b156108aa57565b60405162461bcd60e51b815260206004820152600a602482015269115b5c1d1e481b1a5cdd60b21b6044820152606490fd5b634e487b7160e01b600052604160045260246000fd5b90601f8019910116810190811067ffffffffffffffff8211176107a557604052565b67ffffffffffffffff81116107a55760051b60200190565b9061093682610914565b61094360405191826108f2565b8281528092610954601f1991610914565b0190602036910137565b919081101561096e5760051b0190565b6102b8565b3561097d81610115565b90565b908160209103126100e7575180151581036100e75790565b6040513d6000823e3d90fd5b805182101561096e5760209160051b010190565b156109bf57565b60405162461bcd60e51b815260206004820152600f60248201526e4e6f207661756c747320726561647960881b6044820152606490fd5b6001546001600160a01b031690610a0e821515610857565b610a198315156108a3565b610a228361092c565b92600091825b828110610aa257505050610a539181610a4561051b9315156109b8565b84526001600160a01b031690565b803b156100e757604051635bbf378360e01b8152916000918391829084908290610a809060048301610329565b03925af1801561061757610a915750565b806107996000610aa0936108f2565b565b6001600160a01b03610ae061051b61050e610ac6610ac186898961095e565b610973565b6001600160a01b0316600090815260046020526040902090565b1680151580610b23575b610af8575b50600101610a28565b84610b1b6001939692610b0c85948b6109a4565b6001600160a01b039091169052565b019390610aef565b506040516378b9033760e01b8152602081600481855afa90811561061757600091610b4f575b50610aea565b610b67915060203d81116106105761060381836108f2565b38610b49565b15610b7457565b60405162461bcd60e51b81526020600482015260116024820152702737903b30bab63a103337b9103ab9b2b960791b6044820152606490fd5b15610bb457565b60405162461bcd60e51b8152602060048201526013602482015272546f6f20736f6f6e20746f206578656375746560681b6044820152606490fd5b15610bf657565b60405162461bcd60e51b81526020600482015260146024820152735661756c7420616c72656164792065786973747360601b6044820152606490fd5b15610c3957565b60405162461bcd60e51b815260206004820152601260248201527142757920616d6f756e74206973207a65726f60701b6044820152606490fd5b15610c7a57565b60405162461bcd60e51b81526020600482015260116024820152704672657175656e6379206973207a65726f60781b6044820152606490fd5b600354680100000000000000008110156107a55760018101600355600060035482101561096e57600390527fc2575a0e9e593c00f959f8c92f12db2869c3395a3b0502d05e2516446f71f85b0180546001600160a01b0319166001600160a01b0390921691909117905556fe6080346100ed57601f610c2738819003918201601f19168301916001600160401b038311848410176100f2578084926020946040528339810103126100ed57516001600160a01b038116908190036100ed5760017f9b779b17422d0df92223018b32b4d1fa46e071723d6817e2486d003becc55f005580156100b857600080546001600160a01b031990811692909217905560018054909116331781556007805460ff19169091179055604051610b1e90816101098239f35b60405162461bcd60e51b815260206004820152600d60248201526c24b73b30b634b21037bbb732b960991b6044820152606490fd5b600080fd5b634e487b7160e01b600052604160045260246000fdfe6080604052600436101561001b575b361561001957600080fd5b005b60003560e01c8063015af8ee146108c457806302fb0c5e146108a1578063046f7da2146108095780631fa70531146107eb5780634e69d560146107695780635216aeec1461074b57806378b90337146107055780638456cb591461066f5780638da5cb5b14610646578063950da28714610507578063a17ecef3146104e9578063aeb5cd5e14610385578063b7fc3e5114610367578063c45a01551461033e578063e4a30116146102b6578063ead50da3146102985763f3fef3a30361000e573461027f57604036600319011261027f576004356001600160a01b0381169081900361027f5760243561011960018060a01b0360005416331461091c565b610121610a8c565b61012c811515610a1e565b6040516370a0823160e01b8152306004820152602081602481865afa801561028c578291600091610252575b5010610216576000805460405163a9059cbb60e01b83526001600160a01b039091166004526024839052919060209060448180875af16001600051148116156101f6575b82604052156101e157816020917f7084f5476618d8e60b11ef0d7d3f06914655adb8793e28ff7f018d4c76d505d59352a26001600080516020610ac983398151915255005b82635274afe760e01b60005260045260246000fd5b600181151661020c57833b15153d15161661019c565b823d6000823e3d90fd5b60405162461bcd60e51b8152602060048201526014602482015273496e73756666696369656e742062616c616e636560601b6044820152606490fd5b9150506020813d602011610284575b8161026e60209383610a6a565b8101031261027f5781905138610158565b600080fd5b3d9150610261565b6040513d6000823e3d90fd5b3461027f57600036600319011261027f576020600354604051908152f35b3461027f576102c436610906565b906102da60018060a01b036001541633146109e3565b6102e5811515610955565b6102f0821515610996565b6002546103035760025560035542600455005b60405162461bcd60e51b8152602060048201526013602482015272105b1c9958591e481a5b9a5d1a585b1a5e9959606a1b6044820152606490fd5b3461027f57600036600319011261027f576001546040516001600160a01b039091168152602090f35b3461027f57600036600319011261027f576020600454604051908152f35b3461027f57602036600319011261027f576004356103ae60018060a01b0360005416331461091c565b6103b6610a8c565b6103c1811515610a1e565b8047106104b05760008080808460018060a01b038254165af13d156104ab573d67ffffffffffffffff81116104955760405190610408601f8201601f191660200183610a6a565b8152600060203d92013e5b15610459577f7084f5476618d8e60b11ef0d7d3f06914655adb8793e28ff7f018d4c76d505d56020600092604051908152a26001600080516020610ac983398151915255005b60405162461bcd60e51b815260206004820152601460248201527310559056081d1c985b9cd9995c8819985a5b195960621b6044820152606490fd5b634e487b7160e01b600052604160045260246000fd5b610413565b60405162461bcd60e51b8152602060048201526011602482015270092dce6eaccccd2c6d2cadce84082ac82b607b1b6044820152606490fd5b3461027f57600036600319011261027f576020600654604051908152f35b3461027f57600036600319011261027f5761052d60018060a01b036001541633146109e3565b610535610a8c565b60ff600754161561060f5761054f600454600354906109d6565b42106105df5760065460001981146105c957600101600655426004557f2d34647a20ca77c2e73db80e924f221793f95460c4a41be3e7a73fa3db2268b7604060025461059d816005546109d6565b6005558151908152426020820152a16001600080516020610ac983398151915255602060405160018152f35b634e487b7160e01b600052601160045260246000fd5b60405162461bcd60e51b81526020600482015260086024820152672a37b79039b7b7b760c11b6044820152606490fd5b60405162461bcd60e51b815260206004820152600f60248201526e15985d5b1d081a5cc81c185d5cd959608a1b6044820152606490fd5b3461027f57600036600319011261027f576000546040516001600160a01b039091168152602090f35b3461027f57600036600319011261027f5761069560018060a01b0360005416331461091c565b60075460ff8116156106cf5760ff19166007557fda9f8b34d443b240f8cc4c9cc013a7723b45924b823bd142ae3b3d79c371eb7c600080a1005b60405162461bcd60e51b815260206004820152600e60248201526d105b1c9958591e481c185d5cd95960921b6044820152606490fd5b3461027f57600036600319011261027f5760ff600754168061072f575b6020906040519015158152f35b506020610741600454600354906109d6565b4210159050610722565b3461027f57600036600319011261027f576020600554604051908152f35b3461027f57600036600319011261027f576101006002546003546004549061079181836109d6565b6005546006549160ff60075416948594856107d6575b604051978852602088015260408701526060860152608085015260a0840152151560c0830152151560e0820152f35b95506107e286826109d6565b421015956107a7565b3461027f57600036600319011261027f576020600254604051908152f35b3461027f57600036600319011261027f5761082f60018060a01b0360005416331461091c565b60075460ff811661086b5760ff19166001176007557f24bbfa46317916d25bbe66f8089a3529e508cac063113c9162ea96f3bc4642ce600080a1005b60405162461bcd60e51b815260206004820152600e60248201526d416c72656164792061637469766560901b6044820152606490fd5b3461027f57600036600319011261027f57602060ff600754166040519015158152f35b3461027f576108d236610906565b906108e860018060a01b0360005416331461091c565b6108f3811515610955565b6108fe821515610996565b600255600355005b604090600319011261027f576004359060243590565b1561092357565b60405162461bcd60e51b815260206004820152600a60248201526927b7363c9037bbb732b960b11b6044820152606490fd5b1561095c57565b60405162461bcd60e51b8152602060048201526012602482015271125b9d985b1a5908189d5e48185b5bdd5b9d60721b6044820152606490fd5b1561099d57565b60405162461bcd60e51b8152602060048201526011602482015270496e76616c6964206672657175656e637960781b6044820152606490fd5b919082018092116105c957565b156109ea57565b60405162461bcd60e51b815260206004820152600c60248201526b4f6e6c7920666163746f727960a01b6044820152606490fd5b15610a2557565b60405162461bcd60e51b815260206004820152601760248201527f416d6f756e74206d75737420626520706f7369746976650000000000000000006044820152606490fd5b90601f8019910116810190811067ffffffffffffffff82111761049557604052565b6002600080516020610ac98339815191525414610ab7576002600080516020610ac983398151915255565b633ee5aeb560e01b60005260046000fdfe9b779b17422d0df92223018b32b4d1fa46e071723d6817e2486d003becc55f00a2646970667358221220993671389343a20fbd73bf18553519ac5f61f4d08a49f447a64d2c35ac77fe2664736f6c634300081c0033a2646970667358221220132122559cc3c9ddc2297d8b6cccc7c1d673f9499065761675aae48f0e56a91564736f6c634300081c0033",
          "opcodes": "PUSH1 0x80 DUP1 PUSH1 0x40 MSTORE CALLVALUE PUSH1 0x27 JUMPI PUSH1 0x0 DUP1 SLOAD PUSH1 0x1 PUSH1 0x1 PUSH1 0xA0 SHL SUB NOT AND CALLER OR SWAP1 SSTORE PUSH2 0x197C SWAP1 DUP2 PUSH2 0x2D DUP3 CODECOPY RETURN JUMPDEST PUSH1 0x0 DUP1 REVERT INVALID PUSH1 0x80 PUSH1 0x40 MSTORE PUSH1 0x4 CALLDATASIZE LT ISZERO PUSH2 0x12 JUMPI PUSH1 0x0 DUP1 REVERT JUMPDEST PUSH1 0x0 CALLDATALOAD PUSH1 0xE0 SHR DUP1 PUSH4 0x23A92172 EQ PUSH2 0xD7 JUMPI DUP1 PUSH4 0x48861E1C EQ PUSH2 0xD2 JUMPI DUP1 PUSH4 0x5064E065 EQ PUSH2 0xCD JUMPI DUP1 PUSH4 0x6F8206BA EQ PUSH2 0xC8 JUMPI DUP1 PUSH4 0x8303EFEF EQ PUSH2 0xC3 JUMPI DUP1 PUSH4 0x8DA5CB5B EQ PUSH2 0xBE JUMPI DUP1 PUSH4 0x9094A91E EQ PUSH2 0xB9 JUMPI DUP1 PUSH4 0x97331BF9 EQ PUSH2 0xB4 JUMPI DUP1 PUSH4 0xAB2CBA85 EQ PUSH2 0xAF JUMPI DUP1 PUSH4 0xD306254D EQ PUSH2 0xAA JUMPI DUP1 PUSH4 0xD42A0A32 EQ PUSH2 0xA5 JUMPI PUSH4 0xE5FBAB85 EQ PUSH2 0xA0 JUMPI PUSH1 0x0 DUP1 REVERT JUMPDEST PUSH2 0x639 JUMP JUMPDEST PUSH2 0x4B8 JUMP JUMPDEST PUSH2 0x48F JUMP JUMPDEST PUSH2 0x3FC JUMP JUMPDEST PUSH2 0x36C JUMP JUMPDEST PUSH2 0x2CE JUMP JUMPDEST PUSH2 0x28F JUMP JUMPDEST PUSH2 0x24A JUMP JUMPDEST PUSH2 0x218 JUMP JUMPDEST PUSH2 0x1B9 JUMP JUMPDEST PUSH2 0x126 JUMP JUMPDEST PUSH2 0xEC JUMP JUMPDEST PUSH1 0x0 SWAP2 SUB SLT PUSH2 0xE7 JUMPI JUMP JUMPDEST PUSH1 0x0 DUP1 REVERT JUMPDEST CALLVALUE PUSH2 0xE7 JUMPI PUSH1 0x0 CALLDATASIZE PUSH1 0x3 NOT ADD SLT PUSH2 0xE7 JUMPI PUSH1 0x1 SLOAD PUSH1 0x40 MLOAD PUSH1 0x1 PUSH1 0x1 PUSH1 0xA0 SHL SUB SWAP1 SWAP2 AND DUP2 MSTORE PUSH1 0x20 SWAP1 RETURN JUMPDEST PUSH1 0x1 PUSH1 0x1 PUSH1 0xA0 SHL SUB DUP2 AND SUB PUSH2 0xE7 JUMPI JUMP JUMPDEST CALLVALUE PUSH2 0xE7 JUMPI PUSH1 0x20 CALLDATASIZE PUSH1 0x3 NOT ADD SLT PUSH2 0xE7 JUMPI PUSH1 0x4 CALLDATALOAD PUSH2 0x143 DUP2 PUSH2 0x115 JUMP JUMPDEST PUSH2 0x158 PUSH1 0x1 DUP1 PUSH1 0xA0 SHL SUB PUSH1 0x0 SLOAD AND CALLER EQ PUSH2 0x7AA JUMP JUMPDEST PUSH1 0x1 PUSH1 0x1 PUSH1 0xA0 SHL SUB AND PUSH2 0x16C DUP2 ISZERO ISZERO PUSH2 0x7E2 JUMP JUMPDEST PUSH1 0x1 SLOAD DUP2 SWAP1 PUSH2 0x184 PUSH1 0x1 PUSH1 0x1 PUSH1 0xA0 SHL SUB DUP3 AND ISZERO PUSH2 0x81D JUMP JUMPDEST PUSH1 0x1 PUSH1 0x1 PUSH1 0xA0 SHL SUB NOT AND OR PUSH1 0x1 SSTORE PUSH32 0xC171D6ACEF8D865308B516E5735C034F7F64631BA31EAAB195C11CF1A2D576EE PUSH1 0x0 DUP1 LOG2 STOP JUMPDEST CALLVALUE PUSH2 0xE7 JUMPI PUSH1 0x20 CALLDATASIZE PUSH1 0x3 NOT ADD SLT PUSH2 0xE7 JUMPI PUSH1 0x4 CALLDATALOAD PUSH8 0xFFFFFFFFFFFFFFFF DUP2 GT PUSH2 0xE7 JUMPI CALLDATASIZE PUSH1 0x23 DUP3 ADD SLT ISZERO PUSH2 0xE7 JUMPI DUP1 PUSH1 0x4 ADD CALLDATALOAD PUSH8 0xFFFFFFFFFFFFFFFF DUP2 GT PUSH2 0xE7 JUMPI CALLDATASIZE PUSH1 0x24 DUP3 PUSH1 0x5 SHL DUP5 ADD ADD GT PUSH2 0xE7 JUMPI PUSH1 0x24 PUSH2 0x216 SWAP3 ADD PUSH2 0x9F6 JUMP JUMPDEST STOP JUMPDEST CALLVALUE PUSH2 0xE7 JUMPI PUSH1 0x0 CALLDATASIZE PUSH1 0x3 NOT ADD SLT PUSH2 0xE7 JUMPI CALLER PUSH1 0x0 MSTORE PUSH1 0x4 PUSH1 0x20 MSTORE PUSH1 0x20 PUSH1 0x1 DUP1 PUSH1 0xA0 SHL SUB PUSH1 0x40 PUSH1 0x0 KECCAK256 SLOAD AND PUSH1 0x40 MLOAD SWAP1 DUP2 MSTORE RETURN JUMPDEST CALLVALUE PUSH2 0xE7 JUMPI PUSH1 0x20 CALLDATASIZE PUSH1 0x3 NOT ADD SLT PUSH2 0xE7 JUMPI PUSH1 0x4 CALLDATALOAD PUSH2 0x267 DUP2 PUSH2 0x115 JUMP JUMPDEST PUSH1 0x1 DUP1 PUSH1 0xA0 SHL SUB AND PUSH1 0x0 MSTORE PUSH1 0x4 PUSH1 0x20 MSTORE PUSH1 0x20 PUSH1 0x1 DUP1 PUSH1 0xA0 SHL SUB PUSH1 0x40 PUSH1 0x0 KECCAK256 SLOAD AND PUSH1 0x40 MLOAD SWAP1 DUP2 MSTORE RETURN JUMPDEST CALLVALUE PUSH2 0xE7 JUMPI PUSH1 0x0 CALLDATASIZE PUSH1 0x3 NOT ADD SLT PUSH2 0xE7 JUMPI PUSH1 0x0 SLOAD PUSH1 0x40 MLOAD PUSH1 0x1 PUSH1 0x1 PUSH1 0xA0 SHL SUB SWAP1 SWAP2 AND DUP2 MSTORE PUSH1 0x20 SWAP1 RETURN JUMPDEST PUSH4 0x4E487B71 PUSH1 0xE0 SHL PUSH1 0x0 MSTORE PUSH1 0x32 PUSH1 0x4 MSTORE PUSH1 0x24 PUSH1 0x0 REVERT JUMPDEST CALLVALUE PUSH2 0xE7 JUMPI PUSH1 0x20 CALLDATASIZE PUSH1 0x3 NOT ADD SLT PUSH2 0xE7 JUMPI PUSH1 0x4 CALLDATALOAD PUSH1 0x3 SLOAD DUP2 LT ISZERO PUSH2 0xE7 JUMPI PUSH1 0x3 PUSH1 0x0 MSTORE PUSH32 0xC2575A0E9E593C00F959F8C92F12DB2869C3395A3B0502D05E2516446F71F85B ADD SLOAD PUSH1 0x40 MLOAD PUSH1 0x1 PUSH1 0x1 PUSH1 0xA0 SHL SUB SWAP1 SWAP2 AND DUP2 MSTORE PUSH1 0x20 SWAP1 RETURN JUMPDEST PUSH1 0x20 PUSH1 0x40 DUP2 DUP4 ADD SWAP3 DUP3 DUP2 MSTORE DUP5 MLOAD DUP1 SWAP5 MSTORE ADD SWAP3 ADD SWAP1 PUSH1 0x0 JUMPDEST DUP2 DUP2 LT PUSH2 0x34D JUMPI POP POP POP SWAP1 JUMP JUMPDEST DUP3 MLOAD PUSH1 0x1 PUSH1 0x1 PUSH1 0xA0 SHL SUB AND DUP5 MSTORE PUSH1 0x20 SWAP4 DUP5 ADD SWAP4 SWAP1 SWAP3 ADD SWAP2 PUSH1 0x1 ADD PUSH2 0x340 JUMP JUMPDEST CALLVALUE PUSH2 0xE7 JUMPI PUSH1 0x0 CALLDATASIZE PUSH1 0x3 NOT ADD SLT PUSH2 0xE7 JUMPI PUSH1 0x40 MLOAD DUP1 PUSH1 0x20 PUSH1 0x3 SLOAD SWAP2 DUP3 DUP2 MSTORE ADD SWAP1 PUSH1 0x3 PUSH1 0x0 MSTORE PUSH32 0xC2575A0E9E593C00F959F8C92F12DB2869C3395A3B0502D05E2516446F71F85B SWAP1 PUSH1 0x0 JUMPDEST DUP2 DUP2 LT PUSH2 0x3DD JUMPI PUSH2 0x3D9 DUP6 PUSH2 0x3CD DUP2 DUP8 SUB DUP3 PUSH2 0x8F2 JUMP JUMPDEST PUSH1 0x40 MLOAD SWAP2 DUP3 SWAP2 DUP3 PUSH2 0x329 JUMP JUMPDEST SUB SWAP1 RETURN JUMPDEST DUP3 SLOAD PUSH1 0x1 PUSH1 0x1 PUSH1 0xA0 SHL SUB AND DUP5 MSTORE PUSH1 0x20 SWAP1 SWAP4 ADD SWAP3 PUSH1 0x1 SWAP3 DUP4 ADD SWAP3 ADD PUSH2 0x3B6 JUMP JUMPDEST CALLVALUE PUSH2 0xE7 JUMPI PUSH1 0x20 CALLDATASIZE PUSH1 0x3 NOT ADD SLT PUSH2 0xE7 JUMPI PUSH1 0x4 CALLDATALOAD PUSH2 0x419 DUP2 PUSH2 0x115 JUMP JUMPDEST PUSH2 0x42E PUSH1 0x1 DUP1 PUSH1 0xA0 SHL SUB PUSH1 0x0 SLOAD AND CALLER EQ PUSH2 0x7AA JUMP JUMPDEST PUSH1 0x1 PUSH1 0x1 PUSH1 0xA0 SHL SUB AND PUSH2 0x442 DUP2 ISZERO ISZERO PUSH2 0x7E2 JUMP JUMPDEST PUSH1 0x2 SLOAD DUP2 SWAP1 PUSH2 0x45A PUSH1 0x1 PUSH1 0x1 PUSH1 0xA0 SHL SUB DUP3 AND ISZERO PUSH2 0x81D JUMP JUMPDEST PUSH1 0x1 PUSH1 0x1 PUSH1 0xA0 SHL SUB NOT AND OR PUSH1 0x2 SSTORE PUSH32 0xF01A3DE481149951B491B02CCF6FC8CD0843B6175CEB5EF1B07BE4291C97D6E3 PUSH1 0x0 DUP1 LOG2 STOP JUMPDEST CALLVALUE PUSH2 0xE7 JUMPI PUSH1 0x0 CALLDATASIZE PUSH1 0x3 NOT ADD SLT PUSH2 0xE7 JUMPI PUSH1 0x2 SLOAD PUSH1 0x40 MLOAD PUSH1 0x1 PUSH1 0x1 PUSH1 0xA0 SHL SUB SWAP1 SWAP2 AND DUP2 MSTORE PUSH1 0x20 SWAP1 RETURN JUMPDEST CALLVALUE PUSH2 0xE7 JUMPI PUSH1 0x20 CALLDATASIZE PUSH1 0x3 NOT ADD SLT PUSH2 0xE7 JUMPI PUSH1 0x4 CALLDATALOAD PUSH2 0x4D5 DUP2 PUSH2 0x115 JUMP JUMPDEST PUSH1 0x1 SLOAD PUSH1 0x1 PUSH1 0x1 PUSH1 0xA0 SHL SUB AND SWAP1 PUSH2 0x4ED DUP3 ISZERO ISZERO PUSH2 0x857 JUMP JUMPDEST PUSH1 0x1 PUSH1 0x1 PUSH1 0xA0 SHL SUB DUP2 AND PUSH1 0x0 SWAP1 DUP2 MSTORE PUSH1 0x4 PUSH1 0x20 MSTORE PUSH1 0x40 SWAP1 KECCAK256 PUSH2 0x527 SWAP1 PUSH2 0x51B SWAP1 JUMPDEST SLOAD PUSH1 0x1 PUSH1 0x1 PUSH1 0xA0 SHL SUB AND SWAP1 JUMP JUMPDEST PUSH1 0x1 PUSH1 0x1 PUSH1 0xA0 SHL SUB AND SWAP1 JUMP JUMPDEST PUSH1 0x1 PUSH1 0x1 PUSH1 0xA0 SHL SUB DUP2 AND SWAP3 SWAP1 PUSH2 0x53E DUP5 ISZERO ISZERO PUSH2 0xB6D JUMP JUMPDEST PUSH1 0x40 MLOAD PUSH4 0x78B90337 PUSH1 0xE0 SHL DUP2 MSTORE SWAP2 PUSH1 0x20 DUP4 PUSH1 0x4 DUP2 DUP9 GAS STATICCALL SWAP2 DUP3 ISZERO PUSH2 0x617 JUMPI PUSH2 0x57C PUSH2 0x51B PUSH2 0x5A9 SWAP4 PUSH2 0x51B PUSH1 0x20 SWAP7 PUSH1 0x0 SWAP9 DUP10 SWAP2 PUSH2 0x61C JUMPI JUMPDEST POP PUSH2 0xBAD JUMP JUMPDEST PUSH1 0x40 MLOAD PUSH4 0x3BE37E79 PUSH1 0xE0 SHL DUP2 MSTORE PUSH1 0x1 PUSH1 0x1 PUSH1 0xA0 SHL SUB SWAP1 SWAP3 AND PUSH1 0x4 DUP4 ADD MSTORE SWAP1 SWAP4 DUP5 SWAP3 DUP4 SWAP2 SWAP1 DUP3 SWAP1 PUSH1 0x24 DUP3 ADD SWAP1 JUMP JUMPDEST SUB SWAP3 GAS CALL DUP1 ISZERO PUSH2 0x617 JUMPI PUSH2 0x5EA JUMPI JUMPDEST POP PUSH1 0x1 PUSH1 0x1 PUSH1 0xA0 SHL SUB AND SWAP1 PUSH32 0x44674E6E0CA70EC2495040E65B5DFC69B59F96A8329DFF312642C7F68341E78B PUSH1 0x0 DUP1 LOG3 STOP JUMPDEST PUSH2 0x60B SWAP1 PUSH1 0x20 RETURNDATASIZE PUSH1 0x20 GT PUSH2 0x610 JUMPI JUMPDEST PUSH2 0x603 DUP2 DUP4 PUSH2 0x8F2 JUMP JUMPDEST DUP2 ADD SWAP1 PUSH2 0x980 JUMP JUMPDEST PUSH2 0x5B8 JUMP JUMPDEST POP RETURNDATASIZE PUSH2 0x5F9 JUMP JUMPDEST PUSH2 0x998 JUMP JUMPDEST PUSH2 0x633 SWAP2 POP DUP9 RETURNDATASIZE DUP11 GT PUSH2 0x610 JUMPI PUSH2 0x603 DUP2 DUP4 PUSH2 0x8F2 JUMP JUMPDEST CODESIZE PUSH2 0x576 JUMP JUMPDEST CALLVALUE PUSH2 0xE7 JUMPI PUSH1 0x40 CALLDATASIZE PUSH1 0x3 NOT ADD SLT PUSH2 0xE7 JUMPI PUSH1 0x4 CALLDATALOAD PUSH1 0x24 CALLDATALOAD CALLER PUSH1 0x0 SWAP1 DUP2 MSTORE PUSH1 0x4 PUSH1 0x20 MSTORE PUSH1 0x40 SWAP1 KECCAK256 SWAP1 SWAP2 SWAP1 PUSH2 0x67F SWAP1 PUSH1 0x1 PUSH1 0x1 PUSH1 0xA0 SHL SUB SWAP1 PUSH2 0x678 SWAP1 PUSH2 0x50E JUMP JUMPDEST AND ISZERO PUSH2 0xBEF JUMP JUMPDEST PUSH2 0x68A DUP2 ISZERO ISZERO PUSH2 0xC32 JUMP JUMPDEST PUSH2 0x695 DUP3 ISZERO ISZERO PUSH2 0xC73 JUMP JUMPDEST PUSH1 0x40 MLOAD PUSH2 0xC27 DUP1 DUP3 ADD SWAP1 DUP3 DUP3 LT PUSH8 0xFFFFFFFFFFFFFFFF DUP4 GT OR PUSH2 0x7A5 JUMPI DUP3 SWAP2 PUSH2 0x6C6 SWAP2 PUSH2 0xD20 DUP5 CODECOPY CALLER DUP2 MSTORE PUSH1 0x20 ADD SWAP1 JUMP JUMPDEST SUB SWAP1 PUSH1 0x0 CREATE DUP1 ISZERO PUSH2 0x617 JUMPI PUSH1 0x1 PUSH1 0x1 PUSH1 0xA0 SHL SUB AND SWAP1 DUP2 EXTCODESIZE ISZERO PUSH2 0xE7 JUMPI PUSH1 0x40 MLOAD PUSH4 0x7251808B PUSH1 0xE1 SHL DUP2 MSTORE PUSH1 0x4 DUP2 ADD SWAP2 SWAP1 SWAP2 MSTORE PUSH1 0x24 DUP2 ADD SWAP3 SWAP1 SWAP3 MSTORE PUSH1 0x0 DUP3 PUSH1 0x44 DUP2 DUP4 DUP6 GAS CALL SWAP2 DUP3 ISZERO PUSH2 0x617 JUMPI PUSH2 0x3D9 SWAP3 PUSH2 0x78A JUMPI JUMPDEST POP CALLER PUSH1 0x0 SWAP1 DUP2 MSTORE PUSH1 0x4 PUSH1 0x20 MSTORE PUSH1 0x40 SWAP1 KECCAK256 DUP1 SLOAD PUSH1 0x1 PUSH1 0x1 PUSH1 0xA0 SHL SUB NOT AND PUSH1 0x1 PUSH1 0x1 PUSH1 0xA0 SHL SUB DUP4 AND OR SWAP1 SSTORE PUSH2 0x74B DUP2 PUSH2 0xCB3 JUMP JUMPDEST PUSH1 0x40 MLOAD SWAP2 DUP2 DUP4 SWAP3 CALLER PUSH32 0x5D9C31FFA0FECFFD7CF379989A3C7AF252F0335E0D2A1320B55245912C781F53 PUSH1 0x0 DUP1 LOG3 PUSH1 0x1 PUSH1 0x1 PUSH1 0xA0 SHL SUB AND DUP3 MSTORE PUSH1 0x20 DUP3 ADD SWAP1 JUMP JUMPDEST DUP1 PUSH2 0x799 PUSH1 0x0 PUSH2 0x79F SWAP4 PUSH2 0x8F2 JUMP JUMPDEST DUP1 PUSH2 0xDC JUMP JUMPDEST CODESIZE PUSH2 0x719 JUMP JUMPDEST PUSH2 0x8DC JUMP JUMPDEST ISZERO PUSH2 0x7B1 JUMPI JUMP JUMPDEST PUSH1 0x40 MLOAD PUSH3 0x461BCD PUSH1 0xE5 SHL DUP2 MSTORE PUSH1 0x20 PUSH1 0x4 DUP3 ADD MSTORE PUSH1 0x9 PUSH1 0x24 DUP3 ADD MSTORE PUSH9 0x2737BA1037BBB732B9 PUSH1 0xB9 SHL PUSH1 0x44 DUP3 ADD MSTORE PUSH1 0x64 SWAP1 REVERT JUMPDEST ISZERO PUSH2 0x7E9 JUMPI JUMP JUMPDEST PUSH1 0x40 MLOAD PUSH3 0x461BCD PUSH1 0xE5 SHL DUP2 MSTORE PUSH1 0x20 PUSH1 0x4 DUP3 ADD MSTORE PUSH1 0xC PUSH1 0x24 DUP3 ADD MSTORE PUSH12 0x5A65726F2061646472657373 PUSH1 0xA0 SHL PUSH1 0x44 DUP3 ADD MSTORE PUSH1 0x64 SWAP1 REVERT JUMPDEST ISZERO PUSH2 0x824 JUMPI JUMP JUMPDEST PUSH1 0x40 MLOAD PUSH3 0x461BCD PUSH1 0xE5 SHL DUP2 MSTORE PUSH1 0x20 PUSH1 0x4 DUP3 ADD MSTORE PUSH1 0xB PUSH1 0x24 DUP3 ADD MSTORE PUSH11 0x105B1C9958591E481CD95D PUSH1 0xAA SHL PUSH1 0x44 DUP3 ADD MSTORE PUSH1 0x64 SWAP1 REVERT JUMPDEST ISZERO PUSH2 0x85E JUMPI JUMP JUMPDEST PUSH1 0x40 MLOAD PUSH3 0x461BCD PUSH1 0xE5 SHL DUP2 MSTORE PUSH1 0x20 PUSH1 0x4 DUP3 ADD MSTORE PUSH1 0x17 PUSH1 0x24 DUP3 ADD MSTORE PUSH32 0x457865637574696F6E456E67696E65206E6F7420736574000000000000000000 PUSH1 0x44 DUP3 ADD MSTORE PUSH1 0x64 SWAP1 REVERT JUMPDEST ISZERO PUSH2 0x8AA JUMPI JUMP JUMPDEST PUSH1 0x40 MLOAD PUSH3 0x461BCD PUSH1 0xE5 SHL DUP2 MSTORE PUSH1 0x20 PUSH1 0x4 DUP3 ADD MSTORE PUSH1 0xA PUSH1 0x24 DUP3 ADD MSTORE PUSH10 0x115B5C1D1E481B1A5CDD PUSH1 0xB2 SHL PUSH1 0x44 DUP3 ADD MSTORE PUSH1 0x64 SWAP1 REVERT JUMPDEST PUSH4 0x4E487B71 PUSH1 0xE0 SHL PUSH1 0x0 MSTORE PUSH1 0x41 PUSH1 0x4 MSTORE PUSH1 0x24 PUSH1 0x0 REVERT JUMPDEST SWAP1 PUSH1 0x1F DUP1 NOT SWAP2 ADD AND DUP2 ADD SWAP1 DUP2 LT PUSH8 0xFFFFFFFFFFFFFFFF DUP3 GT OR PUSH2 0x7A5 JUMPI PUSH1 0x40 MSTORE JUMP JUMPDEST PUSH8 0xFFFFFFFFFFFFFFFF DUP2 GT PUSH2 0x7A5 JUMPI PUSH1 0x5 SHL PUSH1 0x20 ADD SWAP1 JUMP JUMPDEST SWAP1 PUSH2 0x936 DUP3 PUSH2 0x914 JUMP JUMPDEST PUSH2 0x943 PUSH1 0x40 MLOAD SWAP2 DUP3 PUSH2 0x8F2 JUMP JUMPDEST DUP3 DUP2 MSTORE DUP1 SWAP3 PUSH2 0x954 PUSH1 0x1F NOT SWAP2 PUSH2 0x914 JUMP JUMPDEST ADD SWAP1 PUSH1 0x20 CALLDATASIZE SWAP2 ADD CALLDATACOPY JUMP JUMPDEST SWAP2 SWAP1 DUP2 LT ISZERO PUSH2 0x96E JUMPI PUSH1 0x5 SHL ADD SWAP1 JUMP JUMPDEST PUSH2 0x2B8 JUMP JUMPDEST CALLDATALOAD PUSH2 0x97D DUP2 PUSH2 0x115 JUMP JUMPDEST SWAP1 JUMP JUMPDEST SWAP1 DUP2 PUSH1 0x20 SWAP2 SUB SLT PUSH2 0xE7 JUMPI MLOAD DUP1 ISZERO ISZERO DUP2 SUB PUSH2 0xE7 JUMPI SWAP1 JUMP JUMPDEST PUSH1 0x40 MLOAD RETURNDATASIZE PUSH1 0x0 DUP3 RETURNDATACOPY RETURNDATASIZE SWAP1 REVERT JUMPDEST DUP1 MLOAD DUP3 LT ISZERO PUSH2 0x96E JUMPI PUSH1 0x20 SWAP2 PUSH1 0x5 SHL ADD ADD SWAP1 JUMP JUMPDEST ISZERO PUSH2 0x9BF JUMPI JUMP JUMPDEST PUSH1 0x40 MLOAD PUSH3 0x461BCD PUSH1 0xE5 SHL DUP2 MSTORE PUSH1 0x20 PUSH1 0x4 DUP3 ADD MSTORE PUSH1 0xF PUSH1 0x24 DUP3 ADD MSTORE PUSH15 0x4E6F207661756C7473207265616479 PUSH1 0x88 SHL PUSH1 0x44 DUP3 ADD MSTORE PUSH1 0x64 SWAP1 REVERT JUMPDEST PUSH1 0x1 SLOAD PUSH1 0x1 PUSH1 0x1 PUSH1 0xA0 SHL SUB AND SWAP1 PUSH2 0xA0E DUP3 ISZERO ISZERO PUSH2 0x857 JUMP JUMPDEST PUSH2 0xA19 DUP4 ISZERO ISZERO PUSH2 0x8A3 JUMP JUMPDEST PUSH2 0xA22 DUP4 PUSH2 0x92C JUMP JUMPDEST SWAP3 PUSH1 0x0 SWAP2 DUP3 JUMPDEST DUP3 DUP2 LT PUSH2 0xAA2 JUMPI POP POP POP PUSH2 0xA53 SWAP2 DUP2 PUSH2 0xA45 PUSH2 0x51B SWAP4 ISZERO ISZERO PUSH2 0x9B8 JUMP JUMPDEST DUP5 MSTORE PUSH1 0x1 PUSH1 0x1 PUSH1 0xA0 SHL SUB AND SWAP1 JUMP JUMPDEST DUP1 EXTCODESIZE ISZERO PUSH2 0xE7 JUMPI PUSH1 0x40 MLOAD PUSH4 0x5BBF3783 PUSH1 0xE0 SHL DUP2 MSTORE SWAP2 PUSH1 0x0 SWAP2 DUP4 SWAP2 DUP3 SWAP1 DUP5 SWAP1 DUP3 SWAP1 PUSH2 0xA80 SWAP1 PUSH1 0x4 DUP4 ADD PUSH2 0x329 JUMP JUMPDEST SUB SWAP3 GAS CALL DUP1 ISZERO PUSH2 0x617 JUMPI PUSH2 0xA91 JUMPI POP JUMP JUMPDEST DUP1 PUSH2 0x799 PUSH1 0x0 PUSH2 0xAA0 SWAP4 PUSH2 0x8F2 JUMP JUMPDEST JUMP JUMPDEST PUSH1 0x1 PUSH1 0x1 PUSH1 0xA0 SHL SUB PUSH2 0xAE0 PUSH2 0x51B PUSH2 0x50E PUSH2 0xAC6 PUSH2 0xAC1 DUP7 DUP10 DUP10 PUSH2 0x95E JUMP JUMPDEST PUSH2 0x973 JUMP JUMPDEST PUSH1 0x1 PUSH1 0x1 PUSH1 0xA0 SHL SUB AND PUSH1 0x0 SWAP1 DUP2 MSTORE PUSH1 0x4 PUSH1 0x20 MSTORE PUSH1 0x40 SWAP1 KECCAK256 SWAP1 JUMP JUMPDEST AND DUP1 ISZERO ISZERO DUP1 PUSH2 0xB23 JUMPI JUMPDEST PUSH2 0xAF8 JUMPI JUMPDEST POP PUSH1 0x1 ADD PUSH2 0xA28 JUMP JUMPDEST DUP5 PUSH2 0xB1B PUSH1 0x1 SWAP4 SWAP7 SWAP3 PUSH2 0xB0C DUP6 SWAP5 DUP12 PUSH2 0x9A4 JUMP JUMPDEST PUSH1 0x1 PUSH1 0x1 PUSH1 0xA0 SHL SUB SWAP1 SWAP2 AND SWAP1 MSTORE JUMP JUMPDEST ADD SWAP4 SWAP1 PUSH2 0xAEF JUMP JUMPDEST POP PUSH1 0x40 MLOAD PUSH4 0x78B90337 PUSH1 0xE0 SHL DUP2 MSTORE PUSH1 0x20 DUP2 PUSH1 0x4 DUP2 DUP6 GAS STATICCALL SWAP1 DUP2 ISZERO PUSH2 0x617 JUMPI PUSH1 0x0 SWAP2 PUSH2 0xB4F JUMPI JUMPDEST POP PUSH2 0xAEA JUMP JUMPDEST PUSH2 0xB67 SWAP2 POP PUSH1 0x20 RETURNDATASIZE DUP2 GT PUSH2 0x610 JUMPI PUSH2 0x603 DUP2 DUP4 PUSH2 0x8F2 JUMP JUMPDEST CODESIZE PUSH2 0xB49 JUMP JUMPDEST ISZERO PUSH2 0xB74 JUMPI JUMP JUMPDEST PUSH1 0x40 MLOAD PUSH3 0x461BCD PUSH1 0xE5 SHL DUP2 MSTORE PUSH1 0x20 PUSH1 0x4 DUP3 ADD MSTORE PUSH1 0x11 PUSH1 0x24 DUP3 ADD MSTORE PUSH17 0x2737903B30BAB63A103337B9103AB9B2B9 PUSH1 0x79 SHL PUSH1 0x44 DUP3 ADD MSTORE PUSH1 0x64 SWAP1 REVERT JUMPDEST ISZERO PUSH2 0xBB4 JUMPI JUMP JUMPDEST PUSH1 0x40 MLOAD PUSH3 0x461BCD PUSH1 0xE5 SHL DUP2 MSTORE PUSH1 0x20 PUSH1 0x4 DUP3 ADD MSTORE PUSH1 0x13 PUSH1 0x24 DUP3 ADD MSTORE PUSH19 0x546F6F20736F6F6E20746F2065786563757465 PUSH1 0x68 SHL PUSH1 0x44 DUP3 ADD MSTORE PUSH1 0x64 SWAP1 REVERT JUMPDEST ISZERO PUSH2 0xBF6 JUMPI JUMP JUMPDEST PUSH1 0x40 MLOAD PUSH3 0x461BCD PUSH1 0xE5 SHL DUP2 MSTORE PUSH1 0x20 PUSH1 0x4 DUP3 ADD MSTORE PUSH1 0x14 PUSH1 0x24 DUP3 ADD MSTORE PUSH20 0x5661756C7420616C726561647920657869737473 PUSH1 0x60 SHL PUSH1 0x44 DUP3 ADD MSTORE PUSH1 0x64 SWAP1 REVERT JUMPDEST ISZERO PUSH2 0xC39 JUMPI JUMP JUMPDEST PUSH1 0x40 MLOAD PUSH3 0x461BCD PUSH1 0xE5 SHL DUP2 MSTORE PUSH1 0x20 PUSH1 0x4 DUP3 ADD MSTORE PUSH1 0x12 PUSH1 0x24 DUP3 ADD MSTORE PUSH18 0x42757920616D6F756E74206973207A65726F PUSH1 0x70 SHL PUSH1 0x44 DUP3 ADD MSTORE PUSH1 0x64 SWAP1 REVERT JUMPDEST ISZERO PUSH2 0xC7A JUMPI JUMP JUMPDEST PUSH1 0x40 MLOAD PUSH3 0x461BCD PUSH1 0xE5 SHL DUP2 MSTORE PUSH1 0x20 PUSH1 0x4 DUP3 ADD MSTORE PUSH1 0x11 PUSH1 0x24 DUP3 ADD MSTORE PUSH17 0x4672657175656E6379206973207A65726F PUSH1 0x78 SHL PUSH1 0x44 DUP3 ADD MSTORE PUSH1 0x64 SWAP1 REVERT JUMPDEST PUSH1 0x3 SLOAD PUSH9 0x10000000000000000 DUP2 LT ISZERO PUSH2 0x7A5 JUMPI PUSH1 0x1 DUP2 ADD PUSH1 0x3 SSTORE PUSH1 0x0 PUSH1 0x3 SLOAD DUP3 LT ISZERO PUSH2 0x96E JUMPI PUSH1 0x3 SWAP1 MSTORE PUSH32 0xC2575A0E9E593C00F959F8C92F12DB2869C3395A3B0502D05E2516446F71F85B ADD DUP1 SLOAD PUSH1 0x1 PUSH1 0x1 PUSH1 0xA0 SHL SUB NOT AND PUSH1 0x1 PUSH1 0x1 PUSH1 0xA0 SHL SUB SWAP1 SWAP3 AND SWAP2 SWAP1 SWAP2 OR SWAP1 SSTORE JUMP INVALID PUSH1 0x80 CALLVALUE PUSH2 0xED JUMPI PUSH1 0x1F PUSH2 0xC27 CODESIZE DUP2 SWAP1 SUB SWAP2 DUP3 ADD PUSH1 0x1F NOT AND DUP4 ADD SWAP2 PUSH1 0x1 PUSH1 0x1 PUSH1 0x40 SHL SUB DUP4 GT DUP5 DUP5 LT OR PUSH2 0xF2 JUMPI DUP1 DUP5 SWAP3 PUSH1 0x20 SWAP5 PUSH1 0x40 MSTORE DUP4 CODECOPY DUP2 ADD SUB SLT PUSH2 0xED JUMPI MLOAD PUSH1 0x1 PUSH1 0x1 PUSH1 0xA0 SHL SUB DUP2 AND SWAP1 DUP2 SWAP1 SUB PUSH2 0xED JUMPI PUSH1 0x1 PUSH32 0x9B779B17422D0DF92223018B32B4D1FA46E071723D6817E2486D003BECC55F00 SSTORE DUP1 ISZERO PUSH2 0xB8 JUMPI PUSH1 0x0 DUP1 SLOAD PUSH1 0x1 PUSH1 0x1 PUSH1 0xA0 SHL SUB NOT SWAP1 DUP2 AND SWAP3 SWAP1 SWAP3 OR SWAP1 SSTORE PUSH1 0x1 DUP1 SLOAD SWAP1 SWAP2 AND CALLER OR DUP2 SSTORE PUSH1 0x7 DUP1 SLOAD PUSH1 0xFF NOT AND SWAP1 SWAP2 OR SWAP1 SSTORE PUSH1 0x40 MLOAD PUSH2 0xB1E SWAP1 DUP2 PUSH2 0x109 DUP3 CODECOPY RETURN JUMPDEST PUSH1 0x40 MLOAD PUSH3 0x461BCD PUSH1 0xE5 SHL DUP2 MSTORE PUSH1 0x20 PUSH1 0x4 DUP3 ADD MSTORE PUSH1 0xD PUSH1 0x24 DUP3 ADD MSTORE PUSH13 0x24B73B30B634B21037BBB732B9 PUSH1 0x99 SHL PUSH1 0x44 DUP3 ADD MSTORE PUSH1 0x64 SWAP1 REVERT JUMPDEST PUSH1 0x0 DUP1 REVERT JUMPDEST PUSH4 0x4E487B71 PUSH1 0xE0 SHL PUSH1 0x0 MSTORE PUSH1 0x41 PUSH1 0x4 MSTORE PUSH1 0x24 PUSH1 0x0 REVERT INVALID PUSH1 0x80 PUSH1 0x40 MSTORE PUSH1 0x4 CALLDATASIZE LT ISZERO PUSH2 0x1B JUMPI JUMPDEST CALLDATASIZE ISZERO PUSH2 0x19 JUMPI PUSH1 0x0 DUP1 REVERT JUMPDEST STOP JUMPDEST PUSH1 0x0 CALLDATALOAD PUSH1 0xE0 SHR DUP1 PUSH4 0x15AF8EE EQ PUSH2 0x8C4 JUMPI DUP1 PUSH4 0x2FB0C5E EQ PUSH2 0x8A1 JUMPI DUP1 PUSH4 0x46F7DA2 EQ PUSH2 0x809 JUMPI DUP1 PUSH4 0x1FA70531 EQ PUSH2 0x7EB JUMPI DUP1 PUSH4 0x4E69D560 EQ PUSH2 0x769 JUMPI DUP1 PUSH4 0x5216AEEC EQ PUSH2 0x74B JUMPI DUP1 PUSH4 0x78B90337 EQ PUSH2 0x705 JUMPI DUP1 PUSH4 0x8456CB59 EQ PUSH2 0x66F JUMPI DUP1 PUSH4 0x8DA5CB5B EQ PUSH2 0x646 JUMPI DUP1 PUSH4 0x950DA287 EQ PUSH2 0x507 JUMPI DUP1 PUSH4 0xA17ECEF3 EQ PUSH2 0x4E9 JUMPI DUP1 PUSH4 0xAEB5CD5E EQ PUSH2 0x385 JUMPI DUP1 PUSH4 0xB7FC3E51 EQ PUSH2 0x367 JUMPI DUP1 PUSH4 0xC45A0155 EQ PUSH2 0x33E JUMPI DUP1 PUSH4 0xE4A30116 EQ PUSH2 0x2B6 JUMPI DUP1 PUSH4 0xEAD50DA3 EQ PUSH2 0x298 JUMPI PUSH4 0xF3FEF3A3 SUB PUSH2 0xE JUMPI CALLVALUE PUSH2 0x27F JUMPI PUSH1 0x40 CALLDATASIZE PUSH1 0x3 NOT ADD SLT PUSH2 0x27F JUMPI PUSH1 0x4 CALLDATALOAD PUSH1 0x1 PUSH1 0x1 PUSH1 0xA0 SHL SUB DUP2 AND SWAP1 DUP2 SWAP1 SUB PUSH2 0x27F JUMPI PUSH1 0x24 CALLDATALOAD PUSH2 0x119 PUSH1 0x1 DUP1 PUSH1 0xA0 SHL SUB PUSH1 0x0 SLOAD AND CALLER EQ PUSH2 0x91C JUMP JUMPDEST PUSH2 0x121 PUSH2 0xA8C JUMP JUMPDEST PUSH2 0x12C DUP2 ISZERO ISZERO PUSH2 0xA1E JUMP JUMPDEST PUSH1 0x40 MLOAD PUSH4 0x70A08231 PUSH1 0xE0 SHL DUP2 MSTORE ADDRESS PUSH1 0x4 DUP3 ADD MSTORE PUSH1 0x20 DUP2 PUSH1 0x24 DUP2 DUP7 GAS STATICCALL DUP1 ISZERO PUSH2 0x28C JUMPI DUP3 SWAP2 PUSH1 0x0 SWAP2 PUSH2 0x252 JUMPI JUMPDEST POP LT PUSH2 0x216 JUMPI PUSH1 0x0 DUP1 SLOAD PUSH1 0x40 MLOAD PUSH4 0xA9059CBB PUSH1 0xE0 SHL DUP4 MSTORE PUSH1 0x1 PUSH1 0x1 PUSH1 0xA0 SHL SUB SWAP1 SWAP2 AND PUSH1 0x4 MSTORE PUSH1 0x24 DUP4 SWAP1 MSTORE SWAP2 SWAP1 PUSH1 0x20 SWAP1 PUSH1 0x44 DUP2 DUP1 DUP8 GAS CALL PUSH1 0x1 PUSH1 0x0 MLOAD EQ DUP2 AND ISZERO PUSH2 0x1F6 JUMPI JUMPDEST DUP3 PUSH1 0x40 MSTORE ISZERO PUSH2 0x1E1 JUMPI DUP2 PUSH1 0x20 SWAP2 PUSH32 0x7084F5476618D8E60B11EF0D7D3F06914655ADB8793E28FF7F018D4C76D505D5 SWAP4 MSTORE LOG2 PUSH1 0x1 PUSH1 0x0 DUP1 MLOAD PUSH1 0x20 PUSH2 0xAC9 DUP4 CODECOPY DUP2 MLOAD SWAP2 MSTORE SSTORE STOP JUMPDEST DUP3 PUSH4 0x5274AFE7 PUSH1 0xE0 SHL PUSH1 0x0 MSTORE PUSH1 0x4 MSTORE PUSH1 0x24 PUSH1 0x0 REVERT JUMPDEST PUSH1 0x1 DUP2 ISZERO AND PUSH2 0x20C JUMPI DUP4 EXTCODESIZE ISZERO ISZERO RETURNDATASIZE ISZERO AND AND PUSH2 0x19C JUMP JUMPDEST DUP3 RETURNDATASIZE PUSH1 0x0 DUP3 RETURNDATACOPY RETURNDATASIZE SWAP1 REVERT JUMPDEST PUSH1 0x40 MLOAD PUSH3 0x461BCD PUSH1 0xE5 SHL DUP2 MSTORE PUSH1 0x20 PUSH1 0x4 DUP3 ADD MSTORE PUSH1 0x14 PUSH1 0x24 DUP3 ADD MSTORE PUSH20 0x496E73756666696369656E742062616C616E6365 PUSH1 0x60 SHL PUSH1 0x44 DUP3 ADD MSTORE PUSH1 0x64 SWAP1 REVERT JUMPDEST SWAP2 POP POP PUSH1 0x20 DUP2 RETURNDATASIZE PUSH1 0x20 GT PUSH2 0x284 JUMPI JUMPDEST DUP2 PUSH2 0x26E PUSH1 0x20 SWAP4 DUP4 PUSH2 0xA6A JUMP JUMPDEST DUP2 ADD SUB SLT PUSH2 0x27F JUMPI DUP2 SWAP1 MLOAD CODESIZE PUSH2 0x158 JUMP JUMPDEST PUSH1 0x0 DUP1 REVERT JUMPDEST RETURNDATASIZE SWAP2 POP PUSH2 0x261 JUMP JUMPDEST PUSH1 0x40 MLOAD RETURNDATASIZE PUSH1 0x0 DUP3 RETURNDATACOPY RETURNDATASIZE SWAP1 REVERT JUMPDEST CALLVALUE PUSH2 0x27F JUMPI PUSH1 0x0 CALLDATASIZE PUSH1 0x3 NOT ADD SLT PUSH2 0x27F JUMPI PUSH1 0x20 PUSH1 0x3 SLOAD PUSH1 0x40 MLOAD SWAP1 DUP2 MSTORE RETURN JUMPDEST CALLVALUE PUSH2 0x27F JUMPI PUSH2 0x2C4 CALLDATASIZE PUSH2 0x906 JUMP JUMPDEST SWAP1 PUSH2 0x2DA PUSH1 0x1 DUP1 PUSH1 0xA0 SHL SUB PUSH1 0x1 SLOAD AND CALLER EQ PUSH2 0x9E3 JUMP JUMPDEST PUSH2 0x2E5 DUP2 ISZERO ISZERO PUSH2 0x955 JUMP JUMPDEST PUSH2 0x2F0 DUP3 ISZERO ISZERO PUSH2 0x996 JUMP JUMPDEST PUSH1 0x2 SLOAD PUSH2 0x303 JUMPI PUSH1 0x2 SSTORE PUSH1 0x3 SSTORE TIMESTAMP PUSH1 0x4 SSTORE STOP JUMPDEST PUSH1 0x40 MLOAD PUSH3 0x461BCD PUSH1 0xE5 SHL DUP2 MSTORE PUSH1 0x20 PUSH1 0x4 DUP3 ADD MSTORE PUSH1 0x13 PUSH1 0x24 DUP3 ADD MSTORE PUSH19 0x105B1C9958591E481A5B9A5D1A585B1A5E9959 PUSH1 0x6A SHL PUSH1 0x44 DUP3 ADD MSTORE PUSH1 0x64 SWAP1 REVERT JUMPDEST CALLVALUE PUSH2 0x27F JUMPI PUSH1 0x0 CALLDATASIZE PUSH1 0x3 NOT ADD SLT PUSH2 0x27F JUMPI PUSH1 0x1 SLOAD PUSH1 0x40 MLOAD PUSH1 0x1 PUSH1 0x1 PUSH1 0xA0 SHL SUB SWAP1 SWAP2 AND DUP2 MSTORE PUSH1 0x20 SWAP1 RETURN JUMPDEST CALLVALUE PUSH2 0x27F JUMPI PUSH1 0x0 CALLDATASIZE PUSH1 0x3 NOT ADD SLT PUSH2 0x27F JUMPI PUSH1 0x20 PUSH1 0x4 SLOAD PUSH1 0x40 MLOAD SWAP1 DUP2 MSTORE RETURN JUMPDEST CALLVALUE PUSH2 0x27F JUMPI PUSH1 0x20 CALLDATASIZE PUSH1 0x3 NOT ADD SLT PUSH2 0x27F JUMPI PUSH1 0x4 CALLDATALOAD PUSH2 0x3AE PUSH1 0x1 DUP1 PUSH1 0xA0 SHL SUB PUSH1 0x0 SLOAD AND CALLER EQ PUSH2 0x91C JUMP JUMPDEST PUSH2 0x3B6 PUSH2 0xA8C JUMP JUMPDEST PUSH2 0x3C1 DUP2 ISZERO ISZERO PUSH2 0xA1E JUMP JUMPDEST DUP1 SELFBALANCE LT PUSH2 0x4B0 JUMPI PUSH1 0x0 DUP1 DUP1 DUP1 DUP5 PUSH1 0x1 DUP1 PUSH1 0xA0 SHL SUB DUP3 SLOAD AND GAS CALL RETURNDATASIZE ISZERO PUSH2 0x4AB JUMPI RETURNDATASIZE PUSH8 0xFFFFFFFFFFFFFFFF DUP2 GT PUSH2 0x495 JUMPI PUSH1 0x40 MLOAD SWAP1 PUSH2 0x408 PUSH1 0x1F DUP3 ADD PUSH1 0x1F NOT AND PUSH1 0x20 ADD DUP4 PUSH2 0xA6A JUMP JUMPDEST DUP2 MSTORE PUSH1 0x0 PUSH1 0x20 RETURNDATASIZE SWAP3 ADD RETURNDATACOPY JUMPDEST ISZERO PUSH2 0x459 JUMPI PUSH32 0x7084F5476618D8E60B11EF0D7D3F06914655ADB8793E28FF7F018D4C76D505D5 PUSH1 0x20 PUSH1 0x0 SWAP3 PUSH1 0x40 MLOAD SWAP1 DUP2 MSTORE LOG2 PUSH1 0x1 PUSH1 0x0 DUP1 MLOAD PUSH1 0x20 PUSH2 0xAC9 DUP4 CODECOPY DUP2 MLOAD SWAP2 MSTORE SSTORE STOP JUMPDEST PUSH1 0x40 MLOAD PUSH3 0x461BCD PUSH1 0xE5 SHL DUP2 MSTORE PUSH1 0x20 PUSH1 0x4 DUP3 ADD MSTORE PUSH1 0x14 PUSH1 0x24 DUP3 ADD MSTORE PUSH20 0x10559056081D1C985B9CD9995C8819985A5B1959 PUSH1 0x62 SHL PUSH1 0x44 DUP3 ADD MSTORE PUSH1 0x64 SWAP1 REVERT JUMPDEST PUSH4 0x4E487B71 PUSH1 0xE0 SHL PUSH1 0x0 MSTORE PUSH1 0x41 PUSH1 0x4 MSTORE PUSH1 0x24 PUSH1 0x0 REVERT JUMPDEST PUSH2 0x413 JUMP JUMPDEST PUSH1 0x40 MLOAD PUSH3 0x461BCD PUSH1 0xE5 SHL DUP2 MSTORE PUSH1 0x20 PUSH1 0x4 DUP3 ADD MSTORE PUSH1 0x11 PUSH1 0x24 DUP3 ADD MSTORE PUSH17 0x92DCE6EACCCCD2C6D2CADCE84082AC82B PUSH1 0x7B SHL PUSH1 0x44 DUP3 ADD MSTORE PUSH1 0x64 SWAP1 REVERT JUMPDEST CALLVALUE PUSH2 0x27F JUMPI PUSH1 0x0 CALLDATASIZE PUSH1 0x3 NOT ADD SLT PUSH2 0x27F JUMPI PUSH1 0x20 PUSH1 0x6 SLOAD PUSH1 0x40 MLOAD SWAP1 DUP2 MSTORE RETURN JUMPDEST CALLVALUE PUSH2 0x27F JUMPI PUSH1 0x0 CALLDATASIZE PUSH1 0x3 NOT ADD SLT PUSH2 0x27F JUMPI PUSH2 0x52D PUSH1 0x1 DUP1 PUSH1 0xA0 SHL SUB PUSH1 0x1 SLOAD AND CALLER EQ PUSH2 0x9E3 JUMP JUMPDEST PUSH2 0x535 PUSH2 0xA8C JUMP JUMPDEST PUSH1 0xFF PUSH1 0x7 SLOAD AND ISZERO PUSH2 0x60F JUMPI PUSH2 0x54F PUSH1 0x4 SLOAD PUSH1 0x3 SLOAD SWAP1 PUSH2 0x9D6 JUMP JUMPDEST TIMESTAMP LT PUSH2 0x5DF JUMPI PUSH1 0x6 SLOAD PUSH1 0x0 NOT DUP2 EQ PUSH2 0x5C9 JUMPI PUSH1 0x1 ADD PUSH1 0x6 SSTORE TIMESTAMP PUSH1 0x4 SSTORE PUSH32 0x2D34647A20CA77C2E73DB80E924F221793F95460C4A41BE3E7A73FA3DB2268B7 PUSH1 0x40 PUSH1 0x2 SLOAD PUSH2 0x59D DUP2 PUSH1 0x5 SLOAD PUSH2 0x9D6 JUMP JUMPDEST PUSH1 0x5 SSTORE DUP2 MLOAD SWAP1 DUP2 MSTORE TIMESTAMP PUSH1 0x20 DUP3 ADD MSTORE LOG1 PUSH1 0x1 PUSH1 0x0 DUP1 MLOAD PUSH1 0x20 PUSH2 0xAC9 DUP4 CODECOPY DUP2 MLOAD SWAP2 MSTORE SSTORE PUSH1 0x20 PUSH1 0x40 MLOAD PUSH1 0x1 DUP2 MSTORE RETURN JUMPDEST PUSH4 0x4E487B71 PUSH1 0xE0 SHL PUSH1 0x0 MSTORE PUSH1 0x11 PUSH1 0x4 MSTORE PUSH1 0x24 PUSH1 0x0 REVERT JUMPDEST PUSH1 0x40 MLOAD PUSH3 0x461BCD PUSH1 0xE5 SHL DUP2 MSTORE PUSH1 0x20 PUSH1 0x4 DUP3 ADD MSTORE PUSH1 0x8 PUSH1 0x24 DUP3 ADD MSTORE PUSH8 0x2A37B79039B7B7B7 PUSH1 0xC1 SHL PUSH1 0x44 DUP3 ADD MSTORE PUSH1 0x64 SWAP1 REVERT JUMPDEST PUSH1 0x40 MLOAD PUSH3 0x461BCD PUSH1 0xE5 SHL DUP2 MSTORE PUSH1 0x20 PUSH1 0x4 DUP3 ADD MSTORE PUSH1 0xF PUSH1 0x24 DUP3 ADD MSTORE PUSH15 0x15985D5B1D081A5CC81C185D5CD959 PUSH1 0x8A SHL PUSH1 0x44 DUP3 ADD MSTORE PUSH1 0x64 SWAP1 REVERT JUMPDEST CALLVALUE PUSH2 0x27F JUMPI PUSH1 0x0 CALLDATASIZE PUSH1 0x3 NOT ADD SLT PUSH2 0x27F JUMPI PUSH1 0x0 SLOAD PUSH1 0x40 MLOAD PUSH1 0x1 PUSH1 0x1 PUSH1 0xA0 SHL SUB SWAP1 SWAP2 AND DUP2 MSTORE PUSH1 0x20 SWAP1 RETURN JUMPDEST CALLVALUE PUSH2 0x27F JUMPI PUSH1 0x0 CALLDATASIZE PUSH1 0x3 NOT ADD SLT PUSH2 0x27F JUMPI PUSH2 0x695 PUSH1 0x1 DUP1 PUSH1 0xA0 SHL SUB PUSH1 0x0 SLOAD AND CALLER EQ PUSH2 0x91C JUMP JUMPDEST PUSH1 0x7 SLOAD PUSH1 0xFF DUP2 AND ISZERO PUSH2 0x6CF JUMPI PUSH1 0xFF NOT AND PUSH1 0x7 SSTORE PUSH32 0xDA9F8B34D443B240F8CC4C9CC013A7723B45924B823BD142AE3B3D79C371EB7C PUSH1 0x0 DUP1 LOG1 STOP JUMPDEST PUSH1 0x40 MLOAD PUSH3 0x461BCD PUSH1 0xE5 SHL DUP2 MSTORE PUSH1 0x20 PUSH1 0x4 DUP3 ADD MSTORE PUSH1 0xE PUSH1 0x24 DUP3 ADD MSTORE PUSH14 0x105B1C9958591E481C185D5CD959 PUSH1 0x92 SHL PUSH1 0x44 DUP3 ADD MSTORE PUSH1 0x64 SWAP1 REVERT JUMPDEST CALLVALUE PUSH2 0x27F JUMPI PUSH1 0x0 CALLDATASIZE PUSH1 0x3 NOT ADD SLT PUSH2 0x27F JUMPI PUSH1 0xFF PUSH1 0x7 SLOAD AND DUP1 PUSH2 0x72F JUMPI JUMPDEST PUSH1 0x20 SWAP1 PUSH1 0x40 MLOAD SWAP1 ISZERO ISZERO DUP2 MSTORE RETURN JUMPDEST POP PUSH1 0x20 PUSH2 0x741 PUSH1 0x4 SLOAD PUSH1 0x3 SLOAD SWAP1 PUSH2 0x9D6 JUMP JUMPDEST TIMESTAMP LT ISZERO SWAP1 POP PUSH2 0x722 JUMP JUMPDEST CALLVALUE PUSH2 0x27F JUMPI PUSH1 0x0 CALLDATASIZE PUSH1 0x3 NOT ADD SLT PUSH2 0x27F JUMPI PUSH1 0x20 PUSH1 0x5 SLOAD PUSH1 0x40 MLOAD SWAP1 DUP2 MSTORE RETURN JUMPDEST CALLVALUE PUSH2 0x27F JUMPI PUSH1 0x0 CALLDATASIZE PUSH1 0x3 NOT ADD SLT PUSH2 0x27F JUMPI PUSH2 0x100 PUSH1 0x2 SLOAD PUSH1 0x3 SLOAD PUSH1 0x4 SLOAD SWAP1 PUSH2 0x791 DUP2 DUP4 PUSH2 0x9D6 JUMP JUMPDEST PUSH1 0x5 SLOAD PUSH1 0x6 SLOAD SWAP2 PUSH1 0xFF PUSH1 0x7 SLOAD AND SWAP5 DUP6 SWAP5 DUP6 PUSH2 0x7D6 JUMPI JUMPDEST PUSH1 0x40 MLOAD SWAP8 DUP9 MSTORE PUSH1 0x20 DUP9 ADD MSTORE PUSH1 0x40 DUP8 ADD MSTORE PUSH1 0x60 DUP7 ADD MSTORE PUSH1 0x80 DUP6 ADD MSTORE PUSH1 0xA0 DUP5 ADD MSTORE ISZERO ISZERO PUSH1 0xC0 DUP4 ADD MSTORE ISZERO ISZERO PUSH1 0xE0 DUP3 ADD MSTORE RETURN JUMPDEST SWAP6 POP PUSH2 0x7E2 DUP7 DUP3 PUSH2 0x9D6 JUMP JUMPDEST TIMESTAMP LT ISZERO SWAP6 PUSH2 0x7A7 JUMP JUMPDEST CALLVALUE PUSH2 0x27F JUMPI PUSH1 0x0 CALLDATASIZE PUSH1 0x3 NOT ADD SLT PUSH2 0x27F JUMPI PUSH1 0x20 PUSH1 0x2 SLOAD PUSH1 0x40 MLOAD SWAP1 DUP2 MSTORE RETURN JUMPDEST CALLVALUE PUSH2 0x27F JUMPI PUSH1 0x0 CALLDATASIZE PUSH1 0x3 NOT ADD SLT PUSH2 0x27F JUMPI PUSH2 0x82F PUSH1 0x1 DUP1 PUSH1 0xA0 SHL SUB PUSH1 0x0 SLOAD AND CALLER EQ PUSH2 0x91C JUMP JUMPDEST PUSH1 0x7 SLOAD PUSH1 0xFF DUP2 AND PUSH2 0x86B JUMPI PUSH1 0xFF NOT AND PUSH1 0x1 OR PUSH1 0x7 SSTORE PUSH32 0x24BBFA46317916D25BBE66F8089A3529E508CAC063113C9162EA96F3BC4642CE PUSH1 0x0 DUP1 LOG1 STOP JUMPDEST PUSH1 0x40 MLOAD PUSH3 0x461BCD PUSH1 0xE5 SHL DUP2 MSTORE PUSH1 0x20 PUSH1 0x4 DUP3 ADD MSTORE PUSH1 0xE PUSH1 0x24 DUP3 ADD MSTORE PUSH14 0x416C726561647920616374697665 PUSH1 0x90 SHL PUSH1 0x44 DUP3 ADD MSTORE PUSH1 0x64 SWAP1 REVERT JUMPDEST CALLVALUE PUSH2 0x27F JUMPI PUSH1 0x0 CALLDATASIZE PUSH1 0x3 NOT ADD SLT PUSH2 0x27F JUMPI PUSH1 0x20 PUSH1 0xFF PUSH1 0x7 SLOAD AND PUSH1 0x40 MLOAD SWAP1 ISZERO ISZERO DUP2 MSTORE RETURN JUMPDEST CALLVALUE PUSH2 0x27F JUMPI PUSH2 0x8D2 CALLDATASIZE PUSH2 0x906 JUMP JUMPDEST SWAP1 PUSH2 0x8E8 PUSH1 0x1 DUP1 PUSH1 0xA0 SHL SUB PUSH1 0x0 SLOAD AND CALLER EQ PUSH2 0x91C JUMP JUMPDEST PUSH2 0x8F3 DUP2 ISZERO ISZERO PUSH2 0x955 JUMP JUMPDEST PUSH2 0x8FE DUP3 ISZERO ISZERO PUSH2 0x996 JUMP JUMPDEST PUSH1 0x2 SSTORE PUSH1 0x3 SSTORE STOP JUMPDEST PUSH1 0x40 SWAP1 PUSH1 0x3 NOT ADD SLT PUSH2 0x27F JUMPI PUSH1 0x4 CALLDATALOAD SWAP1 PUSH1 0x24 CALLDATALOAD SWAP1 JUMP JUMPDEST ISZERO PUSH2 0x923 JUMPI JUMP JUMPDEST PUSH1 0x40 MLOAD PUSH3 0x461BCD PUSH1 0xE5 SHL DUP2 MSTORE PUSH1 0x20 PUSH1 0x4 DUP3 ADD MSTORE PUSH1 0xA PUSH1 0x24 DUP3 ADD MSTORE PUSH10 0x27B7363C9037BBB732B9 PUSH1 0xB1 SHL PUSH1 0x44 DUP3 ADD MSTORE PUSH1 0x64 SWAP1 REVERT JUMPDEST ISZERO PUSH2 0x95C JUMPI JUMP JUMPDEST PUSH1 0x40 MLOAD PUSH3 0x461BCD PUSH1 0xE5 SHL DUP2 MSTORE PUSH1 0x20 PUSH1 0x4 DUP3 ADD MSTORE PUSH1 0x12 PUSH1 0x24 DUP3 ADD MSTORE PUSH18 0x125B9D985B1A5908189D5E48185B5BDD5B9D PUSH1 0x72 SHL PUSH1 0x44 DUP3 ADD MSTORE PUSH1 0x64 SWAP1 REVERT JUMPDEST ISZERO PUSH2 0x99D JUMPI JUMP JUMPDEST PUSH1 0x40 MLOAD PUSH3 0x461BCD PUSH1 0xE5 SHL DUP2 MSTORE PUSH1 0x20 PUSH1 0x4 DUP3 ADD MSTORE PUSH1 0x11 PUSH1 0x24 DUP3 ADD MSTORE PUSH17 0x496E76616C6964206672657175656E6379 PUSH1 0x78 SHL PUSH1 0x44 DUP3 ADD MSTORE PUSH1 0x64 SWAP1 REVERT JUMPDEST SWAP2 SWAP1 DUP3 ADD DUP1 SWAP3 GT PUSH2 0x5C9 JUMPI JUMP JUMPDEST ISZERO PUSH2 0x9EA JUMPI JUMP JUMPDEST PUSH1 0x40 MLOAD PUSH3 0x461BCD PUSH1 0xE5 SHL DUP2 MSTORE PUSH1 0x20 PUSH1 0x4 DUP3 ADD MSTORE PUSH1 0xC PUSH1 0x24 DUP3 ADD MSTORE PUSH12 0x4F6E6C7920666163746F7279 PUSH1 0xA0 SHL PUSH1 0x44 DUP3 ADD MSTORE PUSH1 0x64 SWAP1 REVERT JUMPDEST ISZERO PUSH2 0xA25 JUMPI JUMP JUMPDEST PUSH1 0x40 MLOAD PUSH3 0x461BCD PUSH1 0xE5 SHL DUP2 MSTORE PUSH1 0x20 PUSH1 0x4 DUP3 ADD MSTORE PUSH1 0x17 PUSH1 0x24 DUP3 ADD MSTORE PUSH32 0x416D6F756E74206D75737420626520706F736974697665000000000000000000 PUSH1 0x44 DUP3 ADD MSTORE PUSH1 0x64 SWAP1 REVERT JUMPDEST SWAP1 PUSH1 0x1F DUP1 NOT SWAP2 ADD AND DUP2 ADD SWAP1 DUP2 LT PUSH8 0xFFFFFFFFFFFFFFFF DUP3 GT OR PUSH2 0x495 JUMPI PUSH1 0x40 MSTORE JUMP JUMPDEST PUSH1 0x2 PUSH1 0x0 DUP1 MLOAD PUSH1 0x20 PUSH2 0xAC9 DUP4 CODECOPY DUP2 MLOAD SWAP2 MSTORE SLOAD EQ PUSH2 0xAB7 JUMPI PUSH1 0x2 PUSH1 0x0 DUP1 MLOAD PUSH1 0x20 PUSH2 0xAC9 DUP4 CODECOPY DUP2 MLOAD SWAP2 MSTORE SSTORE JUMP JUMPDEST PUSH4 0x3EE5AEB5 PUSH1 0xE0 SHL PUSH1 0x0 MSTORE PUSH1 0x4 PUSH1 0x0 REVERT INVALID SWAP12 PUSH24 0x9B17422D0DF92223018B32B4D1FA46E071723D6817E2486D STOP EXTCODESIZE 0xEC 0xC5 PUSH0 STOP LOG2 PUSH5 0x6970667358 0x22 SLT KECCAK256 SWAP10 CALLDATASIZE PUSH18 0x389343A20FBD73BF18553519AC5F61F4D08A BLOBHASH DELEGATECALL SELFBALANCE 0xA6 0x4D 0x2C CALLDATALOAD 0xAC PUSH24 0xFE2664736F6C634300081C0033A264697066735822122013 0x21 0x22 SSTORE SWAP13 0xC3 0xC9 0xDD 0xC2 0x29 PUSH30 0x8B6CCCC7C1D673F9499065761675AAE48F0E56A91564736F6C634300081C STOP CALLER "
        },
        "methodIdentifiers": {
          "allVaults(uint256)": "9094a91e",
          "burnTracker()": "d306254d",
          "createVault(uint256,uint256)": "e5fbab85",
          "executionEngine()": "23a92172",
          "getAllVaults()": "97331bf9",
          "getMyVault()": "6f8206ba",
          "owner()": "8da5cb5b",
          "setBurnTracker(address)": "ab2cba85",
          "setExecutionEngine(address)": "48861e1c",
          "triggerBatchDCA(address[])": "5064e065",
          "triggerDCA(address)": "d42a0a32",
          "userVault(address)": "8303efef"
        }
      }
    }
  }
}