{
  "contracts/mocks/MockTraderJoe.sol": {
    "MockTraderJoe": {
      "abi": [
        {
          "inputs": [
            {
              "internalType": "address",
              "name": "_wavax",
              "type": "address"
            }
          ],
          "stateMutability": "nonpayable",
          "type": "constructor"
        },
        {
          "inputs": [
            {
              "internalType": "address",
              "name": "token",
              "type": "address"
            }
          ],
          "name": "SafeERC20FailedOperation",
          "type": "error"
        },
        {
          "inputs": [],
          "name": "exchangeRate",
          "outputs": [
            {
              "internalType": "uint256",
              "name": "",
              "type": "uint256"
            }
          ],
          "stateMutability": "view",
          "type": "function"
        },
        {
          "inputs": [
            {
              "internalType": "uint256",
              "name": "_rate",
              "type": "uint256"
            }
          ],
          "name": "setExchangeRate",
          "outputs": [],
          "stateMutability": "nonpayable",
          "type": "function"
        },
        {
          "inputs": [
            {
              "internalType": "uint256",
              "name": "amountIn",
              "type": "uint256"
            },
            {
              "internalType": "uint256",
              "name": "amountOutMin",
              "type": "uint256"
            },
            {
              "components": [
                {
                  "internalType": "uint256[]",
                  "name": "pairBinSteps",
                  "type": "uint256[]"
                },
                {
                  "internalType": "address[]",
                  "name": "tokenPath",
                  "type": "address[]"
                }
              ],
              "internalType": "struct ILBRouter.Path",
              "name": "path",
              "type": "tuple"
            },
            {
              "internalType": "address",
              "name": "to",
              "type": "address"
            },
            {
              "internalType": "uint256",
              "name": "",
              "type": "uint256"
            }
          ],
          "name": "swapExactTokensForTokens",
          "outputs": [
            {
              "internalType": "uint256",
              "name": "amountOut",
              "type": "uint256"
            }
          ],
          "stateMutability": "nonpayable",
          "type": "function"
        },
        {
          "inputs": [],
          "name": "wavax",
          "outputs": [
            {
              "internalType": "address",
              "name": "",
              "type": "address"
            }
          ],
          "stateMutability": "view",
          "type": "function"
        }
      ],
      "evm": {
        "bytecode": {
          "linkReferences": {},
          "object": "608034607b57601f6103ca38819003918201601f19168301916001600160401b03831184841017608057808492602094604052833981010312607b57516001600160a01b03811690819003607b5766b1a2bc2ec50000600055600180546001600160a01b03191691909117905560405161033390816100978239f35b600080fd5b634e487b7160e01b600052604160045260246000fdfe608080604052600436101561001357600080fd5b60003560e01c908163117be4c2146102d9575080633ba0b9a9146102bb578063d669fe12146100695763db068e0e1461004b57600080fd5b3461006457602036600319011261006457600435600055005b600080fd5b346100645760a03660031901126100645760443560043567ffffffffffffffff8211610064578136036040600319820112610064576064356001600160a01b03811693908490036100645760248101359160221901821215610064570160048101359067ffffffffffffffff821161006457602401908060051b3603821361006457156102a557356001600160a01b038116908190036100645760006020604051916323b872dd60e01b815233600452306024528460445260648180865af190600160005114821615610283575b60405260006060521561026f5750600054908181029181830414901517156102595764e8d4a5100081029080820464e8d4a51000149015171561025957670de0b6b3a764000090049060243582106102095760018060a01b036001541691602060006040519363a9059cbb60e01b82526004528260245260448180875af16001600051148116156101e9575b82604052156101d457602092508152f35b82635274afe760e01b60005260045260246000fd5b60018115166101ff57833b15153d1516166101c3565b823d6000823e3d90fd5b60405162461bcd60e51b815260206004820152602260248201527f4d6f636b5472616465724a6f653a20696e73756666696369656e74206f7574706044820152611d5d60f21b6064820152608490fd5b634e487b7160e01b600052601160045260246000fd5b635274afe760e01b60005260045260246000fd5b90600181151661029b57823b15153d15161690610137565b503d6000823e3d90fd5b634e487b7160e01b600052603260045260246000fd5b34610064576000366003190112610064576020600054604051908152f35b34610064576000366003190112610064576001546001600160a01b03168152602090f3fea2646970667358221220f2e46efa119df3066bf9ed211f1ef8138a7771b3dc0d8584047bdc286d06516564736f6c634300081c0033",
          "opcodes": "PUSH1 0x80 CALLVALUE PUSH1 0x7B JUMPI PUSH1 0x1F PUSH2 0x3CA CODESIZE DUP2 SWAP1 SUB SWAP2 DUP3 ADD PUSH1 0x1F NOT AND DUP4 ADD SWAP2 PUSH1 0x1 PUSH1 0x1 PUSH1 0x40 SHL SUB DUP4 GT DUP5 DUP5 LT OR PUSH1 0x80 JUMPI DUP1 DUP5 SWAP3 PUSH1 0x20 SWAP5 PUSH1 0x40 MSTORE DUP4 CODECOPY DUP2 ADD SUB SLT PUSH1 0x7B JUMPI MLOAD PUSH1 0x1 PUSH1 0x1 PUSH1 0xA0 SHL SUB DUP2 AND SWAP1 DUP2 SWAP1 SUB PUSH1 0x7B JUMPI PUSH7 0xB1A2BC2EC50000 PUSH1 0x0 SSTORE PUSH1 0x1 DUP1 SLOAD PUSH1 0x1 PUSH1 0x1 PUSH1 0xA0 SHL SUB NOT AND SWAP2 SWAP1 SWAP2 OR SWAP1 SSTORE PUSH1 0x40 MLOAD PUSH2 0x333 SWAP1 DUP2 PUSH2 0x97 DUP3 CODECOPY RETURN JUMPDEST PUSH1 0x0 DUP1 REVERT JUMPDEST PUSH4 0x4E487B71 PUSH1 0xE0 SHL PUSH1 0x0 MSTORE PUSH1 0x41 PUSH1 0x4 MSTORE PUSH1 0x24 PUSH1 0x0 REVERT INVALID PUSH1 0x80 DUP1 PUSH1 0x40 MSTORE PUSH1 0x4 CALLDATASIZE LT ISZERO PUSH2 0x13 JUMPI PUSH1 0x0 DUP1 REVERT JUMPDEST PUSH1 0x0 CALLDATALOAD PUSH1 0xE0 SHR SWAP1 DUP2 PUSH4 0x117BE4C2 EQ PUSH2 0x2D9 JUMPI POP DUP1 PUSH4 0x3BA0B9A9 EQ PUSH2 0x2BB JUMPI DUP1 PUSH4 0xD669FE12 EQ PUSH2 0x69 JUMPI PUSH4 0xDB068E0E EQ PUSH2 0x4B JUMPI PUSH1 0x0 DUP1 REVERT JUMPDEST CALLVALUE PUSH2 0x64 JUMPI PUSH1 0x20 CALLDATASIZE PUSH1 0x3 NOT ADD SLT PUSH2 0x64 JUMPI PUSH1 0x4 CALLDATALOAD PUSH1 0x0 SSTORE STOP JUMPDEST PUSH1 0x0 DUP1 REVERT JUMPDEST CALLVALUE PUSH2 0x64 JUMPI PUSH1 0xA0 CALLDATASIZE PUSH1 0x3 NOT ADD SLT PUSH2 0x64 JUMPI PUSH1 0x44 CALLDATALOAD PUSH1 0x4 CALLDATALOAD PUSH8 0xFFFFFFFFFFFFFFFF DUP3 GT PUSH2 0x64 JUMPI DUP2 CALLDATASIZE SUB PUSH1 0x40 PUSH1 0x3 NOT DUP3 ADD SLT PUSH2 0x64 JUMPI PUSH1 0x64 CALLDATALOAD PUSH1 0x1 PUSH1 0x1 PUSH1 0xA0 SHL SUB DUP2 AND SWAP4 SWAP1 DUP5 SWAP1 SUB PUSH2 0x64 JUMPI PUSH1 0x24 DUP2 ADD CALLDATALOAD SWAP2 PUSH1 0x22 NOT ADD DUP3 SLT ISZERO PUSH2 0x64 JUMPI ADD PUSH1 0x4 DUP2 ADD CALLDATALOAD SWAP1 PUSH8 0xFFFFFFFFFFFFFFFF DUP3 GT PUSH2 0x64 JUMPI PUSH1 0x24 ADD SWAP1 DUP1 PUSH1 0x5 SHL CALLDATASIZE SUB DUP3 SGT PUSH2 0x64 JUMPI ISZERO PUSH2 0x2A5 JUMPI CALLDATALOAD PUSH1 0x1 PUSH1 0x1 PUSH1 0xA0 SHL SUB DUP2 AND SWAP1 DUP2 SWAP1 SUB PUSH2 0x64 JUMPI PUSH1 0x0 PUSH1 0x20 PUSH1 0x40 MLOAD SWAP2 PUSH4 0x23B872DD PUSH1 0xE0 SHL DUP2 MSTORE CALLER PUSH1 0x4 MSTORE ADDRESS PUSH1 0x24 MSTORE DUP5 PUSH1 0x44 MSTORE PUSH1 0x64 DUP2 DUP1 DUP7 GAS CALL SWAP1 PUSH1 0x1 PUSH1 0x0 MLOAD EQ DUP3 AND ISZERO PUSH2 0x283 JUMPI JUMPDEST PUSH1 0x40 MSTORE PUSH1 0x0 PUSH1 0x60 MSTORE ISZERO PUSH2 0x26F JUMPI POP PUSH1 0x0 SLOAD SWAP1 DUP2 DUP2 MUL SWAP2 DUP2 DUP4 DIV EQ SWAP1 ISZERO OR ISZERO PUSH2 0x259 JUMPI PUSH5 0xE8D4A51000 DUP2 MUL SWAP1 DUP1 DUP3 DIV PUSH5 0xE8D4A51000 EQ SWAP1 ISZERO OR ISZERO PUSH2 0x259 JUMPI PUSH8 0xDE0B6B3A7640000 SWAP1 DIV SWAP1 PUSH1 0x24 CALLDATALOAD DUP3 LT PUSH2 0x209 JUMPI PUSH1 0x1 DUP1 PUSH1 0xA0 SHL SUB PUSH1 0x1 SLOAD AND SWAP2 PUSH1 0x20 PUSH1 0x0 PUSH1 0x40 MLOAD SWAP4 PUSH4 0xA9059CBB PUSH1 0xE0 SHL DUP3 MSTORE PUSH1 0x4 MSTORE DUP3 PUSH1 0x24 MSTORE PUSH1 0x44 DUP2 DUP1 DUP8 GAS CALL PUSH1 0x1 PUSH1 0x0 MLOAD EQ DUP2 AND ISZERO PUSH2 0x1E9 JUMPI JUMPDEST DUP3 PUSH1 0x40 MSTORE ISZERO PUSH2 0x1D4 JUMPI PUSH1 0x20 SWAP3 POP DUP2 MSTORE RETURN JUMPDEST DUP3 PUSH4 0x5274AFE7 PUSH1 0xE0 SHL PUSH1 0x0 MSTORE PUSH1 0x4 MSTORE PUSH1 0x24 PUSH1 0x0 REVERT JUMPDEST PUSH1 0x1 DUP2 ISZERO AND PUSH2 0x1FF JUMPI DUP4 EXTCODESIZE ISZERO ISZERO RETURNDATASIZE ISZERO AND AND PUSH2 0x1C3 JUMP JUMPDEST DUP3 RETURNDATASIZE PUSH1 0x0 DUP3 RETURNDATACOPY RETURNDATASIZE SWAP1 REVERT JUMPDEST PUSH1 0x40 MLOAD PUSH3 0x461BCD PUSH1 0xE5 SHL DUP2 MSTORE PUSH1 0x20 PUSH1 0x4 DUP3 ADD MSTORE PUSH1 0x22 PUSH1 0x24 DUP3 ADD MSTORE PUSH32 0x4D6F636B5472616465724A6F653A20696E73756666696369656E74206F757470 PUSH1 0x44 DUP3 ADD MSTORE PUSH2 0x1D5D PUSH1 0xF2 SHL PUSH1 0x64 DUP3 ADD MSTORE PUSH1 0x84 SWAP1 REVERT JUMPDEST PUSH4 0x4E487B71 PUSH1 0xE0 SHL PUSH1 0x0 MSTORE PUSH1 0x11 PUSH1 0x4 MSTORE PUSH1 0x24 PUSH1 0x0 REVERT JUMPDEST PUSH4 0x5274AFE7 PUSH1 0xE0 SHL PUSH1 0x0 MSTORE PUSH1 0x4 MSTORE PUSH1 0x24 PUSH1 0x0 REVERT JUMPDEST SWAP1 PUSH1 0x1 DUP2 ISZERO AND PUSH2 0x29B JUMPI DUP3 EXTCODESIZE ISZERO ISZERO RETURNDATASIZE ISZERO AND AND SWAP1 PUSH2 0x137 JUMP JUMPDEST POP RETURNDATASIZE PUSH1 0x0 DUP3 RETURNDATACOPY RETURNDATASIZE SWAP1 REVERT JUMPDEST PUSH4 0x4E487B71 PUSH1 0xE0 SHL PUSH1 0x0 MSTORE PUSH1 0x32 PUSH1 0x4 MSTORE PUSH1 0x24 PUSH1 0x0 REVERT JUMPDEST CALLVALUE PUSH2 0x64 JUMPI PUSH1 0x0 CALLDATASIZE PUSH1 0x3 NOT ADD SLT PUSH2 0x64 JUMPI PUSH1 0x20 PUSH1 0x0 SLOAD PUSH1 0x40 MLOAD SWAP1 DUP2 MSTORE RETURN JUMPDEST CALLVALUE PUSH2 0x64 JUMPI PUSH1 0x0 CALLDATASIZE PUSH1 0x3 NOT ADD SLT PUSH2 0x64 JUMPI PUSH1 0x1 SLOAD PUSH1 0x1 PUSH1 0x1 PUSH1 0xA0 SHL SUB AND DUP2 MSTORE PUSH1 0x20 SWAP1 RETURN INVALID LOG2 PUSH5 0x6970667358 0x22 SLT KECCAK256 CALLCODE 0xE4 PUSH15 0xFA119DF3066BF9ED211F1EF8138A77 PUSH18 0xB3DC0D8584047BDC286D06516564736F6C63 NUMBER STOP ADDMOD SHR STOP CALLER "
        },
        "methodIdentifiers": {
          "exchangeRate()": "3ba0b9a9",
          "setExchangeRate(uint256)": "db068e0e",
          "swapExactTokensForTokens(uint256,uint256,(uint256[],address[]),address,uint256)": "d669fe12",
          "wavax()": "117be4c2"
        }
      }
    }
  }
}