{
  "contracts/ExecutionEngine.sol": {
    "ExecutionEngine": {
      "abi": [
        {
          "inputs": [
            {
              "internalType": "address",
              "name": "_burnTracker",
              "type": "address"
            }
          ],
          "stateMutability": "nonpayable",
          "type": "constructor"
        },
        {
          "inputs": [],
          "name": "ReentrancyGuardReentrantCall",
          "type": "error"
        },
        {
          "inputs": [
            {
              "internalType": "address",
              "name": "token",
              "type": "address"
            }
          ],
          "name": "SafeERC20FailedOperation",
          "type": "error"
        },
        {
          "anonymous": false,
          "inputs": [
            {
              "indexed": true,
              "internalType": "address",
              "name": "vault",
              "type": "address"
            },
            {
              "indexed": true,
              "internalType": "address",
              "name": "user",
              "type": "address"
            },
            {
              "indexed": false,
              "internalType": "uint256",
              "name": "usdcSpent",
              "type": "uint256"
            },
            {
              "indexed": false,
              "internalType": "uint256",
              "name": "avaxReceived",
              "type": "uint256"
            },
            {
              "indexed": false,
              "internalType": "uint256",
              "name": "qiTokens",
              "type": "uint256"
            }
          ],
          "name": "DCAExecuted",
          "type": "event"
        },
        {
          "anonymous": false,
          "inputs": [
            {
              "indexed": true,
              "internalType": "address",
              "name": "vault",
              "type": "address"
            },
            {
              "indexed": false,
              "internalType": "bytes",
              "name": "reason",
              "type": "bytes"
            }
          ],
          "name": "DCAFailed",
          "type": "event"
        },
        {
          "anonymous": false,
          "inputs": [
            {
              "indexed": true,
              "internalType": "address",
              "name": "oldFactory",
              "type": "address"
            },
            {
              "indexed": true,
              "internalType": "address",
              "name": "newFactory",
              "type": "address"
            }
          ],
          "name": "FactoryUpdated",
          "type": "event"
        },
        {
          "inputs": [],
          "name": "BENQI_qiAVAX",
          "outputs": [
            {
              "internalType": "address",
              "name": "",
              "type": "address"
            }
          ],
          "stateMutability": "view",
          "type": "function"
        },
        {
          "inputs": [],
          "name": "LB_ROUTER",
          "outputs": [
            {
              "internalType": "address",
              "name": "",
              "type": "address"
            }
          ],
          "stateMutability": "view",
          "type": "function"
        },
        {
          "inputs": [],
          "name": "PRECISION",
          "outputs": [
            {
              "internalType": "uint256",
              "name": "",
              "type": "uint256"
            }
          ],
          "stateMutability": "view",
          "type": "function"
        },
        {
          "inputs": [],
          "name": "SLIPPAGE",
          "outputs": [
            {
              "internalType": "uint256",
              "name": "",
              "type": "uint256"
            }
          ],
          "stateMutability": "view",
          "type": "function"
        },
        {
          "inputs": [],
          "name": "USDC",
          "outputs": [
            {
              "internalType": "address",
              "name": "",
              "type": "address"
            }
          ],
          "stateMutability": "view",
          "type": "function"
        },
        {
          "inputs": [],
          "name": "WAVAX",
          "outputs": [
            {
              "internalType": "address",
              "name": "",
              "type": "address"
            }
          ],
          "stateMutability": "view",
          "type": "function"
        },
        {
          "inputs": [
            {
              "internalType": "address",
              "name": "vault",
              "type": "address"
            }
          ],
          "name": "_executeInternal",
          "outputs": [],
          "stateMutability": "nonpayable",
          "type": "function"
        },
        {
          "inputs": [],
          "name": "burnTracker",
          "outputs": [
            {
              "internalType": "contract BurnTracker",
              "name": "",
              "type": "address"
            }
          ],
          "stateMutability": "view",
          "type": "function"
        },
        {
          "inputs": [
            {
              "internalType": "address[]",
              "name": "vaults",
              "type": "address[]"
            }
          ],
          "name": "executeBatch",
          "outputs": [],
          "stateMutability": "nonpayable",
          "type": "function"
        },
        {
          "inputs": [
            {
              "internalType": "address",
              "name": "vault",
              "type": "address"
            }
          ],
          "name": "executeDCA",
          "outputs": [
            {
              "internalType": "bool",
              "name": "",
              "type": "bool"
            }
          ],
          "stateMutability": "nonpayable",
          "type": "function"
        },
        {
          "inputs": [],
          "name": "factory",
          "outputs": [
            {
              "internalType": "address",
              "name": "",
              "type": "address"
            }
          ],
          "stateMutability": "view",
          "type": "function"
        },
        {
          "inputs": [],
          "name": "factoryLocked",
          "outputs": [
            {
              "internalType": "bool",
              "name": "",
              "type": "bool"
            }
          ],
          "stateMutability": "view",
          "type": "function"
        },
        {
          "inputs": [],
          "name": "getConfig",
          "outputs": [
            {
              "internalType": "address",
              "name": "_factory",
              "type": "address"
            },
            {
              "internalType": "address",
              "name": "_burnTracker",
              "type": "address"
            },
            {
              "internalType": "bool",
              "name": "_factoryLocked",
              "type": "bool"
            }
          ],
          "stateMutability": "view",
          "type": "function"
        },
        {
          "inputs": [],
          "name": "isReady",
          "outputs": [
            {
              "internalType": "bool",
              "name": "",
              "type": "bool"
            }
          ],
          "stateMutability": "view",
          "type": "function"
        },
        {
          "inputs": [
            {
              "internalType": "address",
              "name": "_factory",
              "type": "address"
            }
          ],
          "name": "setFactory",
          "outputs": [],
          "stateMutability": "nonpayable",
          "type": "function"
        }
      ],
      "evm": {
        "bytecode": {
          "linkReferences": {},
          "object": "6080346100f557601f6118af38819003918201601f19168301916001600160401b038311848410176100fa578084926020946040528339810103126100f557516001600160a01b038116908190036100f55760017f9b779b17422d0df92223018b32b4d1fa46e071723d6817e2486d003becc55f005580156100b057600080546001600160a01b03191633179055600180546001600160a81b03191691909117905560405161179e90816101118239f35b60405162461bcd60e51b815260206004820152601360248201527f496e76616c6964204275726e547261636b6572000000000000000000000000006044820152606490fd5b600080fd5b634e487b7160e01b600052604160045260246000fdfe608080604052600436101561001357600080fd5b600090813560e01c90816307f03d4414610fca5750806336b4134a14610fae5780633be37e7914610b125780635bb47808146109d45780635bbf3783146107ce57806373b295c21461079f57806389a3027114610770578063a094a0311461072d578063aaf5eb6814610710578063be424af3146106e7578063c3f909d4146106a5578063c45a01551461067e578063d306254d14610655578063ec7d7df5146100ee5763f2355bac146100c657600080fd5b346100eb57806003193601126100eb57602060ff60015460a01c166040519015158152f35b80fd5b50346100eb5760203660031901126100eb576004356001600160a01b03811680820361046a5761011c611319565b303303610620575a604051631fa7053160e01b81529290602084600481865afa9384156106155785946105e1575b50604051638da5cb5b60e01b815293602085600481875afa9485156105d65786956105a5575b5061017c81151561108a565b610187813087611355565b6101908161141b565b6101986110cb565b9160409060146101c483516101ad8582611033565b60018152601f1985013660208301378087526110f5565b5273b31f66aa3c1e785363f0875a1b74e27b85fd66c761022283516101ea606082611033565b60028152604036602083013773b97ef9ef8734c71904d8002f8b6bc66dd9c48a6e61021b60208901928084526110f5565b5251611118565b5261271061022f8461114b565b0461012c420194854211610591578351636b34ff0960e11b8152958a9392602092889283926102649230918b60048701611163565b038185739a93a421b74f1c5755b83dd2c211614dc419c44b5af194851561046057829561055a575b50610298851515611219565b6102a1856114c7565b82516370a0823160e01b81523060048201526020816024816000805160206117498339815191525afa90811561049b578391610525575b50835163140e25ad60e31b815260048101879052602081602481876000805160206117498339815191525af19081156104e35784916104ed575b5061031d901561125a565b83516370a0823160e01b81523060048201526020816024816000805160206117498339815191525afa9081156104e35784916104a5575b506103749161036291611128565b809761036f82151561129a565b61158a565b825163950da28760e01b8152602081600481868c5af1801561049b57906103a3929161046e575b505a90611128565b9660018060a01b036001541690813b1561046a578291606483928651948593849263287bbb3d60e01b845260018060a01b03169d8e60048501526024840152600160448401525af1801561046057610447575b505051908152602081019190915260408101919091527faf8c946fad4dc7fc3f8d96e39251f3273b720222db4b39390936a6cf0eb0803690606090a360016000805160206117298339815191525580f35b8161045191611033565b61045c5786386103f6565b8680fd5b83513d84823e3d90fd5b8280fd5b61048f9060203d602011610494575b6104878183611033565b8101906112dd565b61039b565b503d61047d565b84513d85823e3d90fd5b9350506020833d6020116104db575b816104c160209383611033565b810103126104d6579151899290610374610354565b600080fd5b3d91506104b4565b85513d86823e3d90fd5b9350506020833d60201161051d575b8161050960209383611033565b810103126104d65761031d8a935190610312565b3d91506104fc565b9250506020823d602011610552575b8161054160209383611033565b810103126104d657889151386102d8565b3d9150610534565b915093506020813d602011610589575b8161057760209383611033565b810103126104d657879051933861028c565b3d915061056a565b634e487b7160e01b8a52601160045260248afd5b6105c891955060203d6020116105cf575b6105c08183611033565b81019061106b565b9338610170565b503d6105b6565b6040513d88823e3d90fd5b9093506020813d60201161060d575b816105fd60209383611033565b810103126104d65751923861014a565b3d91506105f0565b6040513d87823e3d90fd5b60405162461bcd60e51b815260206004820152600d60248201526c496e7465726e616c206f6e6c7960981b6044820152606490fd5b50346100eb57806003193601126100eb576001546040516001600160a01b039091168152602090f35b50346100eb57806003193601126100eb57546040516001600160a01b039091168152602090f35b50346100eb57806003193601126100eb5754600154604080516001600160a01b039384168152928216602084015260a09190911c60ff16151590820152606090f35b50346100eb57806003193601126100eb5760206040516000805160206117498339815191528152f35b50346100eb57806003193601126100eb5760206040516127108152f35b50346100eb57806003193601126100eb5760209060ff60015460a01c16908161075c575b506040519015158152f35b546001600160a01b03161515905038610751565b50346100eb57806003193601126100eb57602060405173b97ef9ef8734c71904d8002f8b6bc66dd9c48a6e8152f35b50346100eb57806003193601126100eb57602060405173b31f66aa3c1e785363f0875a1b74e27b85fd66c78152f35b50346100eb5760203660031901126100eb5760043567ffffffffffffffff81116109d057366023820112156109d05780600401359067ffffffffffffffff821161046a576024810190602436918460051b01011161046a5761083a60018060a01b038454163314610ff8565b811561099e57825b82811061084d578380f35b61086061085b8285856112f5565b611305565b303b1561099a5760405163ec7d7df560e01b81526001600160a01b03909116600482015284808260248183305af19182610985575b505061097d573d15610976573d67ffffffffffffffff811161096257604051906108c9601f8201601f191660200183611033565b81523d85602083013e5b6001600160a01b036108e961085b8487876112f5565b16906040519060208252805190816020840152875b82811061094c57505081604081838a837ff2432448bd7f4f83571af712c44c366acd66e1c64f00b76f244ffe5d48383e099660019a9998010152601f80199101168101030190a25b01610842565b80602080928401015160408287010152016108fe565b634e487b7160e01b85526041600452602485fd5b60606108d3565b600190610946565b8161098f91611033565b61099a578438610895565b8480fd5b60405162461bcd60e51b815260206004820152600a602482015269115b5c1d1e481b1a5cdd60b21b6044820152606490fd5b5080fd5b50346100eb5760203660031901126100eb576004356001600160a01b038116908190036109d0578015610ade5781546001600160a01b0381169033829003610aa8576001549060ff8260a01c16610a6a576001600160a01b0319168317845560ff60a01b1916600160a01b176001557f333c7678baf16017cf31e1d2f90143a62aab01a67a0807f6836a4304ceabb5558380a380f35b60405162461bcd60e51b8152602060048201526016602482015275119858dd1bdc9e48185b1c9958591e481b1bd8dad95960521b6044820152606490fd5b60405162461bcd60e51b815260206004820152600e60248201526d139bdd08185d5d1a1bdc9a5e995960921b6044820152606490fd5b60405162461bcd60e51b815260206004820152600c60248201526b5a65726f206164647265737360a01b6044820152606490fd5b50346100eb5760203660031901126100eb576004356001600160a01b0381169081810361046a57610b4d60018060a01b038454163314610ff8565b610b55611319565b5a9160405191631fa7053160e01b8352602083600481855afa928315610615578593610f7a575b50604051638da5cb5b60e01b815292602084600481865afa9384156105d6578694610f59575b50610bae81151561108a565b610bb9813086611355565b610bc28161141b565b610bca6110cb565b916040956014610bf68851610bdf8a82611033565b60018152601f198a013660208301378087526110f5565b5273b31f66aa3c1e785363f0875a1b74e27b85fd66c7610c1c88516101ea606082611033565b52612710610c298461114b565b0461012c420194854211610591578851636b34ff0960e11b8152958a939260209288928392610c5e9230918b60048701611163565b038185739a93a421b74f1c5755b83dd2c211614dc419c44b5af1948515610f4f578295610f1b575b50610c92851515611219565b610c9b856114c7565b87516370a0823160e01b81523060048201526020816024816000805160206117498339815191525afa908115610e69578391610ee9575b50885163140e25ad60e31b815260048101879052602081602481876000805160206117498339815191525af18015610eab578490610eb5575b610d1691501561125a565b88516370a0823160e01b81523060048201526020816024816000805160206117498339815191525afa908115610eab578491610e73575b50610d6891610d5b91611128565b809461036f82151561129a565b875163950da28760e01b815290602082600481868b5af1918215610e6957610d969261046e57505a90611128565b6001549096906001600160a01b0316803b1561046a57606483928a51948593849263287bbb3d60e01b845260018060a01b03169b8c60048501526024840152600160448401525af18015610e5f5791602098610e33927faf8c946fad4dc7fc3f8d96e39251f3273b720222db4b39390936a6cf0eb08036969594610e4f575b50508751938493846040919493926060820195825260208201520152565b0390a36001600080516020611729833981519152555160018152f35b81610e5991611033565b38610e15565b87513d8a823e3d90fd5b89513d85823e3d90fd5b90506020813d602011610ea3575b81610e8e60209383611033565b81010312610e9f5751610d68610d4d565b8380fd5b3d9150610e81565b8a513d86823e3d90fd5b506020813d602011610ee1575b81610ecf60209383611033565b81010312610e9f57610d169051610d0b565b3d9150610ec2565b90506020813d602011610f13575b81610f0460209383611033565b8101031261046a575138610cd2565b3d9150610ef7565b9094506020813d602011610f47575b81610f3760209383611033565b810103126109d057519338610c86565b3d9150610f2a565b88513d84823e3d90fd5b610f7391945060203d6020116105cf576105c08183611033565b9238610ba2565b9092506020813d602011610fa6575b81610f9660209383611033565b8101031261099a57519138610b7c565b3d9150610f89565b50346100eb57806003193601126100eb57602060405160648152f35b9050346109d057816003193601126109d05780739a93a421b74f1c5755b83dd2c211614dc419c44b60209252f35b15610fff57565b60405162461bcd60e51b815260206004820152600c60248201526b4f6e6c7920666163746f727960a01b6044820152606490fd5b90601f8019910116810190811067ffffffffffffffff82111761105557604052565b634e487b7160e01b600052604160045260246000fd5b908160209103126104d657516001600160a01b03811681036104d65790565b1561109157565b60405162461bcd60e51b815260206004820152601260248201527142757920616d6f756e74206973207a65726f60701b6044820152606490fd5b604051906040820182811067ffffffffffffffff8211176110555760405260606020838281520152565b8051156111025760200190565b634e487b7160e01b600052603260045260246000fd5b8051600110156111025760400190565b9190820391821161113557565b634e487b7160e01b600052601160045260246000fd5b906126ac8202918083046126ac149015171561113557565b929190959493958352602083015260a0604083015260e0820190805191604060a085015282518091526020610100850193019060005b818110611203575050506020015190609f198382030160c08401526020808351928381520192019060005b8181106111e4575050506001600160a01b03909416606082015260800152565b82516001600160a01b03168452602093840193909201916001016111c4565b8251855260209485019490920191600101611199565b1561122057565b60405162461bcd60e51b8152602060048201526012602482015271537761702072657475726e6564207a65726f60701b6044820152606490fd5b1561126157565b60405162461bcd60e51b815260206004820152601160248201527010995b9c5a481b5a5b9d0819985a5b1959607a1b6044820152606490fd5b156112a157565b60405162461bcd60e51b8152602060048201526014602482015273139bc81c5a551bdad95b9cc81c9958d95a5d995960621b6044820152606490fd5b908160209103126104d6575180151581036104d65790565b91908110156111025760051b0190565b356001600160a01b03811681036104d65790565b6002600080516020611729833981519152541461134457600260008051602061172983398151915255565b633ee5aeb560e01b60005260046000fd5b6040516323b872dd60e01b60009081526001600160a01b03928316600452929091166024526044929092526020906064818073b97ef9ef8734c71904d8002f8b6bc66dd9c48a6e5af1906001600051148216156113e5575b6040526000606052156113bc57565b635274afe760e01b60005273b97ef9ef8734c71904d8002f8b6bc66dd9c48a6e60045260246000fd5b9060018115166114115773b97ef9ef8734c71904d8002f8b6bc66dd9c48a6e3b15153d151616906113ad565b503d6000823e3d90fd5b61144e81739a93a421b74f1c5755b83dd2c211614dc419c44b73b97ef9ef8734c71904d8002f8b6bc66dd9c48a6e611628565b156114565750565b611488739a93a421b74f1c5755b83dd2c211614dc419c44b73b97ef9ef8734c71904d8002f8b6bc66dd9c48a6e611682565b156113bc576114c090739a93a421b74f1c5755b83dd2c211614dc419c44b73b97ef9ef8734c71904d8002f8b6bc66dd9c48a6e6116ea565b156113bc57565b6114f48160008051602061174983398151915273b31f66aa3c1e785363f0875a1b74e27b85fd66c7611628565b156114fc5750565b61152860008051602061174983398151915273b31f66aa3c1e785363f0875a1b74e27b85fd66c7611682565b156115615761155a9060008051602061174983398151915273b31f66aa3c1e785363f0875a1b74e27b85fd66c76116ea565b1561156157565b635274afe760e01b60005273b31f66aa3c1e785363f0875a1b74e27b85fd66c760045260246000fd5b60405163a9059cbb60e01b60009081526001600160a01b03909216600452602492909252602090604481806000805160206117498339815191525af190600160005114821615611602575b604052156115df57565b635274afe760e01b60005260008051602061174983398151915260045260246000fd5b906001811516611411576000805160206117498339815191523b15153d151616906115d5565b60405163095ea7b360e01b60009081526001600160a01b039093166004526024939093529092919060208460448180855af193600181511485161561166f575b5050604052565b939193503b15153d151616913880611668565b60405163095ea7b360e01b60009081526001600160a01b03909316600452602483905290929160209060448180875af1926001600051148416156116c7575b50604052565b600184929415166116e0573b15153d15161691386116c1565b833d6000823e3d90fd5b92916040519163095ea7b360e01b60005260018060a01b03166004526024526020600060448180875af1926001600051148416156116c7575060405256fe9b779b17422d0df92223018b32b4d1fa46e071723d6817e2486d003becc55f000000000000000000000000005c0401e81e6953a22c95311bc54060bde84b1022a2646970667358221220f8bd891246a5d51bb3be98ad45ac4c5dd7e647f1326c2c3a464d6aec553dcd4964736f6c634300081c0033",
          "opcodes": "PUSH1 0x80 CALLVALUE PUSH2 0xF5 JUMPI PUSH1 0x1F PUSH2 0x18AF CODESIZE DUP2 SWAP1 SUB SWAP2 DUP3 ADD PUSH1 0x1F NOT AND DUP4 ADD SWAP2 PUSH1 0x1 PUSH1 0x1 PUSH1 0x40 SHL SUB DUP4 GT DUP5 DUP5 LT OR PUSH2 0xFA JUMPI DUP1 DUP5 SWAP3 PUSH1 0x20 SWAP5 PUSH1 0x40 MSTORE DUP4 CODECOPY DUP2 ADD SUB SLT PUSH2 0xF5 JUMPI MLOAD PUSH1 0x1 PUSH1 0x1 PUSH1 0xA0 SHL SUB DUP2 AND SWAP1 DUP2 SWAP1 SUB PUSH2 0xF5 JUMPI PUSH1 0x1 PUSH32 0x9B779B17422D0DF92223018B32B4D1FA46E071723D6817E2486D003BECC55F00 SSTORE DUP1 ISZERO PUSH2 0xB0 JUMPI PUSH1 0x0 DUP1 SLOAD PUSH1 0x1 PUSH1 0x1 PUSH1 0xA0 SHL SUB NOT AND CALLER OR SWAP1 SSTORE PUSH1 0x1 DUP1 SLOAD PUSH1 0x1 PUSH1 0x1 PUSH1 0xA8 SHL SUB NOT AND SWAP2 SWAP1 SWAP2 OR SWAP1 SSTORE PUSH1 0x40 MLOAD PUSH2 0x179E SWAP1 DUP2 PUSH2 0x111 DUP3 CODECOPY RETURN JUMPDEST PUSH1 0x40 MLOAD PUSH3 0x461BCD PUSH1 0xE5 SHL DUP2 MSTORE PUSH1 0x20 PUSH1 0x4 DUP3 ADD MSTORE PUSH1 0x13 PUSH1 0x24 DUP3 ADD MSTORE PUSH32 0x496E76616C6964204275726E547261636B657200000000000000000000000000 PUSH1 0x44 DUP3 ADD MSTORE PUSH1 0x64 SWAP1 REVERT JUMPDEST PUSH1 0x0 DUP1 REVERT JUMPDEST PUSH4 0x4E487B71 PUSH1 0xE0 SHL PUSH1 0x0 MSTORE PUSH1 0x41 PUSH1 0x4 MSTORE PUSH1 0x24 PUSH1 0x0 REVERT INVALID PUSH1 0x80 DUP1 PUSH1 0x40 MSTORE PUSH1 0x4 CALLDATASIZE LT ISZERO PUSH2 0x13 JUMPI PUSH1 0x0 DUP1 REVERT JUMPDEST PUSH1 0x0 SWAP1 DUP2 CALLDATALOAD PUSH1 0xE0 SHR SWAP1 DUP2 PUSH4 0x7F03D44 EQ PUSH2 0xFCA JUMPI POP DUP1 PUSH4 0x36B4134A EQ PUSH2 0xFAE JUMPI DUP1 PUSH4 0x3BE37E79 EQ PUSH2 0xB12 JUMPI DUP1 PUSH4 0x5BB47808 EQ PUSH2 0x9D4 JUMPI DUP1 PUSH4 0x5BBF3783 EQ PUSH2 0x7CE JUMPI DUP1 PUSH4 0x73B295C2 EQ PUSH2 0x79F JUMPI DUP1 PUSH4 0x89A30271 EQ PUSH2 0x770 JUMPI DUP1 PUSH4 0xA094A031 EQ PUSH2 0x72D JUMPI DUP1 PUSH4 0xAAF5EB68 EQ PUSH2 0x710 JUMPI DUP1 PUSH4 0xBE424AF3 EQ PUSH2 0x6E7 JUMPI DUP1 PUSH4 0xC3F909D4 EQ PUSH2 0x6A5 JUMPI DUP1 PUSH4 0xC45A0155 EQ PUSH2 0x67E JUMPI DUP1 PUSH4 0xD306254D EQ PUSH2 0x655 JUMPI DUP1 PUSH4 0xEC7D7DF5 EQ PUSH2 0xEE JUMPI PUSH4 0xF2355BAC EQ PUSH2 0xC6 JUMPI PUSH1 0x0 DUP1 REVERT JUMPDEST CALLVALUE PUSH2 0xEB JUMPI DUP1 PUSH1 0x3 NOT CALLDATASIZE ADD SLT PUSH2 0xEB JUMPI PUSH1 0x20 PUSH1 0xFF PUSH1 0x1 SLOAD PUSH1 0xA0 SHR AND PUSH1 0x40 MLOAD SWAP1 ISZERO ISZERO DUP2 MSTORE RETURN JUMPDEST DUP1 REVERT JUMPDEST POP CALLVALUE PUSH2 0xEB JUMPI PUSH1 0x20 CALLDATASIZE PUSH1 0x3 NOT ADD SLT PUSH2 0xEB JUMPI PUSH1 0x4 CALLDATALOAD PUSH1 0x1 PUSH1 0x1 PUSH1 0xA0 SHL SUB DUP2 AND DUP1 DUP3 SUB PUSH2 0x46A JUMPI PUSH2 0x11C PUSH2 0x1319 JUMP JUMPDEST ADDRESS CALLER SUB PUSH2 0x620 JUMPI GAS PUSH1 0x40 MLOAD PUSH4 0x1FA70531 PUSH1 0xE0 SHL DUP2 MSTORE SWAP3 SWAP1 PUSH1 0x20 DUP5 PUSH1 0x4 DUP2 DUP7 GAS STATICCALL SWAP4 DUP5 ISZERO PUSH2 0x615 JUMPI DUP6 SWAP5 PUSH2 0x5E1 JUMPI JUMPDEST POP PUSH1 0x40 MLOAD PUSH4 0x8DA5CB5B PUSH1 0xE0 SHL DUP2 MSTORE SWAP4 PUSH1 0x20 DUP6 PUSH1 0x4 DUP2 DUP8 GAS STATICCALL SWAP5 DUP6 ISZERO PUSH2 0x5D6 JUMPI DUP7 SWAP6 PUSH2 0x5A5 JUMPI JUMPDEST POP PUSH2 0x17C DUP2 ISZERO ISZERO PUSH2 0x108A JUMP JUMPDEST PUSH2 0x187 DUP2 ADDRESS DUP8 PUSH2 0x1355 JUMP JUMPDEST PUSH2 0x190 DUP2 PUSH2 0x141B JUMP JUMPDEST PUSH2 0x198 PUSH2 0x10CB JUMP JUMPDEST SWAP2 PUSH1 0x40 SWAP1 PUSH1 0x14 PUSH2 0x1C4 DUP4 MLOAD PUSH2 0x1AD DUP6 DUP3 PUSH2 0x1033 JUMP JUMPDEST PUSH1 0x1 DUP2 MSTORE PUSH1 0x1F NOT DUP6 ADD CALLDATASIZE PUSH1 0x20 DUP4 ADD CALLDATACOPY DUP1 DUP8 MSTORE PUSH2 0x10F5 JUMP JUMPDEST MSTORE PUSH20 0xB31F66AA3C1E785363F0875A1B74E27B85FD66C7 PUSH2 0x222 DUP4 MLOAD PUSH2 0x1EA PUSH1 0x60 DUP3 PUSH2 0x1033 JUMP JUMPDEST PUSH1 0x2 DUP2 MSTORE PUSH1 0x40 CALLDATASIZE PUSH1 0x20 DUP4 ADD CALLDATACOPY PUSH20 0xB97EF9EF8734C71904D8002F8B6BC66DD9C48A6E PUSH2 0x21B PUSH1 0x20 DUP10 ADD SWAP3 DUP1 DUP5 MSTORE PUSH2 0x10F5 JUMP JUMPDEST MSTORE MLOAD PUSH2 0x1118 JUMP JUMPDEST MSTORE PUSH2 0x2710 PUSH2 0x22F DUP5 PUSH2 0x114B JUMP JUMPDEST DIV PUSH2 0x12C TIMESTAMP ADD SWAP5 DUP6 TIMESTAMP GT PUSH2 0x591 JUMPI DUP4 MLOAD PUSH4 0x6B34FF09 PUSH1 0xE1 SHL DUP2 MSTORE SWAP6 DUP11 SWAP4 SWAP3 PUSH1 0x20 SWAP3 DUP9 SWAP3 DUP4 SWAP3 PUSH2 0x264 SWAP3 ADDRESS SWAP2 DUP12 PUSH1 0x4 DUP8 ADD PUSH2 0x1163 JUMP JUMPDEST SUB DUP2 DUP6 PUSH20 0x9A93A421B74F1C5755B83DD2C211614DC419C44B GAS CALL SWAP5 DUP6 ISZERO PUSH2 0x460 JUMPI DUP3 SWAP6 PUSH2 0x55A JUMPI JUMPDEST POP PUSH2 0x298 DUP6 ISZERO ISZERO PUSH2 0x1219 JUMP JUMPDEST PUSH2 0x2A1 DUP6 PUSH2 0x14C7 JUMP JUMPDEST DUP3 MLOAD PUSH4 0x70A08231 PUSH1 0xE0 SHL DUP2 MSTORE ADDRESS PUSH1 0x4 DUP3 ADD MSTORE PUSH1 0x20 DUP2 PUSH1 0x24 DUP2 PUSH1 0x0 DUP1 MLOAD PUSH1 0x20 PUSH2 0x1749 DUP4 CODECOPY DUP2 MLOAD SWAP2 MSTORE GAS STATICCALL SWAP1 DUP2 ISZERO PUSH2 0x49B JUMPI DUP4 SWAP2 PUSH2 0x525 JUMPI JUMPDEST POP DUP4 MLOAD PUSH4 0x140E25AD PUSH1 0xE3 SHL DUP2 MSTORE PUSH1 0x4 DUP2 ADD DUP8 SWAP1 MSTORE PUSH1 0x20 DUP2 PUSH1 0x24 DUP2 DUP8 PUSH1 0x0 DUP1 MLOAD PUSH1 0x20 PUSH2 0x1749 DUP4 CODECOPY DUP2 MLOAD SWAP2 MSTORE GAS CALL SWAP1 DUP2 ISZERO PUSH2 0x4E3 JUMPI DUP5 SWAP2 PUSH2 0x4ED JUMPI JUMPDEST POP PUSH2 0x31D SWAP1 ISZERO PUSH2 0x125A JUMP JUMPDEST DUP4 MLOAD PUSH4 0x70A08231 PUSH1 0xE0 SHL DUP2 MSTORE ADDRESS PUSH1 0x4 DUP3 ADD MSTORE PUSH1 0x20 DUP2 PUSH1 0x24 DUP2 PUSH1 0x0 DUP1 MLOAD PUSH1 0x20 PUSH2 0x1749 DUP4 CODECOPY DUP2 MLOAD SWAP2 MSTORE GAS STATICCALL SWAP1 DUP2 ISZERO PUSH2 0x4E3 JUMPI DUP5 SWAP2 PUSH2 0x4A5 JUMPI JUMPDEST POP PUSH2 0x374 SWAP2 PUSH2 0x362 SWAP2 PUSH2 0x1128 JUMP JUMPDEST DUP1 SWAP8 PUSH2 0x36F DUP3 ISZERO ISZERO PUSH2 0x129A JUMP JUMPDEST PUSH2 0x158A JUMP JUMPDEST DUP3 MLOAD PUSH4 0x950DA287 PUSH1 0xE0 SHL DUP2 MSTORE PUSH1 0x20 DUP2 PUSH1 0x4 DUP2 DUP7 DUP13 GAS CALL DUP1 ISZERO PUSH2 0x49B JUMPI SWAP1 PUSH2 0x3A3 SWAP3 SWAP2 PUSH2 0x46E JUMPI JUMPDEST POP GAS SWAP1 PUSH2 0x1128 JUMP JUMPDEST SWAP7 PUSH1 0x1 DUP1 PUSH1 0xA0 SHL SUB PUSH1 0x1 SLOAD AND SWAP1 DUP2 EXTCODESIZE ISZERO PUSH2 0x46A JUMPI DUP3 SWAP2 PUSH1 0x64 DUP4 SWAP3 DUP7 MLOAD SWAP5 DUP6 SWAP4 DUP5 SWAP3 PUSH4 0x287BBB3D PUSH1 0xE0 SHL DUP5 MSTORE PUSH1 0x1 DUP1 PUSH1 0xA0 SHL SUB AND SWAP14 DUP15 PUSH1 0x4 DUP6 ADD MSTORE PUSH1 0x24 DUP5 ADD MSTORE PUSH1 0x1 PUSH1 0x44 DUP5 ADD MSTORE GAS CALL DUP1 ISZERO PUSH2 0x460 JUMPI PUSH2 0x447 JUMPI JUMPDEST POP POP MLOAD SWAP1 DUP2 MSTORE PUSH1 0x20 DUP2 ADD SWAP2 SWAP1 SWAP2 MSTORE PUSH1 0x40 DUP2 ADD SWAP2 SWAP1 SWAP2 MSTORE PUSH32 0xAF8C946FAD4DC7FC3F8D96E39251F3273B720222DB4B39390936A6CF0EB08036 SWAP1 PUSH1 0x60 SWAP1 LOG3 PUSH1 0x1 PUSH1 0x0 DUP1 MLOAD PUSH1 0x20 PUSH2 0x1729 DUP4 CODECOPY DUP2 MLOAD SWAP2 MSTORE SSTORE DUP1 RETURN JUMPDEST DUP2 PUSH2 0x451 SWAP2 PUSH2 0x1033 JUMP JUMPDEST PUSH2 0x45C JUMPI DUP7 CODESIZE PUSH2 0x3F6 JUMP JUMPDEST DUP7 DUP1 REVERT JUMPDEST DUP4 MLOAD RETURNDATASIZE DUP5 DUP3 RETURNDATACOPY RETURNDATASIZE SWAP1 REVERT JUMPDEST DUP3 DUP1 REVERT JUMPDEST PUSH2 0x48F SWAP1 PUSH1 0x20 RETURNDATASIZE PUSH1 0x20 GT PUSH2 0x494 JUMPI JUMPDEST PUSH2 0x487 DUP2 DUP4 PUSH2 0x1033 JUMP JUMPDEST DUP2 ADD SWAP1 PUSH2 0x12DD JUMP JUMPDEST PUSH2 0x39B JUMP JUMPDEST POP RETURNDATASIZE PUSH2 0x47D JUMP JUMPDEST DUP5 MLOAD RETURNDATASIZE DUP6 DUP3 RETURNDATACOPY RETURNDATASIZE SWAP1 REVERT JUMPDEST SWAP4 POP POP PUSH1 0x20 DUP4 RETURNDATASIZE PUSH1 0x20 GT PUSH2 0x4DB JUMPI JUMPDEST DUP2 PUSH2 0x4C1 PUSH1 0x20 SWAP4 DUP4 PUSH2 0x1033 JUMP JUMPDEST DUP2 ADD SUB SLT PUSH2 0x4D6 JUMPI SWAP2 MLOAD DUP10 SWAP3 SWAP1 PUSH2 0x374 PUSH2 0x354 JUMP JUMPDEST PUSH1 0x0 DUP1 REVERT JUMPDEST RETURNDATASIZE SWAP2 POP PUSH2 0x4B4 JUMP JUMPDEST DUP6 MLOAD RETURNDATASIZE DUP7 DUP3 RETURNDATACOPY RETURNDATASIZE SWAP1 REVERT JUMPDEST SWAP4 POP POP PUSH1 0x20 DUP4 RETURNDATASIZE PUSH1 0x20 GT PUSH2 0x51D JUMPI JUMPDEST DUP2 PUSH2 0x509 PUSH1 0x20 SWAP4 DUP4 PUSH2 0x1033 JUMP JUMPDEST DUP2 ADD SUB SLT PUSH2 0x4D6 JUMPI PUSH2 0x31D DUP11 SWAP4 MLOAD SWAP1 PUSH2 0x312 JUMP JUMPDEST RETURNDATASIZE SWAP2 POP PUSH2 0x4FC JUMP JUMPDEST SWAP3 POP POP PUSH1 0x20 DUP3 RETURNDATASIZE PUSH1 0x20 GT PUSH2 0x552 JUMPI JUMPDEST DUP2 PUSH2 0x541 PUSH1 0x20 SWAP4 DUP4 PUSH2 0x1033 JUMP JUMPDEST DUP2 ADD SUB SLT PUSH2 0x4D6 JUMPI DUP9 SWAP2 MLOAD CODESIZE PUSH2 0x2D8 JUMP JUMPDEST RETURNDATASIZE SWAP2 POP PUSH2 0x534 JUMP JUMPDEST SWAP2 POP SWAP4 POP PUSH1 0x20 DUP2 RETURNDATASIZE PUSH1 0x20 GT PUSH2 0x589 JUMPI JUMPDEST DUP2 PUSH2 0x577 PUSH1 0x20 SWAP4 DUP4 PUSH2 0x1033 JUMP JUMPDEST DUP2 ADD SUB SLT PUSH2 0x4D6 JUMPI DUP8 SWAP1 MLOAD SWAP4 CODESIZE PUSH2 0x28C JUMP JUMPDEST RETURNDATASIZE SWAP2 POP PUSH2 0x56A JUMP JUMPDEST PUSH4 0x4E487B71 PUSH1 0xE0 SHL DUP11 MSTORE PUSH1 0x11 PUSH1 0x4 MSTORE PUSH1 0x24 DUP11 REVERT JUMPDEST PUSH2 0x5C8 SWAP2 SWAP6 POP PUSH1 0x20 RETURNDATASIZE PUSH1 0x20 GT PUSH2 0x5CF JUMPI JUMPDEST PUSH2 0x5C0 DUP2 DUP4 PUSH2 0x1033 JUMP JUMPDEST DUP2 ADD SWAP1 PUSH2 0x106B JUMP JUMPDEST SWAP4 CODESIZE PUSH2 0x170 JUMP JUMPDEST POP RETURNDATASIZE PUSH2 0x5B6 JUMP JUMPDEST PUSH1 0x40 MLOAD RETURNDATASIZE DUP9 DUP3 RETURNDATACOPY RETURNDATASIZE SWAP1 REVERT JUMPDEST SWAP1 SWAP4 POP PUSH1 0x20 DUP2 RETURNDATASIZE PUSH1 0x20 GT PUSH2 0x60D JUMPI JUMPDEST DUP2 PUSH2 0x5FD PUSH1 0x20 SWAP4 DUP4 PUSH2 0x1033 JUMP JUMPDEST DUP2 ADD SUB SLT PUSH2 0x4D6 JUMPI MLOAD SWAP3 CODESIZE PUSH2 0x14A JUMP JUMPDEST RETURNDATASIZE SWAP2 POP PUSH2 0x5F0 JUMP JUMPDEST PUSH1 0x40 MLOAD RETURNDATASIZE DUP8 DUP3 RETURNDATACOPY RETURNDATASIZE SWAP1 REVERT JUMPDEST PUSH1 0x40 MLOAD PUSH3 0x461BCD PUSH1 0xE5 SHL DUP2 MSTORE PUSH1 0x20 PUSH1 0x4 DUP3 ADD MSTORE PUSH1 0xD PUSH1 0x24 DUP3 ADD MSTORE PUSH13 0x496E7465726E616C206F6E6C79 PUSH1 0x98 SHL PUSH1 0x44 DUP3 ADD MSTORE PUSH1 0x64 SWAP1 REVERT JUMPDEST POP CALLVALUE PUSH2 0xEB JUMPI DUP1 PUSH1 0x3 NOT CALLDATASIZE ADD SLT PUSH2 0xEB JUMPI PUSH1 0x1 SLOAD PUSH1 0x40 MLOAD PUSH1 0x1 PUSH1 0x1 PUSH1 0xA0 SHL SUB SWAP1 SWAP2 AND DUP2 MSTORE PUSH1 0x20 SWAP1 RETURN JUMPDEST POP CALLVALUE PUSH2 0xEB JUMPI DUP1 PUSH1 0x3 NOT CALLDATASIZE ADD SLT PUSH2 0xEB JUMPI SLOAD PUSH1 0x40 MLOAD PUSH1 0x1 PUSH1 0x1 PUSH1 0xA0 SHL SUB SWAP1 SWAP2 AND DUP2 MSTORE PUSH1 0x20 SWAP1 RETURN JUMPDEST POP CALLVALUE PUSH2 0xEB JUMPI DUP1 PUSH1 0x3 NOT CALLDATASIZE ADD SLT PUSH2 0xEB JUMPI SLOAD PUSH1 0x1 SLOAD PUSH1 0x40 DUP1 MLOAD PUSH1 0x1 PUSH1 0x1 PUSH1 0xA0 SHL SUB SWAP4 DUP5 AND DUP2 MSTORE SWAP3 DUP3 AND PUSH1 0x20 DUP5 ADD MSTORE PUSH1 0xA0 SWAP2 SWAP1 SWAP2 SHR PUSH1 0xFF AND ISZERO ISZERO SWAP1 DUP3 ADD MSTORE PUSH1 0x60 SWAP1 RETURN JUMPDEST POP CALLVALUE PUSH2 0xEB JUMPI DUP1 PUSH1 0x3 NOT CALLDATASIZE ADD SLT PUSH2 0xEB JUMPI PUSH1 0x20 PUSH1 0x40 MLOAD PUSH1 0x0 DUP1 MLOAD PUSH1 0x20 PUSH2 0x1749 DUP4 CODECOPY DUP2 MLOAD SWAP2 MSTORE DUP2 MSTORE RETURN JUMPDEST POP CALLVALUE PUSH2 0xEB JUMPI DUP1 PUSH1 0x3 NOT CALLDATASIZE ADD SLT PUSH2 0xEB JUMPI PUSH1 0x20 PUSH1 0x40 MLOAD PUSH2 0x2710 DUP2 MSTORE RETURN JUMPDEST POP CALLVALUE PUSH2 0xEB JUMPI DUP1 PUSH1 0x3 NOT CALLDATASIZE ADD SLT PUSH2 0xEB JUMPI PUSH1 0x20 SWAP1 PUSH1 0xFF PUSH1 0x1 SLOAD PUSH1 0xA0 SHR AND SWAP1 DUP2 PUSH2 0x75C JUMPI JUMPDEST POP PUSH1 0x40 MLOAD SWAP1 ISZERO ISZERO DUP2 MSTORE RETURN JUMPDEST SLOAD PUSH1 0x1 PUSH1 0x1 PUSH1 0xA0 SHL SUB AND ISZERO ISZERO SWAP1 POP CODESIZE PUSH2 0x751 JUMP JUMPDEST POP CALLVALUE PUSH2 0xEB JUMPI DUP1 PUSH1 0x3 NOT CALLDATASIZE ADD SLT PUSH2 0xEB JUMPI PUSH1 0x20 PUSH1 0x40 MLOAD PUSH20 0xB97EF9EF8734C71904D8002F8B6BC66DD9C48A6E DUP2 MSTORE RETURN JUMPDEST POP CALLVALUE PUSH2 0xEB JUMPI DUP1 PUSH1 0x3 NOT CALLDATASIZE ADD SLT PUSH2 0xEB JUMPI PUSH1 0x20 PUSH1 0x40 MLOAD PUSH20 0xB31F66AA3C1E785363F0875A1B74E27B85FD66C7 DUP2 MSTORE RETURN JUMPDEST POP CALLVALUE PUSH2 0xEB JUMPI PUSH1 0x20 CALLDATASIZE PUSH1 0x3 NOT ADD SLT PUSH2 0xEB JUMPI PUSH1 0x4 CALLDATALOAD PUSH8 0xFFFFFFFFFFFFFFFF DUP2 GT PUSH2 0x9D0 JUMPI CALLDATASIZE PUSH1 0x23 DUP3 ADD SLT ISZERO PUSH2 0x9D0 JUMPI DUP1 PUSH1 0x4 ADD CALLDATALOAD SWAP1 PUSH8 0xFFFFFFFFFFFFFFFF DUP3 GT PUSH2 0x46A JUMPI PUSH1 0x24 DUP2 ADD SWAP1 PUSH1 0x24 CALLDATASIZE SWAP2 DUP5 PUSH1 0x5 SHL ADD ADD GT PUSH2 0x46A JUMPI PUSH2 0x83A PUSH1 0x1 DUP1 PUSH1 0xA0 SHL SUB DUP5 SLOAD AND CALLER EQ PUSH2 0xFF8 JUMP JUMPDEST DUP2 ISZERO PUSH2 0x99E JUMPI DUP3 JUMPDEST DUP3 DUP2 LT PUSH2 0x84D JUMPI DUP4 DUP1 RETURN JUMPDEST PUSH2 0x860 PUSH2 0x85B DUP3 DUP6 DUP6 PUSH2 0x12F5 JUMP JUMPDEST PUSH2 0x1305 JUMP JUMPDEST ADDRESS EXTCODESIZE ISZERO PUSH2 0x99A JUMPI PUSH1 0x40 MLOAD PUSH4 0xEC7D7DF5 PUSH1 0xE0 SHL DUP2 MSTORE PUSH1 0x1 PUSH1 0x1 PUSH1 0xA0 SHL SUB SWAP1 SWAP2 AND PUSH1 0x4 DUP3 ADD MSTORE DUP5 DUP1 DUP3 PUSH1 0x24 DUP2 DUP4 ADDRESS GAS CALL SWAP2 DUP3 PUSH2 0x985 JUMPI JUMPDEST POP POP PUSH2 0x97D JUMPI RETURNDATASIZE ISZERO PUSH2 0x976 JUMPI RETURNDATASIZE PUSH8 0xFFFFFFFFFFFFFFFF DUP2 GT PUSH2 0x962 JUMPI PUSH1 0x40 MLOAD SWAP1 PUSH2 0x8C9 PUSH1 0x1F DUP3 ADD PUSH1 0x1F NOT AND PUSH1 0x20 ADD DUP4 PUSH2 0x1033 JUMP JUMPDEST DUP2 MSTORE RETURNDATASIZE DUP6 PUSH1 0x20 DUP4 ADD RETURNDATACOPY JUMPDEST PUSH1 0x1 PUSH1 0x1 PUSH1 0xA0 SHL SUB PUSH2 0x8E9 PUSH2 0x85B DUP5 DUP8 DUP8 PUSH2 0x12F5 JUMP JUMPDEST AND SWAP1 PUSH1 0x40 MLOAD SWAP1 PUSH1 0x20 DUP3 MSTORE DUP1 MLOAD SWAP1 DUP2 PUSH1 0x20 DUP5 ADD MSTORE DUP8 JUMPDEST DUP3 DUP2 LT PUSH2 0x94C JUMPI POP POP DUP2 PUSH1 0x40 DUP2 DUP4 DUP11 DUP4 PUSH32 0xF2432448BD7F4F83571AF712C44C366ACD66E1C64F00B76F244FFE5D48383E09 SWAP7 PUSH1 0x1 SWAP11 SWAP10 SWAP9 ADD ADD MSTORE PUSH1 0x1F DUP1 NOT SWAP2 ADD AND DUP2 ADD SUB ADD SWAP1 LOG2 JUMPDEST ADD PUSH2 0x842 JUMP JUMPDEST DUP1 PUSH1 0x20 DUP1 SWAP3 DUP5 ADD ADD MLOAD PUSH1 0x40 DUP3 DUP8 ADD ADD MSTORE ADD PUSH2 0x8FE JUMP JUMPDEST PUSH4 0x4E487B71 PUSH1 0xE0 SHL DUP6 MSTORE PUSH1 0x41 PUSH1 0x4 MSTORE PUSH1 0x24 DUP6 REVERT JUMPDEST PUSH1 0x60 PUSH2 0x8D3 JUMP JUMPDEST PUSH1 0x1 SWAP1 PUSH2 0x946 JUMP JUMPDEST DUP2 PUSH2 0x98F SWAP2 PUSH2 0x1033 JUMP JUMPDEST PUSH2 0x99A JUMPI DUP5 CODESIZE PUSH2 0x895 JUMP JUMPDEST DUP5 DUP1 REVERT JUMPDEST PUSH1 0x40 MLOAD PUSH3 0x461BCD PUSH1 0xE5 SHL DUP2 MSTORE PUSH1 0x20 PUSH1 0x4 DUP3 ADD MSTORE PUSH1 0xA PUSH1 0x24 DUP3 ADD MSTORE PUSH10 0x115B5C1D1E481B1A5CDD PUSH1 0xB2 SHL PUSH1 0x44 DUP3 ADD MSTORE PUSH1 0x64 SWAP1 REVERT JUMPDEST POP DUP1 REVERT JUMPDEST POP CALLVALUE PUSH2 0xEB JUMPI PUSH1 0x20 CALLDATASIZE PUSH1 0x3 NOT ADD SLT PUSH2 0xEB JUMPI PUSH1 0x4 CALLDATALOAD PUSH1 0x1 PUSH1 0x1 PUSH1 0xA0 SHL SUB DUP2 AND SWAP1 DUP2 SWAP1 SUB PUSH2 0x9D0 JUMPI DUP1 ISZERO PUSH2 0xADE JUMPI DUP2 SLOAD PUSH1 0x1 PUSH1 0x1 PUSH1 0xA0 SHL SUB DUP2 AND SWAP1 CALLER DUP3 SWAP1 SUB PUSH2 0xAA8 JUMPI PUSH1 0x1 SLOAD SWAP1 PUSH1 0xFF DUP3 PUSH1 0xA0 SHR AND PUSH2 0xA6A JUMPI PUSH1 0x1 PUSH1 0x1 PUSH1 0xA0 SHL SUB NOT AND DUP4 OR DUP5 SSTORE PUSH1 0xFF PUSH1 0xA0 SHL NOT AND PUSH1 0x1 PUSH1 0xA0 SHL OR PUSH1 0x1 SSTORE PUSH32 0x333C7678BAF16017CF31E1D2F90143A62AAB01A67A0807F6836A4304CEABB555 DUP4 DUP1 LOG3 DUP1 RETURN JUMPDEST PUSH1 0x40 MLOAD PUSH3 0x461BCD PUSH1 0xE5 SHL DUP2 MSTORE PUSH1 0x20 PUSH1 0x4 DUP3 ADD MSTORE PUSH1 0x16 PUSH1 0x24 DUP3 ADD MSTORE PUSH22 0x119858DD1BDC9E48185B1C9958591E481B1BD8DAD959 PUSH1 0x52 SHL PUSH1 0x44 DUP3 ADD MSTORE PUSH1 0x64 SWAP1 REVERT JUMPDEST PUSH1 0x40 MLOAD PUSH3 0x461BCD PUSH1 0xE5 SHL DUP2 MSTORE PUSH1 0x20 PUSH1 0x4 DUP3 ADD MSTORE PUSH1 0xE PUSH1 0x24 DUP3 ADD MSTORE PUSH14 0x139BDD08185D5D1A1BDC9A5E9959 PUSH1 0x92 SHL PUSH1 0x44 DUP3 ADD MSTORE PUSH1 0x64 SWAP1 REVERT JUMPDEST PUSH1 0x40 MLOAD PUSH3 0x461BCD PUSH1 0xE5 SHL DUP2 MSTORE PUSH1 0x20 PUSH1 0x4 DUP3 ADD MSTORE PUSH1 0xC PUSH1 0x24 DUP3 ADD MSTORE PUSH12 0x5A65726F2061646472657373 PUSH1 0xA0 SHL PUSH1 0x44 DUP3 ADD MSTORE PUSH1 0x64 SWAP1 REVERT JUMPDEST POP CALLVALUE PUSH2 0xEB JUMPI PUSH1 0x20 CALLDATASIZE PUSH1 0x3 NOT ADD SLT PUSH2 0xEB JUMPI PUSH1 0x4 CALLDATALOAD PUSH1 0x1 PUSH1 0x1 PUSH1 0xA0 SHL SUB DUP2 AND SWAP1 DUP2 DUP2 SUB PUSH2 0x46A JUMPI PUSH2 0xB4D PUSH1 0x1 DUP1 PUSH1 0xA0 SHL SUB DUP5 SLOAD AND CALLER EQ PUSH2 0xFF8 JUMP JUMPDEST PUSH2 0xB55 PUSH2 0x1319 JUMP JUMPDEST GAS SWAP2 PUSH1 0x40 MLOAD SWAP2 PUSH4 0x1FA70531 PUSH1 0xE0 SHL DUP4 MSTORE PUSH1 0x20 DUP4 PUSH1 0x4 DUP2 DUP6 GAS STATICCALL SWAP3 DUP4 ISZERO PUSH2 0x615 JUMPI DUP6 SWAP4 PUSH2 0xF7A JUMPI JUMPDEST POP PUSH1 0x40 MLOAD PUSH4 0x8DA5CB5B PUSH1 0xE0 SHL DUP2 MSTORE SWAP3 PUSH1 0x20 DUP5 PUSH1 0x4 DUP2 DUP7 GAS STATICCALL SWAP4 DUP5 ISZERO PUSH2 0x5D6 JUMPI DUP7 SWAP5 PUSH2 0xF59 JUMPI JUMPDEST POP PUSH2 0xBAE DUP2 ISZERO ISZERO PUSH2 0x108A JUMP JUMPDEST PUSH2 0xBB9 DUP2 ADDRESS DUP7 PUSH2 0x1355 JUMP JUMPDEST PUSH2 0xBC2 DUP2 PUSH2 0x141B JUMP JUMPDEST PUSH2 0xBCA PUSH2 0x10CB JUMP JUMPDEST SWAP2 PUSH1 0x40 SWAP6 PUSH1 0x14 PUSH2 0xBF6 DUP9 MLOAD PUSH2 0xBDF DUP11 DUP3 PUSH2 0x1033 JUMP JUMPDEST PUSH1 0x1 DUP2 MSTORE PUSH1 0x1F NOT DUP11 ADD CALLDATASIZE PUSH1 0x20 DUP4 ADD CALLDATACOPY DUP1 DUP8 MSTORE PUSH2 0x10F5 JUMP JUMPDEST MSTORE PUSH20 0xB31F66AA3C1E785363F0875A1B74E27B85FD66C7 PUSH2 0xC1C DUP9 MLOAD PUSH2 0x1EA PUSH1 0x60 DUP3 PUSH2 0x1033 JUMP JUMPDEST MSTORE PUSH2 0x2710 PUSH2 0xC29 DUP5 PUSH2 0x114B JUMP JUMPDEST DIV PUSH2 0x12C TIMESTAMP ADD SWAP5 DUP6 TIMESTAMP GT PUSH2 0x591 JUMPI DUP9 MLOAD PUSH4 0x6B34FF09 PUSH1 0xE1 SHL DUP2 MSTORE SWAP6 DUP11 SWAP4 SWAP3 PUSH1 0x20 SWAP3 DUP9 SWAP3 DUP4 SWAP3 PUSH2 0xC5E SWAP3 ADDRESS SWAP2 DUP12 PUSH1 0x4 DUP8 ADD PUSH2 0x1163 JUMP JUMPDEST SUB DUP2 DUP6 PUSH20 0x9A93A421B74F1C5755B83DD2C211614DC419C44B GAS CALL SWAP5 DUP6 ISZERO PUSH2 0xF4F JUMPI DUP3 SWAP6 PUSH2 0xF1B JUMPI JUMPDEST POP PUSH2 0xC92 DUP6 ISZERO ISZERO PUSH2 0x1219 JUMP JUMPDEST PUSH2 0xC9B DUP6 PUSH2 0x14C7 JUMP JUMPDEST DUP8 MLOAD PUSH4 0x70A08231 PUSH1 0xE0 SHL DUP2 MSTORE ADDRESS PUSH1 0x4 DUP3 ADD MSTORE PUSH1 0x20 DUP2 PUSH1 0x24 DUP2 PUSH1 0x0 DUP1 MLOAD PUSH1 0x20 PUSH2 0x1749 DUP4 CODECOPY DUP2 MLOAD SWAP2 MSTORE GAS STATICCALL SWAP1 DUP2 ISZERO PUSH2 0xE69 JUMPI DUP4 SWAP2 PUSH2 0xEE9 JUMPI JUMPDEST POP DUP9 MLOAD PUSH4 0x140E25AD PUSH1 0xE3 SHL DUP2 MSTORE PUSH1 0x4 DUP2 ADD DUP8 SWAP1 MSTORE PUSH1 0x20 DUP2 PUSH1 0x24 DUP2 DUP8 PUSH1 0x0 DUP1 MLOAD PUSH1 0x20 PUSH2 0x1749 DUP4 CODECOPY DUP2 MLOAD SWAP2 MSTORE GAS CALL DUP1 ISZERO PUSH2 0xEAB JUMPI DUP5 SWAP1 PUSH2 0xEB5 JUMPI JUMPDEST PUSH2 0xD16 SWAP2 POP ISZERO PUSH2 0x125A JUMP JUMPDEST DUP9 MLOAD PUSH4 0x70A08231 PUSH1 0xE0 SHL DUP2 MSTORE ADDRESS PUSH1 0x4 DUP3 ADD MSTORE PUSH1 0x20 DUP2 PUSH1 0x24 DUP2 PUSH1 0x0 DUP1 MLOAD PUSH1 0x20 PUSH2 0x1749 DUP4 CODECOPY DUP2 MLOAD SWAP2 MSTORE GAS STATICCALL SWAP1 DUP2 ISZERO PUSH2 0xEAB JUMPI DUP5 SWAP2 PUSH2 0xE73 JUMPI JUMPDEST POP PUSH2 0xD68 SWAP2 PUSH2 0xD5B SWAP2 PUSH2 0x1128 JUMP JUMPDEST DUP1 SWAP5 PUSH2 0x36F DUP3 ISZERO ISZERO PUSH2 0x129A JUMP JUMPDEST DUP8 MLOAD PUSH4 0x950DA287 PUSH1 0xE0 SHL DUP2 MSTORE SWAP1 PUSH1 0x20 DUP3 PUSH1 0x4 DUP2 DUP7 DUP12 GAS CALL SWAP2 DUP3 ISZERO PUSH2 0xE69 JUMPI PUSH2 0xD96 SWAP3 PUSH2 0x46E JUMPI POP GAS SWAP1 PUSH2 0x1128 JUMP JUMPDEST PUSH1 0x1 SLOAD SWAP1 SWAP7 SWAP1 PUSH1 0x1 PUSH1 0x1 PUSH1 0xA0 SHL SUB AND DUP1 EXTCODESIZE ISZERO PUSH2 0x46A JUMPI PUSH1 0x64 DUP4 SWAP3 DUP11 MLOAD SWAP5 DUP6 SWAP4 DUP5 SWAP3 PUSH4 0x287BBB3D PUSH1 0xE0 SHL DUP5 MSTORE PUSH1 0x1 DUP1 PUSH1 0xA0 SHL SUB AND SWAP12 DUP13 PUSH1 0x4 DUP6 ADD MSTORE PUSH1 0x24 DUP5 ADD MSTORE PUSH1 0x1 PUSH1 0x44 DUP5 ADD MSTORE GAS CALL DUP1 ISZERO PUSH2 0xE5F JUMPI SWAP2 PUSH1 0x20 SWAP9 PUSH2 0xE33 SWAP3 PUSH32 0xAF8C946FAD4DC7FC3F8D96E39251F3273B720222DB4B39390936A6CF0EB08036 SWAP7 SWAP6 SWAP5 PUSH2 0xE4F JUMPI JUMPDEST POP POP DUP8 MLOAD SWAP4 DUP5 SWAP4 DUP5 PUSH1 0x40 SWAP2 SWAP5 SWAP4 SWAP3 PUSH1 0x60 DUP3 ADD SWAP6 DUP3 MSTORE PUSH1 0x20 DUP3 ADD MSTORE ADD MSTORE JUMP JUMPDEST SUB SWAP1 LOG3 PUSH1 0x1 PUSH1 0x0 DUP1 MLOAD PUSH1 0x20 PUSH2 0x1729 DUP4 CODECOPY DUP2 MLOAD SWAP2 MSTORE SSTORE MLOAD PUSH1 0x1 DUP2 MSTORE RETURN JUMPDEST DUP2 PUSH2 0xE59 SWAP2 PUSH2 0x1033 JUMP JUMPDEST CODESIZE PUSH2 0xE15 JUMP JUMPDEST DUP8 MLOAD RETURNDATASIZE DUP11 DUP3 RETURNDATACOPY RETURNDATASIZE SWAP1 REVERT JUMPDEST DUP10 MLOAD RETURNDATASIZE DUP6 DUP3 RETURNDATACOPY RETURNDATASIZE SWAP1 REVERT JUMPDEST SWAP1 POP PUSH1 0x20 DUP2 RETURNDATASIZE PUSH1 0x20 GT PUSH2 0xEA3 JUMPI JUMPDEST DUP2 PUSH2 0xE8E PUSH1 0x20 SWAP4 DUP4 PUSH2 0x1033 JUMP JUMPDEST DUP2 ADD SUB SLT PUSH2 0xE9F JUMPI MLOAD PUSH2 0xD68 PUSH2 0xD4D JUMP JUMPDEST DUP4 DUP1 REVERT JUMPDEST RETURNDATASIZE SWAP2 POP PUSH2 0xE81 JUMP JUMPDEST DUP11 MLOAD RETURNDATASIZE DUP7 DUP3 RETURNDATACOPY RETURNDATASIZE SWAP1 REVERT JUMPDEST POP PUSH1 0x20 DUP2 RETURNDATASIZE PUSH1 0x20 GT PUSH2 0xEE1 JUMPI JUMPDEST DUP2 PUSH2 0xECF PUSH1 0x20 SWAP4 DUP4 PUSH2 0x1033 JUMP JUMPDEST DUP2 ADD SUB SLT PUSH2 0xE9F JUMPI PUSH2 0xD16 SWAP1 MLOAD PUSH2 0xD0B JUMP JUMPDEST RETURNDATASIZE SWAP2 POP PUSH2 0xEC2 JUMP JUMPDEST SWAP1 POP PUSH1 0x20 DUP2 RETURNDATASIZE PUSH1 0x20 GT PUSH2 0xF13 JUMPI JUMPDEST DUP2 PUSH2 0xF04 PUSH1 0x20 SWAP4 DUP4 PUSH2 0x1033 JUMP JUMPDEST DUP2 ADD SUB SLT PUSH2 0x46A JUMPI MLOAD CODESIZE PUSH2 0xCD2 JUMP JUMPDEST RETURNDATASIZE SWAP2 POP PUSH2 0xEF7 JUMP JUMPDEST SWAP1 SWAP5 POP PUSH1 0x20 DUP2 RETURNDATASIZE PUSH1 0x20 GT PUSH2 0xF47 JUMPI JUMPDEST DUP2 PUSH2 0xF37 PUSH1 0x20 SWAP4 DUP4 PUSH2 0x1033 JUMP JUMPDEST DUP2 ADD SUB SLT PUSH2 0x9D0 JUMPI MLOAD SWAP4 CODESIZE PUSH2 0xC86 JUMP JUMPDEST RETURNDATASIZE SWAP2 POP PUSH2 0xF2A JUMP JUMPDEST DUP9 MLOAD RETURNDATASIZE DUP5 DUP3 RETURNDATACOPY RETURNDATASIZE SWAP1 REVERT JUMPDEST PUSH2 0xF73 SWAP2 SWAP5 POP PUSH1 0x20 RETURNDATASIZE PUSH1 0x20 GT PUSH2 0x5CF JUMPI PUSH2 0x5C0 DUP2 DUP4 PUSH2 0x1033 JUMP JUMPDEST SWAP3 CODESIZE PUSH2 0xBA2 JUMP JUMPDEST SWAP1 SWAP3 POP PUSH1 0x20 DUP2 RETURNDATASIZE PUSH1 0x20 GT PUSH2 0xFA6 JUMPI JUMPDEST DUP2 PUSH2 0xF96 PUSH1 0x20 SWAP4 DUP4 PUSH2 0x1033 JUMP JUMPDEST DUP2 ADD SUB SLT PUSH2 0x99A JUMPI MLOAD SWAP2 CODESIZE PUSH2 0xB7C JUMP JUMPDEST RETURNDATASIZE SWAP2 POP PUSH2 0xF89 JUMP JUMPDEST POP CALLVALUE PUSH2 0xEB JUMPI DUP1 PUSH1 0x3 NOT CALLDATASIZE ADD SLT PUSH2 0xEB JUMPI PUSH1 0x20 PUSH1 0x40 MLOAD PUSH1 0x64 DUP2 MSTORE RETURN JUMPDEST SWAP1 POP CALLVALUE PUSH2 0x9D0 JUMPI DUP2 PUSH1 0x3 NOT CALLDATASIZE ADD SLT PUSH2 0x9D0 JUMPI DUP1 PUSH20 0x9A93A421B74F1C5755B83DD2C211614DC419C44B PUSH1 0x20 SWAP3 MSTORE RETURN JUMPDEST ISZERO PUSH2 0xFFF JUMPI JUMP JUMPDEST PUSH1 0x40 MLOAD PUSH3 0x461BCD PUSH1 0xE5 SHL DUP2 MSTORE PUSH1 0x20 PUSH1 0x4 DUP3 ADD MSTORE PUSH1 0xC PUSH1 0x24 DUP3 ADD MSTORE PUSH12 0x4F6E6C7920666163746F7279 PUSH1 0xA0 SHL PUSH1 0x44 DUP3 ADD MSTORE PUSH1 0x64 SWAP1 REVERT JUMPDEST SWAP1 PUSH1 0x1F DUP1 NOT SWAP2 ADD AND DUP2 ADD SWAP1 DUP2 LT PUSH8 0xFFFFFFFFFFFFFFFF DUP3 GT OR PUSH2 0x1055 JUMPI PUSH1 0x40 MSTORE JUMP JUMPDEST PUSH4 0x4E487B71 PUSH1 0xE0 SHL PUSH1 0x0 MSTORE PUSH1 0x41 PUSH1 0x4 MSTORE PUSH1 0x24 PUSH1 0x0 REVERT JUMPDEST SWAP1 DUP2 PUSH1 0x20 SWAP2 SUB SLT PUSH2 0x4D6 JUMPI MLOAD PUSH1 0x1 PUSH1 0x1 PUSH1 0xA0 SHL SUB DUP2 AND DUP2 SUB PUSH2 0x4D6 JUMPI SWAP1 JUMP JUMPDEST ISZERO PUSH2 0x1091 JUMPI JUMP JUMPDEST PUSH1 0x40 MLOAD PUSH3 0x461BCD PUSH1 0xE5 SHL DUP2 MSTORE PUSH1 0x20 PUSH1 0x4 DUP3 ADD MSTORE PUSH1 0x12 PUSH1 0x24 DUP3 ADD MSTORE PUSH18 0x42757920616D6F756E74206973207A65726F PUSH1 0x70 SHL PUSH1 0x44 DUP3 ADD MSTORE PUSH1 0x64 SWAP1 REVERT JUMPDEST PUSH1 0x40 MLOAD SWAP1 PUSH1 0x40 DUP3 ADD DUP3 DUP2 LT PUSH8 0xFFFFFFFFFFFFFFFF DUP3 GT OR PUSH2 0x1055 JUMPI PUSH1 0x40 MSTORE PUSH1 0x60 PUSH1 0x20 DUP4 DUP3 DUP2 MSTORE ADD MSTORE JUMP JUMPDEST DUP1 MLOAD ISZERO PUSH2 0x1102 JUMPI PUSH1 0x20 ADD SWAP1 JUMP JUMPDEST PUSH4 0x4E487B71 PUSH1 0xE0 SHL PUSH1 0x0 MSTORE PUSH1 0x32 PUSH1 0x4 MSTORE PUSH1 0x24 PUSH1 0x0 REVERT JUMPDEST DUP1 MLOAD PUSH1 0x1 LT ISZERO PUSH2 0x1102 JUMPI PUSH1 0x40 ADD SWAP1 JUMP JUMPDEST SWAP2 SWAP1 DUP3 SUB SWAP2 DUP3 GT PUSH2 0x1135 JUMPI JUMP JUMPDEST PUSH4 0x4E487B71 PUSH1 0xE0 SHL PUSH1 0x0 MSTORE PUSH1 0x11 PUSH1 0x4 MSTORE PUSH1 0x24 PUSH1 0x0 REVERT JUMPDEST SWAP1 PUSH2 0x26AC DUP3 MUL SWAP2 DUP1 DUP4 DIV PUSH2 0x26AC EQ SWAP1 ISZERO OR ISZERO PUSH2 0x1135 JUMPI JUMP JUMPDEST SWAP3 SWAP2 SWAP1 SWAP6 SWAP5 SWAP4 SWAP6 DUP4 MSTORE PUSH1 0x20 DUP4 ADD MSTORE PUSH1 0xA0 PUSH1 0x40 DUP4 ADD MSTORE PUSH1 0xE0 DUP3 ADD SWAP1 DUP1 MLOAD SWAP2 PUSH1 0x40 PUSH1 0xA0 DUP6 ADD MSTORE DUP3 MLOAD DUP1 SWAP2 MSTORE PUSH1 0x20 PUSH2 0x100 DUP6 ADD SWAP4 ADD SWAP1 PUSH1 0x0 JUMPDEST DUP2 DUP2 LT PUSH2 0x1203 JUMPI POP POP POP PUSH1 0x20 ADD MLOAD SWAP1 PUSH1 0x9F NOT DUP4 DUP3 SUB ADD PUSH1 0xC0 DUP5 ADD MSTORE PUSH1 0x20 DUP1 DUP4 MLOAD SWAP3 DUP4 DUP2 MSTORE ADD SWAP3 ADD SWAP1 PUSH1 0x0 JUMPDEST DUP2 DUP2 LT PUSH2 0x11E4 JUMPI POP POP POP PUSH1 0x1 PUSH1 0x1 PUSH1 0xA0 SHL SUB SWAP1 SWAP5 AND PUSH1 0x60 DUP3 ADD MSTORE PUSH1 0x80 ADD MSTORE JUMP JUMPDEST DUP3 MLOAD PUSH1 0x1 PUSH1 0x1 PUSH1 0xA0 SHL SUB AND DUP5 MSTORE PUSH1 0x20 SWAP4 DUP5 ADD SWAP4 SWAP1 SWAP3 ADD SWAP2 PUSH1 0x1 ADD PUSH2 0x11C4 JUMP JUMPDEST DUP3 MLOAD DUP6 MSTORE PUSH1 0x20 SWAP5 DUP6 ADD SWAP5 SWAP1 SWAP3 ADD SWAP2 PUSH1 0x1 ADD PUSH2 0x1199 JUMP JUMPDEST ISZERO PUSH2 0x1220 JUMPI JUMP JUMPDEST PUSH1 0x40 MLOAD PUSH3 0x461BCD PUSH1 0xE5 SHL DUP2 MSTORE PUSH1 0x20 PUSH1 0x4 DUP3 ADD MSTORE PUSH1 0x12 PUSH1 0x24 DUP3 ADD MSTORE PUSH18 0x537761702072657475726E6564207A65726F PUSH1 0x70 SHL PUSH1 0x44 DUP3 ADD MSTORE PUSH1 0x64 SWAP1 REVERT JUMPDEST ISZERO PUSH2 0x1261 JUMPI JUMP JUMPDEST PUSH1 0x40 MLOAD PUSH3 0x461BCD PUSH1 0xE5 SHL DUP2 MSTORE PUSH1 0x20 PUSH1 0x4 DUP3 ADD MSTORE PUSH1 0x11 PUSH1 0x24 DUP3 ADD MSTORE PUSH17 0x10995B9C5A481B5A5B9D0819985A5B1959 PUSH1 0x7A SHL PUSH1 0x44 DUP3 ADD MSTORE PUSH1 0x64 SWAP1 REVERT JUMPDEST ISZERO PUSH2 0x12A1 JUMPI JUMP JUMPDEST PUSH1 0x40 MLOAD PUSH3 0x461BCD PUSH1 0xE5 SHL DUP2 MSTORE PUSH1 0x20 PUSH1 0x4 DUP3 ADD MSTORE PUSH1 0x14 PUSH1 0x24 DUP3 ADD MSTORE PUSH20 0x139BC81C5A551BDAD95B9CC81C9958D95A5D9959 PUSH1 0x62 SHL PUSH1 0x44 DUP3 ADD MSTORE PUSH1 0x64 SWAP1 REVERT JUMPDEST SWAP1 DUP2 PUSH1 0x20 SWAP2 SUB SLT PUSH2 0x4D6 JUMPI MLOAD DUP1 ISZERO ISZERO DUP2 SUB PUSH2 0x4D6 JUMPI SWAP1 JUMP JUMPDEST SWAP2 SWAP1 DUP2 LT ISZERO PUSH2 0x1102 JUMPI PUSH1 0x5 SHL ADD SWAP1 JUMP JUMPDEST CALLDATALOAD PUSH1 0x1 PUSH1 0x1 PUSH1 0xA0 SHL SUB DUP2 AND DUP2 SUB PUSH2 0x4D6 JUMPI SWAP1 JUMP JUMPDEST PUSH1 0x2 PUSH1 0x0 DUP1 MLOAD PUSH1 0x20 PUSH2 0x1729 DUP4 CODECOPY DUP2 MLOAD SWAP2 MSTORE SLOAD EQ PUSH2 0x1344 JUMPI PUSH1 0x2 PUSH1 0x0 DUP1 MLOAD PUSH1 0x20 PUSH2 0x1729 DUP4 CODECOPY DUP2 MLOAD SWAP2 MSTORE SSTORE JUMP JUMPDEST PUSH4 0x3EE5AEB5 PUSH1 0xE0 SHL PUSH1 0x0 MSTORE PUSH1 0x4 PUSH1 0x0 REVERT JUMPDEST PUSH1 0x40 MLOAD PUSH4 0x23B872DD PUSH1 0xE0 SHL PUSH1 0x0 SWAP1 DUP2 MSTORE PUSH1 0x1 PUSH1 0x1 PUSH1 0xA0 SHL SUB SWAP3 DUP4 AND PUSH1 0x4 MSTORE SWAP3 SWAP1 SWAP2 AND PUSH1 0x24 MSTORE PUSH1 0x44 SWAP3 SWAP1 SWAP3 MSTORE PUSH1 0x20 SWAP1 PUSH1 0x64 DUP2 DUP1 PUSH20 0xB97EF9EF8734C71904D8002F8B6BC66DD9C48A6E GAS CALL SWAP1 PUSH1 0x1 PUSH1 0x0 MLOAD EQ DUP3 AND ISZERO PUSH2 0x13E5 JUMPI JUMPDEST PUSH1 0x40 MSTORE PUSH1 0x0 PUSH1 0x60 MSTORE ISZERO PUSH2 0x13BC JUMPI JUMP JUMPDEST PUSH4 0x5274AFE7 PUSH1 0xE0 SHL PUSH1 0x0 MSTORE PUSH20 0xB97EF9EF8734C71904D8002F8B6BC66DD9C48A6E PUSH1 0x4 MSTORE PUSH1 0x24 PUSH1 0x0 REVERT JUMPDEST SWAP1 PUSH1 0x1 DUP2 ISZERO AND PUSH2 0x1411 JUMPI PUSH20 0xB97EF9EF8734C71904D8002F8B6BC66DD9C48A6E EXTCODESIZE ISZERO ISZERO RETURNDATASIZE ISZERO AND AND SWAP1 PUSH2 0x13AD JUMP JUMPDEST POP RETURNDATASIZE PUSH1 0x0 DUP3 RETURNDATACOPY RETURNDATASIZE SWAP1 REVERT JUMPDEST PUSH2 0x144E DUP2 PUSH20 0x9A93A421B74F1C5755B83DD2C211614DC419C44B PUSH20 0xB97EF9EF8734C71904D8002F8B6BC66DD9C48A6E PUSH2 0x1628 JUMP JUMPDEST ISZERO PUSH2 0x1456 JUMPI POP JUMP JUMPDEST PUSH2 0x1488 PUSH20 0x9A93A421B74F1C5755B83DD2C211614DC419C44B PUSH20 0xB97EF9EF8734C71904D8002F8B6BC66DD9C48A6E PUSH2 0x1682 JUMP JUMPDEST ISZERO PUSH2 0x13BC JUMPI PUSH2 0x14C0 SWAP1 PUSH20 0x9A93A421B74F1C5755B83DD2C211614DC419C44B PUSH20 0xB97EF9EF8734C71904D8002F8B6BC66DD9C48A6E PUSH2 0x16EA JUMP JUMPDEST ISZERO PUSH2 0x13BC JUMPI JUMP JUMPDEST PUSH2 0x14F4 DUP2 PUSH1 0x0 DUP1 MLOAD PUSH1 0x20 PUSH2 0x1749 DUP4 CODECOPY DUP2 MLOAD SWAP2 MSTORE PUSH20 0xB31F66AA3C1E785363F0875A1B74E27B85FD66C7 PUSH2 0x1628 JUMP JUMPDEST ISZERO PUSH2 0x14FC JUMPI POP JUMP JUMPDEST PUSH2 0x1528 PUSH1 0x0 DUP1 MLOAD PUSH1 0x20 PUSH2 0x1749 DUP4 CODECOPY DUP2 MLOAD SWAP2 MSTORE PUSH20 0xB31F66AA3C1E785363F0875A1B74E27B85FD66C7 PUSH2 0x1682 JUMP JUMPDEST ISZERO PUSH2 0x1561 JUMPI PUSH2 0x155A SWAP1 PUSH1 0x0 DUP1 MLOAD PUSH1 0x20 PUSH2 0x1749 DUP4 CODECOPY DUP2 MLOAD SWAP2 MSTORE PUSH20 0xB31F66AA3C1E785363F0875A1B74E27B85FD66C7 PUSH2 0x16EA JUMP JUMPDEST ISZERO PUSH2 0x1561 JUMPI JUMP JUMPDEST PUSH4 0x5274AFE7 PUSH1 0xE0 SHL PUSH1 0x0 MSTORE PUSH20 0xB31F66AA3C1E785363F0875A1B74E27B85FD66C7 PUSH1 0x4 MSTORE PUSH1 0x24 PUSH1 0x0 REVERT JUMPDEST PUSH1 0x40 MLOAD PUSH4 0xA9059CBB PUSH1 0xE0 SHL PUSH1 0x0 SWAP1 DUP2 MSTORE PUSH1 0x1 PUSH1 0x1 PUSH1 0xA0 SHL SUB SWAP1 SWAP3 AND PUSH1 0x4 MSTORE PUSH1 0x24 SWAP3 SWAP1 SWAP3 MSTORE PUSH1 0x20 SWAP1 PUSH1 0x44 DUP2 DUP1 PUSH1 0x0 DUP1 MLOAD PUSH1 0x20 PUSH2 0x1749 DUP4 CODECOPY DUP2 MLOAD SWAP2 MSTORE GAS CALL SWAP1 PUSH1 0x1 PUSH1 0x0 MLOAD EQ DUP3 AND ISZERO PUSH2 0x1602 JUMPI JUMPDEST PUSH1 0x40 MSTORE ISZERO PUSH2 0x15DF JUMPI JUMP JUMPDEST PUSH4 0x5274AFE7 PUSH1 0xE0 SHL PUSH1 0x0 MSTORE PUSH1 0x0 DUP1 MLOAD PUSH1 0x20 PUSH2 0x1749 DUP4 CODECOPY DUP2 MLOAD SWAP2 MSTORE PUSH1 0x4 MSTORE PUSH1 0x24 PUSH1 0x0 REVERT JUMPDEST SWAP1 PUSH1 0x1 DUP2 ISZERO AND PUSH2 0x1411 JUMPI PUSH1 0x0 DUP1 MLOAD PUSH1 0x20 PUSH2 0x1749 DUP4 CODECOPY DUP2 MLOAD SWAP2 MSTORE EXTCODESIZE ISZERO ISZERO RETURNDATASIZE ISZERO AND AND SWAP1 PUSH2 0x15D5 JUMP JUMPDEST PUSH1 0x40 MLOAD PUSH4 0x95EA7B3 PUSH1 0xE0 SHL PUSH1 0x0 SWAP1 DUP2 MSTORE PUSH1 0x1 PUSH1 0x1 PUSH1 0xA0 SHL SUB SWAP1 SWAP4 AND PUSH1 0x4 MSTORE PUSH1 0x24 SWAP4 SWAP1 SWAP4 MSTORE SWAP1 SWAP3 SWAP2 SWAP1 PUSH1 0x20 DUP5 PUSH1 0x44 DUP2 DUP1 DUP6 GAS CALL SWAP4 PUSH1 0x1 DUP2 MLOAD EQ DUP6 AND ISZERO PUSH2 0x166F JUMPI JUMPDEST POP POP PUSH1 0x40 MSTORE JUMP JUMPDEST SWAP4 SWAP2 SWAP4 POP EXTCODESIZE ISZERO ISZERO RETURNDATASIZE ISZERO AND AND SWAP2 CODESIZE DUP1 PUSH2 0x1668 JUMP JUMPDEST PUSH1 0x40 MLOAD PUSH4 0x95EA7B3 PUSH1 0xE0 SHL PUSH1 0x0 SWAP1 DUP2 MSTORE PUSH1 0x1 PUSH1 0x1 PUSH1 0xA0 SHL SUB SWAP1 SWAP4 AND PUSH1 0x4 MSTORE PUSH1 0x24 DUP4 SWAP1 MSTORE SWAP1 SWAP3 SWAP2 PUSH1 0x20 SWAP1 PUSH1 0x44 DUP2 DUP1 DUP8 GAS CALL SWAP3 PUSH1 0x1 PUSH1 0x0 MLOAD EQ DUP5 AND ISZERO PUSH2 0x16C7 JUMPI JUMPDEST POP PUSH1 0x40 MSTORE JUMP JUMPDEST PUSH1 0x1 DUP5 SWAP3 SWAP5 ISZERO AND PUSH2 0x16E0 JUMPI EXTCODESIZE ISZERO ISZERO RETURNDATASIZE ISZERO AND AND SWAP2 CODESIZE PUSH2 0x16C1 JUMP JUMPDEST DUP4 RETURNDATASIZE PUSH1 0x0 DUP3 RETURNDATACOPY RETURNDATASIZE SWAP1 REVERT JUMPDEST SWAP3 SWAP2 PUSH1 0x40 MLOAD SWAP2 PUSH4 0x95EA7B3 PUSH1 0xE0 SHL PUSH1 0x0 MSTORE PUSH1 0x1 DUP1 PUSH1 0xA0 SHL SUB AND PUSH1 0x4 MSTORE PUSH1 0x24 MSTORE PUSH1 0x20 PUSH1 0x0 PUSH1 0x44 DUP2 DUP1 DUP8 GAS CALL SWAP3 PUSH1 0x1 PUSH1 0x0 MLOAD EQ DUP5 AND ISZERO PUSH2 0x16C7 JUMPI POP PUSH1 0x40 MSTORE JUMP INVALID SWAP12 PUSH24 0x9B17422D0DF92223018B32B4D1FA46E071723D6817E2486D STOP EXTCODESIZE 0xEC 0xC5 PUSH0 STOP STOP STOP STOP STOP STOP STOP STOP STOP STOP STOP STOP STOP TLOAD DIV ADD 0xE8 0x1E PUSH10 0x53A22C95311BC54060BD 0xE8 0x4B LT 0x22 LOG2 PUSH5 0x6970667358 0x22 SLT KECCAK256 0xF8 0xBD DUP10 SLT CHAINID 0xA5 0xD5 SHL 0xB3 0xBE SWAP9 0xAD GASLIMIT 0xAC 0x4C TSTORE 0xD7 0xE6 SELFBALANCE CALL ORIGIN PUSH13 0x2C3A464D6AEC553DCD4964736F PUSH13 0x634300081C0033000000000000 "
        },
        "methodIdentifiers": {
          "BENQI_qiAVAX()": "be424af3",
          "LB_ROUTER()": "07f03d44",
          "PRECISION()": "aaf5eb68",
          "SLIPPAGE()": "36b4134a",
          "USDC()": "89a30271",
          "WAVAX()": "73b295c2",
          "_executeInternal(address)": "ec7d7df5",
          "burnTracker()": "d306254d",
          "executeBatch(address[])": "5bbf3783",
          "executeDCA(address)": "3be37e79",
          "factory()": "c45a0155",
          "factoryLocked()": "f2355bac",
          "getConfig()": "c3f909d4",
          "isReady()": "a094a031",
          "setFactory(address)": "5bb47808"
        }
      }
    }
  }
}