{
  "contracts/BurnTracker.sol": {
    "BurnTracker": {
      "abi": [
        {
          "anonymous": false,
          "inputs": [
            {
              "indexed": false,
              "internalType": "address",
              "name": "user",
              "type": "address"
            },
            {
              "indexed": false,
              "internalType": "uint256",
              "name": "gasUsed",
              "type": "uint256"
            },
            {
              "indexed": false,
              "internalType": "uint256",
              "name": "txCount",
              "type": "uint256"
            }
          ],
          "name": "GasTracked",
          "type": "event"
        },
        {
          "inputs": [],
          "name": "getMyStats",
          "outputs": [
            {
              "components": [
                {
                  "internalType": "uint256",
                  "name": "totalGasUsed",
                  "type": "uint256"
                },
                {
                  "internalType": "uint256",
                  "name": "totalTransactions",
                  "type": "uint256"
                },
                {
                  "internalType": "uint256",
                  "name": "avaxBurned",
                  "type": "uint256"
                }
              ],
              "internalType": "struct BurnTracker.UserStats",
              "name": "",
              "type": "tuple"
            }
          ],
          "stateMutability": "view",
          "type": "function"
        },
        {
          "inputs": [
            {
              "internalType": "address",
              "name": "user",
              "type": "address"
            },
            {
              "internalType": "uint256",
              "name": "gasUsed",
              "type": "uint256"
            },
            {
              "internalType": "uint256",
              "name": "txCount",
              "type": "uint256"
            }
          ],
          "name": "recordUsage",
          "outputs": [],
          "stateMutability": "nonpayable",
          "type": "function"
        },
        {
          "inputs": [
            {
              "internalType": "address",
              "name": "",
              "type": "address"
            }
          ],
          "name": "userStats",
          "outputs": [
            {
              "internalType": "uint256",
              "name": "totalGasUsed",
              "type": "uint256"
            },
            {
              "internalType": "uint256",
              "name": "totalTransactions",
              "type": "uint256"
            },
            {
              "internalType": "uint256",
              "name": "avaxBurned",
              "type": "uint256"
            }
          ],
          "stateMutability": "view",
          "type": "function"
        }
      ],
      "evm": {
        "bytecode": {
          "linkReferences": {},
          "object": "60808060405234601557610263908161001b8239f35b600080fdfe6080604052600436101561001257600080fd5b60003560e01c8063287bbb3d146101055780637a52723e1461009357638a65d8741461003d57600080fd5b3461008e57602036600319011261008e576001600160a01b0361005e6101d4565b16600052600060205260606040600020805490600260018201549101549060405192835260208301526040820152f35b600080fd5b3461008e57600036600319011261008e57600060406100b06101f7565b8281528260208201520152336000526000602052606060406000206100d36101f7565b815491828252604060026001830154926020850193845201549201918252604051928352516020830152516040820152f35b3461008e57606036600319011261008e5761011e6101d4565b602435906044359060018060a01b03168060005260006020526040600020916101488484546101ea565b8355600183016101598282546101ea565b90556405d21dba008402938085046405d21dba0014811517156101be577fc8d15027016f06bce945af08d67204532f647fe6ea775c5e663a923a85ab1336946101a96002606096019182546101ea565b905560405192835260208301526040820152a1005b634e487b7160e01b600052601160045260246000fd5b600435906001600160a01b038216820361008e57565b919082018092116101be57565b604051906060820182811067ffffffffffffffff82111761021757604052565b634e487b7160e01b600052604160045260246000fdfea26469706673582212202bedc11d2a5a4a871477c127ce97dcb732ffcec3738c3d31445136d5c802764c64736f6c634300081c0033",
          "opcodes": "PUSH1 0x80 DUP1 PUSH1 0x40 MSTORE CALLVALUE PUSH1 0x15 JUMPI PUSH2 0x263 SWAP1 DUP2 PUSH2 0x1B DUP3 CODECOPY RETURN JUMPDEST PUSH1 0x0 DUP1 REVERT INVALID PUSH1 0x80 PUSH1 0x40 MSTORE PUSH1 0x4 CALLDATASIZE LT ISZERO PUSH2 0x12 JUMPI PUSH1 0x0 DUP1 REVERT JUMPDEST PUSH1 0x0 CALLDATALOAD PUSH1 0xE0 SHR DUP1 PUSH4 0x287BBB3D EQ PUSH2 0x105 JUMPI DUP1 PUSH4 0x7A52723E EQ PUSH2 0x93 JUMPI PUSH4 0x8A65D874 EQ PUSH2 0x3D JUMPI PUSH1 0x0 DUP1 REVERT JUMPDEST CALLVALUE PUSH2 0x8E JUMPI PUSH1 0x20 CALLDATASIZE PUSH1 0x3 NOT ADD SLT PUSH2 0x8E JUMPI PUSH1 0x1 PUSH1 0x1 PUSH1 0xA0 SHL SUB PUSH2 0x5E PUSH2 0x1D4 JUMP JUMPDEST AND PUSH1 0x0 MSTORE PUSH1 0x0 PUSH1 0x20 MSTORE PUSH1 0x60 PUSH1 0x40 PUSH1 0x0 KECCAK256 DUP1 SLOAD SWAP1 PUSH1 0x2 PUSH1 0x1 DUP3 ADD SLOAD SWAP2 ADD SLOAD SWAP1 PUSH1 0x40 MLOAD SWAP3 DUP4 MSTORE PUSH1 0x20 DUP4 ADD MSTORE PUSH1 0x40 DUP3 ADD MSTORE RETURN JUMPDEST PUSH1 0x0 DUP1 REVERT JUMPDEST CALLVALUE PUSH2 0x8E JUMPI PUSH1 0x0 CALLDATASIZE PUSH1 0x3 NOT ADD SLT PUSH2 0x8E JUMPI PUSH1 0x0 PUSH1 0x40 PUSH2 0xB0 PUSH2 0x1F7 JUMP JUMPDEST DUP3 DUP2 MSTORE DUP3 PUSH1 0x20 DUP3 ADD MSTORE ADD MSTORE CALLER PUSH1 0x0 MSTORE PUSH1 0x0 PUSH1 0x20 MSTORE PUSH1 0x60 PUSH1 0x40 PUSH1 0x0 KECCAK256 PUSH2 0xD3 PUSH2 0x1F7 JUMP JUMPDEST DUP2 SLOAD SWAP2 DUP3 DUP3 MSTORE PUSH1 0x40 PUSH1 0x2 PUSH1 0x1 DUP4 ADD SLOAD SWAP3 PUSH1 0x20 DUP6 ADD SWAP4 DUP5 MSTORE ADD SLOAD SWAP3 ADD SWAP2 DUP3 MSTORE PUSH1 0x40 MLOAD SWAP3 DUP4 MSTORE MLOAD PUSH1 0x20 DUP4 ADD MSTORE MLOAD PUSH1 0x40 DUP3 ADD MSTORE RETURN JUMPDEST CALLVALUE PUSH2 0x8E JUMPI PUSH1 0x60 CALLDATASIZE PUSH1 0x3 NOT ADD SLT PUSH2 0x8E JUMPI PUSH2 0x11E PUSH2 0x1D4 JUMP JUMPDEST PUSH1 0x24 CALLDATALOAD SWAP1 PUSH1 0x44 CALLDATALOAD SWAP1 PUSH1 0x1 DUP1 PUSH1 0xA0 SHL SUB AND DUP1 PUSH1 0x0 MSTORE PUSH1 0x0 PUSH1 0x20 MSTORE PUSH1 0x40 PUSH1 0x0 KECCAK256 SWAP2 PUSH2 0x148 DUP5 DUP5 SLOAD PUSH2 0x1EA JUMP JUMPDEST DUP4 SSTORE PUSH1 0x1 DUP4 ADD PUSH2 0x159 DUP3 DUP3 SLOAD PUSH2 0x1EA JUMP JUMPDEST SWAP1 SSTORE PUSH5 0x5D21DBA00 DUP5 MUL SWAP4 DUP1 DUP6 DIV PUSH5 0x5D21DBA00 EQ DUP2 ISZERO OR ISZERO PUSH2 0x1BE JUMPI PUSH32 0xC8D15027016F06BCE945AF08D67204532F647FE6EA775C5E663A923A85AB1336 SWAP5 PUSH2 0x1A9 PUSH1 0x2 PUSH1 0x60 SWAP7 ADD SWAP2 DUP3 SLOAD PUSH2 0x1EA JUMP JUMPDEST SWAP1 SSTORE PUSH1 0x40 MLOAD SWAP3 DUP4 MSTORE PUSH1 0x20 DUP4 ADD MSTORE PUSH1 0x40 DUP3 ADD MSTORE LOG1 STOP JUMPDEST PUSH4 0x4E487B71 PUSH1 0xE0 SHL PUSH1 0x0 MSTORE PUSH1 0x11 PUSH1 0x4 MSTORE PUSH1 0x24 PUSH1 0x0 REVERT JUMPDEST PUSH1 0x4 CALLDATALOAD SWAP1 PUSH1 0x1 PUSH1 0x1 PUSH1 0xA0 SHL SUB DUP3 AND DUP3 SUB PUSH2 0x8E JUMPI JUMP JUMPDEST SWAP2 SWAP1 DUP3 ADD DUP1 SWAP3 GT PUSH2 0x1BE JUMPI JUMP JUMPDEST PUSH1 0x40 MLOAD SWAP1 PUSH1 0x60 DUP3 ADD DUP3 DUP2 LT PUSH8 0xFFFFFFFFFFFFFFFF DUP3 GT OR PUSH2 0x217 JUMPI PUSH1 0x40 MSTORE JUMP JUMPDEST PUSH4 0x4E487B71 PUSH1 0xE0 SHL PUSH1 0x0 MSTORE PUSH1 0x41 PUSH1 0x4 MSTORE PUSH1 0x24 PUSH1 0x0 REVERT INVALID LOG2 PUSH5 0x6970667358 0x22 SLT KECCAK256 0x2B 0xED 0xC1 SAR 0x2A GAS BLOBBASEFEE DUP8 EQ PUSH24 0xC127CE97DCB732FFCEC3738C3D31445136D5C802764C6473 PUSH16 0x6C634300081C00330000000000000000 "
        },
        "methodIdentifiers": {
          "getMyStats()": "7a52723e",
          "recordUsage(address,uint256,uint256)": "287bbb3d",
          "userStats(address)": "8a65d874"
        }
      }
    }
  }
}